{"abi":[{"inputs":[{"internalType":"uint256","name":"","type":"uint256"}],"name":"PartnerOffers","outputs":[{"internalType":"string","name":"description","type":"string"},{"internalType":"bool","name":"choixPart","type":"bool"}],"stateMutability":"view","type":"function"},{"inputs":[{"internalType":"string","name":"_nomAppareil","type":"string"},{"internalType":"uint256","name":"_puissance","type":"uint256"},{"internalType":"uint256","name":"_heuresUtilisation","type":"uint256"}],"name":"ajouterAppareil","outputs":[],"stateMutability":"nonpayable","type":"function"},{"inputs":[{"internalType":"string","name":"_nomMarque","type":"string"},{"internalType":"uint256","name":"_prix","type":"uint256"},{"internalType":"uint256","name":"_production","type":"uint256"}],"name":"ajouterMarquePanneau","outputs":[],"stateMutability":"nonpayable","type":"function"},{"inputs":[{"internalType":"string","name":"_nomPartenaire","type":"string"}],"name":"ajouterPartenaire","outputs":[],"stateMutability":"nonpayable","type":"function"},{"inputs":[{"internalType":"uint256","name":"","type":"uint256"}],"name":"appareils","outputs":[{"internalType":"string","name":"nomAppareil","type":"string"},{"internalType":"uint256","name":"puissance","type":"uint256"},{"internalType":"uint256","name":"heuresUtilisation","type":"uint256"}],"stateMutability":"view","type":"function"},{"inputs":[{"internalType":"uint256","name":"index","type":"uint256"}],"name":"approveRequest","outputs":[],"stateMutability":"nonpayable","type":"function"},{"inputs":[{"internalType":"address","name":"","type":"address"}],"name":"approvers","outputs":[{"internalType":"bool","name":"","type":"bool"}],"stateMutability":"view","type":"function"},{"inputs":[],"name":"approvsCount","outputs":[{"internalType":"uint256","name":"","type":"uint256"}],"stateMutability":"view","type":"function"},{"inputs":[{"internalType":"uint256","name":"_nombrePersonnes","type":"uint256"},{"internalType":"uint256","name":"_surfaceMaison","type":"uint256"},{"internalType":"uint256","name":"_nombreChambres","type":"uint256"}],"name":"calculerConsommation","outputs":[],"stateMutability":"nonpayable","type":"function"},{"inputs":[{"internalType":"uint256","name":"_kWClient","type":"uint256"},{"internalType":"uint256","name":"_prixPanneau","type":"uint256"},{"internalType":"uint256","name":"_productionPanneau","type":"uint256"}],"name":"calculerPrixInstallation","outputs":[{"internalType":"uint256","name":"","type":"uint256"}],"stateMutability":"pure","type":"function"},{"inputs":[{"internalType":"uint256","name":"","type":"uint256"}],"name":"campaigns","outputs":[{"internalType":"address","name":"projectOwner","type":"address"},{"internalType":"uint256","name":"consomationYear","type":"uint256"},{"internalType":"string","name":"description","type":"string"},{"internalType":"uint256","name":"limiteconsomation","type":"uint256"},{"internalType":"uint256","name":"joursOffre","type":"uint256"}],"stateMutability":"view","type":"function"},{"inputs":[],"name":"consommationTotale","outputs":[{"internalType":"uint256","name":"","type":"uint256"}],"stateMutability":"view","type":"function"},{"inputs":[],"name":"contribute","outputs":[{"internalType":"uint256","name":"","type":"uint256"}],"stateMutability":"payable","type":"function"},{"inputs":[{"internalType":"uint256","name":"consomationYear","type":"uint256"},{"internalType":"string","name":"description","type":"string"},{"internalType":"uint256","name":"limiteconsomation","type":"uint256"},{"internalType":"uint256","name":"joursOffre","type":"uint256"}],"name":"createCampaign","outputs":[],"stateMutability":"nonpayable","type":"function"},{"inputs":[{"internalType":"string","name":"description","type":"string"}],"name":"createOfferPAr","outputs":[],"stateMutability":"nonpayable","type":"function"},{"inputs":[{"internalType":"string","name":"description","type":"string"},{"internalType":"uint256","name":"value","type":"uint256"},{"internalType":"address","name":"recipient","type":"address"}],"name":"createRequest","outputs":[],"stateMutability":"nonpayable","type":"function"},{"inputs":[{"internalType":"uint256","name":"","type":"uint256"}],"name":"deployedCamapigns","outputs":[{"internalType":"address","name":"","type":"address"}],"stateMutability":"view","type":"function"},{"inputs":[{"internalType":"uint256","name":"index","type":"uint256"}],"name":"finalizeRequest","outputs":[],"stateMutability":"nonpayable","type":"function"},{"inputs":[],"name":"getCampaignCount","outputs":[{"internalType":"uint256","name":"","type":"uint256"}],"stateMutability":"view","type":"function"},{"inputs":[{"internalType":"uint256","name":"index","type":"uint256"}],"name":"getConsommationParAppareil","outputs":[{"internalType":"string","name":"","type":"string"},{"internalType":"uint256","name":"","type":"uint256"}],"stateMutability":"view","type":"function"},{"inputs":[{"internalType":"string","name":"_nomMarque","type":"string"}],"name":"getMarquePanneauForPartenaire","outputs":[{"internalType":"uint256","name":"prix","type":"uint256"},{"internalType":"uint256","name":"production","type":"uint256"}],"stateMutability":"view","type":"function"},{"inputs":[],"name":"getdeployedCampaign","outputs":[{"internalType":"address[]","name":"","type":"address[]"}],"stateMutability":"view","type":"function"},{"inputs":[{"internalType":"address","name":"","type":"address"}],"name":"listePartenaires","outputs":[{"internalType":"uint256","name":"","type":"uint256"}],"stateMutability":"view","type":"function"},{"inputs":[],"name":"manager","outputs":[{"internalType":"address","name":"","type":"address"}],"stateMutability":"view","type":"function"},{"inputs":[],"name":"nombreAppareils","outputs":[{"internalType":"uint256","name":"","type":"uint256"}],"stateMutability":"view","type":"function"},{"inputs":[],"name":"nombreChambres","outputs":[{"internalType":"uint256","name":"","type":"uint256"}],"stateMutability":"view","type":"function"},{"inputs":[],"name":"nombrePersonnes","outputs":[{"internalType":"uint256","name":"","type":"uint256"}],"stateMutability":"view","type":"function"},{"inputs":[{"internalType":"uint256","name":"","type":"uint256"}],"name":"partenaires","outputs":[{"internalType":"string","name":"nomPartenaire","type":"string"},{"internalType":"address","name":"PartenaireAddress","type":"address"}],"stateMutability":"view","type":"function"},{"inputs":[{"internalType":"uint256","name":"","type":"uint256"}],"name":"requests","outputs":[{"internalType":"string","name":"description","type":"string"},{"internalType":"uint256","name":"value","type":"uint256"},{"internalType":"address","name":"recipient","type":"address"},{"internalType":"bool","name":"complete","type":"bool"},{"internalType":"uint256","name":"approvalCount","type":"uint256"}],"stateMutability":"view","type":"function"},{"inputs":[],"name":"surfaceMaison","outputs":[{"internalType":"uint256","name":"","type":"uint256"}],"stateMutability":"view","type":"function"}],"devdoc":{"kind":"dev","methods":{},"version":1},"evm":{"assembly":"    /* \"Campaign.sol\":65:6871  contract Campaign{... */\n  mstore(0x40, 0x80)\n  callvalue\n  dup1\n  iszero\n  tag_1\n  jumpi\n  0x00\n  dup1\n  revert\ntag_1:\n  pop\n  dataSize(sub_0)\n  dup1\n  dataOffset(sub_0)\n  0x00\n  codecopy\n  0x00\n  return\nstop\n\nsub_0: assembly {\n        /* \"Campaign.sol\":65:6871  contract Campaign{... */\n      mstore(0x40, 0x80)\n      jumpi(tag_1, lt(calldatasize, 0x04))\n      shr(0xe0, calldataload(0x00))\n      dup1\n      0x792cac3b\n      gt\n      tag_32\n      jumpi\n      dup1\n      0xa37189cb\n      gt\n      tag_33\n      jumpi\n      dup1\n      0xd7d1bbdb\n      gt\n      tag_34\n      jumpi\n      dup1\n      0xd7d1bbdb\n      eq\n      tag_28\n      jumpi\n      dup1\n      0xf6ba317d\n      eq\n      tag_29\n      jumpi\n      dup1\n      0xfc81f5ad\n      eq\n      tag_30\n      jumpi\n      dup1\n      0xfd958403\n      eq\n      tag_31\n      jumpi\n      jump(tag_1)\n    tag_34:\n      dup1\n      0xa37189cb\n      eq\n      tag_24\n      jumpi\n      dup1\n      0xa4a66431\n      eq\n      tag_25\n      jumpi\n      dup1\n      0xaaa17235\n      eq\n      tag_26\n      jumpi\n      dup1\n      0xd7bb99ba\n      eq\n      tag_27\n      jumpi\n      jump(tag_1)\n    tag_33:\n      dup1\n      0x8a9cfd55\n      gt\n      tag_35\n      jumpi\n      dup1\n      0x8a9cfd55\n      eq\n      tag_20\n      jumpi\n      dup1\n      0x91cf26f6\n      eq\n      tag_21\n      jumpi\n      dup1\n      0x962e7f62\n      eq\n      tag_22\n      jumpi\n      dup1\n      0x9d7cdd6f\n      eq\n      tag_23\n      jumpi\n      jump(tag_1)\n    tag_35:\n      dup1\n      0x792cac3b\n      eq\n      tag_17\n      jumpi\n      dup1\n      0x81d12c58\n      eq\n      tag_18\n      jumpi\n      dup1\n      0x87859ad0\n      eq\n      tag_19\n      jumpi\n      jump(tag_1)\n    tag_32:\n      dup1\n      0x208b7e9a\n      gt\n      tag_36\n      jumpi\n      dup1\n      0x4cda853b\n      gt\n      tag_37\n      jumpi\n      dup1\n      0x4cda853b\n      eq\n      tag_13\n      jumpi\n      dup1\n      0x51a0a6d2\n      eq\n      tag_14\n      jumpi\n      dup1\n      0x6c9ff6b9\n      eq\n      tag_15\n      jumpi\n      dup1\n      0x6caa9218\n      eq\n      tag_16\n      jumpi\n      jump(tag_1)\n    tag_37:\n      dup1\n      0x208b7e9a\n      eq\n      tag_9\n      jumpi\n      dup1\n      0x22fa19bc\n      eq\n      tag_10\n      jumpi\n      dup1\n      0x46b8df2e\n      eq\n      tag_11\n      jumpi\n      dup1\n      0x481c6a75\n      eq\n      tag_12\n      jumpi\n      jump(tag_1)\n    tag_36:\n      dup1\n      0x0600d8fc\n      gt\n      tag_38\n      jumpi\n      dup1\n      0x0600d8fc\n      eq\n      tag_5\n      jumpi\n      dup1\n      0x0a144391\n      eq\n      tag_6\n      jumpi\n      dup1\n      0x141961bc\n      eq\n      tag_7\n      jumpi\n      dup1\n      0x15a252e3\n      eq\n      tag_8\n      jumpi\n      jump(tag_1)\n    tag_38:\n      dup1\n      0xb0d0d5\n      eq\n      tag_2\n      jumpi\n      dup1\n      0x02fb6955\n      eq\n      tag_3\n      jumpi\n      dup1\n      0x03441006\n      eq\n      tag_4\n      jumpi\n    tag_1:\n      0x00\n      dup1\n      revert\n        /* \"Campaign.sol\":4333:4614  function calculerPrixInstallation(uint256 _kWClient, uint256 _prixPanneau, uint256 _productionPanneau) public pure returns (uint256) {... */\n    tag_2:\n      callvalue\n      dup1\n      iszero\n      tag_39\n      jumpi\n      0x00\n      dup1\n      revert\n    tag_39:\n      pop\n      tag_40\n      0x04\n      dup1\n      calldatasize\n      sub\n      dup2\n      add\n      swap1\n      tag_41\n      swap2\n      swap1\n      tag_42\n      jump\t// in\n    tag_41:\n      tag_43\n      jump\t// in\n    tag_40:\n      mload(0x40)\n      tag_44\n      swap2\n      swap1\n      tag_45\n      jump\t// in\n    tag_44:\n      mload(0x40)\n      dup1\n      swap2\n      sub\n      swap1\n      return\n        /* \"Campaign.sol\":274:309  address[] public  deployedCamapigns */\n    tag_3:\n      callvalue\n      dup1\n      iszero\n      tag_46\n      jumpi\n      0x00\n      dup1\n      revert\n    tag_46:\n      pop\n      tag_47\n      0x04\n      dup1\n      calldatasize\n      sub\n      dup2\n      add\n      swap1\n      tag_48\n      swap2\n      swap1\n      tag_49\n      jump\t// in\n    tag_48:\n      tag_50\n      jump\t// in\n    tag_47:\n      mload(0x40)\n      tag_51\n      swap2\n      swap1\n      tag_52\n      jump\t// in\n    tag_51:\n      mload(0x40)\n      dup1\n      swap2\n      sub\n      swap1\n      return\n        /* \"Campaign.sol\":3913:4316  function finalizeRequest(uint256 index) public restricted {... */\n    tag_4:\n      callvalue\n      dup1\n      iszero\n      tag_53\n      jumpi\n      0x00\n      dup1\n      revert\n    tag_53:\n      pop\n      tag_54\n      0x04\n      dup1\n      calldatasize\n      sub\n      dup2\n      add\n      swap1\n      tag_55\n      swap2\n      swap1\n      tag_49\n      jump\t// in\n    tag_55:\n      tag_56\n      jump\t// in\n    tag_54:\n      stop\n        /* \"Campaign.sol\":4626:5014  function calculerConsommation(uint256 _nombrePersonnes, uint256 _surfaceMaison, uint256 _nombreChambres) public {... */\n    tag_5:\n      callvalue\n      dup1\n      iszero\n      tag_57\n      jumpi\n      0x00\n      dup1\n      revert\n    tag_57:\n      pop\n      tag_58\n      0x04\n      dup1\n      calldatasize\n      sub\n      dup2\n      add\n      swap1\n      tag_59\n      swap2\n      swap1\n      tag_42\n      jump\t// in\n    tag_59:\n      tag_60\n      jump\t// in\n    tag_58:\n      stop\n        /* \"Campaign.sol\":1769:1809  mapping(address =>bool) public approvers */\n    tag_6:\n      callvalue\n      dup1\n      iszero\n      tag_61\n      jumpi\n      0x00\n      dup1\n      revert\n    tag_61:\n      pop\n      tag_62\n      0x04\n      dup1\n      calldatasize\n      sub\n      dup2\n      add\n      swap1\n      tag_63\n      swap2\n      swap1\n      tag_64\n      jump\t// in\n    tag_63:\n      tag_65\n      jump\t// in\n    tag_62:\n      mload(0x40)\n      tag_66\n      swap2\n      swap1\n      tag_67\n      jump\t// in\n    tag_66:\n      mload(0x40)\n      dup1\n      swap2\n      sub\n      swap1\n      return\n        /* \"Campaign.sol\":318:349  CampaignInfo[] public campaigns */\n    tag_7:\n      callvalue\n      dup1\n      iszero\n      tag_68\n      jumpi\n      0x00\n      dup1\n      revert\n    tag_68:\n      pop\n      tag_69\n      0x04\n      dup1\n      calldatasize\n      sub\n      dup2\n      add\n      swap1\n      tag_70\n      swap2\n      swap1\n      tag_49\n      jump\t// in\n    tag_70:\n      tag_71\n      jump\t// in\n    tag_69:\n      mload(0x40)\n      tag_72\n      swap6\n      swap5\n      swap4\n      swap3\n      swap2\n      swap1\n      tag_73\n      jump\t// in\n    tag_72:\n      mload(0x40)\n      dup1\n      swap2\n      sub\n      swap1\n      return\n        /* \"Campaign.sol\":814:844  uint256 public nombreAppareils */\n    tag_8:\n      callvalue\n      dup1\n      iszero\n      tag_74\n      jumpi\n      0x00\n      dup1\n      revert\n    tag_74:\n      pop\n      tag_75\n      tag_76\n      jump\t// in\n    tag_75:\n      mload(0x40)\n      tag_77\n      swap2\n      swap1\n      tag_45\n      jump\t// in\n    tag_77:\n      mload(0x40)\n      dup1\n      swap2\n      sub\n      swap1\n      return\n        /* \"Campaign.sol\":6419:6863  function getMarquePanneauForPartenaire( string memory _nomMarque) public view returns (uint256 prix, uint256 production) {\t... */\n    tag_9:\n      callvalue\n      dup1\n      iszero\n      tag_78\n      jumpi\n      0x00\n      dup1\n      revert\n    tag_78:\n      pop\n      tag_79\n      0x04\n      dup1\n      calldatasize\n      sub\n      dup2\n      add\n      swap1\n      tag_80\n      swap2\n      swap1\n      tag_81\n      jump\t// in\n    tag_80:\n      tag_82\n      jump\t// in\n    tag_79:\n      mload(0x40)\n      tag_83\n      swap3\n      swap2\n      swap1\n      tag_84\n      jump\t// in\n    tag_83:\n      mload(0x40)\n      dup1\n      swap2\n      sub\n      swap1\n      return\n        /* \"Campaign.sol\":726:755  uint256 public nombreChambres */\n    tag_10:\n      callvalue\n      dup1\n      iszero\n      tag_85\n      jumpi\n      0x00\n      dup1\n      revert\n    tag_85:\n      pop\n      tag_86\n      tag_87\n      jump\t// in\n    tag_86:\n      mload(0x40)\n      tag_88\n      swap2\n      swap1\n      tag_45\n      jump\t// in\n    tag_88:\n      mload(0x40)\n      dup1\n      swap2\n      sub\n      swap1\n      return\n        /* \"Campaign.sol\":5795:6131  function ajouterPartenaire(string memory _nomPartenaire) public {\t... */\n    tag_11:\n      callvalue\n      dup1\n      iszero\n      tag_89\n      jumpi\n      0x00\n      dup1\n      revert\n    tag_89:\n      pop\n      tag_90\n      0x04\n      dup1\n      calldatasize\n      sub\n      dup2\n      add\n      swap1\n      tag_91\n      swap2\n      swap1\n      tag_81\n      jump\t// in\n    tag_91:\n      tag_92\n      jump\t// in\n    tag_90:\n      stop\n        /* \"Campaign.sol\":1739:1761  address public manager */\n    tag_12:\n      callvalue\n      dup1\n      iszero\n      tag_93\n      jumpi\n      0x00\n      dup1\n      revert\n    tag_93:\n      pop\n      tag_94\n      tag_95\n      jump\t// in\n    tag_94:\n      mload(0x40)\n      tag_96\n      swap2\n      swap1\n      tag_52\n      jump\t// in\n    tag_96:\n      mload(0x40)\n      dup1\n      swap2\n      sub\n      swap1\n      return\n        /* \"Campaign.sol\":1277:1325  mapping(address => uint) public listePartenaires */\n    tag_13:\n      callvalue\n      dup1\n      iszero\n      tag_97\n      jumpi\n      0x00\n      dup1\n      revert\n    tag_97:\n      pop\n      tag_98\n      0x04\n      dup1\n      calldatasize\n      sub\n      dup2\n      add\n      swap1\n      tag_99\n      swap2\n      swap1\n      tag_64\n      jump\t// in\n    tag_99:\n      tag_100\n      jump\t// in\n    tag_98:\n      mload(0x40)\n      tag_101\n      swap2\n      swap1\n      tag_45\n      jump\t// in\n    tag_101:\n      mload(0x40)\n      dup1\n      swap2\n      sub\n      swap1\n      return\n        /* \"Campaign.sol\":1962:2618  function createCampaign( uint consomationYear, string memory description, uint limiteconsomation, uint joursOffre) public {... */\n    tag_14:\n      callvalue\n      dup1\n      iszero\n      tag_102\n      jumpi\n      0x00\n      dup1\n      revert\n    tag_102:\n      pop\n      tag_103\n      0x04\n      dup1\n      calldatasize\n      sub\n      dup2\n      add\n      swap1\n      tag_104\n      swap2\n      swap1\n      tag_105\n      jump\t// in\n    tag_104:\n      tag_106\n      jump\t// in\n    tag_103:\n      stop\n        /* \"Campaign.sol\":5509:5787  function getConsommationParAppareil(uint256 index) public view returns (string memory, uint256) {... */\n    tag_15:\n      callvalue\n      dup1\n      iszero\n      tag_107\n      jumpi\n      0x00\n      dup1\n      revert\n    tag_107:\n      pop\n      tag_108\n      0x04\n      dup1\n      calldatasize\n      sub\n      dup2\n      add\n      swap1\n      tag_109\n      swap2\n      swap1\n      tag_49\n      jump\t// in\n    tag_109:\n      tag_110\n      jump\t// in\n    tag_108:\n      mload(0x40)\n      tag_111\n      swap3\n      swap2\n      swap1\n      tag_112\n      jump\t// in\n    tag_111:\n      mload(0x40)\n      dup1\n      swap2\n      sub\n      swap1\n      return\n        /* \"Campaign.sol\":2743:2840  function getCampaignCount() public view returns (uint) {... */\n    tag_16:\n      callvalue\n      dup1\n      iszero\n      tag_113\n      jumpi\n      0x00\n      dup1\n      revert\n    tag_113:\n      pop\n      tag_114\n      tag_115\n      jump\t// in\n    tag_114:\n      mload(0x40)\n      tag_116\n      swap2\n      swap1\n      tag_45\n      jump\t// in\n    tag_116:\n      mload(0x40)\n      dup1\n      swap2\n      sub\n      swap1\n      return\n        /* \"Campaign.sol\":691:719  uint256 public surfaceMaison */\n    tag_17:\n      callvalue\n      dup1\n      iszero\n      tag_117\n      jumpi\n      0x00\n      dup1\n      revert\n    tag_117:\n      pop\n      tag_118\n      tag_119\n      jump\t// in\n    tag_118:\n      mload(0x40)\n      tag_120\n      swap2\n      swap1\n      tag_45\n      jump\t// in\n    tag_120:\n      mload(0x40)\n      dup1\n      swap2\n      sub\n      swap1\n      return\n        /* \"Campaign.sol\":1707:1732  Request[] public requests */\n    tag_18:\n      callvalue\n      dup1\n      iszero\n      tag_121\n      jumpi\n      0x00\n      dup1\n      revert\n    tag_121:\n      pop\n      tag_122\n      0x04\n      dup1\n      calldatasize\n      sub\n      dup2\n      add\n      swap1\n      tag_123\n      swap2\n      swap1\n      tag_49\n      jump\t// in\n    tag_123:\n      tag_124\n      jump\t// in\n    tag_122:\n      mload(0x40)\n      tag_125\n      swap6\n      swap5\n      swap4\n      swap3\n      swap2\n      swap1\n      tag_126\n      jump\t// in\n    tag_125:\n      mload(0x40)\n      dup1\n      swap2\n      sub\n      swap1\n      return\n        /* \"Campaign.sol\":2848:3059  function createOfferPAr(string memory description) public {... */\n    tag_19:\n      callvalue\n      dup1\n      iszero\n      tag_127\n      jumpi\n      0x00\n      dup1\n      revert\n    tag_127:\n      pop\n      tag_128\n      0x04\n      dup1\n      calldatasize\n      sub\n      dup2\n      add\n      swap1\n      tag_129\n      swap2\n      swap1\n      tag_81\n      jump\t// in\n    tag_129:\n      tag_130\n      jump\t// in\n    tag_128:\n      stop\n        /* \"Campaign.sol\":3067:3434  function createRequest(string memory description, uint256 value, address recipient) public restricted {... */\n    tag_20:\n      callvalue\n      dup1\n      iszero\n      tag_131\n      jumpi\n      0x00\n      dup1\n      revert\n    tag_131:\n      pop\n      tag_132\n      0x04\n      dup1\n      calldatasize\n      sub\n      dup2\n      add\n      swap1\n      tag_133\n      swap2\n      swap1\n      tag_134\n      jump\t// in\n    tag_133:\n      tag_135\n      jump\t// in\n    tag_132:\n      stop\n        /* \"Campaign.sol\":5022:5501  function ajouterAppareil(string memory _nomAppareil, uint256 _puissance, uint256 _heuresUtilisation) public {... */\n    tag_21:\n      callvalue\n      dup1\n      iszero\n      tag_136\n      jumpi\n      0x00\n      dup1\n      revert\n    tag_136:\n      pop\n      tag_137\n      0x04\n      dup1\n      calldatasize\n      sub\n      dup2\n      add\n      swap1\n      tag_138\n      swap2\n      swap1\n      tag_139\n      jump\t// in\n    tag_138:\n      tag_140\n      jump\t// in\n    tag_137:\n      stop\n        /* \"Campaign.sol\":762:807  mapping(uint256 => Appareil) public appareils */\n    tag_22:\n      callvalue\n      dup1\n      iszero\n      tag_141\n      jumpi\n      0x00\n      dup1\n      revert\n    tag_141:\n      pop\n      tag_142\n      0x04\n      dup1\n      calldatasize\n      sub\n      dup2\n      add\n      swap1\n      tag_143\n      swap2\n      swap1\n      tag_49\n      jump\t// in\n    tag_143:\n      tag_144\n      jump\t// in\n    tag_142:\n      mload(0x40)\n      tag_145\n      swap4\n      swap3\n      swap2\n      swap1\n      tag_146\n      jump\t// in\n    tag_145:\n      mload(0x40)\n      dup1\n      swap2\n      sub\n      swap1\n      return\n        /* \"Campaign.sol\":1231:1262  Partenaire[] public partenaires */\n    tag_23:\n      callvalue\n      dup1\n      iszero\n      tag_147\n      jumpi\n      0x00\n      dup1\n      revert\n    tag_147:\n      pop\n      tag_148\n      0x04\n      dup1\n      calldatasize\n      sub\n      dup2\n      add\n      swap1\n      tag_149\n      swap2\n      swap1\n      tag_49\n      jump\t// in\n    tag_149:\n      tag_150\n      jump\t// in\n    tag_148:\n      mload(0x40)\n      tag_151\n      swap3\n      swap2\n      swap1\n      tag_152\n      jump\t// in\n    tag_151:\n      mload(0x40)\n      dup1\n      swap2\n      sub\n      swap1\n      return\n        /* \"Campaign.sol\":6139:6411  function ajouterMarquePanneau( string memory _nomMarque, uint256 _prix, uint256 _production) public {\t... */\n    tag_24:\n      callvalue\n      dup1\n      iszero\n      tag_153\n      jumpi\n      0x00\n      dup1\n      revert\n    tag_153:\n      pop\n      tag_154\n      0x04\n      dup1\n      calldatasize\n      sub\n      dup2\n      add\n      swap1\n      tag_155\n      swap2\n      swap1\n      tag_139\n      jump\t// in\n    tag_155:\n      tag_156\n      jump\t// in\n    tag_154:\n      stop\n        /* \"Campaign.sol\":1665:1700  PartnerOffer[] public PartnerOffers */\n    tag_25:\n      callvalue\n      dup1\n      iszero\n      tag_157\n      jumpi\n      0x00\n      dup1\n      revert\n    tag_157:\n      pop\n      tag_158\n      0x04\n      dup1\n      calldatasize\n      sub\n      dup2\n      add\n      swap1\n      tag_159\n      swap2\n      swap1\n      tag_49\n      jump\t// in\n    tag_159:\n      tag_160\n      jump\t// in\n    tag_158:\n      mload(0x40)\n      tag_161\n      swap3\n      swap2\n      swap1\n      tag_162\n      jump\t// in\n    tag_161:\n      mload(0x40)\n      dup1\n      swap2\n      sub\n      swap1\n      return\n        /* \"Campaign.sol\":614:647  uint256 public consommationTotale */\n    tag_26:\n      callvalue\n      dup1\n      iszero\n      tag_163\n      jumpi\n      0x00\n      dup1\n      revert\n    tag_163:\n      pop\n      tag_164\n      tag_165\n      jump\t// in\n    tag_164:\n      mload(0x40)\n      tag_166\n      swap2\n      swap1\n      tag_45\n      jump\t// in\n    tag_166:\n      mload(0x40)\n      dup1\n      swap2\n      sub\n      swap1\n      return\n        /* \"Campaign.sol\":3442:3622  function contribute() public payable returns(uint){... */\n    tag_27:\n      tag_167\n      tag_168\n      jump\t// in\n    tag_167:\n      mload(0x40)\n      tag_169\n      swap2\n      swap1\n      tag_45\n      jump\t// in\n    tag_169:\n      mload(0x40)\n      dup1\n      swap2\n      sub\n      swap1\n      return\n        /* \"Campaign.sol\":3628:3905  function approveRequest(uint index)public {... */\n    tag_28:\n      callvalue\n      dup1\n      iszero\n      tag_170\n      jumpi\n      0x00\n      dup1\n      revert\n    tag_170:\n      pop\n      tag_171\n      0x04\n      dup1\n      calldatasize\n      sub\n      dup2\n      add\n      swap1\n      tag_172\n      swap2\n      swap1\n      tag_49\n      jump\t// in\n    tag_172:\n      tag_173\n      jump\t// in\n    tag_171:\n      stop\n        /* \"Campaign.sol\":2631:2735  function getdeployedCampaign() public view returns(address[] memory) {... */\n    tag_29:\n      callvalue\n      dup1\n      iszero\n      tag_174\n      jumpi\n      0x00\n      dup1\n      revert\n    tag_174:\n      pop\n      tag_175\n      tag_176\n      jump\t// in\n    tag_175:\n      mload(0x40)\n      tag_177\n      swap2\n      swap1\n      tag_178\n      jump\t// in\n    tag_177:\n      mload(0x40)\n      dup1\n      swap2\n      sub\n      swap1\n      return\n        /* \"Campaign.sol\":1816:1840  uint public approvsCount */\n    tag_30:\n      callvalue\n      dup1\n      iszero\n      tag_179\n      jumpi\n      0x00\n      dup1\n      revert\n    tag_179:\n      pop\n      tag_180\n      tag_181\n      jump\t// in\n    tag_180:\n      mload(0x40)\n      tag_182\n      swap2\n      swap1\n      tag_45\n      jump\t// in\n    tag_182:\n      mload(0x40)\n      dup1\n      swap2\n      sub\n      swap1\n      return\n        /* \"Campaign.sol\":654:684  uint256 public nombrePersonnes */\n    tag_31:\n      callvalue\n      dup1\n      iszero\n      tag_183\n      jumpi\n      0x00\n      dup1\n      revert\n    tag_183:\n      pop\n      tag_184\n      tag_185\n      jump\t// in\n    tag_184:\n      mload(0x40)\n      tag_186\n      swap2\n      swap1\n      tag_45\n      jump\t// in\n    tag_186:\n      mload(0x40)\n      dup1\n      swap2\n      sub\n      swap1\n      return\n        /* \"Campaign.sol\":4333:4614  function calculerPrixInstallation(uint256 _kWClient, uint256 _prixPanneau, uint256 _productionPanneau) public pure returns (uint256) {... */\n    tag_43:\n        /* \"Campaign.sol\":4457:4464  uint256 */\n      0x00\n        /* \"Campaign.sol\":4477:4499  uint256 nombrePanneaux */\n      dup1\n        /* \"Campaign.sol\":4540:4558  _productionPanneau */\n      dup3\n        /* \"Campaign.sol\":4535:4536  1 */\n      0x01\n        /* \"Campaign.sol\":4515:4533  _productionPanneau */\n      dup5\n        /* \"Campaign.sol\":4503:4512  _kWClient */\n      dup8\n        /* \"Campaign.sol\":4503:4533  _kWClient + _productionPanneau */\n      tag_188\n      swap2\n      swap1\n      tag_189\n      jump\t// in\n    tag_188:\n        /* \"Campaign.sol\":4503:4536  _kWClient + _productionPanneau -1 */\n      tag_190\n      swap2\n      swap1\n      tag_191\n      jump\t// in\n    tag_190:\n        /* \"Campaign.sol\":4502:4558  (_kWClient + _productionPanneau -1) / _productionPanneau */\n      tag_192\n      swap2\n      swap1\n      tag_193\n      jump\t// in\n    tag_192:\n        /* \"Campaign.sol\":4477:4558  uint256 nombrePanneaux = (_kWClient + _productionPanneau -1) / _productionPanneau */\n      swap1\n      pop\n        /* \"Campaign.sol\":4592:4606  nombrePanneaux */\n      dup1\n        /* \"Campaign.sol\":4577:4589  _prixPanneau */\n      dup5\n        /* \"Campaign.sol\":4577:4606  _prixPanneau * nombrePanneaux */\n      tag_194\n      swap2\n      swap1\n      tag_195\n      jump\t// in\n    tag_194:\n        /* \"Campaign.sol\":4569:4606  return  _prixPanneau * nombrePanneaux */\n      swap2\n      pop\n      pop\n        /* \"Campaign.sol\":4333:4614  function calculerPrixInstallation(uint256 _kWClient, uint256 _prixPanneau, uint256 _productionPanneau) public pure returns (uint256) {... */\n      swap4\n      swap3\n      pop\n      pop\n      pop\n      jump\t// out\n        /* \"Campaign.sol\":274:309  address[] public  deployedCamapigns */\n    tag_50:\n      0x00\n      dup2\n      dup2\n      sload\n      dup2\n      lt\n      tag_196\n      jumpi\n      0x00\n      dup1\n      revert\n    tag_196:\n      swap1\n      0x00\n      mstore\n      keccak256(0x00, 0x20)\n      add\n      0x00\n      swap2\n      pop\n      sload\n      swap1\n      0x0100\n      exp\n      swap1\n      div\n      0xffffffffffffffffffffffffffffffffffffffff\n      and\n      dup2\n      jump\t// out\n        /* \"Campaign.sol\":3913:4316  function finalizeRequest(uint256 index) public restricted {... */\n    tag_56:\n        /* \"Campaign.sol\":1926:1933  manager */\n      0x0c\n      0x00\n      swap1\n      sload\n      swap1\n      0x0100\n      exp\n      swap1\n      div\n      0xffffffffffffffffffffffffffffffffffffffff\n      and\n        /* \"Campaign.sol\":1914:1933  msg.sender==manager */\n      0xffffffffffffffffffffffffffffffffffffffff\n      and\n        /* \"Campaign.sol\":1914:1924  msg.sender */\n      caller\n        /* \"Campaign.sol\":1914:1933  msg.sender==manager */\n      0xffffffffffffffffffffffffffffffffffffffff\n      and\n      eq\n        /* \"Campaign.sol\":1906:1934  require(msg.sender==manager) */\n      tag_199\n      jumpi\n      0x00\n      dup1\n      revert\n    tag_199:\n        /* \"Campaign.sol\":3982:4005  Request storage request */\n      0x00\n        /* \"Campaign.sol\":4008:4016  requests */\n      0x0b\n        /* \"Campaign.sol\":4017:4022  index */\n      dup3\n        /* \"Campaign.sol\":4008:4023  requests[index] */\n      dup2\n      sload\n      dup2\n      lt\n      tag_201\n      jumpi\n      tag_202\n      tag_203\n      jump\t// in\n    tag_202:\n    tag_201:\n      swap1\n      0x00\n      mstore\n      keccak256(0x00, 0x20)\n      swap1\n      0x05\n      mul\n      add\n        /* \"Campaign.sol\":3982:4023  Request storage request = requests[index] */\n      swap1\n      pop\n        /* \"Campaign.sol\":4043:4050  request */\n      dup1\n        /* \"Campaign.sol\":4043:4059  request.complete */\n      0x02\n      add\n      0x14\n      swap1\n      sload\n      swap1\n      0x0100\n      exp\n      swap1\n      div\n      0xff\n      and\n        /* \"Campaign.sol\":4042:4059  !request.complete */\n      iszero\n        /* \"Campaign.sol\":4034:4060  require(!request.complete) */\n      tag_205\n      jumpi\n      0x00\n      dup1\n      revert\n    tag_205:\n        /* \"Campaign.sol\":4119:4120  2 */\n      0x02\n        /* \"Campaign.sol\":4104:4116  approvsCount */\n      sload(0x0e)\n        /* \"Campaign.sol\":4104:4120  approvsCount / 2 */\n      tag_206\n      swap2\n      swap1\n      tag_193\n      jump\t// in\n    tag_206:\n        /* \"Campaign.sol\":4079:4086  request */\n      dup2\n        /* \"Campaign.sol\":4079:4100  request.approvalCount */\n      0x04\n      add\n      sload\n        /* \"Campaign.sol\":4079:4121  request.approvalCount > (approvsCount / 2) */\n      gt\n        /* \"Campaign.sol\":4071:4122  require(request.approvalCount > (approvsCount / 2)) */\n      tag_207\n      jumpi\n      0x00\n      dup1\n      revert\n    tag_207:\n        /* \"Campaign.sol\":4135:4160  address payable recipient */\n      0x00\n        /* \"Campaign.sol\":4179:4186  request */\n      dup2\n        /* \"Campaign.sol\":4179:4196  request.recipient */\n      0x02\n      add\n      0x00\n      swap1\n      sload\n      swap1\n      0x0100\n      exp\n      swap1\n      div\n      0xffffffffffffffffffffffffffffffffffffffff\n      and\n        /* \"Campaign.sol\":4135:4198  address payable recipient = payable(address(request.recipient)) */\n      swap1\n      pop\n        /* \"Campaign.sol\":4239:4248  recipient */\n      dup1\n        /* \"Campaign.sol\":4239:4257  recipient.transfer */\n      0xffffffffffffffffffffffffffffffffffffffff\n      and\n        /* \"Campaign.sol\":4239:4272  recipient.transfer(request.value) */\n      0x08fc\n        /* \"Campaign.sol\":4258:4265  request */\n      dup4\n        /* \"Campaign.sol\":4258:4271  request.value */\n      0x01\n      add\n      sload\n        /* \"Campaign.sol\":4239:4272  recipient.transfer(request.value) */\n      swap1\n      dup2\n      iszero\n      mul\n      swap1\n      mload(0x40)\n      0x00\n      mload(0x40)\n      dup1\n      dup4\n      sub\n      dup2\n      dup6\n      dup9\n      dup9\n      call\n      swap4\n      pop\n      pop\n      pop\n      pop\n      iszero\n      dup1\n      iszero\n      tag_209\n      jumpi\n      returndatasize\n      0x00\n      dup1\n      returndatacopy\n      revert(0x00, returndatasize)\n    tag_209:\n      pop\n        /* \"Campaign.sol\":4304:4308  true */\n      0x01\n        /* \"Campaign.sol\":4285:4292  request */\n      dup3\n        /* \"Campaign.sol\":4285:4301  request.complete */\n      0x02\n      add\n      0x14\n        /* \"Campaign.sol\":4285:4308  request.complete = true */\n      0x0100\n      exp\n      dup2\n      sload\n      dup2\n      0xff\n      mul\n      not\n      and\n      swap1\n      dup4\n      iszero\n      iszero\n      mul\n      or\n      swap1\n      sstore\n      pop\n        /* \"Campaign.sol\":3971:4316  {... */\n      pop\n      pop\n        /* \"Campaign.sol\":3913:4316  function finalizeRequest(uint256 index) public restricted {... */\n      pop\n      jump\t// out\n        /* \"Campaign.sol\":4626:5014  function calculerConsommation(uint256 _nombrePersonnes, uint256 _surfaceMaison, uint256 _nombreChambres) public {... */\n    tag_60:\n        /* \"Campaign.sol\":4767:4783  _nombrePersonnes */\n      dup3\n        /* \"Campaign.sol\":4749:4764  nombrePersonnes */\n      0x03\n        /* \"Campaign.sol\":4749:4783  nombrePersonnes = _nombrePersonnes */\n      dup2\n      swap1\n      sstore\n      pop\n        /* \"Campaign.sol\":4810:4824  _surfaceMaison */\n      dup2\n        /* \"Campaign.sol\":4794:4807  surfaceMaison */\n      0x04\n        /* \"Campaign.sol\":4794:4824  surfaceMaison = _surfaceMaison */\n      dup2\n      swap1\n      sstore\n      pop\n        /* \"Campaign.sol\":4852:4867  _nombreChambres */\n      dup1\n        /* \"Campaign.sol\":4835:4849  nombreChambres */\n      0x05\n        /* \"Campaign.sol\":4835:4867  nombreChambres = _nombreChambres */\n      dup2\n      swap1\n      sstore\n      pop\n        /* \"Campaign.sol\":4880:4904  uint256 consommationBase */\n      0x00\n        /* \"Campaign.sol\":4951:4954  100 */\n      0x64\n        /* \"Campaign.sol\":4935:4948  surfaceMaison */\n      sload(0x04)\n        /* \"Campaign.sol\":4935:4954  surfaceMaison * 100 */\n      tag_211\n      swap2\n      swap1\n      tag_195\n      jump\t// in\n    tag_211:\n        /* \"Campaign.sol\":4926:4930  1000 */\n      0x03e8\n        /* \"Campaign.sol\":4908:4923  nombrePersonnes */\n      sload(0x03)\n        /* \"Campaign.sol\":4908:4930  nombrePersonnes * 1000 */\n      tag_212\n      swap2\n      swap1\n      tag_195\n      jump\t// in\n    tag_212:\n        /* \"Campaign.sol\":4907:4955  (nombrePersonnes * 1000) + (surfaceMaison * 100) */\n      tag_213\n      swap2\n      swap1\n      tag_189\n      jump\t// in\n    tag_213:\n        /* \"Campaign.sol\":4880:4955  uint256 consommationBase = (nombrePersonnes * 1000) + (surfaceMaison * 100) */\n      swap1\n      pop\n        /* \"Campaign.sol\":4990:5006  consommationBase */\n      dup1\n        /* \"Campaign.sol\":4968:4986  consommationTotale */\n      0x02\n      0x00\n        /* \"Campaign.sol\":4968:5006  consommationTotale += consommationBase */\n      dup3\n      dup3\n      sload\n      tag_214\n      swap2\n      swap1\n      tag_189\n      jump\t// in\n    tag_214:\n      swap3\n      pop\n      pop\n      dup2\n      swap1\n      sstore\n      pop\n        /* \"Campaign.sol\":4738:5014  {... */\n      pop\n        /* \"Campaign.sol\":4626:5014  function calculerConsommation(uint256 _nombrePersonnes, uint256 _surfaceMaison, uint256 _nombreChambres) public {... */\n      pop\n      pop\n      pop\n      jump\t// out\n        /* \"Campaign.sol\":1769:1809  mapping(address =>bool) public approvers */\n    tag_65:\n      mstore(0x20, 0x0d)\n      dup1\n      0x00\n      mstore\n      keccak256(0x00, 0x40)\n      0x00\n      swap2\n      pop\n      sload\n      swap1\n      0x0100\n      exp\n      swap1\n      div\n      0xff\n      and\n      dup2\n      jump\t// out\n        /* \"Campaign.sol\":318:349  CampaignInfo[] public campaigns */\n    tag_71:\n      0x01\n      dup2\n      dup2\n      sload\n      dup2\n      lt\n      tag_215\n      jumpi\n      0x00\n      dup1\n      revert\n    tag_215:\n      swap1\n      0x00\n      mstore\n      keccak256(0x00, 0x20)\n      swap1\n      0x05\n      mul\n      add\n      0x00\n      swap2\n      pop\n      swap1\n      pop\n      dup1\n      0x00\n      add\n      0x00\n      swap1\n      sload\n      swap1\n      0x0100\n      exp\n      swap1\n      div\n      0xffffffffffffffffffffffffffffffffffffffff\n      and\n      swap1\n      dup1\n      0x01\n      add\n      sload\n      swap1\n      dup1\n      0x02\n      add\n      dup1\n      sload\n      tag_217\n      swap1\n      tag_218\n      jump\t// in\n    tag_217:\n      dup1\n      0x1f\n      add\n      0x20\n      dup1\n      swap2\n      div\n      mul\n      0x20\n      add\n      mload(0x40)\n      swap1\n      dup2\n      add\n      0x40\n      mstore\n      dup1\n      swap3\n      swap2\n      swap1\n      dup2\n      dup2\n      mstore\n      0x20\n      add\n      dup3\n      dup1\n      sload\n      tag_219\n      swap1\n      tag_218\n      jump\t// in\n    tag_219:\n      dup1\n      iszero\n      tag_220\n      jumpi\n      dup1\n      0x1f\n      lt\n      tag_221\n      jumpi\n      0x0100\n      dup1\n      dup4\n      sload\n      div\n      mul\n      dup4\n      mstore\n      swap2\n      0x20\n      add\n      swap2\n      jump(tag_220)\n    tag_221:\n      dup3\n      add\n      swap2\n      swap1\n      0x00\n      mstore\n      keccak256(0x00, 0x20)\n      swap1\n    tag_222:\n      dup2\n      sload\n      dup2\n      mstore\n      swap1\n      0x01\n      add\n      swap1\n      0x20\n      add\n      dup1\n      dup4\n      gt\n      tag_222\n      jumpi\n      dup3\n      swap1\n      sub\n      0x1f\n      and\n      dup3\n      add\n      swap2\n    tag_220:\n      pop\n      pop\n      pop\n      pop\n      pop\n      swap1\n      dup1\n      0x03\n      add\n      sload\n      swap1\n      dup1\n      0x04\n      add\n      sload\n      swap1\n      pop\n      dup6\n      jump\t// out\n        /* \"Campaign.sol\":814:844  uint256 public nombreAppareils */\n    tag_76:\n      sload(0x07)\n      dup2\n      jump\t// out\n        /* \"Campaign.sol\":6419:6863  function getMarquePanneauForPartenaire( string memory _nomMarque) public view returns (uint256 prix, uint256 production) {\t... */\n    tag_82:\n        /* \"Campaign.sol\":6506:6518  uint256 prix */\n      0x00\n        /* \"Campaign.sol\":6520:6538  uint256 production */\n      dup1\n        /* \"Campaign.sol\":6552:6562  uint index */\n      0x00\n        /* \"Campaign.sol\":6565:6581  listePartenaires */\n      0x09\n        /* \"Campaign.sol\":6565:6593  listePartenaires[msg.sender] */\n      0x00\n        /* \"Campaign.sol\":6582:6592  msg.sender */\n      caller\n        /* \"Campaign.sol\":6565:6593  listePartenaires[msg.sender] */\n      0xffffffffffffffffffffffffffffffffffffffff\n      and\n      0xffffffffffffffffffffffffffffffffffffffff\n      and\n      dup2\n      mstore\n      0x20\n      add\n      swap1\n      dup2\n      mstore\n      0x20\n      add\n      0x00\n      keccak256\n      sload\n        /* \"Campaign.sol\":6552:6593  uint index = listePartenaires[msg.sender] */\n      swap1\n      pop\n        /* \"Campaign.sol\":6621:6632  partenaires */\n      0x08\n        /* \"Campaign.sol\":6621:6639  partenaires.length */\n      dup1\n      sload\n      swap1\n      pop\n        /* \"Campaign.sol\":6613:6618  index */\n      dup2\n        /* \"Campaign.sol\":6613:6639  index < partenaires.length */\n      lt\n        /* \"Campaign.sol\":6605:6668  require(index < partenaires.length, \"Invalid partner address.\") */\n      tag_224\n      jumpi\n      mload(0x40)\n      0x08c379a000000000000000000000000000000000000000000000000000000000\n      dup2\n      mstore\n      0x04\n      add\n      tag_225\n      swap1\n      tag_226\n      jump\t// in\n    tag_225:\n      mload(0x40)\n      dup1\n      swap2\n      sub\n      swap1\n      revert\n    tag_224:\n        /* \"Campaign.sol\":6680:6709  Partenaire storage partenaire */\n      0x00\n        /* \"Campaign.sol\":6712:6723  partenaires */\n      0x08\n        /* \"Campaign.sol\":6724:6729  index */\n      dup3\n        /* \"Campaign.sol\":6712:6730  partenaires[index] */\n      dup2\n      sload\n      dup2\n      lt\n      tag_227\n      jumpi\n      tag_228\n      tag_203\n      jump\t// in\n    tag_228:\n    tag_227:\n      swap1\n      0x00\n      mstore\n      keccak256(0x00, 0x20)\n      swap1\n      0x03\n      mul\n      add\n        /* \"Campaign.sol\":6680:6730  Partenaire storage partenaire = partenaires[index] */\n      swap1\n      pop\n        /* \"Campaign.sol\":6742:6770  MarquePanneau storage marque */\n      0x00\n        /* \"Campaign.sol\":6773:6783  partenaire */\n      dup2\n        /* \"Campaign.sol\":6773:6791  partenaire.marques */\n      0x02\n      add\n        /* \"Campaign.sol\":6792:6802  _nomMarque */\n      dup7\n        /* \"Campaign.sol\":6773:6803  partenaire.marques[_nomMarque] */\n      mload(0x40)\n      tag_230\n      swap2\n      swap1\n      tag_231\n      jump\t// in\n    tag_230:\n      swap1\n      dup2\n      mstore\n      0x20\n      add\n      mload(0x40)\n      dup1\n      swap2\n      sub\n      swap1\n      keccak256\n        /* \"Campaign.sol\":6742:6803  MarquePanneau storage marque = partenaire.marques[_nomMarque] */\n      swap1\n      pop\n        /* \"Campaign.sol\":6823:6829  marque */\n      dup1\n        /* \"Campaign.sol\":6823:6834  marque.prix */\n      0x00\n      add\n      sload\n        /* \"Campaign.sol\":6836:6842  marque */\n      dup2\n        /* \"Campaign.sol\":6836:6853  marque.production */\n      0x01\n      add\n      sload\n        /* \"Campaign.sol\":6815:6854  return (marque.prix, marque.production) */\n      swap5\n      pop\n      swap5\n      pop\n      pop\n      pop\n      pop\n        /* \"Campaign.sol\":6419:6863  function getMarquePanneauForPartenaire( string memory _nomMarque) public view returns (uint256 prix, uint256 production) {\t... */\n      swap2\n      pop\n      swap2\n      jump\t// out\n        /* \"Campaign.sol\":726:755  uint256 public nombreChambres */\n    tag_87:\n      sload(0x05)\n      dup2\n      jump\t// out\n        /* \"Campaign.sol\":5795:6131  function ajouterPartenaire(string memory _nomPartenaire) public {\t... */\n    tag_92:\n        /* \"Campaign.sol\":5871:5900  Partenaire storage partenaire */\n      0x00\n        /* \"Campaign.sol\":5903:5914  partenaires */\n      0x08\n        /* \"Campaign.sol\":5903:5921  partenaires.push() */\n      0x01\n      dup2\n      0x01\n      dup2\n      sload\n      add\n      dup1\n      dup3\n      sstore\n      dup1\n      swap2\n      pop\n      pop\n      sub\n      swap1\n      0x00\n      mstore\n      keccak256(0x00, 0x20)\n      swap1\n      0x03\n      mul\n      add\n        /* \"Campaign.sol\":5871:5921  Partenaire storage partenaire = partenaires.push() */\n      swap1\n      pop\n        /* \"Campaign.sol\":5960:5974  _nomPartenaire */\n      dup2\n        /* \"Campaign.sol\":5933:5943  partenaire */\n      dup2\n        /* \"Campaign.sol\":5933:5957  partenaire.nomPartenaire */\n      0x00\n      add\n        /* \"Campaign.sol\":5933:5974  partenaire.nomPartenaire = _nomPartenaire */\n      swap1\n      dup2\n      tag_234\n      swap2\n      swap1\n      tag_235\n      jump\t// in\n    tag_234:\n      pop\n        /* \"Campaign.sol\":6017:6027  msg.sender */\n      caller\n        /* \"Campaign.sol\":5986:5996  partenaire */\n      dup2\n        /* \"Campaign.sol\":5986:6014  partenaire.PartenaireAddress */\n      0x01\n      add\n      0x00\n        /* \"Campaign.sol\":5986:6027  partenaire.PartenaireAddress = msg.sender */\n      0x0100\n      exp\n      dup2\n      sload\n      dup2\n      0xffffffffffffffffffffffffffffffffffffffff\n      mul\n      not\n      and\n      swap1\n      dup4\n      0xffffffffffffffffffffffffffffffffffffffff\n      and\n      mul\n      or\n      swap1\n      sstore\n      pop\n        /* \"Campaign.sol\":6039:6049  uint index */\n      0x00\n        /* \"Campaign.sol\":6073:6074  1 */\n      0x01\n        /* \"Campaign.sol\":6052:6063  partenaires */\n      0x08\n        /* \"Campaign.sol\":6052:6070  partenaires.length */\n      dup1\n      sload\n      swap1\n      pop\n        /* \"Campaign.sol\":6052:6074  partenaires.length - 1 */\n      tag_236\n      swap2\n      swap1\n      tag_191\n      jump\t// in\n    tag_236:\n        /* \"Campaign.sol\":6039:6074  uint index = partenaires.length - 1 */\n      swap1\n      pop\n        /* \"Campaign.sol\":6117:6122  index */\n      dup1\n        /* \"Campaign.sol\":6086:6102  listePartenaires */\n      0x09\n        /* \"Campaign.sol\":6086:6114  listePartenaires[msg.sender] */\n      0x00\n        /* \"Campaign.sol\":6103:6113  msg.sender */\n      caller\n        /* \"Campaign.sol\":6086:6114  listePartenaires[msg.sender] */\n      0xffffffffffffffffffffffffffffffffffffffff\n      and\n      0xffffffffffffffffffffffffffffffffffffffff\n      and\n      dup2\n      mstore\n      0x20\n      add\n      swap1\n      dup2\n      mstore\n      0x20\n      add\n      0x00\n      keccak256\n        /* \"Campaign.sol\":6086:6122  listePartenaires[msg.sender] = index */\n      dup2\n      swap1\n      sstore\n      pop\n        /* \"Campaign.sol\":5859:6131  {\t... */\n      pop\n      pop\n        /* \"Campaign.sol\":5795:6131  function ajouterPartenaire(string memory _nomPartenaire) public {\t... */\n      pop\n      jump\t// out\n        /* \"Campaign.sol\":1739:1761  address public manager */\n    tag_95:\n      0x0c\n      0x00\n      swap1\n      sload\n      swap1\n      0x0100\n      exp\n      swap1\n      div\n      0xffffffffffffffffffffffffffffffffffffffff\n      and\n      dup2\n      jump\t// out\n        /* \"Campaign.sol\":1277:1325  mapping(address => uint) public listePartenaires */\n    tag_100:\n      mstore(0x20, 0x09)\n      dup1\n      0x00\n      mstore\n      keccak256(0x00, 0x40)\n      0x00\n      swap2\n      pop\n      swap1\n      pop\n      sload\n      dup2\n      jump\t// out\n        /* \"Campaign.sol\":1962:2618  function createCampaign( uint consomationYear, string memory description, uint limiteconsomation, uint joursOffre) public {... */\n    tag_106:\n        /* \"Campaign.sol\":2131:2148  limiteconsomation */\n      dup2\n        /* \"Campaign.sol\":2113:2128  consomationYear */\n      dup5\n        /* \"Campaign.sol\":2113:2148  consomationYear < limiteconsomation */\n      lt\n        /* \"Campaign.sol\":2105:2218  require(consomationYear < limiteconsomation, \"Your Limit consomation must be higher than your usual Consomation\") */\n      tag_238\n      jumpi\n      mload(0x40)\n      0x08c379a000000000000000000000000000000000000000000000000000000000\n      dup2\n      mstore\n      0x04\n      add\n      tag_239\n      swap1\n      tag_240\n      jump\t// in\n    tag_239:\n      mload(0x40)\n      dup1\n      swap2\n      sub\n      swap1\n      revert\n    tag_238:\n        /* \"Campaign.sol\":2239:2270  CampaignInfo memory newCampaign */\n      0x00\n        /* \"Campaign.sol\":2273:2512  CampaignInfo({... */\n      mload(0x40)\n      dup1\n      0xa0\n      add\n      0x40\n      mstore\n      dup1\n        /* \"Campaign.sol\":2315:2325  msg.sender */\n      caller\n        /* \"Campaign.sol\":2273:2512  CampaignInfo({... */\n      0xffffffffffffffffffffffffffffffffffffffff\n      and\n      dup2\n      mstore\n      0x20\n      add\n        /* \"Campaign.sol\":2357:2372  consomationYear */\n      dup7\n        /* \"Campaign.sol\":2273:2512  CampaignInfo({... */\n      dup2\n      mstore\n      0x20\n      add\n        /* \"Campaign.sol\":2400:2411  description */\n      dup6\n        /* \"Campaign.sol\":2273:2512  CampaignInfo({... */\n      dup2\n      mstore\n      0x20\n      add\n        /* \"Campaign.sol\":2445:2462  limiteconsomation */\n      dup5\n        /* \"Campaign.sol\":2273:2512  CampaignInfo({... */\n      dup2\n      mstore\n      0x20\n      add\n        /* \"Campaign.sol\":2490:2500  joursOffre */\n      dup4\n        /* \"Campaign.sol\":2273:2512  CampaignInfo({... */\n      dup2\n      mstore\n      pop\n        /* \"Campaign.sol\":2239:2512  CampaignInfo memory newCampaign = CampaignInfo({... */\n      swap1\n      pop\n        /* \"Campaign.sol\":2523:2532  campaigns */\n      0x01\n        /* \"Campaign.sol\":2538:2549  newCampaign */\n      dup2\n        /* \"Campaign.sol\":2523:2550  campaigns.push(newCampaign) */\n      swap1\n      dup1\n      0x01\n      dup2\n      sload\n      add\n      dup1\n      dup3\n      sstore\n      dup1\n      swap2\n      pop\n      pop\n      0x01\n      swap1\n      sub\n      swap1\n      0x00\n      mstore\n      keccak256(0x00, 0x20)\n      swap1\n      0x05\n      mul\n      add\n      0x00\n      swap1\n      swap2\n      swap1\n      swap2\n      swap1\n      swap2\n      pop\n      0x00\n      dup3\n      add\n      mload\n      dup2\n      0x00\n      add\n      exp(0x0100, 0x00)\n      dup2\n      sload\n      dup2\n      0xffffffffffffffffffffffffffffffffffffffff\n      mul\n      not\n      and\n      swap1\n      dup4\n      0xffffffffffffffffffffffffffffffffffffffff\n      and\n      mul\n      or\n      swap1\n      sstore\n      pop\n      0x20\n      dup3\n      add\n      mload\n      dup2\n      0x01\n      add\n      sstore\n      0x40\n      dup3\n      add\n      mload\n      dup2\n      0x02\n      add\n      swap1\n      dup2\n      tag_242\n      swap2\n      swap1\n      tag_235\n      jump\t// in\n    tag_242:\n      pop\n      0x60\n      dup3\n      add\n      mload\n      dup2\n      0x03\n      add\n      sstore\n      0x80\n      dup3\n      add\n      mload\n      dup2\n      0x04\n      add\n      sstore\n      pop\n      pop\n        /* \"Campaign.sol\":2562:2579  deployedCamapigns */\n      0x00\n        /* \"Campaign.sol\":2585:2596  newCampaign */\n      dup2\n        /* \"Campaign.sol\":2585:2609  newCampaign.projectOwner */\n      0x00\n      add\n      mload\n        /* \"Campaign.sol\":2562:2610  deployedCamapigns.push(newCampaign.projectOwner) */\n      swap1\n      dup1\n      0x01\n      dup2\n      sload\n      add\n      dup1\n      dup3\n      sstore\n      dup1\n      swap2\n      pop\n      pop\n      0x01\n      swap1\n      sub\n      swap1\n      0x00\n      mstore\n      keccak256(0x00, 0x20)\n      add\n      0x00\n      swap1\n      swap2\n      swap1\n      swap2\n      swap1\n      swap2\n      0x0100\n      exp\n      dup2\n      sload\n      dup2\n      0xffffffffffffffffffffffffffffffffffffffff\n      mul\n      not\n      and\n      swap1\n      dup4\n      0xffffffffffffffffffffffffffffffffffffffff\n      and\n      mul\n      or\n      swap1\n      sstore\n      pop\n        /* \"Campaign.sol\":2084:2618  {... */\n      pop\n        /* \"Campaign.sol\":1962:2618  function createCampaign( uint consomationYear, string memory description, uint limiteconsomation, uint joursOffre) public {... */\n      pop\n      pop\n      pop\n      pop\n      jump\t// out\n        /* \"Campaign.sol\":5509:5787  function getConsommationParAppareil(uint256 index) public view returns (string memory, uint256) {... */\n    tag_110:\n        /* \"Campaign.sol\":5581:5594  string memory */\n      0x60\n        /* \"Campaign.sol\":5596:5603  uint256 */\n      0x00\n        /* \"Campaign.sol\":5632:5647  nombreAppareils */\n      sload(0x07)\n        /* \"Campaign.sol\":5624:5629  index */\n      dup4\n        /* \"Campaign.sol\":5624:5647  index < nombreAppareils */\n      lt\n        /* \"Campaign.sol\":5616:5666  require(index < nombreAppareils, \"Index invalide\") */\n      tag_245\n      jumpi\n      mload(0x40)\n      0x08c379a000000000000000000000000000000000000000000000000000000000\n      dup2\n      mstore\n      0x04\n      add\n      tag_246\n      swap1\n      tag_247\n      jump\t// in\n    tag_246:\n      mload(0x40)\n      dup1\n      swap2\n      sub\n      swap1\n      revert\n    tag_245:\n        /* \"Campaign.sol\":5685:5694  appareils */\n      0x06\n        /* \"Campaign.sol\":5685:5701  appareils[index] */\n      0x00\n        /* \"Campaign.sol\":5695:5700  index */\n      dup5\n        /* \"Campaign.sol\":5685:5701  appareils[index] */\n      dup2\n      mstore\n      0x20\n      add\n      swap1\n      dup2\n      mstore\n      0x20\n      add\n      0x00\n      keccak256\n        /* \"Campaign.sol\":5685:5713  appareils[index].nomAppareil */\n      0x00\n      add\n        /* \"Campaign.sol\":5744:5753  appareils */\n      0x06\n        /* \"Campaign.sol\":5744:5760  appareils[index] */\n      0x00\n        /* \"Campaign.sol\":5754:5759  index */\n      dup6\n        /* \"Campaign.sol\":5744:5760  appareils[index] */\n      dup2\n      mstore\n      0x20\n      add\n      swap1\n      dup2\n      mstore\n      0x20\n      add\n      0x00\n      keccak256\n        /* \"Campaign.sol\":5744:5778  appareils[index].heuresUtilisation */\n      0x02\n      add\n      sload\n        /* \"Campaign.sol\":5715:5724  appareils */\n      0x06\n        /* \"Campaign.sol\":5715:5731  appareils[index] */\n      0x00\n        /* \"Campaign.sol\":5725:5730  index */\n      dup7\n        /* \"Campaign.sol\":5715:5731  appareils[index] */\n      dup2\n      mstore\n      0x20\n      add\n      swap1\n      dup2\n      mstore\n      0x20\n      add\n      0x00\n      keccak256\n        /* \"Campaign.sol\":5715:5741  appareils[index].puissance */\n      0x01\n      add\n      sload\n        /* \"Campaign.sol\":5715:5778  appareils[index].puissance * appareils[index].heuresUtilisation */\n      tag_248\n      swap2\n      swap1\n      tag_195\n      jump\t// in\n    tag_248:\n        /* \"Campaign.sol\":5677:5779  return (appareils[index].nomAppareil, appareils[index].puissance * appareils[index].heuresUtilisation) */\n      dup2\n      dup1\n      sload\n      tag_249\n      swap1\n      tag_218\n      jump\t// in\n    tag_249:\n      dup1\n      0x1f\n      add\n      0x20\n      dup1\n      swap2\n      div\n      mul\n      0x20\n      add\n      mload(0x40)\n      swap1\n      dup2\n      add\n      0x40\n      mstore\n      dup1\n      swap3\n      swap2\n      swap1\n      dup2\n      dup2\n      mstore\n      0x20\n      add\n      dup3\n      dup1\n      sload\n      tag_250\n      swap1\n      tag_218\n      jump\t// in\n    tag_250:\n      dup1\n      iszero\n      tag_251\n      jumpi\n      dup1\n      0x1f\n      lt\n      tag_252\n      jumpi\n      0x0100\n      dup1\n      dup4\n      sload\n      div\n      mul\n      dup4\n      mstore\n      swap2\n      0x20\n      add\n      swap2\n      jump(tag_251)\n    tag_252:\n      dup3\n      add\n      swap2\n      swap1\n      0x00\n      mstore\n      keccak256(0x00, 0x20)\n      swap1\n    tag_253:\n      dup2\n      sload\n      dup2\n      mstore\n      swap1\n      0x01\n      add\n      swap1\n      0x20\n      add\n      dup1\n      dup4\n      gt\n      tag_253\n      jumpi\n      dup3\n      swap1\n      sub\n      0x1f\n      and\n      dup3\n      add\n      swap2\n    tag_251:\n      pop\n      pop\n      pop\n      pop\n      pop\n      swap2\n      pop\n      swap2\n      pop\n      swap2\n      pop\n        /* \"Campaign.sol\":5509:5787  function getConsommationParAppareil(uint256 index) public view returns (string memory, uint256) {... */\n      swap2\n      pop\n      swap2\n      jump\t// out\n        /* \"Campaign.sol\":2743:2840  function getCampaignCount() public view returns (uint) {... */\n    tag_115:\n        /* \"Campaign.sol\":2792:2796  uint */\n      0x00\n        /* \"Campaign.sol\":2816:2825  campaigns */\n      0x01\n        /* \"Campaign.sol\":2816:2832  campaigns.length */\n      dup1\n      sload\n      swap1\n      pop\n        /* \"Campaign.sol\":2809:2832  return campaigns.length */\n      swap1\n      pop\n        /* \"Campaign.sol\":2743:2840  function getCampaignCount() public view returns (uint) {... */\n      swap1\n      jump\t// out\n        /* \"Campaign.sol\":691:719  uint256 public surfaceMaison */\n    tag_119:\n      sload(0x04)\n      dup2\n      jump\t// out\n        /* \"Campaign.sol\":1707:1732  Request[] public requests */\n    tag_124:\n      0x0b\n      dup2\n      dup2\n      sload\n      dup2\n      lt\n      tag_255\n      jumpi\n      0x00\n      dup1\n      revert\n    tag_255:\n      swap1\n      0x00\n      mstore\n      keccak256(0x00, 0x20)\n      swap1\n      0x05\n      mul\n      add\n      0x00\n      swap2\n      pop\n      swap1\n      pop\n      dup1\n      0x00\n      add\n      dup1\n      sload\n      tag_257\n      swap1\n      tag_218\n      jump\t// in\n    tag_257:\n      dup1\n      0x1f\n      add\n      0x20\n      dup1\n      swap2\n      div\n      mul\n      0x20\n      add\n      mload(0x40)\n      swap1\n      dup2\n      add\n      0x40\n      mstore\n      dup1\n      swap3\n      swap2\n      swap1\n      dup2\n      dup2\n      mstore\n      0x20\n      add\n      dup3\n      dup1\n      sload\n      tag_258\n      swap1\n      tag_218\n      jump\t// in\n    tag_258:\n      dup1\n      iszero\n      tag_259\n      jumpi\n      dup1\n      0x1f\n      lt\n      tag_260\n      jumpi\n      0x0100\n      dup1\n      dup4\n      sload\n      div\n      mul\n      dup4\n      mstore\n      swap2\n      0x20\n      add\n      swap2\n      jump(tag_259)\n    tag_260:\n      dup3\n      add\n      swap2\n      swap1\n      0x00\n      mstore\n      keccak256(0x00, 0x20)\n      swap1\n    tag_261:\n      dup2\n      sload\n      dup2\n      mstore\n      swap1\n      0x01\n      add\n      swap1\n      0x20\n      add\n      dup1\n      dup4\n      gt\n      tag_261\n      jumpi\n      dup3\n      swap1\n      sub\n      0x1f\n      and\n      dup3\n      add\n      swap2\n    tag_259:\n      pop\n      pop\n      pop\n      pop\n      pop\n      swap1\n      dup1\n      0x01\n      add\n      sload\n      swap1\n      dup1\n      0x02\n      add\n      0x00\n      swap1\n      sload\n      swap1\n      0x0100\n      exp\n      swap1\n      div\n      0xffffffffffffffffffffffffffffffffffffffff\n      and\n      swap1\n      dup1\n      0x02\n      add\n      0x14\n      swap1\n      sload\n      swap1\n      0x0100\n      exp\n      swap1\n      div\n      0xff\n      and\n      swap1\n      dup1\n      0x04\n      add\n      sload\n      swap1\n      pop\n      dup6\n      jump\t// out\n        /* \"Campaign.sol\":2848:3059  function createOfferPAr(string memory description) public {... */\n    tag_130:\n        /* \"Campaign.sol\":2917:2946  PartnerOffer storage newOffre */\n      0x00\n        /* \"Campaign.sol\":2949:2962  PartnerOffers */\n      0x0a\n        /* \"Campaign.sol\":2949:2969  PartnerOffers.push() */\n      0x01\n      dup2\n      0x01\n      dup2\n      sload\n      add\n      dup1\n      dup3\n      sstore\n      dup1\n      swap2\n      pop\n      pop\n      sub\n      swap1\n      0x00\n      mstore\n      keccak256(0x00, 0x20)\n      swap1\n      0x03\n      mul\n      add\n        /* \"Campaign.sol\":2917:2969  PartnerOffer storage newOffre = PartnerOffers.push() */\n      swap1\n      pop\n        /* \"Campaign.sol\":3003:3014  description */\n      dup2\n        /* \"Campaign.sol\":2980:2988  newOffre */\n      dup2\n        /* \"Campaign.sol\":2980:3000  newOffre.description */\n      0x00\n      add\n        /* \"Campaign.sol\":2980:3014  newOffre.description = description */\n      swap1\n      dup2\n      tag_264\n      swap2\n      swap1\n      tag_235\n      jump\t// in\n    tag_264:\n      pop\n        /* \"Campaign.sol\":3046:3051  false */\n      0x00\n        /* \"Campaign.sol\":3025:3033  newOffre */\n      dup2\n        /* \"Campaign.sol\":3025:3043  newOffre.choixPart */\n      0x01\n      add\n      0x00\n        /* \"Campaign.sol\":3025:3051  newOffre.choixPart = false */\n      0x0100\n      exp\n      dup2\n      sload\n      dup2\n      0xff\n      mul\n      not\n      and\n      swap1\n      dup4\n      iszero\n      iszero\n      mul\n      or\n      swap1\n      sstore\n      pop\n        /* \"Campaign.sol\":2906:3059  {... */\n      pop\n        /* \"Campaign.sol\":2848:3059  function createOfferPAr(string memory description) public {... */\n      pop\n      jump\t// out\n        /* \"Campaign.sol\":3067:3434  function createRequest(string memory description, uint256 value, address recipient) public restricted {... */\n    tag_135:\n        /* \"Campaign.sol\":1926:1933  manager */\n      0x0c\n      0x00\n      swap1\n      sload\n      swap1\n      0x0100\n      exp\n      swap1\n      div\n      0xffffffffffffffffffffffffffffffffffffffff\n      and\n        /* \"Campaign.sol\":1914:1933  msg.sender==manager */\n      0xffffffffffffffffffffffffffffffffffffffff\n      and\n        /* \"Campaign.sol\":1914:1924  msg.sender */\n      caller\n        /* \"Campaign.sol\":1914:1933  msg.sender==manager */\n      0xffffffffffffffffffffffffffffffffffffffff\n      and\n      eq\n        /* \"Campaign.sol\":1906:1934  require(msg.sender==manager) */\n      tag_266\n      jumpi\n      0x00\n      dup1\n      revert\n    tag_266:\n        /* \"Campaign.sol\":3180:3206  Request storage newRequest */\n      0x00\n        /* \"Campaign.sol\":3209:3217  requests */\n      0x0b\n        /* \"Campaign.sol\":3209:3224  requests.push() */\n      0x01\n      dup2\n      0x01\n      dup2\n      sload\n      add\n      dup1\n      dup3\n      sstore\n      dup1\n      swap2\n      pop\n      pop\n      sub\n      swap1\n      0x00\n      mstore\n      keccak256(0x00, 0x20)\n      swap1\n      0x05\n      mul\n      add\n        /* \"Campaign.sol\":3180:3224  Request storage newRequest = requests.push() */\n      swap1\n      pop\n        /* \"Campaign.sol\":3260:3271  description */\n      dup4\n        /* \"Campaign.sol\":3235:3245  newRequest */\n      dup2\n        /* \"Campaign.sol\":3235:3257  newRequest.description */\n      0x00\n      add\n        /* \"Campaign.sol\":3235:3271  newRequest.description = description */\n      swap1\n      dup2\n      tag_269\n      swap2\n      swap1\n      tag_235\n      jump\t// in\n    tag_269:\n      pop\n        /* \"Campaign.sol\":3301:3306  value */\n      dup3\n        /* \"Campaign.sol\":3282:3292  newRequest */\n      dup2\n        /* \"Campaign.sol\":3282:3298  newRequest.value */\n      0x01\n      add\n        /* \"Campaign.sol\":3282:3306  newRequest.value = value */\n      dup2\n      swap1\n      sstore\n      pop\n        /* \"Campaign.sol\":3340:3349  recipient */\n      dup2\n        /* \"Campaign.sol\":3317:3327  newRequest */\n      dup2\n        /* \"Campaign.sol\":3317:3337  newRequest.recipient */\n      0x02\n      add\n      0x00\n        /* \"Campaign.sol\":3317:3349  newRequest.recipient = recipient */\n      0x0100\n      exp\n      dup2\n      sload\n      dup2\n      0xffffffffffffffffffffffffffffffffffffffff\n      mul\n      not\n      and\n      swap1\n      dup4\n      0xffffffffffffffffffffffffffffffffffffffff\n      and\n      mul\n      or\n      swap1\n      sstore\n      pop\n        /* \"Campaign.sol\":3382:3387  false */\n      0x00\n        /* \"Campaign.sol\":3360:3370  newRequest */\n      dup2\n        /* \"Campaign.sol\":3360:3379  newRequest.complete */\n      0x02\n      add\n      0x14\n        /* \"Campaign.sol\":3360:3387  newRequest.complete = false */\n      0x0100\n      exp\n      dup2\n      sload\n      dup2\n      0xff\n      mul\n      not\n      and\n      swap1\n      dup4\n      iszero\n      iszero\n      mul\n      or\n      swap1\n      sstore\n      pop\n        /* \"Campaign.sol\":3425:3426  0 */\n      0x00\n        /* \"Campaign.sol\":3398:3408  newRequest */\n      dup2\n        /* \"Campaign.sol\":3398:3422  newRequest.approvalCount */\n      0x04\n      add\n        /* \"Campaign.sol\":3398:3426  newRequest.approvalCount = 0 */\n      dup2\n      swap1\n      sstore\n      pop\n        /* \"Campaign.sol\":3169:3434  {... */\n      pop\n        /* \"Campaign.sol\":3067:3434  function createRequest(string memory description, uint256 value, address recipient) public restricted {... */\n      pop\n      pop\n      pop\n      jump\t// out\n        /* \"Campaign.sol\":5022:5501  function ajouterAppareil(string memory _nomAppareil, uint256 _puissance, uint256 _heuresUtilisation) public {... */\n    tag_140:\n        /* \"Campaign.sol\":5198:5226  uint256 consommationAppareil */\n      0x00\n        /* \"Campaign.sol\":5242:5260  _heuresUtilisation */\n      dup2\n        /* \"Campaign.sol\":5229:5239  _puissance */\n      dup4\n        /* \"Campaign.sol\":5229:5260  _puissance * _heuresUtilisation */\n      tag_271\n      swap2\n      swap1\n      tag_195\n      jump\t// in\n    tag_271:\n        /* \"Campaign.sol\":5198:5260  uint256 consommationAppareil = _puissance * _heuresUtilisation */\n      swap1\n      pop\n        /* \"Campaign.sol\":5293:5313  consommationAppareil */\n      dup1\n        /* \"Campaign.sol\":5271:5289  consommationTotale */\n      0x02\n      0x00\n        /* \"Campaign.sol\":5271:5313  consommationTotale += consommationAppareil */\n      dup3\n      dup3\n      sload\n      tag_272\n      swap2\n      swap1\n      tag_189\n      jump\t// in\n    tag_272:\n      swap3\n      pop\n      pop\n      dup2\n      swap1\n      sstore\n      pop\n        /* \"Campaign.sol\":5411:5465  Appareil(_nomAppareil, _puissance, _heuresUtilisation) */\n      mload(0x40)\n      dup1\n      0x60\n      add\n      0x40\n      mstore\n      dup1\n        /* \"Campaign.sol\":5420:5432  _nomAppareil */\n      dup6\n        /* \"Campaign.sol\":5411:5465  Appareil(_nomAppareil, _puissance, _heuresUtilisation) */\n      dup2\n      mstore\n      0x20\n      add\n        /* \"Campaign.sol\":5434:5444  _puissance */\n      dup5\n        /* \"Campaign.sol\":5411:5465  Appareil(_nomAppareil, _puissance, _heuresUtilisation) */\n      dup2\n      mstore\n      0x20\n      add\n        /* \"Campaign.sol\":5446:5464  _heuresUtilisation */\n      dup4\n        /* \"Campaign.sol\":5411:5465  Appareil(_nomAppareil, _puissance, _heuresUtilisation) */\n      dup2\n      mstore\n      pop\n        /* \"Campaign.sol\":5382:5391  appareils */\n      0x06\n        /* \"Campaign.sol\":5382:5408  appareils[nombreAppareils] */\n      0x00\n        /* \"Campaign.sol\":5392:5407  nombreAppareils */\n      sload(0x07)\n        /* \"Campaign.sol\":5382:5408  appareils[nombreAppareils] */\n      dup2\n      mstore\n      0x20\n      add\n      swap1\n      dup2\n      mstore\n      0x20\n      add\n      0x00\n      keccak256\n        /* \"Campaign.sol\":5382:5465  appareils[nombreAppareils] = Appareil(_nomAppareil, _puissance, _heuresUtilisation) */\n      0x00\n      dup3\n      add\n      mload\n      dup2\n      0x00\n      add\n      swap1\n      dup2\n      tag_273\n      swap2\n      swap1\n      tag_235\n      jump\t// in\n    tag_273:\n      pop\n      0x20\n      dup3\n      add\n      mload\n      dup2\n      0x01\n      add\n      sstore\n      0x40\n      dup3\n      add\n      mload\n      dup2\n      0x02\n      add\n      sstore\n      swap1\n      pop\n      pop\n        /* \"Campaign.sol\":5476:5491  nombreAppareils */\n      0x07\n      0x00\n        /* \"Campaign.sol\":5476:5493  nombreAppareils++ */\n      dup2\n      sload\n      dup1\n      swap3\n      swap2\n      swap1\n      tag_274\n      swap1\n      tag_275\n      jump\t// in\n    tag_274:\n      swap2\n      swap1\n      pop\n      sstore\n      pop\n        /* \"Campaign.sol\":5130:5501  {... */\n      pop\n        /* \"Campaign.sol\":5022:5501  function ajouterAppareil(string memory _nomAppareil, uint256 _puissance, uint256 _heuresUtilisation) public {... */\n      pop\n      pop\n      pop\n      jump\t// out\n        /* \"Campaign.sol\":762:807  mapping(uint256 => Appareil) public appareils */\n    tag_144:\n      mstore(0x20, 0x06)\n      dup1\n      0x00\n      mstore\n      keccak256(0x00, 0x40)\n      0x00\n      swap2\n      pop\n      swap1\n      pop\n      dup1\n      0x00\n      add\n      dup1\n      sload\n      tag_276\n      swap1\n      tag_218\n      jump\t// in\n    tag_276:\n      dup1\n      0x1f\n      add\n      0x20\n      dup1\n      swap2\n      div\n      mul\n      0x20\n      add\n      mload(0x40)\n      swap1\n      dup2\n      add\n      0x40\n      mstore\n      dup1\n      swap3\n      swap2\n      swap1\n      dup2\n      dup2\n      mstore\n      0x20\n      add\n      dup3\n      dup1\n      sload\n      tag_277\n      swap1\n      tag_218\n      jump\t// in\n    tag_277:\n      dup1\n      iszero\n      tag_278\n      jumpi\n      dup1\n      0x1f\n      lt\n      tag_279\n      jumpi\n      0x0100\n      dup1\n      dup4\n      sload\n      div\n      mul\n      dup4\n      mstore\n      swap2\n      0x20\n      add\n      swap2\n      jump(tag_278)\n    tag_279:\n      dup3\n      add\n      swap2\n      swap1\n      0x00\n      mstore\n      keccak256(0x00, 0x20)\n      swap1\n    tag_280:\n      dup2\n      sload\n      dup2\n      mstore\n      swap1\n      0x01\n      add\n      swap1\n      0x20\n      add\n      dup1\n      dup4\n      gt\n      tag_280\n      jumpi\n      dup3\n      swap1\n      sub\n      0x1f\n      and\n      dup3\n      add\n      swap2\n    tag_278:\n      pop\n      pop\n      pop\n      pop\n      pop\n      swap1\n      dup1\n      0x01\n      add\n      sload\n      swap1\n      dup1\n      0x02\n      add\n      sload\n      swap1\n      pop\n      dup4\n      jump\t// out\n        /* \"Campaign.sol\":1231:1262  Partenaire[] public partenaires */\n    tag_150:\n      0x08\n      dup2\n      dup2\n      sload\n      dup2\n      lt\n      tag_281\n      jumpi\n      0x00\n      dup1\n      revert\n    tag_281:\n      swap1\n      0x00\n      mstore\n      keccak256(0x00, 0x20)\n      swap1\n      0x03\n      mul\n      add\n      0x00\n      swap2\n      pop\n      swap1\n      pop\n      dup1\n      0x00\n      add\n      dup1\n      sload\n      tag_283\n      swap1\n      tag_218\n      jump\t// in\n    tag_283:\n      dup1\n      0x1f\n      add\n      0x20\n      dup1\n      swap2\n      div\n      mul\n      0x20\n      add\n      mload(0x40)\n      swap1\n      dup2\n      add\n      0x40\n      mstore\n      dup1\n      swap3\n      swap2\n      swap1\n      dup2\n      dup2\n      mstore\n      0x20\n      add\n      dup3\n      dup1\n      sload\n      tag_284\n      swap1\n      tag_218\n      jump\t// in\n    tag_284:\n      dup1\n      iszero\n      tag_285\n      jumpi\n      dup1\n      0x1f\n      lt\n      tag_286\n      jumpi\n      0x0100\n      dup1\n      dup4\n      sload\n      div\n      mul\n      dup4\n      mstore\n      swap2\n      0x20\n      add\n      swap2\n      jump(tag_285)\n    tag_286:\n      dup3\n      add\n      swap2\n      swap1\n      0x00\n      mstore\n      keccak256(0x00, 0x20)\n      swap1\n    tag_287:\n      dup2\n      sload\n      dup2\n      mstore\n      swap1\n      0x01\n      add\n      swap1\n      0x20\n      add\n      dup1\n      dup4\n      gt\n      tag_287\n      jumpi\n      dup3\n      swap1\n      sub\n      0x1f\n      and\n      dup3\n      add\n      swap2\n    tag_285:\n      pop\n      pop\n      pop\n      pop\n      pop\n      swap1\n      dup1\n      0x01\n      add\n      0x00\n      swap1\n      sload\n      swap1\n      0x0100\n      exp\n      swap1\n      div\n      0xffffffffffffffffffffffffffffffffffffffff\n      and\n      swap1\n      pop\n      dup3\n      jump\t// out\n        /* \"Campaign.sol\":6139:6411  function ajouterMarquePanneau( string memory _nomMarque, uint256 _prix, uint256 _production) public {\t... */\n    tag_156:\n        /* \"Campaign.sol\":6251:6280  Partenaire storage partenaire */\n      0x00\n        /* \"Campaign.sol\":6283:6294  partenaires */\n      0x08\n        /* \"Campaign.sol\":6295:6311  listePartenaires */\n      0x09\n        /* \"Campaign.sol\":6295:6323  listePartenaires[msg.sender] */\n      0x00\n        /* \"Campaign.sol\":6312:6322  msg.sender */\n      caller\n        /* \"Campaign.sol\":6295:6323  listePartenaires[msg.sender] */\n      0xffffffffffffffffffffffffffffffffffffffff\n      and\n      0xffffffffffffffffffffffffffffffffffffffff\n      and\n      dup2\n      mstore\n      0x20\n      add\n      swap1\n      dup2\n      mstore\n      0x20\n      add\n      0x00\n      keccak256\n      sload\n        /* \"Campaign.sol\":6283:6324  partenaires[listePartenaires[msg.sender]] */\n      dup2\n      sload\n      dup2\n      lt\n      tag_289\n      jumpi\n      tag_290\n      tag_203\n      jump\t// in\n    tag_290:\n    tag_289:\n      swap1\n      0x00\n      mstore\n      keccak256(0x00, 0x20)\n      swap1\n      0x03\n      mul\n      add\n        /* \"Campaign.sol\":6251:6324  Partenaire storage partenaire = partenaires[listePartenaires[msg.sender]] */\n      swap1\n      pop\n        /* \"Campaign.sol\":6369:6402  MarquePanneau(_prix, _production) */\n      mload(0x40)\n      dup1\n      0x40\n      add\n      0x40\n      mstore\n      dup1\n        /* \"Campaign.sol\":6383:6388  _prix */\n      dup5\n        /* \"Campaign.sol\":6369:6402  MarquePanneau(_prix, _production) */\n      dup2\n      mstore\n      0x20\n      add\n        /* \"Campaign.sol\":6390:6401  _production */\n      dup4\n        /* \"Campaign.sol\":6369:6402  MarquePanneau(_prix, _production) */\n      dup2\n      mstore\n      pop\n        /* \"Campaign.sol\":6336:6346  partenaire */\n      dup2\n        /* \"Campaign.sol\":6336:6354  partenaire.marques */\n      0x02\n      add\n        /* \"Campaign.sol\":6355:6365  _nomMarque */\n      dup6\n        /* \"Campaign.sol\":6336:6366  partenaire.marques[_nomMarque] */\n      mload(0x40)\n      tag_292\n      swap2\n      swap1\n      tag_231\n      jump\t// in\n    tag_292:\n      swap1\n      dup2\n      mstore\n      0x20\n      add\n      mload(0x40)\n      dup1\n      swap2\n      sub\n      swap1\n      keccak256\n        /* \"Campaign.sol\":6336:6402  partenaire.marques[_nomMarque] = MarquePanneau(_prix, _production) */\n      0x00\n      dup3\n      add\n      mload\n      dup2\n      0x00\n      add\n      sstore\n      0x20\n      dup3\n      add\n      mload\n      dup2\n      0x01\n      add\n      sstore\n      swap1\n      pop\n      pop\n        /* \"Campaign.sol\":6239:6411  {\t... */\n      pop\n        /* \"Campaign.sol\":6139:6411  function ajouterMarquePanneau( string memory _nomMarque, uint256 _prix, uint256 _production) public {\t... */\n      pop\n      pop\n      pop\n      jump\t// out\n        /* \"Campaign.sol\":1665:1700  PartnerOffer[] public PartnerOffers */\n    tag_160:\n      0x0a\n      dup2\n      dup2\n      sload\n      dup2\n      lt\n      tag_293\n      jumpi\n      0x00\n      dup1\n      revert\n    tag_293:\n      swap1\n      0x00\n      mstore\n      keccak256(0x00, 0x20)\n      swap1\n      0x03\n      mul\n      add\n      0x00\n      swap2\n      pop\n      swap1\n      pop\n      dup1\n      0x00\n      add\n      dup1\n      sload\n      tag_295\n      swap1\n      tag_218\n      jump\t// in\n    tag_295:\n      dup1\n      0x1f\n      add\n      0x20\n      dup1\n      swap2\n      div\n      mul\n      0x20\n      add\n      mload(0x40)\n      swap1\n      dup2\n      add\n      0x40\n      mstore\n      dup1\n      swap3\n      swap2\n      swap1\n      dup2\n      dup2\n      mstore\n      0x20\n      add\n      dup3\n      dup1\n      sload\n      tag_296\n      swap1\n      tag_218\n      jump\t// in\n    tag_296:\n      dup1\n      iszero\n      tag_297\n      jumpi\n      dup1\n      0x1f\n      lt\n      tag_298\n      jumpi\n      0x0100\n      dup1\n      dup4\n      sload\n      div\n      mul\n      dup4\n      mstore\n      swap2\n      0x20\n      add\n      swap2\n      jump(tag_297)\n    tag_298:\n      dup3\n      add\n      swap2\n      swap1\n      0x00\n      mstore\n      keccak256(0x00, 0x20)\n      swap1\n    tag_299:\n      dup2\n      sload\n      dup2\n      mstore\n      swap1\n      0x01\n      add\n      swap1\n      0x20\n      add\n      dup1\n      dup4\n      gt\n      tag_299\n      jumpi\n      dup3\n      swap1\n      sub\n      0x1f\n      and\n      dup3\n      add\n      swap2\n    tag_297:\n      pop\n      pop\n      pop\n      pop\n      pop\n      swap1\n      dup1\n      0x01\n      add\n      0x00\n      swap1\n      sload\n      swap1\n      0x0100\n      exp\n      swap1\n      div\n      0xff\n      and\n      swap1\n      pop\n      dup3\n      jump\t// out\n        /* \"Campaign.sol\":614:647  uint256 public consommationTotale */\n    tag_165:\n      sload(0x02)\n      dup2\n      jump\t// out\n        /* \"Campaign.sol\":3442:3622  function contribute() public payable returns(uint){... */\n    tag_168:\n        /* \"Campaign.sol\":3487:3491  uint */\n      0x00\n        /* \"Campaign.sol\":3521:3522  0 */\n      dup1\n        /* \"Campaign.sol\":3511:3520  msg.value */\n      callvalue\n        /* \"Campaign.sol\":3511:3522  msg.value>0 */\n      gt\n        /* \"Campaign.sol\":3503:3523  require(msg.value>0) */\n      tag_301\n      jumpi\n      0x00\n      dup1\n      revert\n    tag_301:\n        /* \"Campaign.sol\":3556:3560  true */\n      0x01\n        /* \"Campaign.sol\":3534:3543  approvers */\n      0x0d\n        /* \"Campaign.sol\":3534:3555  approvers[msg.sender] */\n      0x00\n        /* \"Campaign.sol\":3544:3554  msg.sender */\n      caller\n        /* \"Campaign.sol\":3534:3555  approvers[msg.sender] */\n      0xffffffffffffffffffffffffffffffffffffffff\n      and\n      0xffffffffffffffffffffffffffffffffffffffff\n      and\n      dup2\n      mstore\n      0x20\n      add\n      swap1\n      dup2\n      mstore\n      0x20\n      add\n      0x00\n      keccak256\n      0x00\n        /* \"Campaign.sol\":3534:3560  approvers[msg.sender]=true */\n      0x0100\n      exp\n      dup2\n      sload\n      dup2\n      0xff\n      mul\n      not\n      and\n      swap1\n      dup4\n      iszero\n      iszero\n      mul\n      or\n      swap1\n      sstore\n      pop\n        /* \"Campaign.sol\":3571:3583  approvsCount */\n      0x0e\n      0x00\n        /* \"Campaign.sol\":3571:3585  approvsCount++ */\n      dup2\n      sload\n      dup1\n      swap3\n      swap2\n      swap1\n      tag_302\n      swap1\n      tag_275\n      jump\t// in\n    tag_302:\n      swap2\n      swap1\n      pop\n      sstore\n      pop\n        /* \"Campaign.sol\":3603:3612  msg.value */\n      callvalue\n        /* \"Campaign.sol\":3596:3612  return msg.value */\n      swap1\n      pop\n        /* \"Campaign.sol\":3442:3622  function contribute() public payable returns(uint){... */\n      swap1\n      jump\t// out\n        /* \"Campaign.sol\":3628:3905  function approveRequest(uint index)public {... */\n    tag_173:\n        /* \"Campaign.sol\":3681:3704  Request storage request */\n      0x00\n        /* \"Campaign.sol\":3706:3714  requests */\n      0x0b\n        /* \"Campaign.sol\":3715:3720  index */\n      dup3\n        /* \"Campaign.sol\":3706:3721  requests[index] */\n      dup2\n      sload\n      dup2\n      lt\n      tag_304\n      jumpi\n      tag_305\n      tag_203\n      jump\t// in\n    tag_305:\n    tag_304:\n      swap1\n      0x00\n      mstore\n      keccak256(0x00, 0x20)\n      swap1\n      0x05\n      mul\n      add\n        /* \"Campaign.sol\":3681:3721  Request storage request =requests[index] */\n      swap1\n      pop\n        /* \"Campaign.sol\":3742:3751  approvers */\n      0x0d\n        /* \"Campaign.sol\":3742:3763  approvers[msg.sender] */\n      0x00\n        /* \"Campaign.sol\":3752:3762  msg.sender */\n      caller\n        /* \"Campaign.sol\":3742:3763  approvers[msg.sender] */\n      0xffffffffffffffffffffffffffffffffffffffff\n      and\n      0xffffffffffffffffffffffffffffffffffffffff\n      and\n      dup2\n      mstore\n      0x20\n      add\n      swap1\n      dup2\n      mstore\n      0x20\n      add\n      0x00\n      keccak256\n      0x00\n      swap1\n      sload\n      swap1\n      0x0100\n      exp\n      swap1\n      div\n      0xff\n      and\n        /* \"Campaign.sol\":3734:3764  require(approvers[msg.sender]) */\n      tag_307\n      jumpi\n      0x00\n      dup1\n      revert\n    tag_307:\n        /* \"Campaign.sol\":3784:3791  request */\n      dup1\n        /* \"Campaign.sol\":3784:3801  request.approvals */\n      0x03\n      add\n        /* \"Campaign.sol\":3784:3813  request.approvals[msg.sender] */\n      0x00\n        /* \"Campaign.sol\":3802:3812  msg.sender */\n      caller\n        /* \"Campaign.sol\":3784:3813  request.approvals[msg.sender] */\n      0xffffffffffffffffffffffffffffffffffffffff\n      and\n      0xffffffffffffffffffffffffffffffffffffffff\n      and\n      dup2\n      mstore\n      0x20\n      add\n      swap1\n      dup2\n      mstore\n      0x20\n      add\n      0x00\n      keccak256\n      0x00\n      swap1\n      sload\n      swap1\n      0x0100\n      exp\n      swap1\n      div\n      0xff\n      and\n        /* \"Campaign.sol\":3783:3813  !request.approvals[msg.sender] */\n      iszero\n        /* \"Campaign.sol\":3775:3814  require(!request.approvals[msg.sender]) */\n      tag_308\n      jumpi\n      0x00\n      dup1\n      revert\n    tag_308:\n        /* \"Campaign.sol\":3855:3859  true */\n      0x01\n        /* \"Campaign.sol\":3825:3832  request */\n      dup2\n        /* \"Campaign.sol\":3825:3842  request.approvals */\n      0x03\n      add\n        /* \"Campaign.sol\":3825:3854  request.approvals[msg.sender] */\n      0x00\n        /* \"Campaign.sol\":3843:3853  msg.sender */\n      caller\n        /* \"Campaign.sol\":3825:3854  request.approvals[msg.sender] */\n      0xffffffffffffffffffffffffffffffffffffffff\n      and\n      0xffffffffffffffffffffffffffffffffffffffff\n      and\n      dup2\n      mstore\n      0x20\n      add\n      swap1\n      dup2\n      mstore\n      0x20\n      add\n      0x00\n      keccak256\n      0x00\n        /* \"Campaign.sol\":3825:3859  request.approvals[msg.sender]=true */\n      0x0100\n      exp\n      dup2\n      sload\n      dup2\n      0xff\n      mul\n      not\n      and\n      swap1\n      dup4\n      iszero\n      iszero\n      mul\n      or\n      swap1\n      sstore\n      pop\n        /* \"Campaign.sol\":3870:3877  request */\n      dup1\n        /* \"Campaign.sol\":3870:3891  request.approvalCount */\n      0x04\n      add\n      0x00\n        /* \"Campaign.sol\":3870:3894  request.approvalCount ++ */\n      dup2\n      sload\n      dup1\n      swap3\n      swap2\n      swap1\n      tag_309\n      swap1\n      tag_275\n      jump\t// in\n    tag_309:\n      swap2\n      swap1\n      pop\n      sstore\n      pop\n        /* \"Campaign.sol\":3670:3905  {... */\n      pop\n        /* \"Campaign.sol\":3628:3905  function approveRequest(uint index)public {... */\n      pop\n      jump\t// out\n        /* \"Campaign.sol\":2631:2735  function getdeployedCampaign() public view returns(address[] memory) {... */\n    tag_176:\n        /* \"Campaign.sol\":2682:2698  address[] memory */\n      0x60\n        /* \"Campaign.sol\":2714:2731  deployedCamapigns */\n      0x00\n        /* \"Campaign.sol\":2707:2731  return deployedCamapigns */\n      dup1\n      sload\n      dup1\n      0x20\n      mul\n      0x20\n      add\n      mload(0x40)\n      swap1\n      dup2\n      add\n      0x40\n      mstore\n      dup1\n      swap3\n      swap2\n      swap1\n      dup2\n      dup2\n      mstore\n      0x20\n      add\n      dup3\n      dup1\n      sload\n      dup1\n      iszero\n      tag_311\n      jumpi\n      0x20\n      mul\n      dup3\n      add\n      swap2\n      swap1\n      0x00\n      mstore\n      keccak256(0x00, 0x20)\n      swap1\n    tag_312:\n      dup2\n      0x00\n      swap1\n      sload\n      swap1\n      0x0100\n      exp\n      swap1\n      div\n      0xffffffffffffffffffffffffffffffffffffffff\n      and\n      0xffffffffffffffffffffffffffffffffffffffff\n      and\n      dup2\n      mstore\n      0x20\n      add\n      swap1\n      0x01\n      add\n      swap1\n      dup1\n      dup4\n      gt\n      tag_312\n      jumpi\n    tag_311:\n      pop\n      pop\n      pop\n      pop\n      pop\n      swap1\n      pop\n        /* \"Campaign.sol\":2631:2735  function getdeployedCampaign() public view returns(address[] memory) {... */\n      swap1\n      jump\t// out\n        /* \"Campaign.sol\":1816:1840  uint public approvsCount */\n    tag_181:\n      sload(0x0e)\n      dup2\n      jump\t// out\n        /* \"Campaign.sol\":654:684  uint256 public nombrePersonnes */\n    tag_185:\n      sload(0x03)\n      dup2\n      jump\t// out\n        /* \"#utility.yul\":7:82   */\n    tag_313:\n        /* \"#utility.yul\":40:46   */\n      0x00\n        /* \"#utility.yul\":73:75   */\n      0x40\n        /* \"#utility.yul\":67:76   */\n      mload\n        /* \"#utility.yul\":57:76   */\n      swap1\n      pop\n        /* \"#utility.yul\":7:82   */\n      swap1\n      jump\t// out\n        /* \"#utility.yul\":88:205   */\n    tag_314:\n        /* \"#utility.yul\":197:198   */\n      0x00\n        /* \"#utility.yul\":194:195   */\n      dup1\n        /* \"#utility.yul\":187:199   */\n      revert\n        /* \"#utility.yul\":211:328   */\n    tag_315:\n        /* \"#utility.yul\":320:321   */\n      0x00\n        /* \"#utility.yul\":317:318   */\n      dup1\n        /* \"#utility.yul\":310:322   */\n      revert\n        /* \"#utility.yul\":334:411   */\n    tag_316:\n        /* \"#utility.yul\":371:378   */\n      0x00\n        /* \"#utility.yul\":400:405   */\n      dup2\n        /* \"#utility.yul\":389:405   */\n      swap1\n      pop\n        /* \"#utility.yul\":334:411   */\n      swap2\n      swap1\n      pop\n      jump\t// out\n        /* \"#utility.yul\":417:539   */\n    tag_317:\n        /* \"#utility.yul\":490:514   */\n      tag_380\n        /* \"#utility.yul\":508:513   */\n      dup2\n        /* \"#utility.yul\":490:514   */\n      tag_316\n      jump\t// in\n    tag_380:\n        /* \"#utility.yul\":483:488   */\n      dup2\n        /* \"#utility.yul\":480:515   */\n      eq\n        /* \"#utility.yul\":470:533   */\n      tag_381\n      jumpi\n        /* \"#utility.yul\":529:530   */\n      0x00\n        /* \"#utility.yul\":526:527   */\n      dup1\n        /* \"#utility.yul\":519:531   */\n      revert\n        /* \"#utility.yul\":470:533   */\n    tag_381:\n        /* \"#utility.yul\":417:539   */\n      pop\n      jump\t// out\n        /* \"#utility.yul\":545:684   */\n    tag_318:\n        /* \"#utility.yul\":591:596   */\n      0x00\n        /* \"#utility.yul\":629:635   */\n      dup2\n        /* \"#utility.yul\":616:636   */\n      calldataload\n        /* \"#utility.yul\":607:636   */\n      swap1\n      pop\n        /* \"#utility.yul\":645:678   */\n      tag_383\n        /* \"#utility.yul\":672:677   */\n      dup2\n        /* \"#utility.yul\":645:678   */\n      tag_317\n      jump\t// in\n    tag_383:\n        /* \"#utility.yul\":545:684   */\n      swap3\n      swap2\n      pop\n      pop\n      jump\t// out\n        /* \"#utility.yul\":690:1309   */\n    tag_42:\n        /* \"#utility.yul\":767:773   */\n      0x00\n        /* \"#utility.yul\":775:781   */\n      dup1\n        /* \"#utility.yul\":783:789   */\n      0x00\n        /* \"#utility.yul\":832:834   */\n      0x60\n        /* \"#utility.yul\":820:829   */\n      dup5\n        /* \"#utility.yul\":811:818   */\n      dup7\n        /* \"#utility.yul\":807:830   */\n      sub\n        /* \"#utility.yul\":803:835   */\n      slt\n        /* \"#utility.yul\":800:919   */\n      iszero\n      tag_385\n      jumpi\n        /* \"#utility.yul\":838:917   */\n      tag_386\n      tag_314\n      jump\t// in\n    tag_386:\n        /* \"#utility.yul\":800:919   */\n    tag_385:\n        /* \"#utility.yul\":958:959   */\n      0x00\n        /* \"#utility.yul\":983:1036   */\n      tag_387\n        /* \"#utility.yul\":1028:1035   */\n      dup7\n        /* \"#utility.yul\":1019:1025   */\n      dup3\n        /* \"#utility.yul\":1008:1017   */\n      dup8\n        /* \"#utility.yul\":1004:1026   */\n      add\n        /* \"#utility.yul\":983:1036   */\n      tag_318\n      jump\t// in\n    tag_387:\n        /* \"#utility.yul\":973:1036   */\n      swap4\n      pop\n        /* \"#utility.yul\":929:1046   */\n      pop\n        /* \"#utility.yul\":1085:1087   */\n      0x20\n        /* \"#utility.yul\":1111:1164   */\n      tag_388\n        /* \"#utility.yul\":1156:1163   */\n      dup7\n        /* \"#utility.yul\":1147:1153   */\n      dup3\n        /* \"#utility.yul\":1136:1145   */\n      dup8\n        /* \"#utility.yul\":1132:1154   */\n      add\n        /* \"#utility.yul\":1111:1164   */\n      tag_318\n      jump\t// in\n    tag_388:\n        /* \"#utility.yul\":1101:1164   */\n      swap3\n      pop\n        /* \"#utility.yul\":1056:1174   */\n      pop\n        /* \"#utility.yul\":1213:1215   */\n      0x40\n        /* \"#utility.yul\":1239:1292   */\n      tag_389\n        /* \"#utility.yul\":1284:1291   */\n      dup7\n        /* \"#utility.yul\":1275:1281   */\n      dup3\n        /* \"#utility.yul\":1264:1273   */\n      dup8\n        /* \"#utility.yul\":1260:1282   */\n      add\n        /* \"#utility.yul\":1239:1292   */\n      tag_318\n      jump\t// in\n    tag_389:\n        /* \"#utility.yul\":1229:1292   */\n      swap2\n      pop\n        /* \"#utility.yul\":1184:1302   */\n      pop\n        /* \"#utility.yul\":690:1309   */\n      swap3\n      pop\n      swap3\n      pop\n      swap3\n      jump\t// out\n        /* \"#utility.yul\":1315:1433   */\n    tag_319:\n        /* \"#utility.yul\":1402:1426   */\n      tag_391\n        /* \"#utility.yul\":1420:1425   */\n      dup2\n        /* \"#utility.yul\":1402:1426   */\n      tag_316\n      jump\t// in\n    tag_391:\n        /* \"#utility.yul\":1397:1400   */\n      dup3\n        /* \"#utility.yul\":1390:1427   */\n      mstore\n        /* \"#utility.yul\":1315:1433   */\n      pop\n      pop\n      jump\t// out\n        /* \"#utility.yul\":1439:1661   */\n    tag_45:\n        /* \"#utility.yul\":1532:1536   */\n      0x00\n        /* \"#utility.yul\":1570:1572   */\n      0x20\n        /* \"#utility.yul\":1559:1568   */\n      dup3\n        /* \"#utility.yul\":1555:1573   */\n      add\n        /* \"#utility.yul\":1547:1573   */\n      swap1\n      pop\n        /* \"#utility.yul\":1583:1654   */\n      tag_393\n        /* \"#utility.yul\":1651:1652   */\n      0x00\n        /* \"#utility.yul\":1640:1649   */\n      dup4\n        /* \"#utility.yul\":1636:1653   */\n      add\n        /* \"#utility.yul\":1627:1633   */\n      dup5\n        /* \"#utility.yul\":1583:1654   */\n      tag_319\n      jump\t// in\n    tag_393:\n        /* \"#utility.yul\":1439:1661   */\n      swap3\n      swap2\n      pop\n      pop\n      jump\t// out\n        /* \"#utility.yul\":1667:1996   */\n    tag_49:\n        /* \"#utility.yul\":1726:1732   */\n      0x00\n        /* \"#utility.yul\":1775:1777   */\n      0x20\n        /* \"#utility.yul\":1763:1772   */\n      dup3\n        /* \"#utility.yul\":1754:1761   */\n      dup5\n        /* \"#utility.yul\":1750:1773   */\n      sub\n        /* \"#utility.yul\":1746:1778   */\n      slt\n        /* \"#utility.yul\":1743:1862   */\n      iszero\n      tag_395\n      jumpi\n        /* \"#utility.yul\":1781:1860   */\n      tag_396\n      tag_314\n      jump\t// in\n    tag_396:\n        /* \"#utility.yul\":1743:1862   */\n    tag_395:\n        /* \"#utility.yul\":1901:1902   */\n      0x00\n        /* \"#utility.yul\":1926:1979   */\n      tag_397\n        /* \"#utility.yul\":1971:1978   */\n      dup5\n        /* \"#utility.yul\":1962:1968   */\n      dup3\n        /* \"#utility.yul\":1951:1960   */\n      dup6\n        /* \"#utility.yul\":1947:1969   */\n      add\n        /* \"#utility.yul\":1926:1979   */\n      tag_318\n      jump\t// in\n    tag_397:\n        /* \"#utility.yul\":1916:1979   */\n      swap2\n      pop\n        /* \"#utility.yul\":1872:1989   */\n      pop\n        /* \"#utility.yul\":1667:1996   */\n      swap3\n      swap2\n      pop\n      pop\n      jump\t// out\n        /* \"#utility.yul\":2002:2128   */\n    tag_320:\n        /* \"#utility.yul\":2039:2046   */\n      0x00\n        /* \"#utility.yul\":2079:2121   */\n      0xffffffffffffffffffffffffffffffffffffffff\n        /* \"#utility.yul\":2072:2077   */\n      dup3\n        /* \"#utility.yul\":2068:2122   */\n      and\n        /* \"#utility.yul\":2057:2122   */\n      swap1\n      pop\n        /* \"#utility.yul\":2002:2128   */\n      swap2\n      swap1\n      pop\n      jump\t// out\n        /* \"#utility.yul\":2134:2230   */\n    tag_321:\n        /* \"#utility.yul\":2171:2178   */\n      0x00\n        /* \"#utility.yul\":2200:2224   */\n      tag_400\n        /* \"#utility.yul\":2218:2223   */\n      dup3\n        /* \"#utility.yul\":2200:2224   */\n      tag_320\n      jump\t// in\n    tag_400:\n        /* \"#utility.yul\":2189:2224   */\n      swap1\n      pop\n        /* \"#utility.yul\":2134:2230   */\n      swap2\n      swap1\n      pop\n      jump\t// out\n        /* \"#utility.yul\":2236:2354   */\n    tag_322:\n        /* \"#utility.yul\":2323:2347   */\n      tag_402\n        /* \"#utility.yul\":2341:2346   */\n      dup2\n        /* \"#utility.yul\":2323:2347   */\n      tag_321\n      jump\t// in\n    tag_402:\n        /* \"#utility.yul\":2318:2321   */\n      dup3\n        /* \"#utility.yul\":2311:2348   */\n      mstore\n        /* \"#utility.yul\":2236:2354   */\n      pop\n      pop\n      jump\t// out\n        /* \"#utility.yul\":2360:2582   */\n    tag_52:\n        /* \"#utility.yul\":2453:2457   */\n      0x00\n        /* \"#utility.yul\":2491:2493   */\n      0x20\n        /* \"#utility.yul\":2480:2489   */\n      dup3\n        /* \"#utility.yul\":2476:2494   */\n      add\n        /* \"#utility.yul\":2468:2494   */\n      swap1\n      pop\n        /* \"#utility.yul\":2504:2575   */\n      tag_404\n        /* \"#utility.yul\":2572:2573   */\n      0x00\n        /* \"#utility.yul\":2561:2570   */\n      dup4\n        /* \"#utility.yul\":2557:2574   */\n      add\n        /* \"#utility.yul\":2548:2554   */\n      dup5\n        /* \"#utility.yul\":2504:2575   */\n      tag_322\n      jump\t// in\n    tag_404:\n        /* \"#utility.yul\":2360:2582   */\n      swap3\n      swap2\n      pop\n      pop\n      jump\t// out\n        /* \"#utility.yul\":2588:2710   */\n    tag_323:\n        /* \"#utility.yul\":2661:2685   */\n      tag_406\n        /* \"#utility.yul\":2679:2684   */\n      dup2\n        /* \"#utility.yul\":2661:2685   */\n      tag_321\n      jump\t// in\n    tag_406:\n        /* \"#utility.yul\":2654:2659   */\n      dup2\n        /* \"#utility.yul\":2651:2686   */\n      eq\n        /* \"#utility.yul\":2641:2704   */\n      tag_407\n      jumpi\n        /* \"#utility.yul\":2700:2701   */\n      0x00\n        /* \"#utility.yul\":2697:2698   */\n      dup1\n        /* \"#utility.yul\":2690:2702   */\n      revert\n        /* \"#utility.yul\":2641:2704   */\n    tag_407:\n        /* \"#utility.yul\":2588:2710   */\n      pop\n      jump\t// out\n        /* \"#utility.yul\":2716:2855   */\n    tag_324:\n        /* \"#utility.yul\":2762:2767   */\n      0x00\n        /* \"#utility.yul\":2800:2806   */\n      dup2\n        /* \"#utility.yul\":2787:2807   */\n      calldataload\n        /* \"#utility.yul\":2778:2807   */\n      swap1\n      pop\n        /* \"#utility.yul\":2816:2849   */\n      tag_409\n        /* \"#utility.yul\":2843:2848   */\n      dup2\n        /* \"#utility.yul\":2816:2849   */\n      tag_323\n      jump\t// in\n    tag_409:\n        /* \"#utility.yul\":2716:2855   */\n      swap3\n      swap2\n      pop\n      pop\n      jump\t// out\n        /* \"#utility.yul\":2861:3190   */\n    tag_64:\n        /* \"#utility.yul\":2920:2926   */\n      0x00\n        /* \"#utility.yul\":2969:2971   */\n      0x20\n        /* \"#utility.yul\":2957:2966   */\n      dup3\n        /* \"#utility.yul\":2948:2955   */\n      dup5\n        /* \"#utility.yul\":2944:2967   */\n      sub\n        /* \"#utility.yul\":2940:2972   */\n      slt\n        /* \"#utility.yul\":2937:3056   */\n      iszero\n      tag_411\n      jumpi\n        /* \"#utility.yul\":2975:3054   */\n      tag_412\n      tag_314\n      jump\t// in\n    tag_412:\n        /* \"#utility.yul\":2937:3056   */\n    tag_411:\n        /* \"#utility.yul\":3095:3096   */\n      0x00\n        /* \"#utility.yul\":3120:3173   */\n      tag_413\n        /* \"#utility.yul\":3165:3172   */\n      dup5\n        /* \"#utility.yul\":3156:3162   */\n      dup3\n        /* \"#utility.yul\":3145:3154   */\n      dup6\n        /* \"#utility.yul\":3141:3163   */\n      add\n        /* \"#utility.yul\":3120:3173   */\n      tag_324\n      jump\t// in\n    tag_413:\n        /* \"#utility.yul\":3110:3173   */\n      swap2\n      pop\n        /* \"#utility.yul\":3066:3183   */\n      pop\n        /* \"#utility.yul\":2861:3190   */\n      swap3\n      swap2\n      pop\n      pop\n      jump\t// out\n        /* \"#utility.yul\":3196:3286   */\n    tag_325:\n        /* \"#utility.yul\":3230:3237   */\n      0x00\n        /* \"#utility.yul\":3273:3278   */\n      dup2\n        /* \"#utility.yul\":3266:3279   */\n      iszero\n        /* \"#utility.yul\":3259:3280   */\n      iszero\n        /* \"#utility.yul\":3248:3280   */\n      swap1\n      pop\n        /* \"#utility.yul\":3196:3286   */\n      swap2\n      swap1\n      pop\n      jump\t// out\n        /* \"#utility.yul\":3292:3401   */\n    tag_326:\n        /* \"#utility.yul\":3373:3394   */\n      tag_416\n        /* \"#utility.yul\":3388:3393   */\n      dup2\n        /* \"#utility.yul\":3373:3394   */\n      tag_325\n      jump\t// in\n    tag_416:\n        /* \"#utility.yul\":3368:3371   */\n      dup3\n        /* \"#utility.yul\":3361:3395   */\n      mstore\n        /* \"#utility.yul\":3292:3401   */\n      pop\n      pop\n      jump\t// out\n        /* \"#utility.yul\":3407:3617   */\n    tag_67:\n        /* \"#utility.yul\":3494:3498   */\n      0x00\n        /* \"#utility.yul\":3532:3534   */\n      0x20\n        /* \"#utility.yul\":3521:3530   */\n      dup3\n        /* \"#utility.yul\":3517:3535   */\n      add\n        /* \"#utility.yul\":3509:3535   */\n      swap1\n      pop\n        /* \"#utility.yul\":3545:3610   */\n      tag_418\n        /* \"#utility.yul\":3607:3608   */\n      0x00\n        /* \"#utility.yul\":3596:3605   */\n      dup4\n        /* \"#utility.yul\":3592:3609   */\n      add\n        /* \"#utility.yul\":3583:3589   */\n      dup5\n        /* \"#utility.yul\":3545:3610   */\n      tag_326\n      jump\t// in\n    tag_418:\n        /* \"#utility.yul\":3407:3617   */\n      swap3\n      swap2\n      pop\n      pop\n      jump\t// out\n        /* \"#utility.yul\":3623:3722   */\n    tag_327:\n        /* \"#utility.yul\":3675:3681   */\n      0x00\n        /* \"#utility.yul\":3709:3714   */\n      dup2\n        /* \"#utility.yul\":3703:3715   */\n      mload\n        /* \"#utility.yul\":3693:3715   */\n      swap1\n      pop\n        /* \"#utility.yul\":3623:3722   */\n      swap2\n      swap1\n      pop\n      jump\t// out\n        /* \"#utility.yul\":3728:3897   */\n    tag_328:\n        /* \"#utility.yul\":3812:3823   */\n      0x00\n        /* \"#utility.yul\":3846:3852   */\n      dup3\n        /* \"#utility.yul\":3841:3844   */\n      dup3\n        /* \"#utility.yul\":3834:3853   */\n      mstore\n        /* \"#utility.yul\":3886:3890   */\n      0x20\n        /* \"#utility.yul\":3881:3884   */\n      dup3\n        /* \"#utility.yul\":3877:3891   */\n      add\n        /* \"#utility.yul\":3862:3891   */\n      swap1\n      pop\n        /* \"#utility.yul\":3728:3897   */\n      swap3\n      swap2\n      pop\n      pop\n      jump\t// out\n        /* \"#utility.yul\":3903:4149   */\n    tag_329:\n        /* \"#utility.yul\":3984:3985   */\n      0x00\n        /* \"#utility.yul\":3994:4107   */\n    tag_422:\n        /* \"#utility.yul\":4008:4014   */\n      dup4\n        /* \"#utility.yul\":4005:4006   */\n      dup2\n        /* \"#utility.yul\":4002:4015   */\n      lt\n        /* \"#utility.yul\":3994:4107   */\n      iszero\n      tag_424\n      jumpi\n        /* \"#utility.yul\":4093:4094   */\n      dup1\n        /* \"#utility.yul\":4088:4091   */\n      dup3\n        /* \"#utility.yul\":4084:4095   */\n      add\n        /* \"#utility.yul\":4078:4096   */\n      mload\n        /* \"#utility.yul\":4074:4075   */\n      dup2\n        /* \"#utility.yul\":4069:4072   */\n      dup5\n        /* \"#utility.yul\":4065:4076   */\n      add\n        /* \"#utility.yul\":4058:4097   */\n      mstore\n        /* \"#utility.yul\":4030:4032   */\n      0x20\n        /* \"#utility.yul\":4027:4028   */\n      dup2\n        /* \"#utility.yul\":4023:4033   */\n      add\n        /* \"#utility.yul\":4018:4033   */\n      swap1\n      pop\n        /* \"#utility.yul\":3994:4107   */\n      jump(tag_422)\n    tag_424:\n        /* \"#utility.yul\":4141:4142   */\n      0x00\n        /* \"#utility.yul\":4132:4138   */\n      dup5\n        /* \"#utility.yul\":4127:4130   */\n      dup5\n        /* \"#utility.yul\":4123:4139   */\n      add\n        /* \"#utility.yul\":4116:4143   */\n      mstore\n        /* \"#utility.yul\":3965:4149   */\n      pop\n        /* \"#utility.yul\":3903:4149   */\n      pop\n      pop\n      pop\n      jump\t// out\n        /* \"#utility.yul\":4155:4257   */\n    tag_330:\n        /* \"#utility.yul\":4196:4202   */\n      0x00\n        /* \"#utility.yul\":4247:4249   */\n      0x1f\n        /* \"#utility.yul\":4243:4250   */\n      not\n        /* \"#utility.yul\":4238:4240   */\n      0x1f\n        /* \"#utility.yul\":4231:4236   */\n      dup4\n        /* \"#utility.yul\":4227:4241   */\n      add\n        /* \"#utility.yul\":4223:4251   */\n      and\n        /* \"#utility.yul\":4213:4251   */\n      swap1\n      pop\n        /* \"#utility.yul\":4155:4257   */\n      swap2\n      swap1\n      pop\n      jump\t// out\n        /* \"#utility.yul\":4263:4640   */\n    tag_331:\n        /* \"#utility.yul\":4351:4354   */\n      0x00\n        /* \"#utility.yul\":4379:4418   */\n      tag_427\n        /* \"#utility.yul\":4412:4417   */\n      dup3\n        /* \"#utility.yul\":4379:4418   */\n      tag_327\n      jump\t// in\n    tag_427:\n        /* \"#utility.yul\":4434:4505   */\n      tag_428\n        /* \"#utility.yul\":4498:4504   */\n      dup2\n        /* \"#utility.yul\":4493:4496   */\n      dup6\n        /* \"#utility.yul\":4434:4505   */\n      tag_328\n      jump\t// in\n    tag_428:\n        /* \"#utility.yul\":4427:4505   */\n      swap4\n      pop\n        /* \"#utility.yul\":4514:4579   */\n      tag_429\n        /* \"#utility.yul\":4572:4578   */\n      dup2\n        /* \"#utility.yul\":4567:4570   */\n      dup6\n        /* \"#utility.yul\":4560:4564   */\n      0x20\n        /* \"#utility.yul\":4553:4558   */\n      dup7\n        /* \"#utility.yul\":4549:4565   */\n      add\n        /* \"#utility.yul\":4514:4579   */\n      tag_329\n      jump\t// in\n    tag_429:\n        /* \"#utility.yul\":4604:4633   */\n      tag_430\n        /* \"#utility.yul\":4626:4632   */\n      dup2\n        /* \"#utility.yul\":4604:4633   */\n      tag_330\n      jump\t// in\n    tag_430:\n        /* \"#utility.yul\":4599:4602   */\n      dup5\n        /* \"#utility.yul\":4595:4634   */\n      add\n        /* \"#utility.yul\":4588:4634   */\n      swap2\n      pop\n        /* \"#utility.yul\":4355:4640   */\n      pop\n        /* \"#utility.yul\":4263:4640   */\n      swap3\n      swap2\n      pop\n      pop\n      jump\t// out\n        /* \"#utility.yul\":4646:5401   */\n    tag_73:\n        /* \"#utility.yul\":4871:4875   */\n      0x00\n        /* \"#utility.yul\":4909:4912   */\n      0xa0\n        /* \"#utility.yul\":4898:4907   */\n      dup3\n        /* \"#utility.yul\":4894:4913   */\n      add\n        /* \"#utility.yul\":4886:4913   */\n      swap1\n      pop\n        /* \"#utility.yul\":4923:4994   */\n      tag_432\n        /* \"#utility.yul\":4991:4992   */\n      0x00\n        /* \"#utility.yul\":4980:4989   */\n      dup4\n        /* \"#utility.yul\":4976:4993   */\n      add\n        /* \"#utility.yul\":4967:4973   */\n      dup9\n        /* \"#utility.yul\":4923:4994   */\n      tag_322\n      jump\t// in\n    tag_432:\n        /* \"#utility.yul\":5004:5076   */\n      tag_433\n        /* \"#utility.yul\":5072:5074   */\n      0x20\n        /* \"#utility.yul\":5061:5070   */\n      dup4\n        /* \"#utility.yul\":5057:5075   */\n      add\n        /* \"#utility.yul\":5048:5054   */\n      dup8\n        /* \"#utility.yul\":5004:5076   */\n      tag_319\n      jump\t// in\n    tag_433:\n        /* \"#utility.yul\":5123:5132   */\n      dup2\n        /* \"#utility.yul\":5117:5121   */\n      dup2\n        /* \"#utility.yul\":5113:5133   */\n      sub\n        /* \"#utility.yul\":5108:5110   */\n      0x40\n        /* \"#utility.yul\":5097:5106   */\n      dup4\n        /* \"#utility.yul\":5093:5111   */\n      add\n        /* \"#utility.yul\":5086:5134   */\n      mstore\n        /* \"#utility.yul\":5151:5229   */\n      tag_434\n        /* \"#utility.yul\":5224:5228   */\n      dup2\n        /* \"#utility.yul\":5215:5221   */\n      dup7\n        /* \"#utility.yul\":5151:5229   */\n      tag_331\n      jump\t// in\n    tag_434:\n        /* \"#utility.yul\":5143:5229   */\n      swap1\n      pop\n        /* \"#utility.yul\":5239:5311   */\n      tag_435\n        /* \"#utility.yul\":5307:5309   */\n      0x60\n        /* \"#utility.yul\":5296:5305   */\n      dup4\n        /* \"#utility.yul\":5292:5310   */\n      add\n        /* \"#utility.yul\":5283:5289   */\n      dup6\n        /* \"#utility.yul\":5239:5311   */\n      tag_319\n      jump\t// in\n    tag_435:\n        /* \"#utility.yul\":5321:5394   */\n      tag_436\n        /* \"#utility.yul\":5389:5392   */\n      0x80\n        /* \"#utility.yul\":5378:5387   */\n      dup4\n        /* \"#utility.yul\":5374:5393   */\n      add\n        /* \"#utility.yul\":5365:5371   */\n      dup5\n        /* \"#utility.yul\":5321:5394   */\n      tag_319\n      jump\t// in\n    tag_436:\n        /* \"#utility.yul\":4646:5401   */\n      swap7\n      swap6\n      pop\n      pop\n      pop\n      pop\n      pop\n      pop\n      jump\t// out\n        /* \"#utility.yul\":5407:5524   */\n    tag_332:\n        /* \"#utility.yul\":5516:5517   */\n      0x00\n        /* \"#utility.yul\":5513:5514   */\n      dup1\n        /* \"#utility.yul\":5506:5518   */\n      revert\n        /* \"#utility.yul\":5530:5647   */\n    tag_333:\n        /* \"#utility.yul\":5639:5640   */\n      0x00\n        /* \"#utility.yul\":5636:5637   */\n      dup1\n        /* \"#utility.yul\":5629:5641   */\n      revert\n        /* \"#utility.yul\":5653:5833   */\n    tag_334:\n        /* \"#utility.yul\":5701:5778   */\n      0x4e487b7100000000000000000000000000000000000000000000000000000000\n        /* \"#utility.yul\":5698:5699   */\n      0x00\n        /* \"#utility.yul\":5691:5779   */\n      mstore\n        /* \"#utility.yul\":5798:5802   */\n      0x41\n        /* \"#utility.yul\":5795:5796   */\n      0x04\n        /* \"#utility.yul\":5788:5803   */\n      mstore\n        /* \"#utility.yul\":5822:5826   */\n      0x24\n        /* \"#utility.yul\":5819:5820   */\n      0x00\n        /* \"#utility.yul\":5812:5827   */\n      revert\n        /* \"#utility.yul\":5839:6120   */\n    tag_335:\n        /* \"#utility.yul\":5922:5949   */\n      tag_441\n        /* \"#utility.yul\":5944:5948   */\n      dup3\n        /* \"#utility.yul\":5922:5949   */\n      tag_330\n      jump\t// in\n    tag_441:\n        /* \"#utility.yul\":5914:5920   */\n      dup2\n        /* \"#utility.yul\":5910:5950   */\n      add\n        /* \"#utility.yul\":6052:6058   */\n      dup2\n        /* \"#utility.yul\":6040:6050   */\n      dup2\n        /* \"#utility.yul\":6037:6059   */\n      lt\n        /* \"#utility.yul\":6016:6034   */\n      0xffffffffffffffff\n        /* \"#utility.yul\":6004:6014   */\n      dup3\n        /* \"#utility.yul\":6001:6035   */\n      gt\n        /* \"#utility.yul\":5998:6060   */\n      or\n        /* \"#utility.yul\":5995:6083   */\n      iszero\n      tag_442\n      jumpi\n        /* \"#utility.yul\":6063:6081   */\n      tag_443\n      tag_334\n      jump\t// in\n    tag_443:\n        /* \"#utility.yul\":5995:6083   */\n    tag_442:\n        /* \"#utility.yul\":6103:6113   */\n      dup1\n        /* \"#utility.yul\":6099:6101   */\n      0x40\n        /* \"#utility.yul\":6092:6114   */\n      mstore\n        /* \"#utility.yul\":5882:6120   */\n      pop\n        /* \"#utility.yul\":5839:6120   */\n      pop\n      pop\n      jump\t// out\n        /* \"#utility.yul\":6126:6255   */\n    tag_336:\n        /* \"#utility.yul\":6160:6166   */\n      0x00\n        /* \"#utility.yul\":6187:6207   */\n      tag_445\n      tag_313\n      jump\t// in\n    tag_445:\n        /* \"#utility.yul\":6177:6207   */\n      swap1\n      pop\n        /* \"#utility.yul\":6216:6249   */\n      tag_446\n        /* \"#utility.yul\":6244:6248   */\n      dup3\n        /* \"#utility.yul\":6236:6242   */\n      dup3\n        /* \"#utility.yul\":6216:6249   */\n      tag_335\n      jump\t// in\n    tag_446:\n        /* \"#utility.yul\":6126:6255   */\n      swap2\n      swap1\n      pop\n      jump\t// out\n        /* \"#utility.yul\":6261:6569   */\n    tag_337:\n        /* \"#utility.yul\":6323:6327   */\n      0x00\n        /* \"#utility.yul\":6413:6431   */\n      0xffffffffffffffff\n        /* \"#utility.yul\":6405:6411   */\n      dup3\n        /* \"#utility.yul\":6402:6432   */\n      gt\n        /* \"#utility.yul\":6399:6455   */\n      iszero\n      tag_448\n      jumpi\n        /* \"#utility.yul\":6435:6453   */\n      tag_449\n      tag_334\n      jump\t// in\n    tag_449:\n        /* \"#utility.yul\":6399:6455   */\n    tag_448:\n        /* \"#utility.yul\":6473:6502   */\n      tag_450\n        /* \"#utility.yul\":6495:6501   */\n      dup3\n        /* \"#utility.yul\":6473:6502   */\n      tag_330\n      jump\t// in\n    tag_450:\n        /* \"#utility.yul\":6465:6502   */\n      swap1\n      pop\n        /* \"#utility.yul\":6557:6561   */\n      0x20\n        /* \"#utility.yul\":6551:6555   */\n      dup2\n        /* \"#utility.yul\":6547:6562   */\n      add\n        /* \"#utility.yul\":6539:6562   */\n      swap1\n      pop\n        /* \"#utility.yul\":6261:6569   */\n      swap2\n      swap1\n      pop\n      jump\t// out\n        /* \"#utility.yul\":6575:6721   */\n    tag_338:\n        /* \"#utility.yul\":6672:6678   */\n      dup3\n        /* \"#utility.yul\":6667:6670   */\n      dup2\n        /* \"#utility.yul\":6662:6665   */\n      dup4\n        /* \"#utility.yul\":6649:6679   */\n      calldatacopy\n        /* \"#utility.yul\":6713:6714   */\n      0x00\n        /* \"#utility.yul\":6704:6710   */\n      dup4\n        /* \"#utility.yul\":6699:6702   */\n      dup4\n        /* \"#utility.yul\":6695:6711   */\n      add\n        /* \"#utility.yul\":6688:6715   */\n      mstore\n        /* \"#utility.yul\":6575:6721   */\n      pop\n      pop\n      pop\n      jump\t// out\n        /* \"#utility.yul\":6727:7152   */\n    tag_339:\n        /* \"#utility.yul\":6805:6810   */\n      0x00\n        /* \"#utility.yul\":6830:6896   */\n      tag_453\n        /* \"#utility.yul\":6846:6895   */\n      tag_454\n        /* \"#utility.yul\":6888:6894   */\n      dup5\n        /* \"#utility.yul\":6846:6895   */\n      tag_337\n      jump\t// in\n    tag_454:\n        /* \"#utility.yul\":6830:6896   */\n      tag_336\n      jump\t// in\n    tag_453:\n        /* \"#utility.yul\":6821:6896   */\n      swap1\n      pop\n        /* \"#utility.yul\":6919:6925   */\n      dup3\n        /* \"#utility.yul\":6912:6917   */\n      dup2\n        /* \"#utility.yul\":6905:6926   */\n      mstore\n        /* \"#utility.yul\":6957:6961   */\n      0x20\n        /* \"#utility.yul\":6950:6955   */\n      dup2\n        /* \"#utility.yul\":6946:6962   */\n      add\n        /* \"#utility.yul\":6995:6998   */\n      dup5\n        /* \"#utility.yul\":6986:6992   */\n      dup5\n        /* \"#utility.yul\":6981:6984   */\n      dup5\n        /* \"#utility.yul\":6977:6993   */\n      add\n        /* \"#utility.yul\":6974:6999   */\n      gt\n        /* \"#utility.yul\":6971:7083   */\n      iszero\n      tag_455\n      jumpi\n        /* \"#utility.yul\":7002:7081   */\n      tag_456\n      tag_333\n      jump\t// in\n    tag_456:\n        /* \"#utility.yul\":6971:7083   */\n    tag_455:\n        /* \"#utility.yul\":7092:7146   */\n      tag_457\n        /* \"#utility.yul\":7139:7145   */\n      dup5\n        /* \"#utility.yul\":7134:7137   */\n      dup3\n        /* \"#utility.yul\":7129:7132   */\n      dup6\n        /* \"#utility.yul\":7092:7146   */\n      tag_338\n      jump\t// in\n    tag_457:\n        /* \"#utility.yul\":6811:7152   */\n      pop\n        /* \"#utility.yul\":6727:7152   */\n      swap4\n      swap3\n      pop\n      pop\n      pop\n      jump\t// out\n        /* \"#utility.yul\":7172:7512   */\n    tag_340:\n        /* \"#utility.yul\":7228:7233   */\n      0x00\n        /* \"#utility.yul\":7277:7280   */\n      dup3\n        /* \"#utility.yul\":7270:7274   */\n      0x1f\n        /* \"#utility.yul\":7262:7268   */\n      dup4\n        /* \"#utility.yul\":7258:7275   */\n      add\n        /* \"#utility.yul\":7254:7281   */\n      slt\n        /* \"#utility.yul\":7244:7366   */\n      tag_459\n      jumpi\n        /* \"#utility.yul\":7285:7364   */\n      tag_460\n      tag_332\n      jump\t// in\n    tag_460:\n        /* \"#utility.yul\":7244:7366   */\n    tag_459:\n        /* \"#utility.yul\":7402:7408   */\n      dup2\n        /* \"#utility.yul\":7389:7409   */\n      calldataload\n        /* \"#utility.yul\":7427:7506   */\n      tag_461\n        /* \"#utility.yul\":7502:7505   */\n      dup5\n        /* \"#utility.yul\":7494:7500   */\n      dup3\n        /* \"#utility.yul\":7487:7491   */\n      0x20\n        /* \"#utility.yul\":7479:7485   */\n      dup7\n        /* \"#utility.yul\":7475:7492   */\n      add\n        /* \"#utility.yul\":7427:7506   */\n      tag_339\n      jump\t// in\n    tag_461:\n        /* \"#utility.yul\":7418:7506   */\n      swap2\n      pop\n        /* \"#utility.yul\":7234:7512   */\n      pop\n        /* \"#utility.yul\":7172:7512   */\n      swap3\n      swap2\n      pop\n      pop\n      jump\t// out\n        /* \"#utility.yul\":7518:8027   */\n    tag_81:\n        /* \"#utility.yul\":7587:7593   */\n      0x00\n        /* \"#utility.yul\":7636:7638   */\n      0x20\n        /* \"#utility.yul\":7624:7633   */\n      dup3\n        /* \"#utility.yul\":7615:7622   */\n      dup5\n        /* \"#utility.yul\":7611:7634   */\n      sub\n        /* \"#utility.yul\":7607:7639   */\n      slt\n        /* \"#utility.yul\":7604:7723   */\n      iszero\n      tag_463\n      jumpi\n        /* \"#utility.yul\":7642:7721   */\n      tag_464\n      tag_314\n      jump\t// in\n    tag_464:\n        /* \"#utility.yul\":7604:7723   */\n    tag_463:\n        /* \"#utility.yul\":7790:7791   */\n      0x00\n        /* \"#utility.yul\":7779:7788   */\n      dup3\n        /* \"#utility.yul\":7775:7792   */\n      add\n        /* \"#utility.yul\":7762:7793   */\n      calldataload\n        /* \"#utility.yul\":7820:7838   */\n      0xffffffffffffffff\n        /* \"#utility.yul\":7812:7818   */\n      dup2\n        /* \"#utility.yul\":7809:7839   */\n      gt\n        /* \"#utility.yul\":7806:7923   */\n      iszero\n      tag_465\n      jumpi\n        /* \"#utility.yul\":7842:7921   */\n      tag_466\n      tag_315\n      jump\t// in\n    tag_466:\n        /* \"#utility.yul\":7806:7923   */\n    tag_465:\n        /* \"#utility.yul\":7947:8010   */\n      tag_467\n        /* \"#utility.yul\":8002:8009   */\n      dup5\n        /* \"#utility.yul\":7993:7999   */\n      dup3\n        /* \"#utility.yul\":7982:7991   */\n      dup6\n        /* \"#utility.yul\":7978:8000   */\n      add\n        /* \"#utility.yul\":7947:8010   */\n      tag_340\n      jump\t// in\n    tag_467:\n        /* \"#utility.yul\":7937:8010   */\n      swap2\n      pop\n        /* \"#utility.yul\":7733:8020   */\n      pop\n        /* \"#utility.yul\":7518:8027   */\n      swap3\n      swap2\n      pop\n      pop\n      jump\t// out\n        /* \"#utility.yul\":8033:8365   */\n    tag_84:\n        /* \"#utility.yul\":8154:8158   */\n      0x00\n        /* \"#utility.yul\":8192:8194   */\n      0x40\n        /* \"#utility.yul\":8181:8190   */\n      dup3\n        /* \"#utility.yul\":8177:8195   */\n      add\n        /* \"#utility.yul\":8169:8195   */\n      swap1\n      pop\n        /* \"#utility.yul\":8205:8276   */\n      tag_469\n        /* \"#utility.yul\":8273:8274   */\n      0x00\n        /* \"#utility.yul\":8262:8271   */\n      dup4\n        /* \"#utility.yul\":8258:8275   */\n      add\n        /* \"#utility.yul\":8249:8255   */\n      dup6\n        /* \"#utility.yul\":8205:8276   */\n      tag_319\n      jump\t// in\n    tag_469:\n        /* \"#utility.yul\":8286:8358   */\n      tag_470\n        /* \"#utility.yul\":8354:8356   */\n      0x20\n        /* \"#utility.yul\":8343:8352   */\n      dup4\n        /* \"#utility.yul\":8339:8357   */\n      add\n        /* \"#utility.yul\":8330:8336   */\n      dup5\n        /* \"#utility.yul\":8286:8358   */\n      tag_319\n      jump\t// in\n    tag_470:\n        /* \"#utility.yul\":8033:8365   */\n      swap4\n      swap3\n      pop\n      pop\n      pop\n      jump\t// out\n        /* \"#utility.yul\":8371:9316   */\n    tag_105:\n        /* \"#utility.yul\":8467:8473   */\n      0x00\n        /* \"#utility.yul\":8475:8481   */\n      dup1\n        /* \"#utility.yul\":8483:8489   */\n      0x00\n        /* \"#utility.yul\":8491:8497   */\n      dup1\n        /* \"#utility.yul\":8540:8543   */\n      0x80\n        /* \"#utility.yul\":8528:8537   */\n      dup6\n        /* \"#utility.yul\":8519:8526   */\n      dup8\n        /* \"#utility.yul\":8515:8538   */\n      sub\n        /* \"#utility.yul\":8511:8544   */\n      slt\n        /* \"#utility.yul\":8508:8628   */\n      iszero\n      tag_472\n      jumpi\n        /* \"#utility.yul\":8547:8626   */\n      tag_473\n      tag_314\n      jump\t// in\n    tag_473:\n        /* \"#utility.yul\":8508:8628   */\n    tag_472:\n        /* \"#utility.yul\":8667:8668   */\n      0x00\n        /* \"#utility.yul\":8692:8745   */\n      tag_474\n        /* \"#utility.yul\":8737:8744   */\n      dup8\n        /* \"#utility.yul\":8728:8734   */\n      dup3\n        /* \"#utility.yul\":8717:8726   */\n      dup9\n        /* \"#utility.yul\":8713:8735   */\n      add\n        /* \"#utility.yul\":8692:8745   */\n      tag_318\n      jump\t// in\n    tag_474:\n        /* \"#utility.yul\":8682:8745   */\n      swap5\n      pop\n        /* \"#utility.yul\":8638:8755   */\n      pop\n        /* \"#utility.yul\":8822:8824   */\n      0x20\n        /* \"#utility.yul\":8811:8820   */\n      dup6\n        /* \"#utility.yul\":8807:8825   */\n      add\n        /* \"#utility.yul\":8794:8826   */\n      calldataload\n        /* \"#utility.yul\":8853:8871   */\n      0xffffffffffffffff\n        /* \"#utility.yul\":8845:8851   */\n      dup2\n        /* \"#utility.yul\":8842:8872   */\n      gt\n        /* \"#utility.yul\":8839:8956   */\n      iszero\n      tag_475\n      jumpi\n        /* \"#utility.yul\":8875:8954   */\n      tag_476\n      tag_315\n      jump\t// in\n    tag_476:\n        /* \"#utility.yul\":8839:8956   */\n    tag_475:\n        /* \"#utility.yul\":8980:9043   */\n      tag_477\n        /* \"#utility.yul\":9035:9042   */\n      dup8\n        /* \"#utility.yul\":9026:9032   */\n      dup3\n        /* \"#utility.yul\":9015:9024   */\n      dup9\n        /* \"#utility.yul\":9011:9033   */\n      add\n        /* \"#utility.yul\":8980:9043   */\n      tag_340\n      jump\t// in\n    tag_477:\n        /* \"#utility.yul\":8970:9043   */\n      swap4\n      pop\n        /* \"#utility.yul\":8765:9053   */\n      pop\n        /* \"#utility.yul\":9092:9094   */\n      0x40\n        /* \"#utility.yul\":9118:9171   */\n      tag_478\n        /* \"#utility.yul\":9163:9170   */\n      dup8\n        /* \"#utility.yul\":9154:9160   */\n      dup3\n        /* \"#utility.yul\":9143:9152   */\n      dup9\n        /* \"#utility.yul\":9139:9161   */\n      add\n        /* \"#utility.yul\":9118:9171   */\n      tag_318\n      jump\t// in\n    tag_478:\n        /* \"#utility.yul\":9108:9171   */\n      swap3\n      pop\n        /* \"#utility.yul\":9063:9181   */\n      pop\n        /* \"#utility.yul\":9220:9222   */\n      0x60\n        /* \"#utility.yul\":9246:9299   */\n      tag_479\n        /* \"#utility.yul\":9291:9298   */\n      dup8\n        /* \"#utility.yul\":9282:9288   */\n      dup3\n        /* \"#utility.yul\":9271:9280   */\n      dup9\n        /* \"#utility.yul\":9267:9289   */\n      add\n        /* \"#utility.yul\":9246:9299   */\n      tag_318\n      jump\t// in\n    tag_479:\n        /* \"#utility.yul\":9236:9299   */\n      swap2\n      pop\n        /* \"#utility.yul\":9191:9309   */\n      pop\n        /* \"#utility.yul\":8371:9316   */\n      swap3\n      swap6\n      swap2\n      swap5\n      pop\n      swap3\n      pop\n      jump\t// out\n        /* \"#utility.yul\":9322:9745   */\n    tag_112:\n        /* \"#utility.yul\":9463:9467   */\n      0x00\n        /* \"#utility.yul\":9501:9503   */\n      0x40\n        /* \"#utility.yul\":9490:9499   */\n      dup3\n        /* \"#utility.yul\":9486:9504   */\n      add\n        /* \"#utility.yul\":9478:9504   */\n      swap1\n      pop\n        /* \"#utility.yul\":9550:9559   */\n      dup2\n        /* \"#utility.yul\":9544:9548   */\n      dup2\n        /* \"#utility.yul\":9540:9560   */\n      sub\n        /* \"#utility.yul\":9536:9537   */\n      0x00\n        /* \"#utility.yul\":9525:9534   */\n      dup4\n        /* \"#utility.yul\":9521:9538   */\n      add\n        /* \"#utility.yul\":9514:9561   */\n      mstore\n        /* \"#utility.yul\":9578:9656   */\n      tag_481\n        /* \"#utility.yul\":9651:9655   */\n      dup2\n        /* \"#utility.yul\":9642:9648   */\n      dup6\n        /* \"#utility.yul\":9578:9656   */\n      tag_331\n      jump\t// in\n    tag_481:\n        /* \"#utility.yul\":9570:9656   */\n      swap1\n      pop\n        /* \"#utility.yul\":9666:9738   */\n      tag_482\n        /* \"#utility.yul\":9734:9736   */\n      0x20\n        /* \"#utility.yul\":9723:9732   */\n      dup4\n        /* \"#utility.yul\":9719:9737   */\n      add\n        /* \"#utility.yul\":9710:9716   */\n      dup5\n        /* \"#utility.yul\":9666:9738   */\n      tag_319\n      jump\t// in\n    tag_482:\n        /* \"#utility.yul\":9322:9745   */\n      swap4\n      swap3\n      pop\n      pop\n      pop\n      jump\t// out\n        /* \"#utility.yul\":9751:10494   */\n    tag_126:\n        /* \"#utility.yul\":9970:9974   */\n      0x00\n        /* \"#utility.yul\":10008:10011   */\n      0xa0\n        /* \"#utility.yul\":9997:10006   */\n      dup3\n        /* \"#utility.yul\":9993:10012   */\n      add\n        /* \"#utility.yul\":9985:10012   */\n      swap1\n      pop\n        /* \"#utility.yul\":10058:10067   */\n      dup2\n        /* \"#utility.yul\":10052:10056   */\n      dup2\n        /* \"#utility.yul\":10048:10068   */\n      sub\n        /* \"#utility.yul\":10044:10045   */\n      0x00\n        /* \"#utility.yul\":10033:10042   */\n      dup4\n        /* \"#utility.yul\":10029:10046   */\n      add\n        /* \"#utility.yul\":10022:10069   */\n      mstore\n        /* \"#utility.yul\":10086:10164   */\n      tag_484\n        /* \"#utility.yul\":10159:10163   */\n      dup2\n        /* \"#utility.yul\":10150:10156   */\n      dup9\n        /* \"#utility.yul\":10086:10164   */\n      tag_331\n      jump\t// in\n    tag_484:\n        /* \"#utility.yul\":10078:10164   */\n      swap1\n      pop\n        /* \"#utility.yul\":10174:10246   */\n      tag_485\n        /* \"#utility.yul\":10242:10244   */\n      0x20\n        /* \"#utility.yul\":10231:10240   */\n      dup4\n        /* \"#utility.yul\":10227:10245   */\n      add\n        /* \"#utility.yul\":10218:10224   */\n      dup8\n        /* \"#utility.yul\":10174:10246   */\n      tag_319\n      jump\t// in\n    tag_485:\n        /* \"#utility.yul\":10256:10328   */\n      tag_486\n        /* \"#utility.yul\":10324:10326   */\n      0x40\n        /* \"#utility.yul\":10313:10322   */\n      dup4\n        /* \"#utility.yul\":10309:10327   */\n      add\n        /* \"#utility.yul\":10300:10306   */\n      dup7\n        /* \"#utility.yul\":10256:10328   */\n      tag_322\n      jump\t// in\n    tag_486:\n        /* \"#utility.yul\":10338:10404   */\n      tag_487\n        /* \"#utility.yul\":10400:10402   */\n      0x60\n        /* \"#utility.yul\":10389:10398   */\n      dup4\n        /* \"#utility.yul\":10385:10403   */\n      add\n        /* \"#utility.yul\":10376:10382   */\n      dup6\n        /* \"#utility.yul\":10338:10404   */\n      tag_326\n      jump\t// in\n    tag_487:\n        /* \"#utility.yul\":10414:10487   */\n      tag_488\n        /* \"#utility.yul\":10482:10485   */\n      0x80\n        /* \"#utility.yul\":10471:10480   */\n      dup4\n        /* \"#utility.yul\":10467:10486   */\n      add\n        /* \"#utility.yul\":10458:10464   */\n      dup5\n        /* \"#utility.yul\":10414:10487   */\n      tag_319\n      jump\t// in\n    tag_488:\n        /* \"#utility.yul\":9751:10494   */\n      swap7\n      swap6\n      pop\n      pop\n      pop\n      pop\n      pop\n      pop\n      jump\t// out\n        /* \"#utility.yul\":10500:11299   */\n    tag_134:\n        /* \"#utility.yul\":10587:10593   */\n      0x00\n        /* \"#utility.yul\":10595:10601   */\n      dup1\n        /* \"#utility.yul\":10603:10609   */\n      0x00\n        /* \"#utility.yul\":10652:10654   */\n      0x60\n        /* \"#utility.yul\":10640:10649   */\n      dup5\n        /* \"#utility.yul\":10631:10638   */\n      dup7\n        /* \"#utility.yul\":10627:10650   */\n      sub\n        /* \"#utility.yul\":10623:10655   */\n      slt\n        /* \"#utility.yul\":10620:10739   */\n      iszero\n      tag_490\n      jumpi\n        /* \"#utility.yul\":10658:10737   */\n      tag_491\n      tag_314\n      jump\t// in\n    tag_491:\n        /* \"#utility.yul\":10620:10739   */\n    tag_490:\n        /* \"#utility.yul\":10806:10807   */\n      0x00\n        /* \"#utility.yul\":10795:10804   */\n      dup5\n        /* \"#utility.yul\":10791:10808   */\n      add\n        /* \"#utility.yul\":10778:10809   */\n      calldataload\n        /* \"#utility.yul\":10836:10854   */\n      0xffffffffffffffff\n        /* \"#utility.yul\":10828:10834   */\n      dup2\n        /* \"#utility.yul\":10825:10855   */\n      gt\n        /* \"#utility.yul\":10822:10939   */\n      iszero\n      tag_492\n      jumpi\n        /* \"#utility.yul\":10858:10937   */\n      tag_493\n      tag_315\n      jump\t// in\n    tag_493:\n        /* \"#utility.yul\":10822:10939   */\n    tag_492:\n        /* \"#utility.yul\":10963:11026   */\n      tag_494\n        /* \"#utility.yul\":11018:11025   */\n      dup7\n        /* \"#utility.yul\":11009:11015   */\n      dup3\n        /* \"#utility.yul\":10998:11007   */\n      dup8\n        /* \"#utility.yul\":10994:11016   */\n      add\n        /* \"#utility.yul\":10963:11026   */\n      tag_340\n      jump\t// in\n    tag_494:\n        /* \"#utility.yul\":10953:11026   */\n      swap4\n      pop\n        /* \"#utility.yul\":10749:11036   */\n      pop\n        /* \"#utility.yul\":11075:11077   */\n      0x20\n        /* \"#utility.yul\":11101:11154   */\n      tag_495\n        /* \"#utility.yul\":11146:11153   */\n      dup7\n        /* \"#utility.yul\":11137:11143   */\n      dup3\n        /* \"#utility.yul\":11126:11135   */\n      dup8\n        /* \"#utility.yul\":11122:11144   */\n      add\n        /* \"#utility.yul\":11101:11154   */\n      tag_318\n      jump\t// in\n    tag_495:\n        /* \"#utility.yul\":11091:11154   */\n      swap3\n      pop\n        /* \"#utility.yul\":11046:11164   */\n      pop\n        /* \"#utility.yul\":11203:11205   */\n      0x40\n        /* \"#utility.yul\":11229:11282   */\n      tag_496\n        /* \"#utility.yul\":11274:11281   */\n      dup7\n        /* \"#utility.yul\":11265:11271   */\n      dup3\n        /* \"#utility.yul\":11254:11263   */\n      dup8\n        /* \"#utility.yul\":11250:11272   */\n      add\n        /* \"#utility.yul\":11229:11282   */\n      tag_324\n      jump\t// in\n    tag_496:\n        /* \"#utility.yul\":11219:11282   */\n      swap2\n      pop\n        /* \"#utility.yul\":11174:11292   */\n      pop\n        /* \"#utility.yul\":10500:11299   */\n      swap3\n      pop\n      swap3\n      pop\n      swap3\n      jump\t// out\n        /* \"#utility.yul\":11305:12104   */\n    tag_139:\n        /* \"#utility.yul\":11392:11398   */\n      0x00\n        /* \"#utility.yul\":11400:11406   */\n      dup1\n        /* \"#utility.yul\":11408:11414   */\n      0x00\n        /* \"#utility.yul\":11457:11459   */\n      0x60\n        /* \"#utility.yul\":11445:11454   */\n      dup5\n        /* \"#utility.yul\":11436:11443   */\n      dup7\n        /* \"#utility.yul\":11432:11455   */\n      sub\n        /* \"#utility.yul\":11428:11460   */\n      slt\n        /* \"#utility.yul\":11425:11544   */\n      iszero\n      tag_498\n      jumpi\n        /* \"#utility.yul\":11463:11542   */\n      tag_499\n      tag_314\n      jump\t// in\n    tag_499:\n        /* \"#utility.yul\":11425:11544   */\n    tag_498:\n        /* \"#utility.yul\":11611:11612   */\n      0x00\n        /* \"#utility.yul\":11600:11609   */\n      dup5\n        /* \"#utility.yul\":11596:11613   */\n      add\n        /* \"#utility.yul\":11583:11614   */\n      calldataload\n        /* \"#utility.yul\":11641:11659   */\n      0xffffffffffffffff\n        /* \"#utility.yul\":11633:11639   */\n      dup2\n        /* \"#utility.yul\":11630:11660   */\n      gt\n        /* \"#utility.yul\":11627:11744   */\n      iszero\n      tag_500\n      jumpi\n        /* \"#utility.yul\":11663:11742   */\n      tag_501\n      tag_315\n      jump\t// in\n    tag_501:\n        /* \"#utility.yul\":11627:11744   */\n    tag_500:\n        /* \"#utility.yul\":11768:11831   */\n      tag_502\n        /* \"#utility.yul\":11823:11830   */\n      dup7\n        /* \"#utility.yul\":11814:11820   */\n      dup3\n        /* \"#utility.yul\":11803:11812   */\n      dup8\n        /* \"#utility.yul\":11799:11821   */\n      add\n        /* \"#utility.yul\":11768:11831   */\n      tag_340\n      jump\t// in\n    tag_502:\n        /* \"#utility.yul\":11758:11831   */\n      swap4\n      pop\n        /* \"#utility.yul\":11554:11841   */\n      pop\n        /* \"#utility.yul\":11880:11882   */\n      0x20\n        /* \"#utility.yul\":11906:11959   */\n      tag_503\n        /* \"#utility.yul\":11951:11958   */\n      dup7\n        /* \"#utility.yul\":11942:11948   */\n      dup3\n        /* \"#utility.yul\":11931:11940   */\n      dup8\n        /* \"#utility.yul\":11927:11949   */\n      add\n        /* \"#utility.yul\":11906:11959   */\n      tag_318\n      jump\t// in\n    tag_503:\n        /* \"#utility.yul\":11896:11959   */\n      swap3\n      pop\n        /* \"#utility.yul\":11851:11969   */\n      pop\n        /* \"#utility.yul\":12008:12010   */\n      0x40\n        /* \"#utility.yul\":12034:12087   */\n      tag_504\n        /* \"#utility.yul\":12079:12086   */\n      dup7\n        /* \"#utility.yul\":12070:12076   */\n      dup3\n        /* \"#utility.yul\":12059:12068   */\n      dup8\n        /* \"#utility.yul\":12055:12077   */\n      add\n        /* \"#utility.yul\":12034:12087   */\n      tag_318\n      jump\t// in\n    tag_504:\n        /* \"#utility.yul\":12024:12087   */\n      swap2\n      pop\n        /* \"#utility.yul\":11979:12097   */\n      pop\n        /* \"#utility.yul\":11305:12104   */\n      swap3\n      pop\n      swap3\n      pop\n      swap3\n      jump\t// out\n        /* \"#utility.yul\":12110:12643   */\n    tag_146:\n        /* \"#utility.yul\":12279:12283   */\n      0x00\n        /* \"#utility.yul\":12317:12319   */\n      0x60\n        /* \"#utility.yul\":12306:12315   */\n      dup3\n        /* \"#utility.yul\":12302:12320   */\n      add\n        /* \"#utility.yul\":12294:12320   */\n      swap1\n      pop\n        /* \"#utility.yul\":12366:12375   */\n      dup2\n        /* \"#utility.yul\":12360:12364   */\n      dup2\n        /* \"#utility.yul\":12356:12376   */\n      sub\n        /* \"#utility.yul\":12352:12353   */\n      0x00\n        /* \"#utility.yul\":12341:12350   */\n      dup4\n        /* \"#utility.yul\":12337:12354   */\n      add\n        /* \"#utility.yul\":12330:12377   */\n      mstore\n        /* \"#utility.yul\":12394:12472   */\n      tag_506\n        /* \"#utility.yul\":12467:12471   */\n      dup2\n        /* \"#utility.yul\":12458:12464   */\n      dup7\n        /* \"#utility.yul\":12394:12472   */\n      tag_331\n      jump\t// in\n    tag_506:\n        /* \"#utility.yul\":12386:12472   */\n      swap1\n      pop\n        /* \"#utility.yul\":12482:12554   */\n      tag_507\n        /* \"#utility.yul\":12550:12552   */\n      0x20\n        /* \"#utility.yul\":12539:12548   */\n      dup4\n        /* \"#utility.yul\":12535:12553   */\n      add\n        /* \"#utility.yul\":12526:12532   */\n      dup6\n        /* \"#utility.yul\":12482:12554   */\n      tag_319\n      jump\t// in\n    tag_507:\n        /* \"#utility.yul\":12564:12636   */\n      tag_508\n        /* \"#utility.yul\":12632:12634   */\n      0x40\n        /* \"#utility.yul\":12621:12630   */\n      dup4\n        /* \"#utility.yul\":12617:12635   */\n      add\n        /* \"#utility.yul\":12608:12614   */\n      dup5\n        /* \"#utility.yul\":12564:12636   */\n      tag_319\n      jump\t// in\n    tag_508:\n        /* \"#utility.yul\":12110:12643   */\n      swap5\n      swap4\n      pop\n      pop\n      pop\n      pop\n      jump\t// out\n        /* \"#utility.yul\":12649:13072   */\n    tag_152:\n        /* \"#utility.yul\":12790:12794   */\n      0x00\n        /* \"#utility.yul\":12828:12830   */\n      0x40\n        /* \"#utility.yul\":12817:12826   */\n      dup3\n        /* \"#utility.yul\":12813:12831   */\n      add\n        /* \"#utility.yul\":12805:12831   */\n      swap1\n      pop\n        /* \"#utility.yul\":12877:12886   */\n      dup2\n        /* \"#utility.yul\":12871:12875   */\n      dup2\n        /* \"#utility.yul\":12867:12887   */\n      sub\n        /* \"#utility.yul\":12863:12864   */\n      0x00\n        /* \"#utility.yul\":12852:12861   */\n      dup4\n        /* \"#utility.yul\":12848:12865   */\n      add\n        /* \"#utility.yul\":12841:12888   */\n      mstore\n        /* \"#utility.yul\":12905:12983   */\n      tag_510\n        /* \"#utility.yul\":12978:12982   */\n      dup2\n        /* \"#utility.yul\":12969:12975   */\n      dup6\n        /* \"#utility.yul\":12905:12983   */\n      tag_331\n      jump\t// in\n    tag_510:\n        /* \"#utility.yul\":12897:12983   */\n      swap1\n      pop\n        /* \"#utility.yul\":12993:13065   */\n      tag_511\n        /* \"#utility.yul\":13061:13063   */\n      0x20\n        /* \"#utility.yul\":13050:13059   */\n      dup4\n        /* \"#utility.yul\":13046:13064   */\n      add\n        /* \"#utility.yul\":13037:13043   */\n      dup5\n        /* \"#utility.yul\":12993:13065   */\n      tag_322\n      jump\t// in\n    tag_511:\n        /* \"#utility.yul\":12649:13072   */\n      swap4\n      swap3\n      pop\n      pop\n      pop\n      jump\t// out\n        /* \"#utility.yul\":13078:13489   */\n    tag_162:\n        /* \"#utility.yul\":13213:13217   */\n      0x00\n        /* \"#utility.yul\":13251:13253   */\n      0x40\n        /* \"#utility.yul\":13240:13249   */\n      dup3\n        /* \"#utility.yul\":13236:13254   */\n      add\n        /* \"#utility.yul\":13228:13254   */\n      swap1\n      pop\n        /* \"#utility.yul\":13300:13309   */\n      dup2\n        /* \"#utility.yul\":13294:13298   */\n      dup2\n        /* \"#utility.yul\":13290:13310   */\n      sub\n        /* \"#utility.yul\":13286:13287   */\n      0x00\n        /* \"#utility.yul\":13275:13284   */\n      dup4\n        /* \"#utility.yul\":13271:13288   */\n      add\n        /* \"#utility.yul\":13264:13311   */\n      mstore\n        /* \"#utility.yul\":13328:13406   */\n      tag_513\n        /* \"#utility.yul\":13401:13405   */\n      dup2\n        /* \"#utility.yul\":13392:13398   */\n      dup6\n        /* \"#utility.yul\":13328:13406   */\n      tag_331\n      jump\t// in\n    tag_513:\n        /* \"#utility.yul\":13320:13406   */\n      swap1\n      pop\n        /* \"#utility.yul\":13416:13482   */\n      tag_514\n        /* \"#utility.yul\":13478:13480   */\n      0x20\n        /* \"#utility.yul\":13467:13476   */\n      dup4\n        /* \"#utility.yul\":13463:13481   */\n      add\n        /* \"#utility.yul\":13454:13460   */\n      dup5\n        /* \"#utility.yul\":13416:13482   */\n      tag_326\n      jump\t// in\n    tag_514:\n        /* \"#utility.yul\":13078:13489   */\n      swap4\n      swap3\n      pop\n      pop\n      pop\n      jump\t// out\n        /* \"#utility.yul\":13495:13609   */\n    tag_341:\n        /* \"#utility.yul\":13562:13568   */\n      0x00\n        /* \"#utility.yul\":13596:13601   */\n      dup2\n        /* \"#utility.yul\":13590:13602   */\n      mload\n        /* \"#utility.yul\":13580:13602   */\n      swap1\n      pop\n        /* \"#utility.yul\":13495:13609   */\n      swap2\n      swap1\n      pop\n      jump\t// out\n        /* \"#utility.yul\":13615:13799   */\n    tag_342:\n        /* \"#utility.yul\":13714:13725   */\n      0x00\n        /* \"#utility.yul\":13748:13754   */\n      dup3\n        /* \"#utility.yul\":13743:13746   */\n      dup3\n        /* \"#utility.yul\":13736:13755   */\n      mstore\n        /* \"#utility.yul\":13788:13792   */\n      0x20\n        /* \"#utility.yul\":13783:13786   */\n      dup3\n        /* \"#utility.yul\":13779:13793   */\n      add\n        /* \"#utility.yul\":13764:13793   */\n      swap1\n      pop\n        /* \"#utility.yul\":13615:13799   */\n      swap3\n      swap2\n      pop\n      pop\n      jump\t// out\n        /* \"#utility.yul\":13805:13937   */\n    tag_343:\n        /* \"#utility.yul\":13872:13876   */\n      0x00\n        /* \"#utility.yul\":13895:13898   */\n      dup2\n        /* \"#utility.yul\":13887:13898   */\n      swap1\n      pop\n        /* \"#utility.yul\":13925:13929   */\n      0x20\n        /* \"#utility.yul\":13920:13923   */\n      dup3\n        /* \"#utility.yul\":13916:13930   */\n      add\n        /* \"#utility.yul\":13908:13930   */\n      swap1\n      pop\n        /* \"#utility.yul\":13805:13937   */\n      swap2\n      swap1\n      pop\n      jump\t// out\n        /* \"#utility.yul\":13943:14051   */\n    tag_344:\n        /* \"#utility.yul\":14020:14044   */\n      tag_519\n        /* \"#utility.yul\":14038:14043   */\n      dup2\n        /* \"#utility.yul\":14020:14044   */\n      tag_321\n      jump\t// in\n    tag_519:\n        /* \"#utility.yul\":14015:14018   */\n      dup3\n        /* \"#utility.yul\":14008:14045   */\n      mstore\n        /* \"#utility.yul\":13943:14051   */\n      pop\n      pop\n      jump\t// out\n        /* \"#utility.yul\":14057:14236   */\n    tag_345:\n        /* \"#utility.yul\":14126:14136   */\n      0x00\n        /* \"#utility.yul\":14147:14193   */\n      tag_521\n        /* \"#utility.yul\":14189:14192   */\n      dup4\n        /* \"#utility.yul\":14181:14187   */\n      dup4\n        /* \"#utility.yul\":14147:14193   */\n      tag_344\n      jump\t// in\n    tag_521:\n        /* \"#utility.yul\":14225:14229   */\n      0x20\n        /* \"#utility.yul\":14220:14223   */\n      dup4\n        /* \"#utility.yul\":14216:14230   */\n      add\n        /* \"#utility.yul\":14202:14230   */\n      swap1\n      pop\n        /* \"#utility.yul\":14057:14236   */\n      swap3\n      swap2\n      pop\n      pop\n      jump\t// out\n        /* \"#utility.yul\":14242:14355   */\n    tag_346:\n        /* \"#utility.yul\":14312:14316   */\n      0x00\n        /* \"#utility.yul\":14344:14348   */\n      0x20\n        /* \"#utility.yul\":14339:14342   */\n      dup3\n        /* \"#utility.yul\":14335:14349   */\n      add\n        /* \"#utility.yul\":14327:14349   */\n      swap1\n      pop\n        /* \"#utility.yul\":14242:14355   */\n      swap2\n      swap1\n      pop\n      jump\t// out\n        /* \"#utility.yul\":14391:15123   */\n    tag_347:\n        /* \"#utility.yul\":14510:14513   */\n      0x00\n        /* \"#utility.yul\":14539:14593   */\n      tag_524\n        /* \"#utility.yul\":14587:14592   */\n      dup3\n        /* \"#utility.yul\":14539:14593   */\n      tag_341\n      jump\t// in\n    tag_524:\n        /* \"#utility.yul\":14609:14695   */\n      tag_525\n        /* \"#utility.yul\":14688:14694   */\n      dup2\n        /* \"#utility.yul\":14683:14686   */\n      dup6\n        /* \"#utility.yul\":14609:14695   */\n      tag_342\n      jump\t// in\n    tag_525:\n        /* \"#utility.yul\":14602:14695   */\n      swap4\n      pop\n        /* \"#utility.yul\":14719:14775   */\n      tag_526\n        /* \"#utility.yul\":14769:14774   */\n      dup4\n        /* \"#utility.yul\":14719:14775   */\n      tag_343\n      jump\t// in\n    tag_526:\n        /* \"#utility.yul\":14798:14805   */\n      dup1\n        /* \"#utility.yul\":14829:14830   */\n      0x00\n        /* \"#utility.yul\":14814:15098   */\n    tag_527:\n        /* \"#utility.yul\":14839:14845   */\n      dup4\n        /* \"#utility.yul\":14836:14837   */\n      dup2\n        /* \"#utility.yul\":14833:14846   */\n      lt\n        /* \"#utility.yul\":14814:15098   */\n      iszero\n      tag_529\n      jumpi\n        /* \"#utility.yul\":14915:14921   */\n      dup2\n        /* \"#utility.yul\":14909:14922   */\n      mload\n        /* \"#utility.yul\":14942:15005   */\n      tag_530\n        /* \"#utility.yul\":15001:15004   */\n      dup9\n        /* \"#utility.yul\":14986:14999   */\n      dup3\n        /* \"#utility.yul\":14942:15005   */\n      tag_345\n      jump\t// in\n    tag_530:\n        /* \"#utility.yul\":14935:15005   */\n      swap8\n      pop\n        /* \"#utility.yul\":15028:15088   */\n      tag_531\n        /* \"#utility.yul\":15081:15087   */\n      dup4\n        /* \"#utility.yul\":15028:15088   */\n      tag_346\n      jump\t// in\n    tag_531:\n        /* \"#utility.yul\":15018:15088   */\n      swap3\n      pop\n        /* \"#utility.yul\":14874:15098   */\n      pop\n        /* \"#utility.yul\":14861:14862   */\n      0x01\n        /* \"#utility.yul\":14858:14859   */\n      dup2\n        /* \"#utility.yul\":14854:14863   */\n      add\n        /* \"#utility.yul\":14849:14863   */\n      swap1\n      pop\n        /* \"#utility.yul\":14814:15098   */\n      jump(tag_527)\n    tag_529:\n        /* \"#utility.yul\":14818:14832   */\n      pop\n        /* \"#utility.yul\":15114:15117   */\n      dup6\n        /* \"#utility.yul\":15107:15117   */\n      swap4\n      pop\n        /* \"#utility.yul\":14515:15123   */\n      pop\n      pop\n      pop\n        /* \"#utility.yul\":14391:15123   */\n      swap3\n      swap2\n      pop\n      pop\n      jump\t// out\n        /* \"#utility.yul\":15129:15502   */\n    tag_178:\n        /* \"#utility.yul\":15272:15276   */\n      0x00\n        /* \"#utility.yul\":15310:15312   */\n      0x20\n        /* \"#utility.yul\":15299:15308   */\n      dup3\n        /* \"#utility.yul\":15295:15313   */\n      add\n        /* \"#utility.yul\":15287:15313   */\n      swap1\n      pop\n        /* \"#utility.yul\":15359:15368   */\n      dup2\n        /* \"#utility.yul\":15353:15357   */\n      dup2\n        /* \"#utility.yul\":15349:15369   */\n      sub\n        /* \"#utility.yul\":15345:15346   */\n      0x00\n        /* \"#utility.yul\":15334:15343   */\n      dup4\n        /* \"#utility.yul\":15330:15347   */\n      add\n        /* \"#utility.yul\":15323:15370   */\n      mstore\n        /* \"#utility.yul\":15387:15495   */\n      tag_533\n        /* \"#utility.yul\":15490:15494   */\n      dup2\n        /* \"#utility.yul\":15481:15487   */\n      dup5\n        /* \"#utility.yul\":15387:15495   */\n      tag_347\n      jump\t// in\n    tag_533:\n        /* \"#utility.yul\":15379:15495   */\n      swap1\n      pop\n        /* \"#utility.yul\":15129:15502   */\n      swap3\n      swap2\n      pop\n      pop\n      jump\t// out\n        /* \"#utility.yul\":15508:15688   */\n    tag_348:\n        /* \"#utility.yul\":15556:15633   */\n      0x4e487b7100000000000000000000000000000000000000000000000000000000\n        /* \"#utility.yul\":15553:15554   */\n      0x00\n        /* \"#utility.yul\":15546:15634   */\n      mstore\n        /* \"#utility.yul\":15653:15657   */\n      0x11\n        /* \"#utility.yul\":15650:15651   */\n      0x04\n        /* \"#utility.yul\":15643:15658   */\n      mstore\n        /* \"#utility.yul\":15677:15681   */\n      0x24\n        /* \"#utility.yul\":15674:15675   */\n      0x00\n        /* \"#utility.yul\":15667:15682   */\n      revert\n        /* \"#utility.yul\":15694:15885   */\n    tag_189:\n        /* \"#utility.yul\":15734:15737   */\n      0x00\n        /* \"#utility.yul\":15753:15773   */\n      tag_536\n        /* \"#utility.yul\":15771:15772   */\n      dup3\n        /* \"#utility.yul\":15753:15773   */\n      tag_316\n      jump\t// in\n    tag_536:\n        /* \"#utility.yul\":15748:15773   */\n      swap2\n      pop\n        /* \"#utility.yul\":15787:15807   */\n      tag_537\n        /* \"#utility.yul\":15805:15806   */\n      dup4\n        /* \"#utility.yul\":15787:15807   */\n      tag_316\n      jump\t// in\n    tag_537:\n        /* \"#utility.yul\":15782:15807   */\n      swap3\n      pop\n        /* \"#utility.yul\":15830:15831   */\n      dup3\n        /* \"#utility.yul\":15827:15828   */\n      dup3\n        /* \"#utility.yul\":15823:15832   */\n      add\n        /* \"#utility.yul\":15816:15832   */\n      swap1\n      pop\n        /* \"#utility.yul\":15851:15854   */\n      dup1\n        /* \"#utility.yul\":15848:15849   */\n      dup3\n        /* \"#utility.yul\":15845:15855   */\n      gt\n        /* \"#utility.yul\":15842:15878   */\n      iszero\n      tag_538\n      jumpi\n        /* \"#utility.yul\":15858:15876   */\n      tag_539\n      tag_348\n      jump\t// in\n    tag_539:\n        /* \"#utility.yul\":15842:15878   */\n    tag_538:\n        /* \"#utility.yul\":15694:15885   */\n      swap3\n      swap2\n      pop\n      pop\n      jump\t// out\n        /* \"#utility.yul\":15891:16085   */\n    tag_191:\n        /* \"#utility.yul\":15931:15935   */\n      0x00\n        /* \"#utility.yul\":15951:15971   */\n      tag_541\n        /* \"#utility.yul\":15969:15970   */\n      dup3\n        /* \"#utility.yul\":15951:15971   */\n      tag_316\n      jump\t// in\n    tag_541:\n        /* \"#utility.yul\":15946:15971   */\n      swap2\n      pop\n        /* \"#utility.yul\":15985:16005   */\n      tag_542\n        /* \"#utility.yul\":16003:16004   */\n      dup4\n        /* \"#utility.yul\":15985:16005   */\n      tag_316\n      jump\t// in\n    tag_542:\n        /* \"#utility.yul\":15980:16005   */\n      swap3\n      pop\n        /* \"#utility.yul\":16029:16030   */\n      dup3\n        /* \"#utility.yul\":16026:16027   */\n      dup3\n        /* \"#utility.yul\":16022:16031   */\n      sub\n        /* \"#utility.yul\":16014:16031   */\n      swap1\n      pop\n        /* \"#utility.yul\":16053:16054   */\n      dup2\n        /* \"#utility.yul\":16047:16051   */\n      dup2\n        /* \"#utility.yul\":16044:16055   */\n      gt\n        /* \"#utility.yul\":16041:16078   */\n      iszero\n      tag_543\n      jumpi\n        /* \"#utility.yul\":16058:16076   */\n      tag_544\n      tag_348\n      jump\t// in\n    tag_544:\n        /* \"#utility.yul\":16041:16078   */\n    tag_543:\n        /* \"#utility.yul\":15891:16085   */\n      swap3\n      swap2\n      pop\n      pop\n      jump\t// out\n        /* \"#utility.yul\":16091:16271   */\n    tag_349:\n        /* \"#utility.yul\":16139:16216   */\n      0x4e487b7100000000000000000000000000000000000000000000000000000000\n        /* \"#utility.yul\":16136:16137   */\n      0x00\n        /* \"#utility.yul\":16129:16217   */\n      mstore\n        /* \"#utility.yul\":16236:16240   */\n      0x12\n        /* \"#utility.yul\":16233:16234   */\n      0x04\n        /* \"#utility.yul\":16226:16241   */\n      mstore\n        /* \"#utility.yul\":16260:16264   */\n      0x24\n        /* \"#utility.yul\":16257:16258   */\n      0x00\n        /* \"#utility.yul\":16250:16265   */\n      revert\n        /* \"#utility.yul\":16277:16462   */\n    tag_193:\n        /* \"#utility.yul\":16317:16318   */\n      0x00\n        /* \"#utility.yul\":16334:16354   */\n      tag_547\n        /* \"#utility.yul\":16352:16353   */\n      dup3\n        /* \"#utility.yul\":16334:16354   */\n      tag_316\n      jump\t// in\n    tag_547:\n        /* \"#utility.yul\":16329:16354   */\n      swap2\n      pop\n        /* \"#utility.yul\":16368:16388   */\n      tag_548\n        /* \"#utility.yul\":16386:16387   */\n      dup4\n        /* \"#utility.yul\":16368:16388   */\n      tag_316\n      jump\t// in\n    tag_548:\n        /* \"#utility.yul\":16363:16388   */\n      swap3\n      pop\n        /* \"#utility.yul\":16407:16408   */\n      dup3\n        /* \"#utility.yul\":16397:16432   */\n      tag_549\n      jumpi\n        /* \"#utility.yul\":16412:16430   */\n      tag_550\n      tag_349\n      jump\t// in\n    tag_550:\n        /* \"#utility.yul\":16397:16432   */\n    tag_549:\n        /* \"#utility.yul\":16454:16455   */\n      dup3\n        /* \"#utility.yul\":16451:16452   */\n      dup3\n        /* \"#utility.yul\":16447:16456   */\n      div\n        /* \"#utility.yul\":16442:16456   */\n      swap1\n      pop\n        /* \"#utility.yul\":16277:16462   */\n      swap3\n      swap2\n      pop\n      pop\n      jump\t// out\n        /* \"#utility.yul\":16468:16878   */\n    tag_195:\n        /* \"#utility.yul\":16508:16515   */\n      0x00\n        /* \"#utility.yul\":16531:16551   */\n      tag_552\n        /* \"#utility.yul\":16549:16550   */\n      dup3\n        /* \"#utility.yul\":16531:16551   */\n      tag_316\n      jump\t// in\n    tag_552:\n        /* \"#utility.yul\":16526:16551   */\n      swap2\n      pop\n        /* \"#utility.yul\":16565:16585   */\n      tag_553\n        /* \"#utility.yul\":16583:16584   */\n      dup4\n        /* \"#utility.yul\":16565:16585   */\n      tag_316\n      jump\t// in\n    tag_553:\n        /* \"#utility.yul\":16560:16585   */\n      swap3\n      pop\n        /* \"#utility.yul\":16620:16621   */\n      dup3\n        /* \"#utility.yul\":16617:16618   */\n      dup3\n        /* \"#utility.yul\":16613:16622   */\n      mul\n        /* \"#utility.yul\":16642:16672   */\n      tag_554\n        /* \"#utility.yul\":16660:16671   */\n      dup2\n        /* \"#utility.yul\":16642:16672   */\n      tag_316\n      jump\t// in\n    tag_554:\n        /* \"#utility.yul\":16631:16672   */\n      swap2\n      pop\n        /* \"#utility.yul\":16821:16822   */\n      dup3\n        /* \"#utility.yul\":16812:16819   */\n      dup3\n        /* \"#utility.yul\":16808:16823   */\n      div\n        /* \"#utility.yul\":16805:16806   */\n      dup5\n        /* \"#utility.yul\":16802:16824   */\n      eq\n        /* \"#utility.yul\":16782:16783   */\n      dup4\n        /* \"#utility.yul\":16775:16784   */\n      iszero\n        /* \"#utility.yul\":16755:16838   */\n      or\n        /* \"#utility.yul\":16732:16871   */\n      tag_555\n      jumpi\n        /* \"#utility.yul\":16851:16869   */\n      tag_556\n      tag_348\n      jump\t// in\n    tag_556:\n        /* \"#utility.yul\":16732:16871   */\n    tag_555:\n        /* \"#utility.yul\":16516:16878   */\n      pop\n        /* \"#utility.yul\":16468:16878   */\n      swap3\n      swap2\n      pop\n      pop\n      jump\t// out\n        /* \"#utility.yul\":16884:17064   */\n    tag_203:\n        /* \"#utility.yul\":16932:17009   */\n      0x4e487b7100000000000000000000000000000000000000000000000000000000\n        /* \"#utility.yul\":16929:16930   */\n      0x00\n        /* \"#utility.yul\":16922:17010   */\n      mstore\n        /* \"#utility.yul\":17029:17033   */\n      0x32\n        /* \"#utility.yul\":17026:17027   */\n      0x04\n        /* \"#utility.yul\":17019:17034   */\n      mstore\n        /* \"#utility.yul\":17053:17057   */\n      0x24\n        /* \"#utility.yul\":17050:17051   */\n      0x00\n        /* \"#utility.yul\":17043:17058   */\n      revert\n        /* \"#utility.yul\":17070:17250   */\n    tag_350:\n        /* \"#utility.yul\":17118:17195   */\n      0x4e487b7100000000000000000000000000000000000000000000000000000000\n        /* \"#utility.yul\":17115:17116   */\n      0x00\n        /* \"#utility.yul\":17108:17196   */\n      mstore\n        /* \"#utility.yul\":17215:17219   */\n      0x22\n        /* \"#utility.yul\":17212:17213   */\n      0x04\n        /* \"#utility.yul\":17205:17220   */\n      mstore\n        /* \"#utility.yul\":17239:17243   */\n      0x24\n        /* \"#utility.yul\":17236:17237   */\n      0x00\n        /* \"#utility.yul\":17229:17244   */\n      revert\n        /* \"#utility.yul\":17256:17576   */\n    tag_218:\n        /* \"#utility.yul\":17300:17306   */\n      0x00\n        /* \"#utility.yul\":17337:17338   */\n      0x02\n        /* \"#utility.yul\":17331:17335   */\n      dup3\n        /* \"#utility.yul\":17327:17339   */\n      div\n        /* \"#utility.yul\":17317:17339   */\n      swap1\n      pop\n        /* \"#utility.yul\":17384:17385   */\n      0x01\n        /* \"#utility.yul\":17378:17382   */\n      dup3\n        /* \"#utility.yul\":17374:17386   */\n      and\n        /* \"#utility.yul\":17405:17423   */\n      dup1\n        /* \"#utility.yul\":17395:17476   */\n      tag_560\n      jumpi\n        /* \"#utility.yul\":17461:17465   */\n      0x7f\n        /* \"#utility.yul\":17453:17459   */\n      dup3\n        /* \"#utility.yul\":17449:17466   */\n      and\n        /* \"#utility.yul\":17439:17466   */\n      swap2\n      pop\n        /* \"#utility.yul\":17395:17476   */\n    tag_560:\n        /* \"#utility.yul\":17523:17525   */\n      0x20\n        /* \"#utility.yul\":17515:17521   */\n      dup3\n        /* \"#utility.yul\":17512:17526   */\n      lt\n        /* \"#utility.yul\":17492:17510   */\n      dup2\n        /* \"#utility.yul\":17489:17527   */\n      sub\n        /* \"#utility.yul\":17486:17570   */\n      tag_561\n      jumpi\n        /* \"#utility.yul\":17542:17560   */\n      tag_562\n      tag_350\n      jump\t// in\n    tag_562:\n        /* \"#utility.yul\":17486:17570   */\n    tag_561:\n        /* \"#utility.yul\":17307:17576   */\n      pop\n        /* \"#utility.yul\":17256:17576   */\n      swap2\n      swap1\n      pop\n      jump\t// out\n        /* \"#utility.yul\":17582:17756   */\n    tag_351:\n        /* \"#utility.yul\":17722:17748   */\n      0x496e76616c696420706172746e657220616464726573732e0000000000000000\n        /* \"#utility.yul\":17718:17719   */\n      0x00\n        /* \"#utility.yul\":17710:17716   */\n      dup3\n        /* \"#utility.yul\":17706:17720   */\n      add\n        /* \"#utility.yul\":17699:17749   */\n      mstore\n        /* \"#utility.yul\":17582:17756   */\n      pop\n      jump\t// out\n        /* \"#utility.yul\":17762:18128   */\n    tag_352:\n        /* \"#utility.yul\":17904:17907   */\n      0x00\n        /* \"#utility.yul\":17925:17992   */\n      tag_565\n        /* \"#utility.yul\":17989:17991   */\n      0x18\n        /* \"#utility.yul\":17984:17987   */\n      dup4\n        /* \"#utility.yul\":17925:17992   */\n      tag_328\n      jump\t// in\n    tag_565:\n        /* \"#utility.yul\":17918:17992   */\n      swap2\n      pop\n        /* \"#utility.yul\":18001:18094   */\n      tag_566\n        /* \"#utility.yul\":18090:18093   */\n      dup3\n        /* \"#utility.yul\":18001:18094   */\n      tag_351\n      jump\t// in\n    tag_566:\n        /* \"#utility.yul\":18119:18121   */\n      0x20\n        /* \"#utility.yul\":18114:18117   */\n      dup3\n        /* \"#utility.yul\":18110:18122   */\n      add\n        /* \"#utility.yul\":18103:18122   */\n      swap1\n      pop\n        /* \"#utility.yul\":17762:18128   */\n      swap2\n      swap1\n      pop\n      jump\t// out\n        /* \"#utility.yul\":18134:18553   */\n    tag_226:\n        /* \"#utility.yul\":18300:18304   */\n      0x00\n        /* \"#utility.yul\":18338:18340   */\n      0x20\n        /* \"#utility.yul\":18327:18336   */\n      dup3\n        /* \"#utility.yul\":18323:18341   */\n      add\n        /* \"#utility.yul\":18315:18341   */\n      swap1\n      pop\n        /* \"#utility.yul\":18387:18396   */\n      dup2\n        /* \"#utility.yul\":18381:18385   */\n      dup2\n        /* \"#utility.yul\":18377:18397   */\n      sub\n        /* \"#utility.yul\":18373:18374   */\n      0x00\n        /* \"#utility.yul\":18362:18371   */\n      dup4\n        /* \"#utility.yul\":18358:18375   */\n      add\n        /* \"#utility.yul\":18351:18398   */\n      mstore\n        /* \"#utility.yul\":18415:18546   */\n      tag_568\n        /* \"#utility.yul\":18541:18545   */\n      dup2\n        /* \"#utility.yul\":18415:18546   */\n      tag_352\n      jump\t// in\n    tag_568:\n        /* \"#utility.yul\":18407:18546   */\n      swap1\n      pop\n        /* \"#utility.yul\":18134:18553   */\n      swap2\n      swap1\n      pop\n      jump\t// out\n        /* \"#utility.yul\":18559:18707   */\n    tag_353:\n        /* \"#utility.yul\":18661:18672   */\n      0x00\n        /* \"#utility.yul\":18698:18701   */\n      dup2\n        /* \"#utility.yul\":18683:18701   */\n      swap1\n      pop\n        /* \"#utility.yul\":18559:18707   */\n      swap3\n      swap2\n      pop\n      pop\n      jump\t// out\n        /* \"#utility.yul\":18713:19103   */\n    tag_354:\n        /* \"#utility.yul\":18819:18822   */\n      0x00\n        /* \"#utility.yul\":18847:18886   */\n      tag_571\n        /* \"#utility.yul\":18880:18885   */\n      dup3\n        /* \"#utility.yul\":18847:18886   */\n      tag_327\n      jump\t// in\n    tag_571:\n        /* \"#utility.yul\":18902:18991   */\n      tag_572\n        /* \"#utility.yul\":18984:18990   */\n      dup2\n        /* \"#utility.yul\":18979:18982   */\n      dup6\n        /* \"#utility.yul\":18902:18991   */\n      tag_353\n      jump\t// in\n    tag_572:\n        /* \"#utility.yul\":18895:18991   */\n      swap4\n      pop\n        /* \"#utility.yul\":19000:19065   */\n      tag_573\n        /* \"#utility.yul\":19058:19064   */\n      dup2\n        /* \"#utility.yul\":19053:19056   */\n      dup6\n        /* \"#utility.yul\":19046:19050   */\n      0x20\n        /* \"#utility.yul\":19039:19044   */\n      dup7\n        /* \"#utility.yul\":19035:19051   */\n      add\n        /* \"#utility.yul\":19000:19065   */\n      tag_329\n      jump\t// in\n    tag_573:\n        /* \"#utility.yul\":19090:19096   */\n      dup1\n        /* \"#utility.yul\":19085:19088   */\n      dup5\n        /* \"#utility.yul\":19081:19097   */\n      add\n        /* \"#utility.yul\":19074:19097   */\n      swap2\n      pop\n        /* \"#utility.yul\":18823:19103   */\n      pop\n        /* \"#utility.yul\":18713:19103   */\n      swap3\n      swap2\n      pop\n      pop\n      jump\t// out\n        /* \"#utility.yul\":19109:19384   */\n    tag_231:\n        /* \"#utility.yul\":19241:19244   */\n      0x00\n        /* \"#utility.yul\":19263:19358   */\n      tag_575\n        /* \"#utility.yul\":19354:19357   */\n      dup3\n        /* \"#utility.yul\":19345:19351   */\n      dup5\n        /* \"#utility.yul\":19263:19358   */\n      tag_354\n      jump\t// in\n    tag_575:\n        /* \"#utility.yul\":19256:19358   */\n      swap2\n      pop\n        /* \"#utility.yul\":19375:19378   */\n      dup2\n        /* \"#utility.yul\":19368:19378   */\n      swap1\n      pop\n        /* \"#utility.yul\":19109:19384   */\n      swap3\n      swap2\n      pop\n      pop\n      jump\t// out\n        /* \"#utility.yul\":19390:19531   */\n    tag_355:\n        /* \"#utility.yul\":19439:19443   */\n      0x00\n        /* \"#utility.yul\":19462:19465   */\n      dup2\n        /* \"#utility.yul\":19454:19465   */\n      swap1\n      pop\n        /* \"#utility.yul\":19485:19488   */\n      dup2\n        /* \"#utility.yul\":19482:19483   */\n      0x00\n        /* \"#utility.yul\":19475:19489   */\n      mstore\n        /* \"#utility.yul\":19519:19523   */\n      0x20\n        /* \"#utility.yul\":19516:19517   */\n      0x00\n        /* \"#utility.yul\":19506:19524   */\n      keccak256\n        /* \"#utility.yul\":19498:19524   */\n      swap1\n      pop\n        /* \"#utility.yul\":19390:19531   */\n      swap2\n      swap1\n      pop\n      jump\t// out\n        /* \"#utility.yul\":19537:19630   */\n    tag_356:\n        /* \"#utility.yul\":19574:19580   */\n      0x00\n        /* \"#utility.yul\":19621:19623   */\n      0x20\n        /* \"#utility.yul\":19616:19618   */\n      0x1f\n        /* \"#utility.yul\":19609:19614   */\n      dup4\n        /* \"#utility.yul\":19605:19619   */\n      add\n        /* \"#utility.yul\":19601:19624   */\n      div\n        /* \"#utility.yul\":19591:19624   */\n      swap1\n      pop\n        /* \"#utility.yul\":19537:19630   */\n      swap2\n      swap1\n      pop\n      jump\t// out\n        /* \"#utility.yul\":19636:19743   */\n    tag_357:\n        /* \"#utility.yul\":19680:19688   */\n      0x00\n        /* \"#utility.yul\":19730:19735   */\n      dup3\n        /* \"#utility.yul\":19724:19728   */\n      dup3\n        /* \"#utility.yul\":19720:19736   */\n      shl\n        /* \"#utility.yul\":19699:19736   */\n      swap1\n      pop\n        /* \"#utility.yul\":19636:19743   */\n      swap3\n      swap2\n      pop\n      pop\n      jump\t// out\n        /* \"#utility.yul\":19749:20142   */\n    tag_358:\n        /* \"#utility.yul\":19818:19824   */\n      0x00\n        /* \"#utility.yul\":19868:19869   */\n      0x08\n        /* \"#utility.yul\":19856:19866   */\n      dup4\n        /* \"#utility.yul\":19852:19870   */\n      mul\n        /* \"#utility.yul\":19891:19988   */\n      tag_580\n        /* \"#utility.yul\":19921:19987   */\n      0xffffffffffffffffffffffffffffffffffffffffffffffffffffffffffffffff\n        /* \"#utility.yul\":19910:19919   */\n      dup3\n        /* \"#utility.yul\":19891:19988   */\n      tag_357\n      jump\t// in\n    tag_580:\n        /* \"#utility.yul\":20009:20048   */\n      tag_581\n        /* \"#utility.yul\":20039:20047   */\n      dup7\n        /* \"#utility.yul\":20028:20037   */\n      dup4\n        /* \"#utility.yul\":20009:20048   */\n      tag_357\n      jump\t// in\n    tag_581:\n        /* \"#utility.yul\":19997:20048   */\n      swap6\n      pop\n        /* \"#utility.yul\":20081:20085   */\n      dup1\n        /* \"#utility.yul\":20077:20086   */\n      not\n        /* \"#utility.yul\":20070:20075   */\n      dup5\n        /* \"#utility.yul\":20066:20087   */\n      and\n        /* \"#utility.yul\":20057:20087   */\n      swap4\n      pop\n        /* \"#utility.yul\":20130:20134   */\n      dup1\n        /* \"#utility.yul\":20120:20128   */\n      dup7\n        /* \"#utility.yul\":20116:20135   */\n      and\n        /* \"#utility.yul\":20109:20114   */\n      dup5\n        /* \"#utility.yul\":20106:20136   */\n      or\n        /* \"#utility.yul\":20096:20136   */\n      swap3\n      pop\n        /* \"#utility.yul\":19825:20142   */\n      pop\n      pop\n        /* \"#utility.yul\":19749:20142   */\n      swap4\n      swap3\n      pop\n      pop\n      pop\n      jump\t// out\n        /* \"#utility.yul\":20148:20208   */\n    tag_359:\n        /* \"#utility.yul\":20176:20179   */\n      0x00\n        /* \"#utility.yul\":20197:20202   */\n      dup2\n        /* \"#utility.yul\":20190:20202   */\n      swap1\n      pop\n        /* \"#utility.yul\":20148:20208   */\n      swap2\n      swap1\n      pop\n      jump\t// out\n        /* \"#utility.yul\":20214:20356   */\n    tag_360:\n        /* \"#utility.yul\":20264:20273   */\n      0x00\n        /* \"#utility.yul\":20297:20350   */\n      tag_584\n        /* \"#utility.yul\":20315:20349   */\n      tag_585\n        /* \"#utility.yul\":20324:20348   */\n      tag_586\n        /* \"#utility.yul\":20342:20347   */\n      dup5\n        /* \"#utility.yul\":20324:20348   */\n      tag_316\n      jump\t// in\n    tag_586:\n        /* \"#utility.yul\":20315:20349   */\n      tag_359\n      jump\t// in\n    tag_585:\n        /* \"#utility.yul\":20297:20350   */\n      tag_316\n      jump\t// in\n    tag_584:\n        /* \"#utility.yul\":20284:20350   */\n      swap1\n      pop\n        /* \"#utility.yul\":20214:20356   */\n      swap2\n      swap1\n      pop\n      jump\t// out\n        /* \"#utility.yul\":20362:20437   */\n    tag_361:\n        /* \"#utility.yul\":20405:20408   */\n      0x00\n        /* \"#utility.yul\":20426:20431   */\n      dup2\n        /* \"#utility.yul\":20419:20431   */\n      swap1\n      pop\n        /* \"#utility.yul\":20362:20437   */\n      swap2\n      swap1\n      pop\n      jump\t// out\n        /* \"#utility.yul\":20443:20712   */\n    tag_362:\n        /* \"#utility.yul\":20553:20592   */\n      tag_589\n        /* \"#utility.yul\":20584:20591   */\n      dup4\n        /* \"#utility.yul\":20553:20592   */\n      tag_360\n      jump\t// in\n    tag_589:\n        /* \"#utility.yul\":20614:20705   */\n      tag_590\n        /* \"#utility.yul\":20663:20704   */\n      tag_591\n        /* \"#utility.yul\":20687:20703   */\n      dup3\n        /* \"#utility.yul\":20663:20704   */\n      tag_361\n      jump\t// in\n    tag_591:\n        /* \"#utility.yul\":20655:20661   */\n      dup5\n        /* \"#utility.yul\":20648:20652   */\n      dup5\n        /* \"#utility.yul\":20642:20653   */\n      sload\n        /* \"#utility.yul\":20614:20705   */\n      tag_358\n      jump\t// in\n    tag_590:\n        /* \"#utility.yul\":20608:20612   */\n      dup3\n        /* \"#utility.yul\":20601:20706   */\n      sstore\n        /* \"#utility.yul\":20519:20712   */\n      pop\n        /* \"#utility.yul\":20443:20712   */\n      pop\n      pop\n      pop\n      jump\t// out\n        /* \"#utility.yul\":20718:20791   */\n    tag_363:\n        /* \"#utility.yul\":20763:20766   */\n      0x00\n        /* \"#utility.yul\":20718:20791   */\n      swap1\n      jump\t// out\n        /* \"#utility.yul\":20797:20986   */\n    tag_364:\n        /* \"#utility.yul\":20874:20906   */\n      tag_594\n      tag_363\n      jump\t// in\n    tag_594:\n        /* \"#utility.yul\":20915:20980   */\n      tag_595\n        /* \"#utility.yul\":20973:20979   */\n      dup2\n        /* \"#utility.yul\":20965:20971   */\n      dup5\n        /* \"#utility.yul\":20959:20963   */\n      dup5\n        /* \"#utility.yul\":20915:20980   */\n      tag_362\n      jump\t// in\n    tag_595:\n        /* \"#utility.yul\":20850:20986   */\n      pop\n        /* \"#utility.yul\":20797:20986   */\n      pop\n      pop\n      jump\t// out\n        /* \"#utility.yul\":20992:21178   */\n    tag_365:\n        /* \"#utility.yul\":21052:21172   */\n    tag_597:\n        /* \"#utility.yul\":21069:21072   */\n      dup2\n        /* \"#utility.yul\":21062:21067   */\n      dup2\n        /* \"#utility.yul\":21059:21073   */\n      lt\n        /* \"#utility.yul\":21052:21172   */\n      iszero\n      tag_599\n      jumpi\n        /* \"#utility.yul\":21123:21162   */\n      tag_600\n        /* \"#utility.yul\":21160:21161   */\n      0x00\n        /* \"#utility.yul\":21153:21158   */\n      dup3\n        /* \"#utility.yul\":21123:21162   */\n      tag_364\n      jump\t// in\n    tag_600:\n        /* \"#utility.yul\":21096:21097   */\n      0x01\n        /* \"#utility.yul\":21089:21094   */\n      dup2\n        /* \"#utility.yul\":21085:21098   */\n      add\n        /* \"#utility.yul\":21076:21098   */\n      swap1\n      pop\n        /* \"#utility.yul\":21052:21172   */\n      jump(tag_597)\n    tag_599:\n        /* \"#utility.yul\":20992:21178   */\n      pop\n      pop\n      jump\t// out\n        /* \"#utility.yul\":21184:21727   */\n    tag_366:\n        /* \"#utility.yul\":21285:21287   */\n      0x1f\n        /* \"#utility.yul\":21280:21283   */\n      dup3\n        /* \"#utility.yul\":21277:21288   */\n      gt\n        /* \"#utility.yul\":21274:21720   */\n      iszero\n      tag_602\n      jumpi\n        /* \"#utility.yul\":21319:21357   */\n      tag_603\n        /* \"#utility.yul\":21351:21356   */\n      dup2\n        /* \"#utility.yul\":21319:21357   */\n      tag_355\n      jump\t// in\n    tag_603:\n        /* \"#utility.yul\":21403:21432   */\n      tag_604\n        /* \"#utility.yul\":21421:21431   */\n      dup5\n        /* \"#utility.yul\":21403:21432   */\n      tag_356\n      jump\t// in\n    tag_604:\n        /* \"#utility.yul\":21393:21401   */\n      dup2\n        /* \"#utility.yul\":21389:21433   */\n      add\n        /* \"#utility.yul\":21586:21588   */\n      0x20\n        /* \"#utility.yul\":21574:21584   */\n      dup6\n        /* \"#utility.yul\":21571:21589   */\n      lt\n        /* \"#utility.yul\":21568:21617   */\n      iszero\n      tag_605\n      jumpi\n        /* \"#utility.yul\":21607:21615   */\n      dup2\n        /* \"#utility.yul\":21592:21615   */\n      swap1\n      pop\n        /* \"#utility.yul\":21568:21617   */\n    tag_605:\n        /* \"#utility.yul\":21630:21710   */\n      tag_606\n        /* \"#utility.yul\":21686:21708   */\n      tag_607\n        /* \"#utility.yul\":21704:21707   */\n      dup6\n        /* \"#utility.yul\":21686:21708   */\n      tag_356\n      jump\t// in\n    tag_607:\n        /* \"#utility.yul\":21676:21684   */\n      dup4\n        /* \"#utility.yul\":21672:21709   */\n      add\n        /* \"#utility.yul\":21659:21670   */\n      dup3\n        /* \"#utility.yul\":21630:21710   */\n      tag_365\n      jump\t// in\n    tag_606:\n        /* \"#utility.yul\":21289:21720   */\n      pop\n      pop\n        /* \"#utility.yul\":21274:21720   */\n    tag_602:\n        /* \"#utility.yul\":21184:21727   */\n      pop\n      pop\n      pop\n      jump\t// out\n        /* \"#utility.yul\":21733:21850   */\n    tag_367:\n        /* \"#utility.yul\":21787:21795   */\n      0x00\n        /* \"#utility.yul\":21837:21842   */\n      dup3\n        /* \"#utility.yul\":21831:21835   */\n      dup3\n        /* \"#utility.yul\":21827:21843   */\n      shr\n        /* \"#utility.yul\":21806:21843   */\n      swap1\n      pop\n        /* \"#utility.yul\":21733:21850   */\n      swap3\n      swap2\n      pop\n      pop\n      jump\t// out\n        /* \"#utility.yul\":21856:22025   */\n    tag_368:\n        /* \"#utility.yul\":21900:21906   */\n      0x00\n        /* \"#utility.yul\":21933:21984   */\n      tag_610\n        /* \"#utility.yul\":21981:21982   */\n      0x00\n        /* \"#utility.yul\":21977:21983   */\n      not\n        /* \"#utility.yul\":21969:21974   */\n      dup5\n        /* \"#utility.yul\":21966:21967   */\n      0x08\n        /* \"#utility.yul\":21962:21975   */\n      mul\n        /* \"#utility.yul\":21933:21984   */\n      tag_367\n      jump\t// in\n    tag_610:\n        /* \"#utility.yul\":21929:21985   */\n      not\n        /* \"#utility.yul\":22014:22018   */\n      dup1\n        /* \"#utility.yul\":22008:22012   */\n      dup4\n        /* \"#utility.yul\":22004:22019   */\n      and\n        /* \"#utility.yul\":21994:22019   */\n      swap2\n      pop\n        /* \"#utility.yul\":21907:22025   */\n      pop\n        /* \"#utility.yul\":21856:22025   */\n      swap3\n      swap2\n      pop\n      pop\n      jump\t// out\n        /* \"#utility.yul\":22030:22325   */\n    tag_369:\n        /* \"#utility.yul\":22106:22110   */\n      0x00\n        /* \"#utility.yul\":22252:22281   */\n      tag_612\n        /* \"#utility.yul\":22277:22280   */\n      dup4\n        /* \"#utility.yul\":22271:22275   */\n      dup4\n        /* \"#utility.yul\":22252:22281   */\n      tag_368\n      jump\t// in\n    tag_612:\n        /* \"#utility.yul\":22244:22281   */\n      swap2\n      pop\n        /* \"#utility.yul\":22314:22317   */\n      dup3\n        /* \"#utility.yul\":22311:22312   */\n      0x02\n        /* \"#utility.yul\":22307:22318   */\n      mul\n        /* \"#utility.yul\":22301:22305   */\n      dup3\n        /* \"#utility.yul\":22298:22319   */\n      or\n        /* \"#utility.yul\":22290:22319   */\n      swap1\n      pop\n        /* \"#utility.yul\":22030:22325   */\n      swap3\n      swap2\n      pop\n      pop\n      jump\t// out\n        /* \"#utility.yul\":22330:23725   */\n    tag_235:\n        /* \"#utility.yul\":22447:22484   */\n      tag_614\n        /* \"#utility.yul\":22480:22483   */\n      dup3\n        /* \"#utility.yul\":22447:22484   */\n      tag_327\n      jump\t// in\n    tag_614:\n        /* \"#utility.yul\":22549:22567   */\n      0xffffffffffffffff\n        /* \"#utility.yul\":22541:22547   */\n      dup2\n        /* \"#utility.yul\":22538:22568   */\n      gt\n        /* \"#utility.yul\":22535:22591   */\n      iszero\n      tag_615\n      jumpi\n        /* \"#utility.yul\":22571:22589   */\n      tag_616\n      tag_334\n      jump\t// in\n    tag_616:\n        /* \"#utility.yul\":22535:22591   */\n    tag_615:\n        /* \"#utility.yul\":22615:22653   */\n      tag_617\n        /* \"#utility.yul\":22647:22651   */\n      dup3\n        /* \"#utility.yul\":22641:22652   */\n      sload\n        /* \"#utility.yul\":22615:22653   */\n      tag_218\n      jump\t// in\n    tag_617:\n        /* \"#utility.yul\":22700:22767   */\n      tag_618\n        /* \"#utility.yul\":22760:22766   */\n      dup3\n        /* \"#utility.yul\":22752:22758   */\n      dup3\n        /* \"#utility.yul\":22746:22750   */\n      dup6\n        /* \"#utility.yul\":22700:22767   */\n      tag_366\n      jump\t// in\n    tag_618:\n        /* \"#utility.yul\":22794:22795   */\n      0x00\n        /* \"#utility.yul\":22818:22822   */\n      0x20\n        /* \"#utility.yul\":22805:22822   */\n      swap1\n      pop\n        /* \"#utility.yul\":22850:22852   */\n      0x1f\n        /* \"#utility.yul\":22842:22848   */\n      dup4\n        /* \"#utility.yul\":22839:22853   */\n      gt\n        /* \"#utility.yul\":22867:22868   */\n      0x01\n        /* \"#utility.yul\":22862:23480   */\n      dup2\n      eq\n      tag_620\n      jumpi\n        /* \"#utility.yul\":23524:23525   */\n      0x00\n        /* \"#utility.yul\":23541:23547   */\n      dup5\n        /* \"#utility.yul\":23538:23615   */\n      iszero\n      tag_621\n      jumpi\n        /* \"#utility.yul\":23590:23599   */\n      dup3\n        /* \"#utility.yul\":23585:23588   */\n      dup8\n        /* \"#utility.yul\":23581:23600   */\n      add\n        /* \"#utility.yul\":23575:23601   */\n      mload\n        /* \"#utility.yul\":23566:23601   */\n      swap1\n      pop\n        /* \"#utility.yul\":23538:23615   */\n    tag_621:\n        /* \"#utility.yul\":23641:23708   */\n      tag_622\n        /* \"#utility.yul\":23701:23707   */\n      dup6\n        /* \"#utility.yul\":23694:23699   */\n      dup3\n        /* \"#utility.yul\":23641:23708   */\n      tag_369\n      jump\t// in\n    tag_622:\n        /* \"#utility.yul\":23635:23639   */\n      dup7\n        /* \"#utility.yul\":23628:23709   */\n      sstore\n        /* \"#utility.yul\":23497:23719   */\n      pop\n        /* \"#utility.yul\":22832:23719   */\n      jump(tag_619)\n        /* \"#utility.yul\":22862:23480   */\n    tag_620:\n        /* \"#utility.yul\":22914:22918   */\n      0x1f\n        /* \"#utility.yul\":22910:22919   */\n      not\n        /* \"#utility.yul\":22902:22908   */\n      dup5\n        /* \"#utility.yul\":22898:22920   */\n      and\n        /* \"#utility.yul\":22948:22985   */\n      tag_623\n        /* \"#utility.yul\":22980:22984   */\n      dup7\n        /* \"#utility.yul\":22948:22985   */\n      tag_355\n      jump\t// in\n    tag_623:\n        /* \"#utility.yul\":23007:23008   */\n      0x00\n        /* \"#utility.yul\":23021:23229   */\n    tag_624:\n        /* \"#utility.yul\":23035:23042   */\n      dup3\n        /* \"#utility.yul\":23032:23033   */\n      dup2\n        /* \"#utility.yul\":23029:23043   */\n      lt\n        /* \"#utility.yul\":23021:23229   */\n      iszero\n      tag_626\n      jumpi\n        /* \"#utility.yul\":23114:23123   */\n      dup5\n        /* \"#utility.yul\":23109:23112   */\n      dup10\n        /* \"#utility.yul\":23105:23124   */\n      add\n        /* \"#utility.yul\":23099:23125   */\n      mload\n        /* \"#utility.yul\":23091:23097   */\n      dup3\n        /* \"#utility.yul\":23084:23126   */\n      sstore\n        /* \"#utility.yul\":23165:23166   */\n      0x01\n        /* \"#utility.yul\":23157:23163   */\n      dup3\n        /* \"#utility.yul\":23153:23167   */\n      add\n        /* \"#utility.yul\":23143:23167   */\n      swap2\n      pop\n        /* \"#utility.yul\":23212:23214   */\n      0x20\n        /* \"#utility.yul\":23201:23210   */\n      dup6\n        /* \"#utility.yul\":23197:23215   */\n      add\n        /* \"#utility.yul\":23184:23215   */\n      swap5\n      pop\n        /* \"#utility.yul\":23058:23062   */\n      0x20\n        /* \"#utility.yul\":23055:23056   */\n      dup2\n        /* \"#utility.yul\":23051:23063   */\n      add\n        /* \"#utility.yul\":23046:23063   */\n      swap1\n      pop\n        /* \"#utility.yul\":23021:23229   */\n      jump(tag_624)\n    tag_626:\n        /* \"#utility.yul\":23257:23263   */\n      dup7\n        /* \"#utility.yul\":23248:23255   */\n      dup4\n        /* \"#utility.yul\":23245:23264   */\n      lt\n        /* \"#utility.yul\":23242:23421   */\n      iszero\n      tag_627\n      jumpi\n        /* \"#utility.yul\":23315:23324   */\n      dup5\n        /* \"#utility.yul\":23310:23313   */\n      dup10\n        /* \"#utility.yul\":23306:23325   */\n      add\n        /* \"#utility.yul\":23300:23326   */\n      mload\n        /* \"#utility.yul\":23358:23406   */\n      tag_628\n        /* \"#utility.yul\":23400:23404   */\n      0x1f\n        /* \"#utility.yul\":23392:23398   */\n      dup10\n        /* \"#utility.yul\":23388:23405   */\n      and\n        /* \"#utility.yul\":23377:23386   */\n      dup3\n        /* \"#utility.yul\":23358:23406   */\n      tag_368\n      jump\t// in\n    tag_628:\n        /* \"#utility.yul\":23350:23356   */\n      dup4\n        /* \"#utility.yul\":23343:23407   */\n      sstore\n        /* \"#utility.yul\":23265:23421   */\n      pop\n        /* \"#utility.yul\":23242:23421   */\n    tag_627:\n        /* \"#utility.yul\":23467:23468   */\n      0x01\n        /* \"#utility.yul\":23463:23464   */\n      0x02\n        /* \"#utility.yul\":23455:23461   */\n      dup9\n        /* \"#utility.yul\":23451:23465   */\n      mul\n        /* \"#utility.yul\":23447:23469   */\n      add\n        /* \"#utility.yul\":23441:23445   */\n      dup9\n        /* \"#utility.yul\":23434:23470   */\n      sstore\n        /* \"#utility.yul\":22869:23480   */\n      pop\n      pop\n      pop\n        /* \"#utility.yul\":22832:23719   */\n    tag_619:\n      pop\n        /* \"#utility.yul\":22422:23725   */\n      pop\n      pop\n      pop\n        /* \"#utility.yul\":22330:23725   */\n      pop\n      pop\n      jump\t// out\n        /* \"#utility.yul\":23731:24020   */\n    tag_370:\n        /* \"#utility.yul\":23871:23905   */\n      0x596f7572204c696d697420636f6e736f6d6174696f6e206d7573742062652068\n        /* \"#utility.yul\":23867:23868   */\n      0x00\n        /* \"#utility.yul\":23859:23865   */\n      dup3\n        /* \"#utility.yul\":23855:23869   */\n      add\n        /* \"#utility.yul\":23848:23906   */\n      mstore\n        /* \"#utility.yul\":23940:23974   */\n      0x6967686572207468616e20796f757220757375616c20436f6e736f6d6174696f\n        /* \"#utility.yul\":23935:23937   */\n      0x20\n        /* \"#utility.yul\":23927:23933   */\n      dup3\n        /* \"#utility.yul\":23923:23938   */\n      add\n        /* \"#utility.yul\":23916:23975   */\n      mstore\n        /* \"#utility.yul\":24009:24012   */\n      0x6e00000000000000000000000000000000000000000000000000000000000000\n        /* \"#utility.yul\":24004:24006   */\n      0x40\n        /* \"#utility.yul\":23996:24002   */\n      dup3\n        /* \"#utility.yul\":23992:24007   */\n      add\n        /* \"#utility.yul\":23985:24013   */\n      mstore\n        /* \"#utility.yul\":23731:24020   */\n      pop\n      jump\t// out\n        /* \"#utility.yul\":24026:24392   */\n    tag_371:\n        /* \"#utility.yul\":24168:24171   */\n      0x00\n        /* \"#utility.yul\":24189:24256   */\n      tag_631\n        /* \"#utility.yul\":24253:24255   */\n      0x41\n        /* \"#utility.yul\":24248:24251   */\n      dup4\n        /* \"#utility.yul\":24189:24256   */\n      tag_328\n      jump\t// in\n    tag_631:\n        /* \"#utility.yul\":24182:24256   */\n      swap2\n      pop\n        /* \"#utility.yul\":24265:24358   */\n      tag_632\n        /* \"#utility.yul\":24354:24357   */\n      dup3\n        /* \"#utility.yul\":24265:24358   */\n      tag_370\n      jump\t// in\n    tag_632:\n        /* \"#utility.yul\":24383:24385   */\n      0x60\n        /* \"#utility.yul\":24378:24381   */\n      dup3\n        /* \"#utility.yul\":24374:24386   */\n      add\n        /* \"#utility.yul\":24367:24386   */\n      swap1\n      pop\n        /* \"#utility.yul\":24026:24392   */\n      swap2\n      swap1\n      pop\n      jump\t// out\n        /* \"#utility.yul\":24398:24817   */\n    tag_240:\n        /* \"#utility.yul\":24564:24568   */\n      0x00\n        /* \"#utility.yul\":24602:24604   */\n      0x20\n        /* \"#utility.yul\":24591:24600   */\n      dup3\n        /* \"#utility.yul\":24587:24605   */\n      add\n        /* \"#utility.yul\":24579:24605   */\n      swap1\n      pop\n        /* \"#utility.yul\":24651:24660   */\n      dup2\n        /* \"#utility.yul\":24645:24649   */\n      dup2\n        /* \"#utility.yul\":24641:24661   */\n      sub\n        /* \"#utility.yul\":24637:24638   */\n      0x00\n        /* \"#utility.yul\":24626:24635   */\n      dup4\n        /* \"#utility.yul\":24622:24639   */\n      add\n        /* \"#utility.yul\":24615:24662   */\n      mstore\n        /* \"#utility.yul\":24679:24810   */\n      tag_634\n        /* \"#utility.yul\":24805:24809   */\n      dup2\n        /* \"#utility.yul\":24679:24810   */\n      tag_371\n      jump\t// in\n    tag_634:\n        /* \"#utility.yul\":24671:24810   */\n      swap1\n      pop\n        /* \"#utility.yul\":24398:24817   */\n      swap2\n      swap1\n      pop\n      jump\t// out\n        /* \"#utility.yul\":24823:24987   */\n    tag_372:\n        /* \"#utility.yul\":24963:24979   */\n      0x496e64657820696e76616c696465000000000000000000000000000000000000\n        /* \"#utility.yul\":24959:24960   */\n      0x00\n        /* \"#utility.yul\":24951:24957   */\n      dup3\n        /* \"#utility.yul\":24947:24961   */\n      add\n        /* \"#utility.yul\":24940:24980   */\n      mstore\n        /* \"#utility.yul\":24823:24987   */\n      pop\n      jump\t// out\n        /* \"#utility.yul\":24993:25359   */\n    tag_373:\n        /* \"#utility.yul\":25135:25138   */\n      0x00\n        /* \"#utility.yul\":25156:25223   */\n      tag_637\n        /* \"#utility.yul\":25220:25222   */\n      0x0e\n        /* \"#utility.yul\":25215:25218   */\n      dup4\n        /* \"#utility.yul\":25156:25223   */\n      tag_328\n      jump\t// in\n    tag_637:\n        /* \"#utility.yul\":25149:25223   */\n      swap2\n      pop\n        /* \"#utility.yul\":25232:25325   */\n      tag_638\n        /* \"#utility.yul\":25321:25324   */\n      dup3\n        /* \"#utility.yul\":25232:25325   */\n      tag_372\n      jump\t// in\n    tag_638:\n        /* \"#utility.yul\":25350:25352   */\n      0x20\n        /* \"#utility.yul\":25345:25348   */\n      dup3\n        /* \"#utility.yul\":25341:25353   */\n      add\n        /* \"#utility.yul\":25334:25353   */\n      swap1\n      pop\n        /* \"#utility.yul\":24993:25359   */\n      swap2\n      swap1\n      pop\n      jump\t// out\n        /* \"#utility.yul\":25365:25784   */\n    tag_247:\n        /* \"#utility.yul\":25531:25535   */\n      0x00\n        /* \"#utility.yul\":25569:25571   */\n      0x20\n        /* \"#utility.yul\":25558:25567   */\n      dup3\n        /* \"#utility.yul\":25554:25572   */\n      add\n        /* \"#utility.yul\":25546:25572   */\n      swap1\n      pop\n        /* \"#utility.yul\":25618:25627   */\n      dup2\n        /* \"#utility.yul\":25612:25616   */\n      dup2\n        /* \"#utility.yul\":25608:25628   */\n      sub\n        /* \"#utility.yul\":25604:25605   */\n      0x00\n        /* \"#utility.yul\":25593:25602   */\n      dup4\n        /* \"#utility.yul\":25589:25606   */\n      add\n        /* \"#utility.yul\":25582:25629   */\n      mstore\n        /* \"#utility.yul\":25646:25777   */\n      tag_640\n        /* \"#utility.yul\":25772:25776   */\n      dup2\n        /* \"#utility.yul\":25646:25777   */\n      tag_373\n      jump\t// in\n    tag_640:\n        /* \"#utility.yul\":25638:25777   */\n      swap1\n      pop\n        /* \"#utility.yul\":25365:25784   */\n      swap2\n      swap1\n      pop\n      jump\t// out\n        /* \"#utility.yul\":25790:26023   */\n    tag_275:\n        /* \"#utility.yul\":25829:25832   */\n      0x00\n        /* \"#utility.yul\":25852:25876   */\n      tag_642\n        /* \"#utility.yul\":25870:25875   */\n      dup3\n        /* \"#utility.yul\":25852:25876   */\n      tag_316\n      jump\t// in\n    tag_642:\n        /* \"#utility.yul\":25843:25876   */\n      swap2\n      pop\n        /* \"#utility.yul\":25898:25964   */\n      0xffffffffffffffffffffffffffffffffffffffffffffffffffffffffffffffff\n        /* \"#utility.yul\":25891:25896   */\n      dup3\n        /* \"#utility.yul\":25888:25965   */\n      sub\n        /* \"#utility.yul\":25885:25988   */\n      tag_643\n      jumpi\n        /* \"#utility.yul\":25968:25986   */\n      tag_644\n      tag_348\n      jump\t// in\n    tag_644:\n        /* \"#utility.yul\":25885:25988   */\n    tag_643:\n        /* \"#utility.yul\":26015:26016   */\n      0x01\n        /* \"#utility.yul\":26008:26013   */\n      dup3\n        /* \"#utility.yul\":26004:26017   */\n      add\n        /* \"#utility.yul\":25997:26017   */\n      swap1\n      pop\n        /* \"#utility.yul\":25790:26023   */\n      swap2\n      swap1\n      pop\n      jump\t// out\n\n    auxdata: 0xa26469706673582212207624265a74b1350c48fa008a4c7f01002b4df668d4180c9d4cef91a0e81d7eca64736f6c63430008150033\n}\n","bytecode":{"linkReferences":{},"object":"608060405234801561000f575f80fd5b5061257c8061001d5f395ff3fe6080604052600436106101cb575f3560e01c8063792cac3b116100f6578063a37189cb11610094578063d7d1bbdb11610063578063d7d1bbdb146106cb578063f6ba317d146106f3578063fc81f5ad1461071d578063fd95840314610747576101cb565b8063a37189cb1461061e578063a4a6643114610646578063aaa1723514610683578063d7bb99ba146106ad576101cb565b80638a9cfd55116100d05780638a9cfd551461055357806391cf26f61461057b578063962e7f62146105a35780639d7cdd6f146105e1576101cb565b8063792cac3b146104c157806381d12c58146104eb57806387859ad01461052b576101cb565b8063208b7e9a1161016e5780634cda853b1161013d5780634cda853b146103f657806351a0a6d2146104325780636c9ff6b91461045a5780636caa921814610497576101cb565b8063208b7e9a1461033d57806322fa19bc1461037a57806346b8df2e146103a4578063481c6a75146103cc576101cb565b80630600d8fc116101aa5780630600d8fc1461026f5780630a14439114610297578063141961bc146102d357806315a252e314610313576101cb565b8062b0d0d5146101cf57806302fb69551461020b5780630344100614610247575b5f80fd5b3480156101da575f80fd5b506101f560048036038101906101f091906117b8565b610771565b6040516102029190611817565b60405180910390f35b348015610216575f80fd5b50610231600480360381019061022c9190611830565b6107ae565b60405161023e919061189a565b60405180910390f35b348015610252575f80fd5b5061026d60048036038101906102689190611830565b6107e8565b005b34801561027a575f80fd5b50610295600480360381019061029091906117b8565b61092c565b005b3480156102a2575f80fd5b506102bd60048036038101906102b891906118dd565b61098b565b6040516102ca9190611922565b60405180910390f35b3480156102de575f80fd5b506102f960048036038101906102f49190611830565b6109a8565b60405161030a9594939291906119c5565b60405180910390f35b34801561031e575f80fd5b50610327610a8e565b6040516103349190611817565b60405180910390f35b348015610348575f80fd5b50610363600480360381019061035e9190611b49565b610a94565b604051610371929190611b90565b60405180910390f35b348015610385575f80fd5b5061038e610b79565b60405161039b9190611817565b60405180910390f35b3480156103af575f80fd5b506103ca60048036038101906103c59190611b49565b610b7f565b005b3480156103d7575f80fd5b506103e0610c4f565b6040516103ed919061189a565b60405180910390f35b348015610401575f80fd5b5061041c600480360381019061041791906118dd565b610c74565b6040516104299190611817565b60405180910390f35b34801561043d575f80fd5b5061045860048036038101906104539190611bb7565b610c89565b005b348015610465575f80fd5b50610480600480360381019061047b9190611830565b610e17565b60405161048e929190611c37565b60405180910390f35b3480156104a2575f80fd5b506104ab610f38565b6040516104b89190611817565b60405180910390f35b3480156104cc575f80fd5b506104d5610f44565b6040516104e29190611817565b60405180910390f35b3480156104f6575f80fd5b50610511600480360381019061050c9190611830565b610f4a565b604051610522959493929190611c65565b60405180910390f35b348015610536575f80fd5b50610551600480360381019061054c9190611b49565b61103d565b005b34801561055e575f80fd5b5061057960048036038101906105749190611cbd565b61108e565b005b348015610586575f80fd5b506105a1600480360381019061059c9190611d29565b61118e565b005b3480156105ae575f80fd5b506105c960048036038101906105c49190611830565b61122b565b6040516105d893929190611d95565b60405180910390f35b3480156105ec575f80fd5b5061060760048036038101906106029190611830565b6112d7565b604051610615929190611dd1565b60405180910390f35b348015610629575f80fd5b50610644600480360381019061063f9190611d29565b6113ab565b005b348015610651575f80fd5b5061066c60048036038101906106679190611830565b61145b565b60405161067a929190611dff565b60405180910390f35b34801561068e575f80fd5b5061069761151c565b6040516106a49190611817565b60405180910390f35b6106b5611522565b6040516106c29190611817565b60405180910390f35b3480156106d6575f80fd5b506106f160048036038101906106ec9190611830565b6115a0565b005b3480156106fe575f80fd5b506107076116de565b6040516107149190611ee4565b60405180910390f35b348015610728575f80fd5b50610731611768565b60405161073e9190611817565b60405180910390f35b348015610752575f80fd5b5061075b61176e565b6040516107689190611817565b60405180910390f35b5f8082600184876107829190611f31565b61078c9190611f64565b6107969190611fc4565b905080846107a49190611ff4565b9150509392505050565b5f81815481106107bc575f80fd5b905f5260205f20015f915054906101000a900473ffffffffffffffffffffffffffffffffffffffff1681565b600c5f9054906101000a900473ffffffffffffffffffffffffffffffffffffffff1673ffffffffffffffffffffffffffffffffffffffff163373ffffffffffffffffffffffffffffffffffffffff1614610840575f80fd5b5f600b828154811061085557610854612035565b5b905f5260205f20906005020190508060020160149054906101000a900460ff161561087e575f80fd5b6002600e5461088d9190611fc4565b81600401541161089b575f80fd5b5f816002015f9054906101000a900473ffffffffffffffffffffffffffffffffffffffff1690508073ffffffffffffffffffffffffffffffffffffffff166108fc836001015490811502906040515f60405180830381858888f19350505050158015610909573d5f803e3d5ffd5b5060018260020160146101000a81548160ff021916908315150217905550505050565b8260038190555081600481905550806005819055505f60646004546109519190611ff4565b6103e86003546109619190611ff4565b61096b9190611f31565b90508060025f82825461097e9190611f31565b9250508190555050505050565b600d602052805f5260405f205f915054906101000a900460ff1681565b600181815481106109b7575f80fd5b905f5260205f2090600502015f91509050805f015f9054906101000a900473ffffffffffffffffffffffffffffffffffffffff1690806001015490806002018054610a019061208f565b80601f0160208091040260200160405190810160405280929190818152602001828054610a2d9061208f565b8015610a785780601f10610a4f57610100808354040283529160200191610a78565b820191905f5260205f20905b815481529060010190602001808311610a5b57829003601f168201915b5050505050908060030154908060040154905085565b60075481565b5f805f60095f3373ffffffffffffffffffffffffffffffffffffffff1673ffffffffffffffffffffffffffffffffffffffff1681526020019081526020015f205490506008805490508110610b1e576040517f08c379a0000000000000000000000000000000000000000000000000000000008152600401610b1590612109565b60405180910390fd5b5f60088281548110610b3357610b32612035565b5b905f5260205f20906003020190505f8160020186604051610b549190612161565b90815260200160405180910390209050805f0154816001015494509450505050915091565b60055481565b5f600860018160018154018082558091505003905f5260205f209060030201905081815f019081610bb09190612314565b5033816001015f6101000a81548173ffffffffffffffffffffffffffffffffffffffff021916908373ffffffffffffffffffffffffffffffffffffffff1602179055505f6001600880549050610c069190611f64565b90508060095f3373ffffffffffffffffffffffffffffffffffffffff1673ffffffffffffffffffffffffffffffffffffffff1681526020019081526020015f2081905550505050565b600c5f9054906101000a900473ffffffffffffffffffffffffffffffffffffffff1681565b6009602052805f5260405f205f915090505481565b818410610ccb576040517f08c379a0000000000000000000000000000000000000000000000000000000008152600401610cc290612479565b60405180910390fd5b5f6040518060a001604052803373ffffffffffffffffffffffffffffffffffffffff168152602001868152602001858152602001848152602001838152509050600181908060018154018082558091505060019003905f5260205f2090600502015f909190919091505f820151815f015f6101000a81548173ffffffffffffffffffffffffffffffffffffffff021916908373ffffffffffffffffffffffffffffffffffffffff160217905550602082015181600101556040820151816002019081610d979190612314565b50606082015181600301556080820151816004015550505f815f0151908060018154018082558091505060019003905f5260205f20015f9091909190916101000a81548173ffffffffffffffffffffffffffffffffffffffff021916908373ffffffffffffffffffffffffffffffffffffffff1602179055505050505050565b60605f6007548310610e5e576040517f08c379a0000000000000000000000000000000000000000000000000000000008152600401610e55906124e1565b60405180910390fd5b60065f8481526020019081526020015f205f0160065f8581526020019081526020015f206002015460065f8681526020019081526020015f2060010154610ea59190611ff4565b818054610eb19061208f565b80601f0160208091040260200160405190810160405280929190818152602001828054610edd9061208f565b8015610f285780601f10610eff57610100808354040283529160200191610f28565b820191905f5260205f20905b815481529060010190602001808311610f0b57829003601f168201915b5050505050915091509150915091565b5f600180549050905090565b60045481565b600b8181548110610f59575f80fd5b905f5260205f2090600502015f91509050805f018054610f789061208f565b80601f0160208091040260200160405190810160405280929190818152602001828054610fa49061208f565b8015610fef5780601f10610fc657610100808354040283529160200191610fef565b820191905f5260205f20905b815481529060010190602001808311610fd257829003601f168201915b505050505090806001015490806002015f9054906101000a900473ffffffffffffffffffffffffffffffffffffffff16908060020160149054906101000a900460ff16908060040154905085565b5f600a60018160018154018082558091505003905f5260205f209060030201905081815f01908161106e9190612314565b505f816001015f6101000a81548160ff0219169083151502179055505050565b600c5f9054906101000a900473ffffffffffffffffffffffffffffffffffffffff1673ffffffffffffffffffffffffffffffffffffffff163373ffffffffffffffffffffffffffffffffffffffff16146110e6575f80fd5b5f600b60018160018154018082558091505003905f5260205f209060050201905083815f0190816111179190612314565b5082816001018190555081816002015f6101000a81548173ffffffffffffffffffffffffffffffffffffffff021916908373ffffffffffffffffffffffffffffffffffffffff1602179055505f8160020160146101000a81548160ff0219169083151502179055505f816004018190555050505050565b5f818361119b9190611ff4565b90508060025f8282546111ae9190611f31565b9250508190555060405180606001604052808581526020018481526020018381525060065f60075481526020019081526020015f205f820151815f0190816111f69190612314565b50602082015181600101556040820151816002015590505060075f815480929190611220906124ff565b919050555050505050565b6006602052805f5260405f205f91509050805f01805461124a9061208f565b80601f01602080910402602001604051908101604052809291908181526020018280546112769061208f565b80156112c15780601f10611298576101008083540402835291602001916112c1565b820191905f5260205f20905b8154815290600101906020018083116112a457829003601f168201915b5050505050908060010154908060020154905083565b600881815481106112e6575f80fd5b905f5260205f2090600302015f91509050805f0180546113059061208f565b80601f01602080910402602001604051908101604052809291908181526020018280546113319061208f565b801561137c5780601f106113535761010080835404028352916020019161137c565b820191905f5260205f20905b81548152906001019060200180831161135f57829003601f168201915b505050505090806001015f9054906101000a900473ffffffffffffffffffffffffffffffffffffffff16905082565b5f600860095f3373ffffffffffffffffffffffffffffffffffffffff1673ffffffffffffffffffffffffffffffffffffffff1681526020019081526020015f2054815481106113fd576113fc612035565b5b905f5260205f209060030201905060405180604001604052808481526020018381525081600201856040516114329190612161565b90815260200160405180910390205f820151815f01556020820151816001015590505050505050565b600a818154811061146a575f80fd5b905f5260205f2090600302015f91509050805f0180546114899061208f565b80601f01602080910402602001604051908101604052809291908181526020018280546114b59061208f565b80156115005780601f106114d757610100808354040283529160200191611500565b820191905f5260205f20905b8154815290600101906020018083116114e357829003601f168201915b505050505090806001015f9054906101000a900460ff16905082565b60025481565b5f80341161152e575f80fd5b6001600d5f3373ffffffffffffffffffffffffffffffffffffffff1673ffffffffffffffffffffffffffffffffffffffff1681526020019081526020015f205f6101000a81548160ff021916908315150217905550600e5f815480929190611595906124ff565b919050555034905090565b5f600b82815481106115b5576115b4612035565b5b905f5260205f2090600502019050600d5f3373ffffffffffffffffffffffffffffffffffffffff1673ffffffffffffffffffffffffffffffffffffffff1681526020019081526020015f205f9054906101000a900460ff16611615575f80fd5b806003015f3373ffffffffffffffffffffffffffffffffffffffff1673ffffffffffffffffffffffffffffffffffffffff1681526020019081526020015f205f9054906101000a900460ff161561166a575f80fd5b6001816003015f3373ffffffffffffffffffffffffffffffffffffffff1673ffffffffffffffffffffffffffffffffffffffff1681526020019081526020015f205f6101000a81548160ff021916908315150217905550806004015f8154809291906116d5906124ff565b91905055505050565b60605f80548060200260200160405190810160405280929190818152602001828054801561175e57602002820191905f5260205f20905b815f9054906101000a900473ffffffffffffffffffffffffffffffffffffffff1673ffffffffffffffffffffffffffffffffffffffff1681526020019060010190808311611715575b5050505050905090565b600e5481565b60035481565b5f604051905090565b5f80fd5b5f80fd5b5f819050919050565b61179781611785565b81146117a1575f80fd5b50565b5f813590506117b28161178e565b92915050565b5f805f606084860312156117cf576117ce61177d565b5b5f6117dc868287016117a4565b93505060206117ed868287016117a4565b92505060406117fe868287016117a4565b9150509250925092565b61181181611785565b82525050565b5f60208201905061182a5f830184611808565b92915050565b5f602082840312156118455761184461177d565b5b5f611852848285016117a4565b91505092915050565b5f73ffffffffffffffffffffffffffffffffffffffff82169050919050565b5f6118848261185b565b9050919050565b6118948161187a565b82525050565b5f6020820190506118ad5f83018461188b565b92915050565b6118bc8161187a565b81146118c6575f80fd5b50565b5f813590506118d7816118b3565b92915050565b5f602082840312156118f2576118f161177d565b5b5f6118ff848285016118c9565b91505092915050565b5f8115159050919050565b61191c81611908565b82525050565b5f6020820190506119355f830184611913565b92915050565b5f81519050919050565b5f82825260208201905092915050565b5f5b83811015611972578082015181840152602081019050611957565b5f8484015250505050565b5f601f19601f8301169050919050565b5f6119978261193b565b6119a18185611945565b93506119b1818560208601611955565b6119ba8161197d565b840191505092915050565b5f60a0820190506119d85f83018861188b565b6119e56020830187611808565b81810360408301526119f7818661198d565b9050611a066060830185611808565b611a136080830184611808565b9695505050505050565b5f80fd5b5f80fd5b7f4e487b71000000000000000000000000000000000000000000000000000000005f52604160045260245ffd5b611a5b8261197d565b810181811067ffffffffffffffff82111715611a7a57611a79611a25565b5b80604052505050565b5f611a8c611774565b9050611a988282611a52565b919050565b5f67ffffffffffffffff821115611ab757611ab6611a25565b5b611ac08261197d565b9050602081019050919050565b828183375f83830152505050565b5f611aed611ae884611a9d565b611a83565b905082815260208101848484011115611b0957611b08611a21565b5b611b14848285611acd565b509392505050565b5f82601f830112611b3057611b2f611a1d565b5b8135611b40848260208601611adb565b91505092915050565b5f60208284031215611b5e57611b5d61177d565b5b5f82013567ffffffffffffffff811115611b7b57611b7a611781565b5b611b8784828501611b1c565b91505092915050565b5f604082019050611ba35f830185611808565b611bb06020830184611808565b9392505050565b5f805f8060808587031215611bcf57611bce61177d565b5b5f611bdc878288016117a4565b945050602085013567ffffffffffffffff811115611bfd57611bfc611781565b5b611c0987828801611b1c565b9350506040611c1a878288016117a4565b9250506060611c2b878288016117a4565b91505092959194509250565b5f6040820190508181035f830152611c4f818561198d565b9050611c5e6020830184611808565b9392505050565b5f60a0820190508181035f830152611c7d818861198d565b9050611c8c6020830187611808565b611c99604083018661188b565b611ca66060830185611913565b611cb36080830184611808565b9695505050505050565b5f805f60608486031215611cd457611cd361177d565b5b5f84013567ffffffffffffffff811115611cf157611cf0611781565b5b611cfd86828701611b1c565b9350506020611d0e868287016117a4565b9250506040611d1f868287016118c9565b9150509250925092565b5f805f60608486031215611d4057611d3f61177d565b5b5f84013567ffffffffffffffff811115611d5d57611d5c611781565b5b611d6986828701611b1c565b9350506020611d7a868287016117a4565b9250506040611d8b868287016117a4565b9150509250925092565b5f6060820190508181035f830152611dad818661198d565b9050611dbc6020830185611808565b611dc96040830184611808565b949350505050565b5f6040820190508181035f830152611de9818561198d565b9050611df8602083018461188b565b9392505050565b5f6040820190508181035f830152611e17818561198d565b9050611e266020830184611913565b9392505050565b5f81519050919050565b5f82825260208201905092915050565b5f819050602082019050919050565b611e5f8161187a565b82525050565b5f611e708383611e56565b60208301905092915050565b5f602082019050919050565b5f611e9282611e2d565b611e9c8185611e37565b9350611ea783611e47565b805f5b83811015611ed7578151611ebe8882611e65565b9750611ec983611e7c565b925050600181019050611eaa565b5085935050505092915050565b5f6020820190508181035f830152611efc8184611e88565b905092915050565b7f4e487b71000000000000000000000000000000000000000000000000000000005f52601160045260245ffd5b5f611f3b82611785565b9150611f4683611785565b9250828201905080821115611f5e57611f5d611f04565b5b92915050565b5f611f6e82611785565b9150611f7983611785565b9250828203905081811115611f9157611f90611f04565b5b92915050565b7f4e487b71000000000000000000000000000000000000000000000000000000005f52601260045260245ffd5b5f611fce82611785565b9150611fd983611785565b925082611fe957611fe8611f97565b5b828204905092915050565b5f611ffe82611785565b915061200983611785565b925082820261201781611785565b9150828204841483151761202e5761202d611f04565b5b5092915050565b7f4e487b71000000000000000000000000000000000000000000000000000000005f52603260045260245ffd5b7f4e487b71000000000000000000000000000000000000000000000000000000005f52602260045260245ffd5b5f60028204905060018216806120a657607f821691505b6020821081036120b9576120b8612062565b5b50919050565b7f496e76616c696420706172746e657220616464726573732e00000000000000005f82015250565b5f6120f3601883611945565b91506120fe826120bf565b602082019050919050565b5f6020820190508181035f830152612120816120e7565b9050919050565b5f81905092915050565b5f61213b8261193b565b6121458185612127565b9350612155818560208601611955565b80840191505092915050565b5f61216c8284612131565b915081905092915050565b5f819050815f5260205f209050919050565b5f6020601f8301049050919050565b5f82821b905092915050565b5f600883026121d37fffffffffffffffffffffffffffffffffffffffffffffffffffffffffffffffff82612198565b6121dd8683612198565b95508019841693508086168417925050509392505050565b5f819050919050565b5f61221861221361220e84611785565b6121f5565b611785565b9050919050565b5f819050919050565b612231836121fe565b61224561223d8261221f565b8484546121a4565b825550505050565b5f90565b61225961224d565b612264818484612228565b505050565b5b818110156122875761227c5f82612251565b60018101905061226a565b5050565b601f8211156122cc5761229d81612177565b6122a684612189565b810160208510156122b5578190505b6122c96122c185612189565b830182612269565b50505b505050565b5f82821c905092915050565b5f6122ec5f19846008026122d1565b1980831691505092915050565b5f61230483836122dd565b9150826002028217905092915050565b61231d8261193b565b67ffffffffffffffff81111561233657612335611a25565b5b612340825461208f565b61234b82828561228b565b5f60209050601f83116001811461237c575f841561236a578287015190505b61237485826122f9565b8655506123db565b601f19841661238a86612177565b5f5b828110156123b15784890151825560018201915060208501945060208101905061238c565b868310156123ce57848901516123ca601f8916826122dd565b8355505b6001600288020188555050505b505050505050565b7f596f7572204c696d697420636f6e736f6d6174696f6e206d75737420626520685f8201527f6967686572207468616e20796f757220757375616c20436f6e736f6d6174696f60208201527f6e00000000000000000000000000000000000000000000000000000000000000604082015250565b5f612463604183611945565b915061246e826123e3565b606082019050919050565b5f6020820190508181035f83015261249081612457565b9050919050565b7f496e64657820696e76616c6964650000000000000000000000000000000000005f82015250565b5f6124cb600e83611945565b91506124d682612497565b602082019050919050565b5f6020820190508181035f8301526124f8816124bf565b9050919050565b5f61250982611785565b91507fffffffffffffffffffffffffffffffffffffffffffffffffffffffffffffffff820361253b5761253a611f04565b5b60018201905091905056fea26469706673582212207624265a74b1350c48fa008a4c7f01002b4df668d4180c9d4cef91a0e81d7eca64736f6c63430008150033","opcodes":"PUSH1 0x80 PUSH1 0x40 MSTORE CALLVALUE DUP1 ISZERO PUSH2 0xF JUMPI PUSH0 DUP1 REVERT JUMPDEST POP PUSH2 0x257C DUP1 PUSH2 0x1D PUSH0 CODECOPY PUSH0 RETURN INVALID PUSH1 0x80 PUSH1 0x40 MSTORE PUSH1 0x4 CALLDATASIZE LT PUSH2 0x1CB JUMPI PUSH0 CALLDATALOAD PUSH1 0xE0 SHR DUP1 PUSH4 0x792CAC3B GT PUSH2 0xF6 JUMPI DUP1 PUSH4 0xA37189CB GT PUSH2 0x94 JUMPI DUP1 PUSH4 0xD7D1BBDB GT PUSH2 0x63 JUMPI DUP1 PUSH4 0xD7D1BBDB EQ PUSH2 0x6CB JUMPI DUP1 PUSH4 0xF6BA317D EQ PUSH2 0x6F3 JUMPI DUP1 PUSH4 0xFC81F5AD EQ PUSH2 0x71D JUMPI DUP1 PUSH4 0xFD958403 EQ PUSH2 0x747 JUMPI PUSH2 0x1CB JUMP JUMPDEST DUP1 PUSH4 0xA37189CB EQ PUSH2 0x61E JUMPI DUP1 PUSH4 0xA4A66431 EQ PUSH2 0x646 JUMPI DUP1 PUSH4 0xAAA17235 EQ PUSH2 0x683 JUMPI DUP1 PUSH4 0xD7BB99BA EQ PUSH2 0x6AD JUMPI PUSH2 0x1CB JUMP JUMPDEST DUP1 PUSH4 0x8A9CFD55 GT PUSH2 0xD0 JUMPI DUP1 PUSH4 0x8A9CFD55 EQ PUSH2 0x553 JUMPI DUP1 PUSH4 0x91CF26F6 EQ PUSH2 0x57B JUMPI DUP1 PUSH4 0x962E7F62 EQ PUSH2 0x5A3 JUMPI DUP1 PUSH4 0x9D7CDD6F EQ PUSH2 0x5E1 JUMPI PUSH2 0x1CB JUMP JUMPDEST DUP1 PUSH4 0x792CAC3B EQ PUSH2 0x4C1 JUMPI DUP1 PUSH4 0x81D12C58 EQ PUSH2 0x4EB JUMPI DUP1 PUSH4 0x87859AD0 EQ PUSH2 0x52B JUMPI PUSH2 0x1CB JUMP JUMPDEST DUP1 PUSH4 0x208B7E9A GT PUSH2 0x16E JUMPI DUP1 PUSH4 0x4CDA853B GT PUSH2 0x13D JUMPI DUP1 PUSH4 0x4CDA853B EQ PUSH2 0x3F6 JUMPI DUP1 PUSH4 0x51A0A6D2 EQ PUSH2 0x432 JUMPI DUP1 PUSH4 0x6C9FF6B9 EQ PUSH2 0x45A JUMPI DUP1 PUSH4 0x6CAA9218 EQ PUSH2 0x497 JUMPI PUSH2 0x1CB JUMP JUMPDEST DUP1 PUSH4 0x208B7E9A EQ PUSH2 0x33D JUMPI DUP1 PUSH4 0x22FA19BC EQ PUSH2 0x37A JUMPI DUP1 PUSH4 0x46B8DF2E EQ PUSH2 0x3A4 JUMPI DUP1 PUSH4 0x481C6A75 EQ PUSH2 0x3CC JUMPI PUSH2 0x1CB JUMP JUMPDEST DUP1 PUSH4 0x600D8FC GT PUSH2 0x1AA JUMPI DUP1 PUSH4 0x600D8FC EQ PUSH2 0x26F JUMPI DUP1 PUSH4 0xA144391 EQ PUSH2 0x297 JUMPI DUP1 PUSH4 0x141961BC EQ PUSH2 0x2D3 JUMPI DUP1 PUSH4 0x15A252E3 EQ PUSH2 0x313 JUMPI PUSH2 0x1CB JUMP JUMPDEST DUP1 PUSH3 0xB0D0D5 EQ PUSH2 0x1CF JUMPI DUP1 PUSH4 0x2FB6955 EQ PUSH2 0x20B JUMPI DUP1 PUSH4 0x3441006 EQ PUSH2 0x247 JUMPI JUMPDEST PUSH0 DUP1 REVERT JUMPDEST CALLVALUE DUP1 ISZERO PUSH2 0x1DA JUMPI PUSH0 DUP1 REVERT JUMPDEST POP PUSH2 0x1F5 PUSH1 0x4 DUP1 CALLDATASIZE SUB DUP2 ADD SWAP1 PUSH2 0x1F0 SWAP2 SWAP1 PUSH2 0x17B8 JUMP JUMPDEST PUSH2 0x771 JUMP JUMPDEST PUSH1 0x40 MLOAD PUSH2 0x202 SWAP2 SWAP1 PUSH2 0x1817 JUMP JUMPDEST PUSH1 0x40 MLOAD DUP1 SWAP2 SUB SWAP1 RETURN JUMPDEST CALLVALUE DUP1 ISZERO PUSH2 0x216 JUMPI PUSH0 DUP1 REVERT JUMPDEST POP PUSH2 0x231 PUSH1 0x4 DUP1 CALLDATASIZE SUB DUP2 ADD SWAP1 PUSH2 0x22C SWAP2 SWAP1 PUSH2 0x1830 JUMP JUMPDEST PUSH2 0x7AE JUMP JUMPDEST PUSH1 0x40 MLOAD PUSH2 0x23E SWAP2 SWAP1 PUSH2 0x189A JUMP JUMPDEST PUSH1 0x40 MLOAD DUP1 SWAP2 SUB SWAP1 RETURN JUMPDEST CALLVALUE DUP1 ISZERO PUSH2 0x252 JUMPI PUSH0 DUP1 REVERT JUMPDEST POP PUSH2 0x26D PUSH1 0x4 DUP1 CALLDATASIZE SUB DUP2 ADD SWAP1 PUSH2 0x268 SWAP2 SWAP1 PUSH2 0x1830 JUMP JUMPDEST PUSH2 0x7E8 JUMP JUMPDEST STOP JUMPDEST CALLVALUE DUP1 ISZERO PUSH2 0x27A JUMPI PUSH0 DUP1 REVERT JUMPDEST POP PUSH2 0x295 PUSH1 0x4 DUP1 CALLDATASIZE SUB DUP2 ADD SWAP1 PUSH2 0x290 SWAP2 SWAP1 PUSH2 0x17B8 JUMP JUMPDEST PUSH2 0x92C JUMP JUMPDEST STOP JUMPDEST CALLVALUE DUP1 ISZERO PUSH2 0x2A2 JUMPI PUSH0 DUP1 REVERT JUMPDEST POP PUSH2 0x2BD PUSH1 0x4 DUP1 CALLDATASIZE SUB DUP2 ADD SWAP1 PUSH2 0x2B8 SWAP2 SWAP1 PUSH2 0x18DD JUMP JUMPDEST PUSH2 0x98B JUMP JUMPDEST PUSH1 0x40 MLOAD PUSH2 0x2CA SWAP2 SWAP1 PUSH2 0x1922 JUMP JUMPDEST PUSH1 0x40 MLOAD DUP1 SWAP2 SUB SWAP1 RETURN JUMPDEST CALLVALUE DUP1 ISZERO PUSH2 0x2DE JUMPI PUSH0 DUP1 REVERT JUMPDEST POP PUSH2 0x2F9 PUSH1 0x4 DUP1 CALLDATASIZE SUB DUP2 ADD SWAP1 PUSH2 0x2F4 SWAP2 SWAP1 PUSH2 0x1830 JUMP JUMPDEST PUSH2 0x9A8 JUMP JUMPDEST PUSH1 0x40 MLOAD PUSH2 0x30A SWAP6 SWAP5 SWAP4 SWAP3 SWAP2 SWAP1 PUSH2 0x19C5 JUMP JUMPDEST PUSH1 0x40 MLOAD DUP1 SWAP2 SUB SWAP1 RETURN JUMPDEST CALLVALUE DUP1 ISZERO PUSH2 0x31E JUMPI PUSH0 DUP1 REVERT JUMPDEST POP PUSH2 0x327 PUSH2 0xA8E JUMP JUMPDEST PUSH1 0x40 MLOAD PUSH2 0x334 SWAP2 SWAP1 PUSH2 0x1817 JUMP JUMPDEST PUSH1 0x40 MLOAD DUP1 SWAP2 SUB SWAP1 RETURN JUMPDEST CALLVALUE DUP1 ISZERO PUSH2 0x348 JUMPI PUSH0 DUP1 REVERT JUMPDEST POP PUSH2 0x363 PUSH1 0x4 DUP1 CALLDATASIZE SUB DUP2 ADD SWAP1 PUSH2 0x35E SWAP2 SWAP1 PUSH2 0x1B49 JUMP JUMPDEST PUSH2 0xA94 JUMP JUMPDEST PUSH1 0x40 MLOAD PUSH2 0x371 SWAP3 SWAP2 SWAP1 PUSH2 0x1B90 JUMP JUMPDEST PUSH1 0x40 MLOAD DUP1 SWAP2 SUB SWAP1 RETURN JUMPDEST CALLVALUE DUP1 ISZERO PUSH2 0x385 JUMPI PUSH0 DUP1 REVERT JUMPDEST POP PUSH2 0x38E PUSH2 0xB79 JUMP JUMPDEST PUSH1 0x40 MLOAD PUSH2 0x39B SWAP2 SWAP1 PUSH2 0x1817 JUMP JUMPDEST PUSH1 0x40 MLOAD DUP1 SWAP2 SUB SWAP1 RETURN JUMPDEST CALLVALUE DUP1 ISZERO PUSH2 0x3AF JUMPI PUSH0 DUP1 REVERT JUMPDEST POP PUSH2 0x3CA PUSH1 0x4 DUP1 CALLDATASIZE SUB DUP2 ADD SWAP1 PUSH2 0x3C5 SWAP2 SWAP1 PUSH2 0x1B49 JUMP JUMPDEST PUSH2 0xB7F JUMP JUMPDEST STOP JUMPDEST CALLVALUE DUP1 ISZERO PUSH2 0x3D7 JUMPI PUSH0 DUP1 REVERT JUMPDEST POP PUSH2 0x3E0 PUSH2 0xC4F JUMP JUMPDEST PUSH1 0x40 MLOAD PUSH2 0x3ED SWAP2 SWAP1 PUSH2 0x189A JUMP JUMPDEST PUSH1 0x40 MLOAD DUP1 SWAP2 SUB SWAP1 RETURN JUMPDEST CALLVALUE DUP1 ISZERO PUSH2 0x401 JUMPI PUSH0 DUP1 REVERT JUMPDEST POP PUSH2 0x41C PUSH1 0x4 DUP1 CALLDATASIZE SUB DUP2 ADD SWAP1 PUSH2 0x417 SWAP2 SWAP1 PUSH2 0x18DD JUMP JUMPDEST PUSH2 0xC74 JUMP JUMPDEST PUSH1 0x40 MLOAD PUSH2 0x429 SWAP2 SWAP1 PUSH2 0x1817 JUMP JUMPDEST PUSH1 0x40 MLOAD DUP1 SWAP2 SUB SWAP1 RETURN JUMPDEST CALLVALUE DUP1 ISZERO PUSH2 0x43D JUMPI PUSH0 DUP1 REVERT JUMPDEST POP PUSH2 0x458 PUSH1 0x4 DUP1 CALLDATASIZE SUB DUP2 ADD SWAP1 PUSH2 0x453 SWAP2 SWAP1 PUSH2 0x1BB7 JUMP JUMPDEST PUSH2 0xC89 JUMP JUMPDEST STOP JUMPDEST CALLVALUE DUP1 ISZERO PUSH2 0x465 JUMPI PUSH0 DUP1 REVERT JUMPDEST POP PUSH2 0x480 PUSH1 0x4 DUP1 CALLDATASIZE SUB DUP2 ADD SWAP1 PUSH2 0x47B SWAP2 SWAP1 PUSH2 0x1830 JUMP JUMPDEST PUSH2 0xE17 JUMP JUMPDEST PUSH1 0x40 MLOAD PUSH2 0x48E SWAP3 SWAP2 SWAP1 PUSH2 0x1C37 JUMP JUMPDEST PUSH1 0x40 MLOAD DUP1 SWAP2 SUB SWAP1 RETURN JUMPDEST CALLVALUE DUP1 ISZERO PUSH2 0x4A2 JUMPI PUSH0 DUP1 REVERT JUMPDEST POP PUSH2 0x4AB PUSH2 0xF38 JUMP JUMPDEST PUSH1 0x40 MLOAD PUSH2 0x4B8 SWAP2 SWAP1 PUSH2 0x1817 JUMP JUMPDEST PUSH1 0x40 MLOAD DUP1 SWAP2 SUB SWAP1 RETURN JUMPDEST CALLVALUE DUP1 ISZERO PUSH2 0x4CC JUMPI PUSH0 DUP1 REVERT JUMPDEST POP PUSH2 0x4D5 PUSH2 0xF44 JUMP JUMPDEST PUSH1 0x40 MLOAD PUSH2 0x4E2 SWAP2 SWAP1 PUSH2 0x1817 JUMP JUMPDEST PUSH1 0x40 MLOAD DUP1 SWAP2 SUB SWAP1 RETURN JUMPDEST CALLVALUE DUP1 ISZERO PUSH2 0x4F6 JUMPI PUSH0 DUP1 REVERT JUMPDEST POP PUSH2 0x511 PUSH1 0x4 DUP1 CALLDATASIZE SUB DUP2 ADD SWAP1 PUSH2 0x50C SWAP2 SWAP1 PUSH2 0x1830 JUMP JUMPDEST PUSH2 0xF4A JUMP JUMPDEST PUSH1 0x40 MLOAD PUSH2 0x522 SWAP6 SWAP5 SWAP4 SWAP3 SWAP2 SWAP1 PUSH2 0x1C65 JUMP JUMPDEST PUSH1 0x40 MLOAD DUP1 SWAP2 SUB SWAP1 RETURN JUMPDEST CALLVALUE DUP1 ISZERO PUSH2 0x536 JUMPI PUSH0 DUP1 REVERT JUMPDEST POP PUSH2 0x551 PUSH1 0x4 DUP1 CALLDATASIZE SUB DUP2 ADD SWAP1 PUSH2 0x54C SWAP2 SWAP1 PUSH2 0x1B49 JUMP JUMPDEST PUSH2 0x103D JUMP JUMPDEST STOP JUMPDEST CALLVALUE DUP1 ISZERO PUSH2 0x55E JUMPI PUSH0 DUP1 REVERT JUMPDEST POP PUSH2 0x579 PUSH1 0x4 DUP1 CALLDATASIZE SUB DUP2 ADD SWAP1 PUSH2 0x574 SWAP2 SWAP1 PUSH2 0x1CBD JUMP JUMPDEST PUSH2 0x108E JUMP JUMPDEST STOP JUMPDEST CALLVALUE DUP1 ISZERO PUSH2 0x586 JUMPI PUSH0 DUP1 REVERT JUMPDEST POP PUSH2 0x5A1 PUSH1 0x4 DUP1 CALLDATASIZE SUB DUP2 ADD SWAP1 PUSH2 0x59C SWAP2 SWAP1 PUSH2 0x1D29 JUMP JUMPDEST PUSH2 0x118E JUMP JUMPDEST STOP JUMPDEST CALLVALUE DUP1 ISZERO PUSH2 0x5AE JUMPI PUSH0 DUP1 REVERT JUMPDEST POP PUSH2 0x5C9 PUSH1 0x4 DUP1 CALLDATASIZE SUB DUP2 ADD SWAP1 PUSH2 0x5C4 SWAP2 SWAP1 PUSH2 0x1830 JUMP JUMPDEST PUSH2 0x122B JUMP JUMPDEST PUSH1 0x40 MLOAD PUSH2 0x5D8 SWAP4 SWAP3 SWAP2 SWAP1 PUSH2 0x1D95 JUMP JUMPDEST PUSH1 0x40 MLOAD DUP1 SWAP2 SUB SWAP1 RETURN JUMPDEST CALLVALUE DUP1 ISZERO PUSH2 0x5EC JUMPI PUSH0 DUP1 REVERT JUMPDEST POP PUSH2 0x607 PUSH1 0x4 DUP1 CALLDATASIZE SUB DUP2 ADD SWAP1 PUSH2 0x602 SWAP2 SWAP1 PUSH2 0x1830 JUMP JUMPDEST PUSH2 0x12D7 JUMP JUMPDEST PUSH1 0x40 MLOAD PUSH2 0x615 SWAP3 SWAP2 SWAP1 PUSH2 0x1DD1 JUMP JUMPDEST PUSH1 0x40 MLOAD DUP1 SWAP2 SUB SWAP1 RETURN JUMPDEST CALLVALUE DUP1 ISZERO PUSH2 0x629 JUMPI PUSH0 DUP1 REVERT JUMPDEST POP PUSH2 0x644 PUSH1 0x4 DUP1 CALLDATASIZE SUB DUP2 ADD SWAP1 PUSH2 0x63F SWAP2 SWAP1 PUSH2 0x1D29 JUMP JUMPDEST PUSH2 0x13AB JUMP JUMPDEST STOP JUMPDEST CALLVALUE DUP1 ISZERO PUSH2 0x651 JUMPI PUSH0 DUP1 REVERT JUMPDEST POP PUSH2 0x66C PUSH1 0x4 DUP1 CALLDATASIZE SUB DUP2 ADD SWAP1 PUSH2 0x667 SWAP2 SWAP1 PUSH2 0x1830 JUMP JUMPDEST PUSH2 0x145B JUMP JUMPDEST PUSH1 0x40 MLOAD PUSH2 0x67A SWAP3 SWAP2 SWAP1 PUSH2 0x1DFF JUMP JUMPDEST PUSH1 0x40 MLOAD DUP1 SWAP2 SUB SWAP1 RETURN JUMPDEST CALLVALUE DUP1 ISZERO PUSH2 0x68E JUMPI PUSH0 DUP1 REVERT JUMPDEST POP PUSH2 0x697 PUSH2 0x151C JUMP JUMPDEST PUSH1 0x40 MLOAD PUSH2 0x6A4 SWAP2 SWAP1 PUSH2 0x1817 JUMP JUMPDEST PUSH1 0x40 MLOAD DUP1 SWAP2 SUB SWAP1 RETURN JUMPDEST PUSH2 0x6B5 PUSH2 0x1522 JUMP JUMPDEST PUSH1 0x40 MLOAD PUSH2 0x6C2 SWAP2 SWAP1 PUSH2 0x1817 JUMP JUMPDEST PUSH1 0x40 MLOAD DUP1 SWAP2 SUB SWAP1 RETURN JUMPDEST CALLVALUE DUP1 ISZERO PUSH2 0x6D6 JUMPI PUSH0 DUP1 REVERT JUMPDEST POP PUSH2 0x6F1 PUSH1 0x4 DUP1 CALLDATASIZE SUB DUP2 ADD SWAP1 PUSH2 0x6EC SWAP2 SWAP1 PUSH2 0x1830 JUMP JUMPDEST PUSH2 0x15A0 JUMP JUMPDEST STOP JUMPDEST CALLVALUE DUP1 ISZERO PUSH2 0x6FE JUMPI PUSH0 DUP1 REVERT JUMPDEST POP PUSH2 0x707 PUSH2 0x16DE JUMP JUMPDEST PUSH1 0x40 MLOAD PUSH2 0x714 SWAP2 SWAP1 PUSH2 0x1EE4 JUMP JUMPDEST PUSH1 0x40 MLOAD DUP1 SWAP2 SUB SWAP1 RETURN JUMPDEST CALLVALUE DUP1 ISZERO PUSH2 0x728 JUMPI PUSH0 DUP1 REVERT JUMPDEST POP PUSH2 0x731 PUSH2 0x1768 JUMP JUMPDEST PUSH1 0x40 MLOAD PUSH2 0x73E SWAP2 SWAP1 PUSH2 0x1817 JUMP JUMPDEST PUSH1 0x40 MLOAD DUP1 SWAP2 SUB SWAP1 RETURN JUMPDEST CALLVALUE DUP1 ISZERO PUSH2 0x752 JUMPI PUSH0 DUP1 REVERT JUMPDEST POP PUSH2 0x75B PUSH2 0x176E JUMP JUMPDEST PUSH1 0x40 MLOAD PUSH2 0x768 SWAP2 SWAP1 PUSH2 0x1817 JUMP JUMPDEST PUSH1 0x40 MLOAD DUP1 SWAP2 SUB SWAP1 RETURN JUMPDEST PUSH0 DUP1 DUP3 PUSH1 0x1 DUP5 DUP8 PUSH2 0x782 SWAP2 SWAP1 PUSH2 0x1F31 JUMP JUMPDEST PUSH2 0x78C SWAP2 SWAP1 PUSH2 0x1F64 JUMP JUMPDEST PUSH2 0x796 SWAP2 SWAP1 PUSH2 0x1FC4 JUMP JUMPDEST SWAP1 POP DUP1 DUP5 PUSH2 0x7A4 SWAP2 SWAP1 PUSH2 0x1FF4 JUMP JUMPDEST SWAP2 POP POP SWAP4 SWAP3 POP POP POP JUMP JUMPDEST PUSH0 DUP2 DUP2 SLOAD DUP2 LT PUSH2 0x7BC JUMPI PUSH0 DUP1 REVERT JUMPDEST SWAP1 PUSH0 MSTORE PUSH1 0x20 PUSH0 KECCAK256 ADD PUSH0 SWAP2 POP SLOAD SWAP1 PUSH2 0x100 EXP SWAP1 DIV PUSH20 0xFFFFFFFFFFFFFFFFFFFFFFFFFFFFFFFFFFFFFFFF AND DUP2 JUMP JUMPDEST PUSH1 0xC PUSH0 SWAP1 SLOAD SWAP1 PUSH2 0x100 EXP SWAP1 DIV PUSH20 0xFFFFFFFFFFFFFFFFFFFFFFFFFFFFFFFFFFFFFFFF AND PUSH20 0xFFFFFFFFFFFFFFFFFFFFFFFFFFFFFFFFFFFFFFFF AND CALLER PUSH20 0xFFFFFFFFFFFFFFFFFFFFFFFFFFFFFFFFFFFFFFFF AND EQ PUSH2 0x840 JUMPI PUSH0 DUP1 REVERT JUMPDEST PUSH0 PUSH1 0xB DUP3 DUP2 SLOAD DUP2 LT PUSH2 0x855 JUMPI PUSH2 0x854 PUSH2 0x2035 JUMP JUMPDEST JUMPDEST SWAP1 PUSH0 MSTORE PUSH1 0x20 PUSH0 KECCAK256 SWAP1 PUSH1 0x5 MUL ADD SWAP1 POP DUP1 PUSH1 0x2 ADD PUSH1 0x14 SWAP1 SLOAD SWAP1 PUSH2 0x100 EXP SWAP1 DIV PUSH1 0xFF AND ISZERO PUSH2 0x87E JUMPI PUSH0 DUP1 REVERT JUMPDEST PUSH1 0x2 PUSH1 0xE SLOAD PUSH2 0x88D SWAP2 SWAP1 PUSH2 0x1FC4 JUMP JUMPDEST DUP2 PUSH1 0x4 ADD SLOAD GT PUSH2 0x89B JUMPI PUSH0 DUP1 REVERT JUMPDEST PUSH0 DUP2 PUSH1 0x2 ADD PUSH0 SWAP1 SLOAD SWAP1 PUSH2 0x100 EXP SWAP1 DIV PUSH20 0xFFFFFFFFFFFFFFFFFFFFFFFFFFFFFFFFFFFFFFFF AND SWAP1 POP DUP1 PUSH20 0xFFFFFFFFFFFFFFFFFFFFFFFFFFFFFFFFFFFFFFFF AND PUSH2 0x8FC DUP4 PUSH1 0x1 ADD SLOAD SWAP1 DUP2 ISZERO MUL SWAP1 PUSH1 0x40 MLOAD PUSH0 PUSH1 0x40 MLOAD DUP1 DUP4 SUB DUP2 DUP6 DUP9 DUP9 CALL SWAP4 POP POP POP POP ISZERO DUP1 ISZERO PUSH2 0x909 JUMPI RETURNDATASIZE PUSH0 DUP1 RETURNDATACOPY RETURNDATASIZE PUSH0 REVERT JUMPDEST POP PUSH1 0x1 DUP3 PUSH1 0x2 ADD PUSH1 0x14 PUSH2 0x100 EXP DUP2 SLOAD DUP2 PUSH1 0xFF MUL NOT AND SWAP1 DUP4 ISZERO ISZERO MUL OR SWAP1 SSTORE POP POP POP POP JUMP JUMPDEST DUP3 PUSH1 0x3 DUP2 SWAP1 SSTORE POP DUP2 PUSH1 0x4 DUP2 SWAP1 SSTORE POP DUP1 PUSH1 0x5 DUP2 SWAP1 SSTORE POP PUSH0 PUSH1 0x64 PUSH1 0x4 SLOAD PUSH2 0x951 SWAP2 SWAP1 PUSH2 0x1FF4 JUMP JUMPDEST PUSH2 0x3E8 PUSH1 0x3 SLOAD PUSH2 0x961 SWAP2 SWAP1 PUSH2 0x1FF4 JUMP JUMPDEST PUSH2 0x96B SWAP2 SWAP1 PUSH2 0x1F31 JUMP JUMPDEST SWAP1 POP DUP1 PUSH1 0x2 PUSH0 DUP3 DUP3 SLOAD PUSH2 0x97E SWAP2 SWAP1 PUSH2 0x1F31 JUMP JUMPDEST SWAP3 POP POP DUP2 SWAP1 SSTORE POP POP POP POP POP JUMP JUMPDEST PUSH1 0xD PUSH1 0x20 MSTORE DUP1 PUSH0 MSTORE PUSH1 0x40 PUSH0 KECCAK256 PUSH0 SWAP2 POP SLOAD SWAP1 PUSH2 0x100 EXP SWAP1 DIV PUSH1 0xFF AND DUP2 JUMP JUMPDEST PUSH1 0x1 DUP2 DUP2 SLOAD DUP2 LT PUSH2 0x9B7 JUMPI PUSH0 DUP1 REVERT JUMPDEST SWAP1 PUSH0 MSTORE PUSH1 0x20 PUSH0 KECCAK256 SWAP1 PUSH1 0x5 MUL ADD PUSH0 SWAP2 POP SWAP1 POP DUP1 PUSH0 ADD PUSH0 SWAP1 SLOAD SWAP1 PUSH2 0x100 EXP SWAP1 DIV PUSH20 0xFFFFFFFFFFFFFFFFFFFFFFFFFFFFFFFFFFFFFFFF AND SWAP1 DUP1 PUSH1 0x1 ADD SLOAD SWAP1 DUP1 PUSH1 0x2 ADD DUP1 SLOAD PUSH2 0xA01 SWAP1 PUSH2 0x208F JUMP JUMPDEST DUP1 PUSH1 0x1F ADD PUSH1 0x20 DUP1 SWAP2 DIV MUL PUSH1 0x20 ADD PUSH1 0x40 MLOAD SWAP1 DUP2 ADD PUSH1 0x40 MSTORE DUP1 SWAP3 SWAP2 SWAP1 DUP2 DUP2 MSTORE PUSH1 0x20 ADD DUP3 DUP1 SLOAD PUSH2 0xA2D SWAP1 PUSH2 0x208F JUMP JUMPDEST DUP1 ISZERO PUSH2 0xA78 JUMPI DUP1 PUSH1 0x1F LT PUSH2 0xA4F JUMPI PUSH2 0x100 DUP1 DUP4 SLOAD DIV MUL DUP4 MSTORE SWAP2 PUSH1 0x20 ADD SWAP2 PUSH2 0xA78 JUMP JUMPDEST DUP3 ADD SWAP2 SWAP1 PUSH0 MSTORE PUSH1 0x20 PUSH0 KECCAK256 SWAP1 JUMPDEST DUP2 SLOAD DUP2 MSTORE SWAP1 PUSH1 0x1 ADD SWAP1 PUSH1 0x20 ADD DUP1 DUP4 GT PUSH2 0xA5B JUMPI DUP3 SWAP1 SUB PUSH1 0x1F AND DUP3 ADD SWAP2 JUMPDEST POP POP POP POP POP SWAP1 DUP1 PUSH1 0x3 ADD SLOAD SWAP1 DUP1 PUSH1 0x4 ADD SLOAD SWAP1 POP DUP6 JUMP JUMPDEST PUSH1 0x7 SLOAD DUP2 JUMP JUMPDEST PUSH0 DUP1 PUSH0 PUSH1 0x9 PUSH0 CALLER PUSH20 0xFFFFFFFFFFFFFFFFFFFFFFFFFFFFFFFFFFFFFFFF AND PUSH20 0xFFFFFFFFFFFFFFFFFFFFFFFFFFFFFFFFFFFFFFFF AND DUP2 MSTORE PUSH1 0x20 ADD SWAP1 DUP2 MSTORE PUSH1 0x20 ADD PUSH0 KECCAK256 SLOAD SWAP1 POP PUSH1 0x8 DUP1 SLOAD SWAP1 POP DUP2 LT PUSH2 0xB1E JUMPI PUSH1 0x40 MLOAD PUSH32 0x8C379A000000000000000000000000000000000000000000000000000000000 DUP2 MSTORE PUSH1 0x4 ADD PUSH2 0xB15 SWAP1 PUSH2 0x2109 JUMP JUMPDEST PUSH1 0x40 MLOAD DUP1 SWAP2 SUB SWAP1 REVERT JUMPDEST PUSH0 PUSH1 0x8 DUP3 DUP2 SLOAD DUP2 LT PUSH2 0xB33 JUMPI PUSH2 0xB32 PUSH2 0x2035 JUMP JUMPDEST JUMPDEST SWAP1 PUSH0 MSTORE PUSH1 0x20 PUSH0 KECCAK256 SWAP1 PUSH1 0x3 MUL ADD SWAP1 POP PUSH0 DUP2 PUSH1 0x2 ADD DUP7 PUSH1 0x40 MLOAD PUSH2 0xB54 SWAP2 SWAP1 PUSH2 0x2161 JUMP JUMPDEST SWAP1 DUP2 MSTORE PUSH1 0x20 ADD PUSH1 0x40 MLOAD DUP1 SWAP2 SUB SWAP1 KECCAK256 SWAP1 POP DUP1 PUSH0 ADD SLOAD DUP2 PUSH1 0x1 ADD SLOAD SWAP5 POP SWAP5 POP POP POP POP SWAP2 POP SWAP2 JUMP JUMPDEST PUSH1 0x5 SLOAD DUP2 JUMP JUMPDEST PUSH0 PUSH1 0x8 PUSH1 0x1 DUP2 PUSH1 0x1 DUP2 SLOAD ADD DUP1 DUP3 SSTORE DUP1 SWAP2 POP POP SUB SWAP1 PUSH0 MSTORE PUSH1 0x20 PUSH0 KECCAK256 SWAP1 PUSH1 0x3 MUL ADD SWAP1 POP DUP2 DUP2 PUSH0 ADD SWAP1 DUP2 PUSH2 0xBB0 SWAP2 SWAP1 PUSH2 0x2314 JUMP JUMPDEST POP CALLER DUP2 PUSH1 0x1 ADD PUSH0 PUSH2 0x100 EXP DUP2 SLOAD DUP2 PUSH20 0xFFFFFFFFFFFFFFFFFFFFFFFFFFFFFFFFFFFFFFFF MUL NOT AND SWAP1 DUP4 PUSH20 0xFFFFFFFFFFFFFFFFFFFFFFFFFFFFFFFFFFFFFFFF AND MUL OR SWAP1 SSTORE POP PUSH0 PUSH1 0x1 PUSH1 0x8 DUP1 SLOAD SWAP1 POP PUSH2 0xC06 SWAP2 SWAP1 PUSH2 0x1F64 JUMP JUMPDEST SWAP1 POP DUP1 PUSH1 0x9 PUSH0 CALLER PUSH20 0xFFFFFFFFFFFFFFFFFFFFFFFFFFFFFFFFFFFFFFFF AND PUSH20 0xFFFFFFFFFFFFFFFFFFFFFFFFFFFFFFFFFFFFFFFF AND DUP2 MSTORE PUSH1 0x20 ADD SWAP1 DUP2 MSTORE PUSH1 0x20 ADD PUSH0 KECCAK256 DUP2 SWAP1 SSTORE POP POP POP POP JUMP JUMPDEST PUSH1 0xC PUSH0 SWAP1 SLOAD SWAP1 PUSH2 0x100 EXP SWAP1 DIV PUSH20 0xFFFFFFFFFFFFFFFFFFFFFFFFFFFFFFFFFFFFFFFF AND DUP2 JUMP JUMPDEST PUSH1 0x9 PUSH1 0x20 MSTORE DUP1 PUSH0 MSTORE PUSH1 0x40 PUSH0 KECCAK256 PUSH0 SWAP2 POP SWAP1 POP SLOAD DUP2 JUMP JUMPDEST DUP2 DUP5 LT PUSH2 0xCCB JUMPI PUSH1 0x40 MLOAD PUSH32 0x8C379A000000000000000000000000000000000000000000000000000000000 DUP2 MSTORE PUSH1 0x4 ADD PUSH2 0xCC2 SWAP1 PUSH2 0x2479 JUMP JUMPDEST PUSH1 0x40 MLOAD DUP1 SWAP2 SUB SWAP1 REVERT JUMPDEST PUSH0 PUSH1 0x40 MLOAD DUP1 PUSH1 0xA0 ADD PUSH1 0x40 MSTORE DUP1 CALLER PUSH20 0xFFFFFFFFFFFFFFFFFFFFFFFFFFFFFFFFFFFFFFFF AND DUP2 MSTORE PUSH1 0x20 ADD DUP7 DUP2 MSTORE PUSH1 0x20 ADD DUP6 DUP2 MSTORE PUSH1 0x20 ADD DUP5 DUP2 MSTORE PUSH1 0x20 ADD DUP4 DUP2 MSTORE POP SWAP1 POP PUSH1 0x1 DUP2 SWAP1 DUP1 PUSH1 0x1 DUP2 SLOAD ADD DUP1 DUP3 SSTORE DUP1 SWAP2 POP POP PUSH1 0x1 SWAP1 SUB SWAP1 PUSH0 MSTORE PUSH1 0x20 PUSH0 KECCAK256 SWAP1 PUSH1 0x5 MUL ADD PUSH0 SWAP1 SWAP2 SWAP1 SWAP2 SWAP1 SWAP2 POP PUSH0 DUP3 ADD MLOAD DUP2 PUSH0 ADD PUSH0 PUSH2 0x100 EXP DUP2 SLOAD DUP2 PUSH20 0xFFFFFFFFFFFFFFFFFFFFFFFFFFFFFFFFFFFFFFFF MUL NOT AND SWAP1 DUP4 PUSH20 0xFFFFFFFFFFFFFFFFFFFFFFFFFFFFFFFFFFFFFFFF AND MUL OR SWAP1 SSTORE POP PUSH1 0x20 DUP3 ADD MLOAD DUP2 PUSH1 0x1 ADD SSTORE PUSH1 0x40 DUP3 ADD MLOAD DUP2 PUSH1 0x2 ADD SWAP1 DUP2 PUSH2 0xD97 SWAP2 SWAP1 PUSH2 0x2314 JUMP JUMPDEST POP PUSH1 0x60 DUP3 ADD MLOAD DUP2 PUSH1 0x3 ADD SSTORE PUSH1 0x80 DUP3 ADD MLOAD DUP2 PUSH1 0x4 ADD SSTORE POP POP PUSH0 DUP2 PUSH0 ADD MLOAD SWAP1 DUP1 PUSH1 0x1 DUP2 SLOAD ADD DUP1 DUP3 SSTORE DUP1 SWAP2 POP POP PUSH1 0x1 SWAP1 SUB SWAP1 PUSH0 MSTORE PUSH1 0x20 PUSH0 KECCAK256 ADD PUSH0 SWAP1 SWAP2 SWAP1 SWAP2 SWAP1 SWAP2 PUSH2 0x100 EXP DUP2 SLOAD DUP2 PUSH20 0xFFFFFFFFFFFFFFFFFFFFFFFFFFFFFFFFFFFFFFFF MUL NOT AND SWAP1 DUP4 PUSH20 0xFFFFFFFFFFFFFFFFFFFFFFFFFFFFFFFFFFFFFFFF AND MUL OR SWAP1 SSTORE POP POP POP POP POP POP JUMP JUMPDEST PUSH1 0x60 PUSH0 PUSH1 0x7 SLOAD DUP4 LT PUSH2 0xE5E JUMPI PUSH1 0x40 MLOAD PUSH32 0x8C379A000000000000000000000000000000000000000000000000000000000 DUP2 MSTORE PUSH1 0x4 ADD PUSH2 0xE55 SWAP1 PUSH2 0x24E1 JUMP JUMPDEST PUSH1 0x40 MLOAD DUP1 SWAP2 SUB SWAP1 REVERT JUMPDEST PUSH1 0x6 PUSH0 DUP5 DUP2 MSTORE PUSH1 0x20 ADD SWAP1 DUP2 MSTORE PUSH1 0x20 ADD PUSH0 KECCAK256 PUSH0 ADD PUSH1 0x6 PUSH0 DUP6 DUP2 MSTORE PUSH1 0x20 ADD SWAP1 DUP2 MSTORE PUSH1 0x20 ADD PUSH0 KECCAK256 PUSH1 0x2 ADD SLOAD PUSH1 0x6 PUSH0 DUP7 DUP2 MSTORE PUSH1 0x20 ADD SWAP1 DUP2 MSTORE PUSH1 0x20 ADD PUSH0 KECCAK256 PUSH1 0x1 ADD SLOAD PUSH2 0xEA5 SWAP2 SWAP1 PUSH2 0x1FF4 JUMP JUMPDEST DUP2 DUP1 SLOAD PUSH2 0xEB1 SWAP1 PUSH2 0x208F JUMP JUMPDEST DUP1 PUSH1 0x1F ADD PUSH1 0x20 DUP1 SWAP2 DIV MUL PUSH1 0x20 ADD PUSH1 0x40 MLOAD SWAP1 DUP2 ADD PUSH1 0x40 MSTORE DUP1 SWAP3 SWAP2 SWAP1 DUP2 DUP2 MSTORE PUSH1 0x20 ADD DUP3 DUP1 SLOAD PUSH2 0xEDD SWAP1 PUSH2 0x208F JUMP JUMPDEST DUP1 ISZERO PUSH2 0xF28 JUMPI DUP1 PUSH1 0x1F LT PUSH2 0xEFF JUMPI PUSH2 0x100 DUP1 DUP4 SLOAD DIV MUL DUP4 MSTORE SWAP2 PUSH1 0x20 ADD SWAP2 PUSH2 0xF28 JUMP JUMPDEST DUP3 ADD SWAP2 SWAP1 PUSH0 MSTORE PUSH1 0x20 PUSH0 KECCAK256 SWAP1 JUMPDEST DUP2 SLOAD DUP2 MSTORE SWAP1 PUSH1 0x1 ADD SWAP1 PUSH1 0x20 ADD DUP1 DUP4 GT PUSH2 0xF0B JUMPI DUP3 SWAP1 SUB PUSH1 0x1F AND DUP3 ADD SWAP2 JUMPDEST POP POP POP POP POP SWAP2 POP SWAP2 POP SWAP2 POP SWAP2 POP SWAP2 JUMP JUMPDEST PUSH0 PUSH1 0x1 DUP1 SLOAD SWAP1 POP SWAP1 POP SWAP1 JUMP JUMPDEST PUSH1 0x4 SLOAD DUP2 JUMP JUMPDEST PUSH1 0xB DUP2 DUP2 SLOAD DUP2 LT PUSH2 0xF59 JUMPI PUSH0 DUP1 REVERT JUMPDEST SWAP1 PUSH0 MSTORE PUSH1 0x20 PUSH0 KECCAK256 SWAP1 PUSH1 0x5 MUL ADD PUSH0 SWAP2 POP SWAP1 POP DUP1 PUSH0 ADD DUP1 SLOAD PUSH2 0xF78 SWAP1 PUSH2 0x208F JUMP JUMPDEST DUP1 PUSH1 0x1F ADD PUSH1 0x20 DUP1 SWAP2 DIV MUL PUSH1 0x20 ADD PUSH1 0x40 MLOAD SWAP1 DUP2 ADD PUSH1 0x40 MSTORE DUP1 SWAP3 SWAP2 SWAP1 DUP2 DUP2 MSTORE PUSH1 0x20 ADD DUP3 DUP1 SLOAD PUSH2 0xFA4 SWAP1 PUSH2 0x208F JUMP JUMPDEST DUP1 ISZERO PUSH2 0xFEF JUMPI DUP1 PUSH1 0x1F LT PUSH2 0xFC6 JUMPI PUSH2 0x100 DUP1 DUP4 SLOAD DIV MUL DUP4 MSTORE SWAP2 PUSH1 0x20 ADD SWAP2 PUSH2 0xFEF JUMP JUMPDEST DUP3 ADD SWAP2 SWAP1 PUSH0 MSTORE PUSH1 0x20 PUSH0 KECCAK256 SWAP1 JUMPDEST DUP2 SLOAD DUP2 MSTORE SWAP1 PUSH1 0x1 ADD SWAP1 PUSH1 0x20 ADD DUP1 DUP4 GT PUSH2 0xFD2 JUMPI DUP3 SWAP1 SUB PUSH1 0x1F AND DUP3 ADD SWAP2 JUMPDEST POP POP POP POP POP SWAP1 DUP1 PUSH1 0x1 ADD SLOAD SWAP1 DUP1 PUSH1 0x2 ADD PUSH0 SWAP1 SLOAD SWAP1 PUSH2 0x100 EXP SWAP1 DIV PUSH20 0xFFFFFFFFFFFFFFFFFFFFFFFFFFFFFFFFFFFFFFFF AND SWAP1 DUP1 PUSH1 0x2 ADD PUSH1 0x14 SWAP1 SLOAD SWAP1 PUSH2 0x100 EXP SWAP1 DIV PUSH1 0xFF AND SWAP1 DUP1 PUSH1 0x4 ADD SLOAD SWAP1 POP DUP6 JUMP JUMPDEST PUSH0 PUSH1 0xA PUSH1 0x1 DUP2 PUSH1 0x1 DUP2 SLOAD ADD DUP1 DUP3 SSTORE DUP1 SWAP2 POP POP SUB SWAP1 PUSH0 MSTORE PUSH1 0x20 PUSH0 KECCAK256 SWAP1 PUSH1 0x3 MUL ADD SWAP1 POP DUP2 DUP2 PUSH0 ADD SWAP1 DUP2 PUSH2 0x106E SWAP2 SWAP1 PUSH2 0x2314 JUMP JUMPDEST POP PUSH0 DUP2 PUSH1 0x1 ADD PUSH0 PUSH2 0x100 EXP DUP2 SLOAD DUP2 PUSH1 0xFF MUL NOT AND SWAP1 DUP4 ISZERO ISZERO MUL OR SWAP1 SSTORE POP POP POP JUMP JUMPDEST PUSH1 0xC PUSH0 SWAP1 SLOAD SWAP1 PUSH2 0x100 EXP SWAP1 DIV PUSH20 0xFFFFFFFFFFFFFFFFFFFFFFFFFFFFFFFFFFFFFFFF AND PUSH20 0xFFFFFFFFFFFFFFFFFFFFFFFFFFFFFFFFFFFFFFFF AND CALLER PUSH20 0xFFFFFFFFFFFFFFFFFFFFFFFFFFFFFFFFFFFFFFFF AND EQ PUSH2 0x10E6 JUMPI PUSH0 DUP1 REVERT JUMPDEST PUSH0 PUSH1 0xB PUSH1 0x1 DUP2 PUSH1 0x1 DUP2 SLOAD ADD DUP1 DUP3 SSTORE DUP1 SWAP2 POP POP SUB SWAP1 PUSH0 MSTORE PUSH1 0x20 PUSH0 KECCAK256 SWAP1 PUSH1 0x5 MUL ADD SWAP1 POP DUP4 DUP2 PUSH0 ADD SWAP1 DUP2 PUSH2 0x1117 SWAP2 SWAP1 PUSH2 0x2314 JUMP JUMPDEST POP DUP3 DUP2 PUSH1 0x1 ADD DUP2 SWAP1 SSTORE POP DUP2 DUP2 PUSH1 0x2 ADD PUSH0 PUSH2 0x100 EXP DUP2 SLOAD DUP2 PUSH20 0xFFFFFFFFFFFFFFFFFFFFFFFFFFFFFFFFFFFFFFFF MUL NOT AND SWAP1 DUP4 PUSH20 0xFFFFFFFFFFFFFFFFFFFFFFFFFFFFFFFFFFFFFFFF AND MUL OR SWAP1 SSTORE POP PUSH0 DUP2 PUSH1 0x2 ADD PUSH1 0x14 PUSH2 0x100 EXP DUP2 SLOAD DUP2 PUSH1 0xFF MUL NOT AND SWAP1 DUP4 ISZERO ISZERO MUL OR SWAP1 SSTORE POP PUSH0 DUP2 PUSH1 0x4 ADD DUP2 SWAP1 SSTORE POP POP POP POP POP JUMP JUMPDEST PUSH0 DUP2 DUP4 PUSH2 0x119B SWAP2 SWAP1 PUSH2 0x1FF4 JUMP JUMPDEST SWAP1 POP DUP1 PUSH1 0x2 PUSH0 DUP3 DUP3 SLOAD PUSH2 0x11AE SWAP2 SWAP1 PUSH2 0x1F31 JUMP JUMPDEST SWAP3 POP POP DUP2 SWAP1 SSTORE POP PUSH1 0x40 MLOAD DUP1 PUSH1 0x60 ADD PUSH1 0x40 MSTORE DUP1 DUP6 DUP2 MSTORE PUSH1 0x20 ADD DUP5 DUP2 MSTORE PUSH1 0x20 ADD DUP4 DUP2 MSTORE POP PUSH1 0x6 PUSH0 PUSH1 0x7 SLOAD DUP2 MSTORE PUSH1 0x20 ADD SWAP1 DUP2 MSTORE PUSH1 0x20 ADD PUSH0 KECCAK256 PUSH0 DUP3 ADD MLOAD DUP2 PUSH0 ADD SWAP1 DUP2 PUSH2 0x11F6 SWAP2 SWAP1 PUSH2 0x2314 JUMP JUMPDEST POP PUSH1 0x20 DUP3 ADD MLOAD DUP2 PUSH1 0x1 ADD SSTORE PUSH1 0x40 DUP3 ADD MLOAD DUP2 PUSH1 0x2 ADD SSTORE SWAP1 POP POP PUSH1 0x7 PUSH0 DUP2 SLOAD DUP1 SWAP3 SWAP2 SWAP1 PUSH2 0x1220 SWAP1 PUSH2 0x24FF JUMP JUMPDEST SWAP2 SWAP1 POP SSTORE POP POP POP POP POP JUMP JUMPDEST PUSH1 0x6 PUSH1 0x20 MSTORE DUP1 PUSH0 MSTORE PUSH1 0x40 PUSH0 KECCAK256 PUSH0 SWAP2 POP SWAP1 POP DUP1 PUSH0 ADD DUP1 SLOAD PUSH2 0x124A SWAP1 PUSH2 0x208F JUMP JUMPDEST DUP1 PUSH1 0x1F ADD PUSH1 0x20 DUP1 SWAP2 DIV MUL PUSH1 0x20 ADD PUSH1 0x40 MLOAD SWAP1 DUP2 ADD PUSH1 0x40 MSTORE DUP1 SWAP3 SWAP2 SWAP1 DUP2 DUP2 MSTORE PUSH1 0x20 ADD DUP3 DUP1 SLOAD PUSH2 0x1276 SWAP1 PUSH2 0x208F JUMP JUMPDEST DUP1 ISZERO PUSH2 0x12C1 JUMPI DUP1 PUSH1 0x1F LT PUSH2 0x1298 JUMPI PUSH2 0x100 DUP1 DUP4 SLOAD DIV MUL DUP4 MSTORE SWAP2 PUSH1 0x20 ADD SWAP2 PUSH2 0x12C1 JUMP JUMPDEST DUP3 ADD SWAP2 SWAP1 PUSH0 MSTORE PUSH1 0x20 PUSH0 KECCAK256 SWAP1 JUMPDEST DUP2 SLOAD DUP2 MSTORE SWAP1 PUSH1 0x1 ADD SWAP1 PUSH1 0x20 ADD DUP1 DUP4 GT PUSH2 0x12A4 JUMPI DUP3 SWAP1 SUB PUSH1 0x1F AND DUP3 ADD SWAP2 JUMPDEST POP POP POP POP POP SWAP1 DUP1 PUSH1 0x1 ADD SLOAD SWAP1 DUP1 PUSH1 0x2 ADD SLOAD SWAP1 POP DUP4 JUMP JUMPDEST PUSH1 0x8 DUP2 DUP2 SLOAD DUP2 LT PUSH2 0x12E6 JUMPI PUSH0 DUP1 REVERT JUMPDEST SWAP1 PUSH0 MSTORE PUSH1 0x20 PUSH0 KECCAK256 SWAP1 PUSH1 0x3 MUL ADD PUSH0 SWAP2 POP SWAP1 POP DUP1 PUSH0 ADD DUP1 SLOAD PUSH2 0x1305 SWAP1 PUSH2 0x208F JUMP JUMPDEST DUP1 PUSH1 0x1F ADD PUSH1 0x20 DUP1 SWAP2 DIV MUL PUSH1 0x20 ADD PUSH1 0x40 MLOAD SWAP1 DUP2 ADD PUSH1 0x40 MSTORE DUP1 SWAP3 SWAP2 SWAP1 DUP2 DUP2 MSTORE PUSH1 0x20 ADD DUP3 DUP1 SLOAD PUSH2 0x1331 SWAP1 PUSH2 0x208F JUMP JUMPDEST DUP1 ISZERO PUSH2 0x137C JUMPI DUP1 PUSH1 0x1F LT PUSH2 0x1353 JUMPI PUSH2 0x100 DUP1 DUP4 SLOAD DIV MUL DUP4 MSTORE SWAP2 PUSH1 0x20 ADD SWAP2 PUSH2 0x137C JUMP JUMPDEST DUP3 ADD SWAP2 SWAP1 PUSH0 MSTORE PUSH1 0x20 PUSH0 KECCAK256 SWAP1 JUMPDEST DUP2 SLOAD DUP2 MSTORE SWAP1 PUSH1 0x1 ADD SWAP1 PUSH1 0x20 ADD DUP1 DUP4 GT PUSH2 0x135F JUMPI DUP3 SWAP1 SUB PUSH1 0x1F AND DUP3 ADD SWAP2 JUMPDEST POP POP POP POP POP SWAP1 DUP1 PUSH1 0x1 ADD PUSH0 SWAP1 SLOAD SWAP1 PUSH2 0x100 EXP SWAP1 DIV PUSH20 0xFFFFFFFFFFFFFFFFFFFFFFFFFFFFFFFFFFFFFFFF AND SWAP1 POP DUP3 JUMP JUMPDEST PUSH0 PUSH1 0x8 PUSH1 0x9 PUSH0 CALLER PUSH20 0xFFFFFFFFFFFFFFFFFFFFFFFFFFFFFFFFFFFFFFFF AND PUSH20 0xFFFFFFFFFFFFFFFFFFFFFFFFFFFFFFFFFFFFFFFF AND DUP2 MSTORE PUSH1 0x20 ADD SWAP1 DUP2 MSTORE PUSH1 0x20 ADD PUSH0 KECCAK256 SLOAD DUP2 SLOAD DUP2 LT PUSH2 0x13FD JUMPI PUSH2 0x13FC PUSH2 0x2035 JUMP JUMPDEST JUMPDEST SWAP1 PUSH0 MSTORE PUSH1 0x20 PUSH0 KECCAK256 SWAP1 PUSH1 0x3 MUL ADD SWAP1 POP PUSH1 0x40 MLOAD DUP1 PUSH1 0x40 ADD PUSH1 0x40 MSTORE DUP1 DUP5 DUP2 MSTORE PUSH1 0x20 ADD DUP4 DUP2 MSTORE POP DUP2 PUSH1 0x2 ADD DUP6 PUSH1 0x40 MLOAD PUSH2 0x1432 SWAP2 SWAP1 PUSH2 0x2161 JUMP JUMPDEST SWAP1 DUP2 MSTORE PUSH1 0x20 ADD PUSH1 0x40 MLOAD DUP1 SWAP2 SUB SWAP1 KECCAK256 PUSH0 DUP3 ADD MLOAD DUP2 PUSH0 ADD SSTORE PUSH1 0x20 DUP3 ADD MLOAD DUP2 PUSH1 0x1 ADD SSTORE SWAP1 POP POP POP POP POP POP JUMP JUMPDEST PUSH1 0xA DUP2 DUP2 SLOAD DUP2 LT PUSH2 0x146A JUMPI PUSH0 DUP1 REVERT JUMPDEST SWAP1 PUSH0 MSTORE PUSH1 0x20 PUSH0 KECCAK256 SWAP1 PUSH1 0x3 MUL ADD PUSH0 SWAP2 POP SWAP1 POP DUP1 PUSH0 ADD DUP1 SLOAD PUSH2 0x1489 SWAP1 PUSH2 0x208F JUMP JUMPDEST DUP1 PUSH1 0x1F ADD PUSH1 0x20 DUP1 SWAP2 DIV MUL PUSH1 0x20 ADD PUSH1 0x40 MLOAD SWAP1 DUP2 ADD PUSH1 0x40 MSTORE DUP1 SWAP3 SWAP2 SWAP1 DUP2 DUP2 MSTORE PUSH1 0x20 ADD DUP3 DUP1 SLOAD PUSH2 0x14B5 SWAP1 PUSH2 0x208F JUMP JUMPDEST DUP1 ISZERO PUSH2 0x1500 JUMPI DUP1 PUSH1 0x1F LT PUSH2 0x14D7 JUMPI PUSH2 0x100 DUP1 DUP4 SLOAD DIV MUL DUP4 MSTORE SWAP2 PUSH1 0x20 ADD SWAP2 PUSH2 0x1500 JUMP JUMPDEST DUP3 ADD SWAP2 SWAP1 PUSH0 MSTORE PUSH1 0x20 PUSH0 KECCAK256 SWAP1 JUMPDEST DUP2 SLOAD DUP2 MSTORE SWAP1 PUSH1 0x1 ADD SWAP1 PUSH1 0x20 ADD DUP1 DUP4 GT PUSH2 0x14E3 JUMPI DUP3 SWAP1 SUB PUSH1 0x1F AND DUP3 ADD SWAP2 JUMPDEST POP POP POP POP POP SWAP1 DUP1 PUSH1 0x1 ADD PUSH0 SWAP1 SLOAD SWAP1 PUSH2 0x100 EXP SWAP1 DIV PUSH1 0xFF AND SWAP1 POP DUP3 JUMP JUMPDEST PUSH1 0x2 SLOAD DUP2 JUMP JUMPDEST PUSH0 DUP1 CALLVALUE GT PUSH2 0x152E JUMPI PUSH0 DUP1 REVERT JUMPDEST PUSH1 0x1 PUSH1 0xD PUSH0 CALLER PUSH20 0xFFFFFFFFFFFFFFFFFFFFFFFFFFFFFFFFFFFFFFFF AND PUSH20 0xFFFFFFFFFFFFFFFFFFFFFFFFFFFFFFFFFFFFFFFF AND DUP2 MSTORE PUSH1 0x20 ADD SWAP1 DUP2 MSTORE PUSH1 0x20 ADD PUSH0 KECCAK256 PUSH0 PUSH2 0x100 EXP DUP2 SLOAD DUP2 PUSH1 0xFF MUL NOT AND SWAP1 DUP4 ISZERO ISZERO MUL OR SWAP1 SSTORE POP PUSH1 0xE PUSH0 DUP2 SLOAD DUP1 SWAP3 SWAP2 SWAP1 PUSH2 0x1595 SWAP1 PUSH2 0x24FF JUMP JUMPDEST SWAP2 SWAP1 POP SSTORE POP CALLVALUE SWAP1 POP SWAP1 JUMP JUMPDEST PUSH0 PUSH1 0xB DUP3 DUP2 SLOAD DUP2 LT PUSH2 0x15B5 JUMPI PUSH2 0x15B4 PUSH2 0x2035 JUMP JUMPDEST JUMPDEST SWAP1 PUSH0 MSTORE PUSH1 0x20 PUSH0 KECCAK256 SWAP1 PUSH1 0x5 MUL ADD SWAP1 POP PUSH1 0xD PUSH0 CALLER PUSH20 0xFFFFFFFFFFFFFFFFFFFFFFFFFFFFFFFFFFFFFFFF AND PUSH20 0xFFFFFFFFFFFFFFFFFFFFFFFFFFFFFFFFFFFFFFFF AND DUP2 MSTORE PUSH1 0x20 ADD SWAP1 DUP2 MSTORE PUSH1 0x20 ADD PUSH0 KECCAK256 PUSH0 SWAP1 SLOAD SWAP1 PUSH2 0x100 EXP SWAP1 DIV PUSH1 0xFF AND PUSH2 0x1615 JUMPI PUSH0 DUP1 REVERT JUMPDEST DUP1 PUSH1 0x3 ADD PUSH0 CALLER PUSH20 0xFFFFFFFFFFFFFFFFFFFFFFFFFFFFFFFFFFFFFFFF AND PUSH20 0xFFFFFFFFFFFFFFFFFFFFFFFFFFFFFFFFFFFFFFFF AND DUP2 MSTORE PUSH1 0x20 ADD SWAP1 DUP2 MSTORE PUSH1 0x20 ADD PUSH0 KECCAK256 PUSH0 SWAP1 SLOAD SWAP1 PUSH2 0x100 EXP SWAP1 DIV PUSH1 0xFF AND ISZERO PUSH2 0x166A JUMPI PUSH0 DUP1 REVERT JUMPDEST PUSH1 0x1 DUP2 PUSH1 0x3 ADD PUSH0 CALLER PUSH20 0xFFFFFFFFFFFFFFFFFFFFFFFFFFFFFFFFFFFFFFFF AND PUSH20 0xFFFFFFFFFFFFFFFFFFFFFFFFFFFFFFFFFFFFFFFF AND DUP2 MSTORE PUSH1 0x20 ADD SWAP1 DUP2 MSTORE PUSH1 0x20 ADD PUSH0 KECCAK256 PUSH0 PUSH2 0x100 EXP DUP2 SLOAD DUP2 PUSH1 0xFF MUL NOT AND SWAP1 DUP4 ISZERO ISZERO MUL OR SWAP1 SSTORE POP DUP1 PUSH1 0x4 ADD PUSH0 DUP2 SLOAD DUP1 SWAP3 SWAP2 SWAP1 PUSH2 0x16D5 SWAP1 PUSH2 0x24FF JUMP JUMPDEST SWAP2 SWAP1 POP SSTORE POP POP POP JUMP JUMPDEST PUSH1 0x60 PUSH0 DUP1 SLOAD DUP1 PUSH1 0x20 MUL PUSH1 0x20 ADD PUSH1 0x40 MLOAD SWAP1 DUP2 ADD PUSH1 0x40 MSTORE DUP1 SWAP3 SWAP2 SWAP1 DUP2 DUP2 MSTORE PUSH1 0x20 ADD DUP3 DUP1 SLOAD DUP1 ISZERO PUSH2 0x175E JUMPI PUSH1 0x20 MUL DUP3 ADD SWAP2 SWAP1 PUSH0 MSTORE PUSH1 0x20 PUSH0 KECCAK256 SWAP1 JUMPDEST DUP2 PUSH0 SWAP1 SLOAD SWAP1 PUSH2 0x100 EXP SWAP1 DIV PUSH20 0xFFFFFFFFFFFFFFFFFFFFFFFFFFFFFFFFFFFFFFFF AND PUSH20 0xFFFFFFFFFFFFFFFFFFFFFFFFFFFFFFFFFFFFFFFF AND DUP2 MSTORE PUSH1 0x20 ADD SWAP1 PUSH1 0x1 ADD SWAP1 DUP1 DUP4 GT PUSH2 0x1715 JUMPI JUMPDEST POP POP POP POP POP SWAP1 POP SWAP1 JUMP JUMPDEST PUSH1 0xE SLOAD DUP2 JUMP JUMPDEST PUSH1 0x3 SLOAD DUP2 JUMP JUMPDEST PUSH0 PUSH1 0x40 MLOAD SWAP1 POP SWAP1 JUMP JUMPDEST PUSH0 DUP1 REVERT JUMPDEST PUSH0 DUP1 REVERT JUMPDEST PUSH0 DUP2 SWAP1 POP SWAP2 SWAP1 POP JUMP JUMPDEST PUSH2 0x1797 DUP2 PUSH2 0x1785 JUMP JUMPDEST DUP2 EQ PUSH2 0x17A1 JUMPI PUSH0 DUP1 REVERT JUMPDEST POP JUMP JUMPDEST PUSH0 DUP2 CALLDATALOAD SWAP1 POP PUSH2 0x17B2 DUP2 PUSH2 0x178E JUMP JUMPDEST SWAP3 SWAP2 POP POP JUMP JUMPDEST PUSH0 DUP1 PUSH0 PUSH1 0x60 DUP5 DUP7 SUB SLT ISZERO PUSH2 0x17CF JUMPI PUSH2 0x17CE PUSH2 0x177D JUMP JUMPDEST JUMPDEST PUSH0 PUSH2 0x17DC DUP7 DUP3 DUP8 ADD PUSH2 0x17A4 JUMP JUMPDEST SWAP4 POP POP PUSH1 0x20 PUSH2 0x17ED DUP7 DUP3 DUP8 ADD PUSH2 0x17A4 JUMP JUMPDEST SWAP3 POP POP PUSH1 0x40 PUSH2 0x17FE DUP7 DUP3 DUP8 ADD PUSH2 0x17A4 JUMP JUMPDEST SWAP2 POP POP SWAP3 POP SWAP3 POP SWAP3 JUMP JUMPDEST PUSH2 0x1811 DUP2 PUSH2 0x1785 JUMP JUMPDEST DUP3 MSTORE POP POP JUMP JUMPDEST PUSH0 PUSH1 0x20 DUP3 ADD SWAP1 POP PUSH2 0x182A PUSH0 DUP4 ADD DUP5 PUSH2 0x1808 JUMP JUMPDEST SWAP3 SWAP2 POP POP JUMP JUMPDEST PUSH0 PUSH1 0x20 DUP3 DUP5 SUB SLT ISZERO PUSH2 0x1845 JUMPI PUSH2 0x1844 PUSH2 0x177D JUMP JUMPDEST JUMPDEST PUSH0 PUSH2 0x1852 DUP5 DUP3 DUP6 ADD PUSH2 0x17A4 JUMP JUMPDEST SWAP2 POP POP SWAP3 SWAP2 POP POP JUMP JUMPDEST PUSH0 PUSH20 0xFFFFFFFFFFFFFFFFFFFFFFFFFFFFFFFFFFFFFFFF DUP3 AND SWAP1 POP SWAP2 SWAP1 POP JUMP JUMPDEST PUSH0 PUSH2 0x1884 DUP3 PUSH2 0x185B JUMP JUMPDEST SWAP1 POP SWAP2 SWAP1 POP JUMP JUMPDEST PUSH2 0x1894 DUP2 PUSH2 0x187A JUMP JUMPDEST DUP3 MSTORE POP POP JUMP JUMPDEST PUSH0 PUSH1 0x20 DUP3 ADD SWAP1 POP PUSH2 0x18AD PUSH0 DUP4 ADD DUP5 PUSH2 0x188B JUMP JUMPDEST SWAP3 SWAP2 POP POP JUMP JUMPDEST PUSH2 0x18BC DUP2 PUSH2 0x187A JUMP JUMPDEST DUP2 EQ PUSH2 0x18C6 JUMPI PUSH0 DUP1 REVERT JUMPDEST POP JUMP JUMPDEST PUSH0 DUP2 CALLDATALOAD SWAP1 POP PUSH2 0x18D7 DUP2 PUSH2 0x18B3 JUMP JUMPDEST SWAP3 SWAP2 POP POP JUMP JUMPDEST PUSH0 PUSH1 0x20 DUP3 DUP5 SUB SLT ISZERO PUSH2 0x18F2 JUMPI PUSH2 0x18F1 PUSH2 0x177D JUMP JUMPDEST JUMPDEST PUSH0 PUSH2 0x18FF DUP5 DUP3 DUP6 ADD PUSH2 0x18C9 JUMP JUMPDEST SWAP2 POP POP SWAP3 SWAP2 POP POP JUMP JUMPDEST PUSH0 DUP2 ISZERO ISZERO SWAP1 POP SWAP2 SWAP1 POP JUMP JUMPDEST PUSH2 0x191C DUP2 PUSH2 0x1908 JUMP JUMPDEST DUP3 MSTORE POP POP JUMP JUMPDEST PUSH0 PUSH1 0x20 DUP3 ADD SWAP1 POP PUSH2 0x1935 PUSH0 DUP4 ADD DUP5 PUSH2 0x1913 JUMP JUMPDEST SWAP3 SWAP2 POP POP JUMP JUMPDEST PUSH0 DUP2 MLOAD SWAP1 POP SWAP2 SWAP1 POP JUMP JUMPDEST PUSH0 DUP3 DUP3 MSTORE PUSH1 0x20 DUP3 ADD SWAP1 POP SWAP3 SWAP2 POP POP JUMP JUMPDEST PUSH0 JUMPDEST DUP4 DUP2 LT ISZERO PUSH2 0x1972 JUMPI DUP1 DUP3 ADD MLOAD DUP2 DUP5 ADD MSTORE PUSH1 0x20 DUP2 ADD SWAP1 POP PUSH2 0x1957 JUMP JUMPDEST PUSH0 DUP5 DUP5 ADD MSTORE POP POP POP POP JUMP JUMPDEST PUSH0 PUSH1 0x1F NOT PUSH1 0x1F DUP4 ADD AND SWAP1 POP SWAP2 SWAP1 POP JUMP JUMPDEST PUSH0 PUSH2 0x1997 DUP3 PUSH2 0x193B JUMP JUMPDEST PUSH2 0x19A1 DUP2 DUP6 PUSH2 0x1945 JUMP JUMPDEST SWAP4 POP PUSH2 0x19B1 DUP2 DUP6 PUSH1 0x20 DUP7 ADD PUSH2 0x1955 JUMP JUMPDEST PUSH2 0x19BA DUP2 PUSH2 0x197D JUMP JUMPDEST DUP5 ADD SWAP2 POP POP SWAP3 SWAP2 POP POP JUMP JUMPDEST PUSH0 PUSH1 0xA0 DUP3 ADD SWAP1 POP PUSH2 0x19D8 PUSH0 DUP4 ADD DUP9 PUSH2 0x188B JUMP JUMPDEST PUSH2 0x19E5 PUSH1 0x20 DUP4 ADD DUP8 PUSH2 0x1808 JUMP JUMPDEST DUP2 DUP2 SUB PUSH1 0x40 DUP4 ADD MSTORE PUSH2 0x19F7 DUP2 DUP7 PUSH2 0x198D JUMP JUMPDEST SWAP1 POP PUSH2 0x1A06 PUSH1 0x60 DUP4 ADD DUP6 PUSH2 0x1808 JUMP JUMPDEST PUSH2 0x1A13 PUSH1 0x80 DUP4 ADD DUP5 PUSH2 0x1808 JUMP JUMPDEST SWAP7 SWAP6 POP POP POP POP POP POP JUMP JUMPDEST PUSH0 DUP1 REVERT JUMPDEST PUSH0 DUP1 REVERT JUMPDEST PUSH32 0x4E487B7100000000000000000000000000000000000000000000000000000000 PUSH0 MSTORE PUSH1 0x41 PUSH1 0x4 MSTORE PUSH1 0x24 PUSH0 REVERT JUMPDEST PUSH2 0x1A5B DUP3 PUSH2 0x197D JUMP JUMPDEST DUP2 ADD DUP2 DUP2 LT PUSH8 0xFFFFFFFFFFFFFFFF DUP3 GT OR ISZERO PUSH2 0x1A7A JUMPI PUSH2 0x1A79 PUSH2 0x1A25 JUMP JUMPDEST JUMPDEST DUP1 PUSH1 0x40 MSTORE POP POP POP JUMP JUMPDEST PUSH0 PUSH2 0x1A8C PUSH2 0x1774 JUMP JUMPDEST SWAP1 POP PUSH2 0x1A98 DUP3 DUP3 PUSH2 0x1A52 JUMP JUMPDEST SWAP2 SWAP1 POP JUMP JUMPDEST PUSH0 PUSH8 0xFFFFFFFFFFFFFFFF DUP3 GT ISZERO PUSH2 0x1AB7 JUMPI PUSH2 0x1AB6 PUSH2 0x1A25 JUMP JUMPDEST JUMPDEST PUSH2 0x1AC0 DUP3 PUSH2 0x197D JUMP JUMPDEST SWAP1 POP PUSH1 0x20 DUP2 ADD SWAP1 POP SWAP2 SWAP1 POP JUMP JUMPDEST DUP3 DUP2 DUP4 CALLDATACOPY PUSH0 DUP4 DUP4 ADD MSTORE POP POP POP JUMP JUMPDEST PUSH0 PUSH2 0x1AED PUSH2 0x1AE8 DUP5 PUSH2 0x1A9D JUMP JUMPDEST PUSH2 0x1A83 JUMP JUMPDEST SWAP1 POP DUP3 DUP2 MSTORE PUSH1 0x20 DUP2 ADD DUP5 DUP5 DUP5 ADD GT ISZERO PUSH2 0x1B09 JUMPI PUSH2 0x1B08 PUSH2 0x1A21 JUMP JUMPDEST JUMPDEST PUSH2 0x1B14 DUP5 DUP3 DUP6 PUSH2 0x1ACD JUMP JUMPDEST POP SWAP4 SWAP3 POP POP POP JUMP JUMPDEST PUSH0 DUP3 PUSH1 0x1F DUP4 ADD SLT PUSH2 0x1B30 JUMPI PUSH2 0x1B2F PUSH2 0x1A1D JUMP JUMPDEST JUMPDEST DUP2 CALLDATALOAD PUSH2 0x1B40 DUP5 DUP3 PUSH1 0x20 DUP7 ADD PUSH2 0x1ADB JUMP JUMPDEST SWAP2 POP POP SWAP3 SWAP2 POP POP JUMP JUMPDEST PUSH0 PUSH1 0x20 DUP3 DUP5 SUB SLT ISZERO PUSH2 0x1B5E JUMPI PUSH2 0x1B5D PUSH2 0x177D JUMP JUMPDEST JUMPDEST PUSH0 DUP3 ADD CALLDATALOAD PUSH8 0xFFFFFFFFFFFFFFFF DUP2 GT ISZERO PUSH2 0x1B7B JUMPI PUSH2 0x1B7A PUSH2 0x1781 JUMP JUMPDEST JUMPDEST PUSH2 0x1B87 DUP5 DUP3 DUP6 ADD PUSH2 0x1B1C JUMP JUMPDEST SWAP2 POP POP SWAP3 SWAP2 POP POP JUMP JUMPDEST PUSH0 PUSH1 0x40 DUP3 ADD SWAP1 POP PUSH2 0x1BA3 PUSH0 DUP4 ADD DUP6 PUSH2 0x1808 JUMP JUMPDEST PUSH2 0x1BB0 PUSH1 0x20 DUP4 ADD DUP5 PUSH2 0x1808 JUMP JUMPDEST SWAP4 SWAP3 POP POP POP JUMP JUMPDEST PUSH0 DUP1 PUSH0 DUP1 PUSH1 0x80 DUP6 DUP8 SUB SLT ISZERO PUSH2 0x1BCF JUMPI PUSH2 0x1BCE PUSH2 0x177D JUMP JUMPDEST JUMPDEST PUSH0 PUSH2 0x1BDC DUP8 DUP3 DUP9 ADD PUSH2 0x17A4 JUMP JUMPDEST SWAP5 POP POP PUSH1 0x20 DUP6 ADD CALLDATALOAD PUSH8 0xFFFFFFFFFFFFFFFF DUP2 GT ISZERO PUSH2 0x1BFD JUMPI PUSH2 0x1BFC PUSH2 0x1781 JUMP JUMPDEST JUMPDEST PUSH2 0x1C09 DUP8 DUP3 DUP9 ADD PUSH2 0x1B1C JUMP JUMPDEST SWAP4 POP POP PUSH1 0x40 PUSH2 0x1C1A DUP8 DUP3 DUP9 ADD PUSH2 0x17A4 JUMP JUMPDEST SWAP3 POP POP PUSH1 0x60 PUSH2 0x1C2B DUP8 DUP3 DUP9 ADD PUSH2 0x17A4 JUMP JUMPDEST SWAP2 POP POP SWAP3 SWAP6 SWAP2 SWAP5 POP SWAP3 POP JUMP JUMPDEST PUSH0 PUSH1 0x40 DUP3 ADD SWAP1 POP DUP2 DUP2 SUB PUSH0 DUP4 ADD MSTORE PUSH2 0x1C4F DUP2 DUP6 PUSH2 0x198D JUMP JUMPDEST SWAP1 POP PUSH2 0x1C5E PUSH1 0x20 DUP4 ADD DUP5 PUSH2 0x1808 JUMP JUMPDEST SWAP4 SWAP3 POP POP POP JUMP JUMPDEST PUSH0 PUSH1 0xA0 DUP3 ADD SWAP1 POP DUP2 DUP2 SUB PUSH0 DUP4 ADD MSTORE PUSH2 0x1C7D DUP2 DUP9 PUSH2 0x198D JUMP JUMPDEST SWAP1 POP PUSH2 0x1C8C PUSH1 0x20 DUP4 ADD DUP8 PUSH2 0x1808 JUMP JUMPDEST PUSH2 0x1C99 PUSH1 0x40 DUP4 ADD DUP7 PUSH2 0x188B JUMP JUMPDEST PUSH2 0x1CA6 PUSH1 0x60 DUP4 ADD DUP6 PUSH2 0x1913 JUMP JUMPDEST PUSH2 0x1CB3 PUSH1 0x80 DUP4 ADD DUP5 PUSH2 0x1808 JUMP JUMPDEST SWAP7 SWAP6 POP POP POP POP POP POP JUMP JUMPDEST PUSH0 DUP1 PUSH0 PUSH1 0x60 DUP5 DUP7 SUB SLT ISZERO PUSH2 0x1CD4 JUMPI PUSH2 0x1CD3 PUSH2 0x177D JUMP JUMPDEST JUMPDEST PUSH0 DUP5 ADD CALLDATALOAD PUSH8 0xFFFFFFFFFFFFFFFF DUP2 GT ISZERO PUSH2 0x1CF1 JUMPI PUSH2 0x1CF0 PUSH2 0x1781 JUMP JUMPDEST JUMPDEST PUSH2 0x1CFD DUP7 DUP3 DUP8 ADD PUSH2 0x1B1C JUMP JUMPDEST SWAP4 POP POP PUSH1 0x20 PUSH2 0x1D0E DUP7 DUP3 DUP8 ADD PUSH2 0x17A4 JUMP JUMPDEST SWAP3 POP POP PUSH1 0x40 PUSH2 0x1D1F DUP7 DUP3 DUP8 ADD PUSH2 0x18C9 JUMP JUMPDEST SWAP2 POP POP SWAP3 POP SWAP3 POP SWAP3 JUMP JUMPDEST PUSH0 DUP1 PUSH0 PUSH1 0x60 DUP5 DUP7 SUB SLT ISZERO PUSH2 0x1D40 JUMPI PUSH2 0x1D3F PUSH2 0x177D JUMP JUMPDEST JUMPDEST PUSH0 DUP5 ADD CALLDATALOAD PUSH8 0xFFFFFFFFFFFFFFFF DUP2 GT ISZERO PUSH2 0x1D5D JUMPI PUSH2 0x1D5C PUSH2 0x1781 JUMP JUMPDEST JUMPDEST PUSH2 0x1D69 DUP7 DUP3 DUP8 ADD PUSH2 0x1B1C JUMP JUMPDEST SWAP4 POP POP PUSH1 0x20 PUSH2 0x1D7A DUP7 DUP3 DUP8 ADD PUSH2 0x17A4 JUMP JUMPDEST SWAP3 POP POP PUSH1 0x40 PUSH2 0x1D8B DUP7 DUP3 DUP8 ADD PUSH2 0x17A4 JUMP JUMPDEST SWAP2 POP POP SWAP3 POP SWAP3 POP SWAP3 JUMP JUMPDEST PUSH0 PUSH1 0x60 DUP3 ADD SWAP1 POP DUP2 DUP2 SUB PUSH0 DUP4 ADD MSTORE PUSH2 0x1DAD DUP2 DUP7 PUSH2 0x198D JUMP JUMPDEST SWAP1 POP PUSH2 0x1DBC PUSH1 0x20 DUP4 ADD DUP6 PUSH2 0x1808 JUMP JUMPDEST PUSH2 0x1DC9 PUSH1 0x40 DUP4 ADD DUP5 PUSH2 0x1808 JUMP JUMPDEST SWAP5 SWAP4 POP POP POP POP JUMP JUMPDEST PUSH0 PUSH1 0x40 DUP3 ADD SWAP1 POP DUP2 DUP2 SUB PUSH0 DUP4 ADD MSTORE PUSH2 0x1DE9 DUP2 DUP6 PUSH2 0x198D JUMP JUMPDEST SWAP1 POP PUSH2 0x1DF8 PUSH1 0x20 DUP4 ADD DUP5 PUSH2 0x188B JUMP JUMPDEST SWAP4 SWAP3 POP POP POP JUMP JUMPDEST PUSH0 PUSH1 0x40 DUP3 ADD SWAP1 POP DUP2 DUP2 SUB PUSH0 DUP4 ADD MSTORE PUSH2 0x1E17 DUP2 DUP6 PUSH2 0x198D JUMP JUMPDEST SWAP1 POP PUSH2 0x1E26 PUSH1 0x20 DUP4 ADD DUP5 PUSH2 0x1913 JUMP JUMPDEST SWAP4 SWAP3 POP POP POP JUMP JUMPDEST PUSH0 DUP2 MLOAD SWAP1 POP SWAP2 SWAP1 POP JUMP JUMPDEST PUSH0 DUP3 DUP3 MSTORE PUSH1 0x20 DUP3 ADD SWAP1 POP SWAP3 SWAP2 POP POP JUMP JUMPDEST PUSH0 DUP2 SWAP1 POP PUSH1 0x20 DUP3 ADD SWAP1 POP SWAP2 SWAP1 POP JUMP JUMPDEST PUSH2 0x1E5F DUP2 PUSH2 0x187A JUMP JUMPDEST DUP3 MSTORE POP POP JUMP JUMPDEST PUSH0 PUSH2 0x1E70 DUP4 DUP4 PUSH2 0x1E56 JUMP JUMPDEST PUSH1 0x20 DUP4 ADD SWAP1 POP SWAP3 SWAP2 POP POP JUMP JUMPDEST PUSH0 PUSH1 0x20 DUP3 ADD SWAP1 POP SWAP2 SWAP1 POP JUMP JUMPDEST PUSH0 PUSH2 0x1E92 DUP3 PUSH2 0x1E2D JUMP JUMPDEST PUSH2 0x1E9C DUP2 DUP6 PUSH2 0x1E37 JUMP JUMPDEST SWAP4 POP PUSH2 0x1EA7 DUP4 PUSH2 0x1E47 JUMP JUMPDEST DUP1 PUSH0 JUMPDEST DUP4 DUP2 LT ISZERO PUSH2 0x1ED7 JUMPI DUP2 MLOAD PUSH2 0x1EBE DUP9 DUP3 PUSH2 0x1E65 JUMP JUMPDEST SWAP8 POP PUSH2 0x1EC9 DUP4 PUSH2 0x1E7C JUMP JUMPDEST SWAP3 POP POP PUSH1 0x1 DUP2 ADD SWAP1 POP PUSH2 0x1EAA JUMP JUMPDEST POP DUP6 SWAP4 POP POP POP POP SWAP3 SWAP2 POP POP JUMP JUMPDEST PUSH0 PUSH1 0x20 DUP3 ADD SWAP1 POP DUP2 DUP2 SUB PUSH0 DUP4 ADD MSTORE PUSH2 0x1EFC DUP2 DUP5 PUSH2 0x1E88 JUMP JUMPDEST SWAP1 POP SWAP3 SWAP2 POP POP JUMP JUMPDEST PUSH32 0x4E487B7100000000000000000000000000000000000000000000000000000000 PUSH0 MSTORE PUSH1 0x11 PUSH1 0x4 MSTORE PUSH1 0x24 PUSH0 REVERT JUMPDEST PUSH0 PUSH2 0x1F3B DUP3 PUSH2 0x1785 JUMP JUMPDEST SWAP2 POP PUSH2 0x1F46 DUP4 PUSH2 0x1785 JUMP JUMPDEST SWAP3 POP DUP3 DUP3 ADD SWAP1 POP DUP1 DUP3 GT ISZERO PUSH2 0x1F5E JUMPI PUSH2 0x1F5D PUSH2 0x1F04 JUMP JUMPDEST JUMPDEST SWAP3 SWAP2 POP POP JUMP JUMPDEST PUSH0 PUSH2 0x1F6E DUP3 PUSH2 0x1785 JUMP JUMPDEST SWAP2 POP PUSH2 0x1F79 DUP4 PUSH2 0x1785 JUMP JUMPDEST SWAP3 POP DUP3 DUP3 SUB SWAP1 POP DUP2 DUP2 GT ISZERO PUSH2 0x1F91 JUMPI PUSH2 0x1F90 PUSH2 0x1F04 JUMP JUMPDEST JUMPDEST SWAP3 SWAP2 POP POP JUMP JUMPDEST PUSH32 0x4E487B7100000000000000000000000000000000000000000000000000000000 PUSH0 MSTORE PUSH1 0x12 PUSH1 0x4 MSTORE PUSH1 0x24 PUSH0 REVERT JUMPDEST PUSH0 PUSH2 0x1FCE DUP3 PUSH2 0x1785 JUMP JUMPDEST SWAP2 POP PUSH2 0x1FD9 DUP4 PUSH2 0x1785 JUMP JUMPDEST SWAP3 POP DUP3 PUSH2 0x1FE9 JUMPI PUSH2 0x1FE8 PUSH2 0x1F97 JUMP JUMPDEST JUMPDEST DUP3 DUP3 DIV SWAP1 POP SWAP3 SWAP2 POP POP JUMP JUMPDEST PUSH0 PUSH2 0x1FFE DUP3 PUSH2 0x1785 JUMP JUMPDEST SWAP2 POP PUSH2 0x2009 DUP4 PUSH2 0x1785 JUMP JUMPDEST SWAP3 POP DUP3 DUP3 MUL PUSH2 0x2017 DUP2 PUSH2 0x1785 JUMP JUMPDEST SWAP2 POP DUP3 DUP3 DIV DUP5 EQ DUP4 ISZERO OR PUSH2 0x202E JUMPI PUSH2 0x202D PUSH2 0x1F04 JUMP JUMPDEST JUMPDEST POP SWAP3 SWAP2 POP POP JUMP JUMPDEST PUSH32 0x4E487B7100000000000000000000000000000000000000000000000000000000 PUSH0 MSTORE PUSH1 0x32 PUSH1 0x4 MSTORE PUSH1 0x24 PUSH0 REVERT JUMPDEST PUSH32 0x4E487B7100000000000000000000000000000000000000000000000000000000 PUSH0 MSTORE PUSH1 0x22 PUSH1 0x4 MSTORE PUSH1 0x24 PUSH0 REVERT JUMPDEST PUSH0 PUSH1 0x2 DUP3 DIV SWAP1 POP PUSH1 0x1 DUP3 AND DUP1 PUSH2 0x20A6 JUMPI PUSH1 0x7F DUP3 AND SWAP2 POP JUMPDEST PUSH1 0x20 DUP3 LT DUP2 SUB PUSH2 0x20B9 JUMPI PUSH2 0x20B8 PUSH2 0x2062 JUMP JUMPDEST JUMPDEST POP SWAP2 SWAP1 POP JUMP JUMPDEST PUSH32 0x496E76616C696420706172746E657220616464726573732E0000000000000000 PUSH0 DUP3 ADD MSTORE POP JUMP JUMPDEST PUSH0 PUSH2 0x20F3 PUSH1 0x18 DUP4 PUSH2 0x1945 JUMP JUMPDEST SWAP2 POP PUSH2 0x20FE DUP3 PUSH2 0x20BF JUMP JUMPDEST PUSH1 0x20 DUP3 ADD SWAP1 POP SWAP2 SWAP1 POP JUMP JUMPDEST PUSH0 PUSH1 0x20 DUP3 ADD SWAP1 POP DUP2 DUP2 SUB PUSH0 DUP4 ADD MSTORE PUSH2 0x2120 DUP2 PUSH2 0x20E7 JUMP JUMPDEST SWAP1 POP SWAP2 SWAP1 POP JUMP JUMPDEST PUSH0 DUP2 SWAP1 POP SWAP3 SWAP2 POP POP JUMP JUMPDEST PUSH0 PUSH2 0x213B DUP3 PUSH2 0x193B JUMP JUMPDEST PUSH2 0x2145 DUP2 DUP6 PUSH2 0x2127 JUMP JUMPDEST SWAP4 POP PUSH2 0x2155 DUP2 DUP6 PUSH1 0x20 DUP7 ADD PUSH2 0x1955 JUMP JUMPDEST DUP1 DUP5 ADD SWAP2 POP POP SWAP3 SWAP2 POP POP JUMP JUMPDEST PUSH0 PUSH2 0x216C DUP3 DUP5 PUSH2 0x2131 JUMP JUMPDEST SWAP2 POP DUP2 SWAP1 POP SWAP3 SWAP2 POP POP JUMP JUMPDEST PUSH0 DUP2 SWAP1 POP DUP2 PUSH0 MSTORE PUSH1 0x20 PUSH0 KECCAK256 SWAP1 POP SWAP2 SWAP1 POP JUMP JUMPDEST PUSH0 PUSH1 0x20 PUSH1 0x1F DUP4 ADD DIV SWAP1 POP SWAP2 SWAP1 POP JUMP JUMPDEST PUSH0 DUP3 DUP3 SHL SWAP1 POP SWAP3 SWAP2 POP POP JUMP JUMPDEST PUSH0 PUSH1 0x8 DUP4 MUL PUSH2 0x21D3 PUSH32 0xFFFFFFFFFFFFFFFFFFFFFFFFFFFFFFFFFFFFFFFFFFFFFFFFFFFFFFFFFFFFFFFF DUP3 PUSH2 0x2198 JUMP JUMPDEST PUSH2 0x21DD DUP7 DUP4 PUSH2 0x2198 JUMP JUMPDEST SWAP6 POP DUP1 NOT DUP5 AND SWAP4 POP DUP1 DUP7 AND DUP5 OR SWAP3 POP POP POP SWAP4 SWAP3 POP POP POP JUMP JUMPDEST PUSH0 DUP2 SWAP1 POP SWAP2 SWAP1 POP JUMP JUMPDEST PUSH0 PUSH2 0x2218 PUSH2 0x2213 PUSH2 0x220E DUP5 PUSH2 0x1785 JUMP JUMPDEST PUSH2 0x21F5 JUMP JUMPDEST PUSH2 0x1785 JUMP JUMPDEST SWAP1 POP SWAP2 SWAP1 POP JUMP JUMPDEST PUSH0 DUP2 SWAP1 POP SWAP2 SWAP1 POP JUMP JUMPDEST PUSH2 0x2231 DUP4 PUSH2 0x21FE JUMP JUMPDEST PUSH2 0x2245 PUSH2 0x223D DUP3 PUSH2 0x221F JUMP JUMPDEST DUP5 DUP5 SLOAD PUSH2 0x21A4 JUMP JUMPDEST DUP3 SSTORE POP POP POP POP JUMP JUMPDEST PUSH0 SWAP1 JUMP JUMPDEST PUSH2 0x2259 PUSH2 0x224D JUMP JUMPDEST PUSH2 0x2264 DUP2 DUP5 DUP5 PUSH2 0x2228 JUMP JUMPDEST POP POP POP JUMP JUMPDEST JUMPDEST DUP2 DUP2 LT ISZERO PUSH2 0x2287 JUMPI PUSH2 0x227C PUSH0 DUP3 PUSH2 0x2251 JUMP JUMPDEST PUSH1 0x1 DUP2 ADD SWAP1 POP PUSH2 0x226A JUMP JUMPDEST POP POP JUMP JUMPDEST PUSH1 0x1F DUP3 GT ISZERO PUSH2 0x22CC JUMPI PUSH2 0x229D DUP2 PUSH2 0x2177 JUMP JUMPDEST PUSH2 0x22A6 DUP5 PUSH2 0x2189 JUMP JUMPDEST DUP2 ADD PUSH1 0x20 DUP6 LT ISZERO PUSH2 0x22B5 JUMPI DUP2 SWAP1 POP JUMPDEST PUSH2 0x22C9 PUSH2 0x22C1 DUP6 PUSH2 0x2189 JUMP JUMPDEST DUP4 ADD DUP3 PUSH2 0x2269 JUMP JUMPDEST POP POP JUMPDEST POP POP POP JUMP JUMPDEST PUSH0 DUP3 DUP3 SHR SWAP1 POP SWAP3 SWAP2 POP POP JUMP JUMPDEST PUSH0 PUSH2 0x22EC PUSH0 NOT DUP5 PUSH1 0x8 MUL PUSH2 0x22D1 JUMP JUMPDEST NOT DUP1 DUP4 AND SWAP2 POP POP SWAP3 SWAP2 POP POP JUMP JUMPDEST PUSH0 PUSH2 0x2304 DUP4 DUP4 PUSH2 0x22DD JUMP JUMPDEST SWAP2 POP DUP3 PUSH1 0x2 MUL DUP3 OR SWAP1 POP SWAP3 SWAP2 POP POP JUMP JUMPDEST PUSH2 0x231D DUP3 PUSH2 0x193B JUMP JUMPDEST PUSH8 0xFFFFFFFFFFFFFFFF DUP2 GT ISZERO PUSH2 0x2336 JUMPI PUSH2 0x2335 PUSH2 0x1A25 JUMP JUMPDEST JUMPDEST PUSH2 0x2340 DUP3 SLOAD PUSH2 0x208F JUMP JUMPDEST PUSH2 0x234B DUP3 DUP3 DUP6 PUSH2 0x228B JUMP JUMPDEST PUSH0 PUSH1 0x20 SWAP1 POP PUSH1 0x1F DUP4 GT PUSH1 0x1 DUP2 EQ PUSH2 0x237C JUMPI PUSH0 DUP5 ISZERO PUSH2 0x236A JUMPI DUP3 DUP8 ADD MLOAD SWAP1 POP JUMPDEST PUSH2 0x2374 DUP6 DUP3 PUSH2 0x22F9 JUMP JUMPDEST DUP7 SSTORE POP PUSH2 0x23DB JUMP JUMPDEST PUSH1 0x1F NOT DUP5 AND PUSH2 0x238A DUP7 PUSH2 0x2177 JUMP JUMPDEST PUSH0 JUMPDEST DUP3 DUP2 LT ISZERO PUSH2 0x23B1 JUMPI DUP5 DUP10 ADD MLOAD DUP3 SSTORE PUSH1 0x1 DUP3 ADD SWAP2 POP PUSH1 0x20 DUP6 ADD SWAP5 POP PUSH1 0x20 DUP2 ADD SWAP1 POP PUSH2 0x238C JUMP JUMPDEST DUP7 DUP4 LT ISZERO PUSH2 0x23CE JUMPI DUP5 DUP10 ADD MLOAD PUSH2 0x23CA PUSH1 0x1F DUP10 AND DUP3 PUSH2 0x22DD JUMP JUMPDEST DUP4 SSTORE POP JUMPDEST PUSH1 0x1 PUSH1 0x2 DUP9 MUL ADD DUP9 SSTORE POP POP POP JUMPDEST POP POP POP POP POP POP JUMP JUMPDEST PUSH32 0x596F7572204C696D697420636F6E736F6D6174696F6E206D7573742062652068 PUSH0 DUP3 ADD MSTORE PUSH32 0x6967686572207468616E20796F757220757375616C20436F6E736F6D6174696F PUSH1 0x20 DUP3 ADD MSTORE PUSH32 0x6E00000000000000000000000000000000000000000000000000000000000000 PUSH1 0x40 DUP3 ADD MSTORE POP JUMP JUMPDEST PUSH0 PUSH2 0x2463 PUSH1 0x41 DUP4 PUSH2 0x1945 JUMP JUMPDEST SWAP2 POP PUSH2 0x246E DUP3 PUSH2 0x23E3 JUMP JUMPDEST PUSH1 0x60 DUP3 ADD SWAP1 POP SWAP2 SWAP1 POP JUMP JUMPDEST PUSH0 PUSH1 0x20 DUP3 ADD SWAP1 POP DUP2 DUP2 SUB PUSH0 DUP4 ADD MSTORE PUSH2 0x2490 DUP2 PUSH2 0x2457 JUMP JUMPDEST SWAP1 POP SWAP2 SWAP1 POP JUMP JUMPDEST PUSH32 0x496E64657820696E76616C696465000000000000000000000000000000000000 PUSH0 DUP3 ADD MSTORE POP JUMP JUMPDEST PUSH0 PUSH2 0x24CB PUSH1 0xE DUP4 PUSH2 0x1945 JUMP JUMPDEST SWAP2 POP PUSH2 0x24D6 DUP3 PUSH2 0x2497 JUMP JUMPDEST PUSH1 0x20 DUP3 ADD SWAP1 POP SWAP2 SWAP1 POP JUMP JUMPDEST PUSH0 PUSH1 0x20 DUP3 ADD SWAP1 POP DUP2 DUP2 SUB PUSH0 DUP4 ADD MSTORE PUSH2 0x24F8 DUP2 PUSH2 0x24BF JUMP JUMPDEST SWAP1 POP SWAP2 SWAP1 POP JUMP JUMPDEST PUSH0 PUSH2 0x2509 DUP3 PUSH2 0x1785 JUMP JUMPDEST SWAP2 POP PUSH32 0xFFFFFFFFFFFFFFFFFFFFFFFFFFFFFFFFFFFFFFFFFFFFFFFFFFFFFFFFFFFFFFFF DUP3 SUB PUSH2 0x253B JUMPI PUSH2 0x253A PUSH2 0x1F04 JUMP JUMPDEST JUMPDEST PUSH1 0x1 DUP3 ADD SWAP1 POP SWAP2 SWAP1 POP JUMP INVALID LOG2 PUSH5 0x6970667358 0x22 SLT KECCAK256 PUSH23 0x24265A74B1350C48FA008A4C7F01002B4DF668D4180C9D 0x4C 0xEF SWAP2 LOG0 0xE8 SAR PUSH31 0xCA64736F6C6343000815003300000000000000000000000000000000000000 "},"gasEstimates":{"creation":{"codeDepositCost":"1919200","executionCost":"2024","totalCost":"1921224"},"external":{"PartnerOffers(uint256)":"infinite","ajouterAppareil(string,uint256,uint256)":"infinite","ajouterMarquePanneau(string,uint256,uint256)":"infinite","ajouterPartenaire(string)":"infinite","appareils(uint256)":"infinite","approveRequest(uint256)":"infinite","approvers(address)":"2901","approvsCount()":"2513","calculerConsommation(uint256,uint256,uint256)":"infinite","calculerPrixInstallation(uint256,uint256,uint256)":"infinite","campaigns(uint256)":"infinite","consommationTotale()":"2514","contribute()":"infinite","createCampaign(uint256,string,uint256,uint256)":"infinite","createOfferPAr(string)":"infinite","createRequest(string,uint256,address)":"infinite","deployedCamapigns(uint256)":"5012","finalizeRequest(uint256)":"infinite","getCampaignCount()":"2551","getConsommationParAppareil(uint256)":"infinite","getMarquePanneauForPartenaire(string)":"infinite","getdeployedCampaign()":"infinite","listePartenaires(address)":"2847","manager()":"2620","nombreAppareils()":"2537","nombreChambres()":"2493","nombrePersonnes()":"2535","partenaires(uint256)":"infinite","requests(uint256)":"infinite","surfaceMaison()":"2471"}},"methodIdentifiers":{"PartnerOffers(uint256)":"a4a66431","ajouterAppareil(string,uint256,uint256)":"91cf26f6","ajouterMarquePanneau(string,uint256,uint256)":"a37189cb","ajouterPartenaire(string)":"46b8df2e","appareils(uint256)":"962e7f62","approveRequest(uint256)":"d7d1bbdb","approvers(address)":"0a144391","approvsCount()":"fc81f5ad","calculerConsommation(uint256,uint256,uint256)":"0600d8fc","calculerPrixInstallation(uint256,uint256,uint256)":"00b0d0d5","campaigns(uint256)":"141961bc","consommationTotale()":"aaa17235","contribute()":"d7bb99ba","createCampaign(uint256,string,uint256,uint256)":"51a0a6d2","createOfferPAr(string)":"87859ad0","createRequest(string,uint256,address)":"8a9cfd55","deployedCamapigns(uint256)":"02fb6955","finalizeRequest(uint256)":"03441006","getCampaignCount()":"6caa9218","getConsommationParAppareil(uint256)":"6c9ff6b9","getMarquePanneauForPartenaire(string)":"208b7e9a","getdeployedCampaign()":"f6ba317d","listePartenaires(address)":"4cda853b","manager()":"481c6a75","nombreAppareils()":"15a252e3","nombreChambres()":"22fa19bc","nombrePersonnes()":"fd958403","partenaires(uint256)":"9d7cdd6f","requests(uint256)":"81d12c58","surfaceMaison()":"792cac3b"}},"storageLayout":{"storage":[{"astId":15,"contract":"Campaign.sol:Campaign","label":"deployedCamapigns","offset":0,"slot":"0","type":"t_array(t_address)dyn_storage"},{"astId":19,"contract":"Campaign.sol:Campaign","label":"campaigns","offset":0,"slot":"1","type":"t_array(t_struct(CampaignInfo)12_storage)dyn_storage"},{"astId":21,"contract":"Campaign.sol:Campaign","label":"consommationTotale","offset":0,"slot":"2","type":"t_uint256"},{"astId":23,"contract":"Campaign.sol:Campaign","label":"nombrePersonnes","offset":0,"slot":"3","type":"t_uint256"},{"astId":25,"contract":"Campaign.sol:Campaign","label":"surfaceMaison","offset":0,"slot":"4","type":"t_uint256"},{"astId":27,"contract":"Campaign.sol:Campaign","label":"nombreChambres","offset":0,"slot":"5","type":"t_uint256"},{"astId":32,"contract":"Campaign.sol:Campaign","label":"appareils","offset":0,"slot":"6","type":"t_mapping(t_uint256,t_struct(Appareil)41_storage)"},{"astId":34,"contract":"Campaign.sol:Campaign","label":"nombreAppareils","offset":0,"slot":"7","type":"t_uint256"},{"astId":60,"contract":"Campaign.sol:Campaign","label":"partenaires","offset":0,"slot":"8","type":"t_array(t_struct(Partenaire)51_storage)dyn_storage"},{"astId":64,"contract":"Campaign.sol:Campaign","label":"listePartenaires","offset":0,"slot":"9","type":"t_mapping(t_address,t_uint256)"},{"astId":92,"contract":"Campaign.sol:Campaign","label":"PartnerOffers","offset":0,"slot":"10","type":"t_array(t_struct(PartnerOffer)88_storage)dyn_storage"},{"astId":96,"contract":"Campaign.sol:Campaign","label":"requests","offset":0,"slot":"11","type":"t_array(t_struct(Request)79_storage)dyn_storage"},{"astId":98,"contract":"Campaign.sol:Campaign","label":"manager","offset":0,"slot":"12","type":"t_address"},{"astId":102,"contract":"Campaign.sol:Campaign","label":"approvers","offset":0,"slot":"13","type":"t_mapping(t_address,t_bool)"},{"astId":104,"contract":"Campaign.sol:Campaign","label":"approvsCount","offset":0,"slot":"14","type":"t_uint256"},{"astId":106,"contract":"Campaign.sol:Campaign","label":"ProjectAmount","offset":0,"slot":"15","type":"t_uint256"}],"types":{"t_address":{"encoding":"inplace","label":"address","numberOfBytes":"20"},"t_array(t_address)dyn_storage":{"base":"t_address","encoding":"dynamic_array","label":"address[]","numberOfBytes":"32"},"t_array(t_struct(CampaignInfo)12_storage)dyn_storage":{"base":"t_struct(CampaignInfo)12_storage","encoding":"dynamic_array","label":"struct Campaign.CampaignInfo[]","numberOfBytes":"32"},"t_array(t_struct(Partenaire)51_storage)dyn_storage":{"base":"t_struct(Partenaire)51_storage","encoding":"dynamic_array","label":"struct Campaign.Partenaire[]","numberOfBytes":"32"},"t_array(t_struct(PartnerOffer)88_storage)dyn_storage":{"base":"t_struct(PartnerOffer)88_storage","encoding":"dynamic_array","label":"struct Campaign.PartnerOffer[]","numberOfBytes":"32"},"t_array(t_struct(Request)79_storage)dyn_storage":{"base":"t_struct(Request)79_storage","encoding":"dynamic_array","label":"struct Campaign.Request[]","numberOfBytes":"32"},"t_bool":{"encoding":"inplace","label":"bool","numberOfBytes":"1"},"t_mapping(t_address,t_bool)":{"encoding":"mapping","key":"t_address","label":"mapping(address => bool)","numberOfBytes":"32","value":"t_bool"},"t_mapping(t_address,t_uint256)":{"encoding":"mapping","key":"t_address","label":"mapping(address => uint256)","numberOfBytes":"32","value":"t_uint256"},"t_mapping(t_string_memory_ptr,t_struct(MarquePanneau)56_storage)":{"encoding":"mapping","key":"t_string_memory_ptr","label":"mapping(string => struct Campaign.MarquePanneau)","numberOfBytes":"32","value":"t_struct(MarquePanneau)56_storage"},"t_mapping(t_string_memory_ptr,t_uint256)":{"encoding":"mapping","key":"t_string_memory_ptr","label":"mapping(string => uint256)","numberOfBytes":"32","value":"t_uint256"},"t_mapping(t_uint256,t_struct(Appareil)41_storage)":{"encoding":"mapping","key":"t_uint256","label":"mapping(uint256 => struct Campaign.Appareil)","numberOfBytes":"32","value":"t_struct(Appareil)41_storage"},"t_string_memory_ptr":{"encoding":"bytes","label":"string","numberOfBytes":"32"},"t_string_storage":{"encoding":"bytes","label":"string","numberOfBytes":"32"},"t_struct(Appareil)41_storage":{"encoding":"inplace","label":"struct Campaign.Appareil","members":[{"astId":36,"contract":"Campaign.sol:Campaign","label":"nomAppareil","offset":0,"slot":"0","type":"t_string_storage"},{"astId":38,"contract":"Campaign.sol:Campaign","label":"puissance","offset":0,"slot":"1","type":"t_uint256"},{"astId":40,"contract":"Campaign.sol:Campaign","label":"heuresUtilisation","offset":0,"slot":"2","type":"t_uint256"}],"numberOfBytes":"96"},"t_struct(CampaignInfo)12_storage":{"encoding":"inplace","label":"struct Campaign.CampaignInfo","members":[{"astId":3,"contract":"Campaign.sol:Campaign","label":"projectOwner","offset":0,"slot":"0","type":"t_address"},{"astId":5,"contract":"Campaign.sol:Campaign","label":"consomationYear","offset":0,"slot":"1","type":"t_uint256"},{"astId":7,"contract":"Campaign.sol:Campaign","label":"description","offset":0,"slot":"2","type":"t_string_storage"},{"astId":9,"contract":"Campaign.sol:Campaign","label":"limiteconsomation","offset":0,"slot":"3","type":"t_uint256"},{"astId":11,"contract":"Campaign.sol:Campaign","label":"joursOffre","offset":0,"slot":"4","type":"t_uint256"}],"numberOfBytes":"160"},"t_struct(MarquePanneau)56_storage":{"encoding":"inplace","label":"struct Campaign.MarquePanneau","members":[{"astId":53,"contract":"Campaign.sol:Campaign","label":"prix","offset":0,"slot":"0","type":"t_uint256"},{"astId":55,"contract":"Campaign.sol:Campaign","label":"production","offset":0,"slot":"1","type":"t_uint256"}],"numberOfBytes":"64"},"t_struct(Partenaire)51_storage":{"encoding":"inplace","label":"struct Campaign.Partenaire","members":[{"astId":43,"contract":"Campaign.sol:Campaign","label":"nomPartenaire","offset":0,"slot":"0","type":"t_string_storage"},{"astId":45,"contract":"Campaign.sol:Campaign","label":"PartenaireAddress","offset":0,"slot":"1","type":"t_address"},{"astId":50,"contract":"Campaign.sol:Campaign","label":"marques","offset":0,"slot":"2","type":"t_mapping(t_string_memory_ptr,t_struct(MarquePanneau)56_storage)"}],"numberOfBytes":"96"},"t_struct(PartnerOffer)88_storage":{"encoding":"inplace","label":"struct Campaign.PartnerOffer","members":[{"astId":81,"contract":"Campaign.sol:Campaign","label":"description","offset":0,"slot":"0","type":"t_string_storage"},{"astId":83,"contract":"Campaign.sol:Campaign","label":"choixPart","offset":0,"slot":"1","type":"t_bool"},{"astId":87,"contract":"Campaign.sol:Campaign","label":"Paneaus","offset":0,"slot":"2","type":"t_mapping(t_string_memory_ptr,t_uint256)"}],"numberOfBytes":"96"},"t_struct(Request)79_storage":{"encoding":"inplace","label":"struct Campaign.Request","members":[{"astId":66,"contract":"Campaign.sol:Campaign","label":"description","offset":0,"slot":"0","type":"t_string_storage"},{"astId":68,"contract":"Campaign.sol:Campaign","label":"value","offset":0,"slot":"1","type":"t_uint256"},{"astId":70,"contract":"Campaign.sol:Campaign","label":"recipient","offset":0,"slot":"2","type":"t_address"},{"astId":72,"contract":"Campaign.sol:Campaign","label":"complete","offset":20,"slot":"2","type":"t_bool"},{"astId":76,"contract":"Campaign.sol:Campaign","label":"approvals","offset":0,"slot":"3","type":"t_mapping(t_address,t_bool)"},{"astId":78,"contract":"Campaign.sol:Campaign","label":"approvalCount","offset":0,"slot":"4","type":"t_uint256"}],"numberOfBytes":"160"},"t_uint256":{"encoding":"inplace","label":"uint256","numberOfBytes":"32"}}},"userdoc":{"kind":"user","methods":{},"version":1}}