{"abi":[{"inputs":[{"internalType":"uint256","name":"","type":"uint256"}],"name":"PartnerOffers","outputs":[{"internalType":"string","name":"description","type":"string"},{"internalType":"bool","name":"choixPart","type":"bool"}],"stateMutability":"view","type":"function"},{"inputs":[{"internalType":"string","name":"_nomAppareil","type":"string"},{"internalType":"uint256","name":"_puissance","type":"uint256"},{"internalType":"uint256","name":"_heuresUtilisation","type":"uint256"}],"name":"ajouterAppareil","outputs":[],"stateMutability":"nonpayable","type":"function"},{"inputs":[{"internalType":"string","name":"_nomMarque","type":"string"},{"internalType":"uint256","name":"_prix","type":"uint256"},{"internalType":"uint256","name":"_production","type":"uint256"}],"name":"ajouterMarquePanneau","outputs":[],"stateMutability":"nonpayable","type":"function"},{"inputs":[{"internalType":"string","name":"_nomPartenaire","type":"string"}],"name":"ajouterPartenaire","outputs":[],"stateMutability":"nonpayable","type":"function"},{"inputs":[{"internalType":"uint256","name":"","type":"uint256"}],"name":"appareils","outputs":[{"internalType":"string","name":"nomAppareil","type":"string"},{"internalType":"uint256","name":"puissance","type":"uint256"},{"internalType":"uint256","name":"heuresUtilisation","type":"uint256"}],"stateMutability":"view","type":"function"},{"inputs":[{"internalType":"uint256","name":"index","type":"uint256"}],"name":"approveRequest","outputs":[],"stateMutability":"nonpayable","type":"function"},{"inputs":[{"internalType":"address","name":"","type":"address"}],"name":"approvers","outputs":[{"internalType":"bool","name":"","type":"bool"}],"stateMutability":"view","type":"function"},{"inputs":[],"name":"approvsCount","outputs":[{"internalType":"uint256","name":"","type":"uint256"}],"stateMutability":"view","type":"function"},{"inputs":[{"internalType":"uint256","name":"_nombrePersonnes","type":"uint256"},{"internalType":"uint256","name":"_surfaceMaison","type":"uint256"},{"internalType":"uint256","name":"_nombreChambres","type":"uint256"}],"name":"calculerConsommation","outputs":[],"stateMutability":"nonpayable","type":"function"},{"inputs":[{"internalType":"uint256","name":"_kWClient","type":"uint256"},{"internalType":"uint256","name":"_prixPanneau","type":"uint256"},{"internalType":"uint256","name":"_productionPanneau","type":"uint256"}],"name":"calculerPrixInstallation","outputs":[{"internalType":"uint256","name":"","type":"uint256"}],"stateMutability":"pure","type":"function"},{"inputs":[{"internalType":"uint256","name":"","type":"uint256"}],"name":"campaigns","outputs":[{"internalType":"address","name":"projectOwner","type":"address"},{"internalType":"uint256","name":"consomationYear","type":"uint256"},{"internalType":"string","name":"description","type":"string"},{"internalType":"uint256","name":"limiteconsomation","type":"uint256"},{"internalType":"uint256","name":"joursOffre","type":"uint256"}],"stateMutability":"view","type":"function"},{"inputs":[],"name":"consommationTotale","outputs":[{"internalType":"uint256","name":"","type":"uint256"}],"stateMutability":"view","type":"function"},{"inputs":[],"name":"contribute","outputs":[{"internalType":"uint256","name":"","type":"uint256"}],"stateMutability":"payable","type":"function"},{"inputs":[{"internalType":"address","name":"projectOwner","type":"address"},{"internalType":"uint256","name":"consomationYear","type":"uint256"},{"internalType":"string","name":"description","type":"string"},{"internalType":"uint256","name":"limiteconsomation","type":"uint256"},{"internalType":"uint256","name":"joursOffre","type":"uint256"}],"name":"createCampaign","outputs":[],"stateMutability":"nonpayable","type":"function"},{"inputs":[{"internalType":"string","name":"description","type":"string"}],"name":"createOfferPAr","outputs":[],"stateMutability":"nonpayable","type":"function"},{"inputs":[{"internalType":"string","name":"description","type":"string"},{"internalType":"uint256","name":"value","type":"uint256"},{"internalType":"address","name":"recipient","type":"address"}],"name":"createRequest","outputs":[],"stateMutability":"nonpayable","type":"function"},{"inputs":[{"internalType":"uint256","name":"index","type":"uint256"}],"name":"finalizeRequest","outputs":[],"stateMutability":"nonpayable","type":"function"},{"inputs":[],"name":"getCampaignCount","outputs":[{"internalType":"uint256","name":"","type":"uint256"}],"stateMutability":"view","type":"function"},{"inputs":[{"internalType":"uint256","name":"index","type":"uint256"}],"name":"getConsommationParAppareil","outputs":[{"internalType":"string","name":"","type":"string"},{"internalType":"uint256","name":"","type":"uint256"}],"stateMutability":"view","type":"function"},{"inputs":[{"internalType":"string","name":"_nomMarque","type":"string"}],"name":"getMarquePanneauForPartenaire","outputs":[{"internalType":"uint256","name":"prix","type":"uint256"},{"internalType":"uint256","name":"production","type":"uint256"}],"stateMutability":"view","type":"function"},{"inputs":[{"internalType":"address","name":"","type":"address"}],"name":"listePartenaires","outputs":[{"internalType":"uint256","name":"","type":"uint256"}],"stateMutability":"view","type":"function"},{"inputs":[],"name":"manager","outputs":[{"internalType":"address","name":"","type":"address"}],"stateMutability":"view","type":"function"},{"inputs":[],"name":"nombreAppareils","outputs":[{"internalType":"uint256","name":"","type":"uint256"}],"stateMutability":"view","type":"function"},{"inputs":[],"name":"nombreChambres","outputs":[{"internalType":"uint256","name":"","type":"uint256"}],"stateMutability":"view","type":"function"},{"inputs":[],"name":"nombrePersonnes","outputs":[{"internalType":"uint256","name":"","type":"uint256"}],"stateMutability":"view","type":"function"},{"inputs":[{"internalType":"uint256","name":"","type":"uint256"}],"name":"partenaires","outputs":[{"internalType":"string","name":"nomPartenaire","type":"string"},{"internalType":"address","name":"PartenaireAddress","type":"address"}],"stateMutability":"view","type":"function"},{"inputs":[{"internalType":"uint256","name":"","type":"uint256"}],"name":"requests","outputs":[{"internalType":"string","name":"description","type":"string"},{"internalType":"uint256","name":"value","type":"uint256"},{"internalType":"address","name":"recipient","type":"address"},{"internalType":"bool","name":"complete","type":"bool"},{"internalType":"uint256","name":"approvalCount","type":"uint256"}],"stateMutability":"view","type":"function"},{"inputs":[],"name":"surfaceMaison","outputs":[{"internalType":"uint256","name":"","type":"uint256"}],"stateMutability":"view","type":"function"}],"devdoc":{"kind":"dev","methods":{},"version":1},"evm":{"assembly":"    /* \"Campaign.sol\":65:6610  contract Campaign{... */\n  mstore(0x40, 0x80)\n  callvalue\n  dup1\n  iszero\n  tag_1\n  jumpi\n  0x00\n  dup1\n  revert\ntag_1:\n  pop\n  dataSize(sub_0)\n  dup1\n  dataOffset(sub_0)\n  0x00\n  codecopy\n  0x00\n  return\nstop\n\nsub_0: assembly {\n        /* \"Campaign.sol\":65:6610  contract Campaign{... */\n      mstore(0x40, 0x80)\n      jumpi(tag_1, lt(calldatasize, 0x04))\n      shr(0xe0, calldataload(0x00))\n      dup1\n      0x792cac3b\n      gt\n      tag_30\n      jumpi\n      dup1\n      0xa37189cb\n      gt\n      tag_31\n      jumpi\n      dup1\n      0xd7bb99ba\n      gt\n      tag_32\n      jumpi\n      dup1\n      0xd7bb99ba\n      eq\n      tag_26\n      jumpi\n      dup1\n      0xd7d1bbdb\n      eq\n      tag_27\n      jumpi\n      dup1\n      0xfc81f5ad\n      eq\n      tag_28\n      jumpi\n      dup1\n      0xfd958403\n      eq\n      tag_29\n      jumpi\n      jump(tag_1)\n    tag_32:\n      dup1\n      0xa37189cb\n      eq\n      tag_23\n      jumpi\n      dup1\n      0xa4a66431\n      eq\n      tag_24\n      jumpi\n      dup1\n      0xaaa17235\n      eq\n      tag_25\n      jumpi\n      jump(tag_1)\n    tag_31:\n      dup1\n      0x8a9cfd55\n      gt\n      tag_33\n      jumpi\n      dup1\n      0x8a9cfd55\n      eq\n      tag_19\n      jumpi\n      dup1\n      0x91cf26f6\n      eq\n      tag_20\n      jumpi\n      dup1\n      0x962e7f62\n      eq\n      tag_21\n      jumpi\n      dup1\n      0x9d7cdd6f\n      eq\n      tag_22\n      jumpi\n      jump(tag_1)\n    tag_33:\n      dup1\n      0x792cac3b\n      eq\n      tag_16\n      jumpi\n      dup1\n      0x81d12c58\n      eq\n      tag_17\n      jumpi\n      dup1\n      0x87859ad0\n      eq\n      tag_18\n      jumpi\n      jump(tag_1)\n    tag_30:\n      dup1\n      0x21e51b51\n      gt\n      tag_34\n      jumpi\n      dup1\n      0x481c6a75\n      gt\n      tag_35\n      jumpi\n      dup1\n      0x481c6a75\n      eq\n      tag_12\n      jumpi\n      dup1\n      0x4cda853b\n      eq\n      tag_13\n      jumpi\n      dup1\n      0x6c9ff6b9\n      eq\n      tag_14\n      jumpi\n      dup1\n      0x6caa9218\n      eq\n      tag_15\n      jumpi\n      jump(tag_1)\n    tag_35:\n      dup1\n      0x21e51b51\n      eq\n      tag_9\n      jumpi\n      dup1\n      0x22fa19bc\n      eq\n      tag_10\n      jumpi\n      dup1\n      0x46b8df2e\n      eq\n      tag_11\n      jumpi\n      jump(tag_1)\n    tag_34:\n      dup1\n      0x0a144391\n      gt\n      tag_36\n      jumpi\n      dup1\n      0x0a144391\n      eq\n      tag_5\n      jumpi\n      dup1\n      0x141961bc\n      eq\n      tag_6\n      jumpi\n      dup1\n      0x15a252e3\n      eq\n      tag_7\n      jumpi\n      dup1\n      0x208b7e9a\n      eq\n      tag_8\n      jumpi\n      jump(tag_1)\n    tag_36:\n      dup1\n      0xb0d0d5\n      eq\n      tag_2\n      jumpi\n      dup1\n      0x03441006\n      eq\n      tag_3\n      jumpi\n      dup1\n      0x0600d8fc\n      eq\n      tag_4\n      jumpi\n    tag_1:\n      0x00\n      dup1\n      revert\n        /* \"Campaign.sol\":4088:4369  function calculerPrixInstallation(uint256 _kWClient, uint256 _prixPanneau, uint256 _productionPanneau) public pure returns (uint256) {... */\n    tag_2:\n      callvalue\n      dup1\n      iszero\n      tag_37\n      jumpi\n      0x00\n      dup1\n      revert\n    tag_37:\n      pop\n      tag_38\n      0x04\n      dup1\n      calldatasize\n      sub\n      dup2\n      add\n      swap1\n      tag_39\n      swap2\n      swap1\n      tag_40\n      jump\t// in\n    tag_39:\n      tag_41\n      jump\t// in\n    tag_38:\n      mload(0x40)\n      tag_42\n      swap2\n      swap1\n      tag_43\n      jump\t// in\n    tag_42:\n      mload(0x40)\n      dup1\n      swap2\n      sub\n      swap1\n      return\n        /* \"Campaign.sol\":3680:4074  function finalizeRequest(uint256 index) public restricted {... */\n    tag_3:\n      callvalue\n      dup1\n      iszero\n      tag_44\n      jumpi\n      0x00\n      dup1\n      revert\n    tag_44:\n      pop\n      tag_45\n      0x04\n      dup1\n      calldatasize\n      sub\n      dup2\n      add\n      swap1\n      tag_46\n      swap2\n      swap1\n      tag_47\n      jump\t// in\n    tag_46:\n      tag_48\n      jump\t// in\n    tag_45:\n      stop\n        /* \"Campaign.sol\":4381:4769  function calculerConsommation(uint256 _nombrePersonnes, uint256 _surfaceMaison, uint256 _nombreChambres) public {... */\n    tag_4:\n      callvalue\n      dup1\n      iszero\n      tag_49\n      jumpi\n      0x00\n      dup1\n      revert\n    tag_49:\n      pop\n      tag_50\n      0x04\n      dup1\n      calldatasize\n      sub\n      dup2\n      add\n      swap1\n      tag_51\n      swap2\n      swap1\n      tag_40\n      jump\t// in\n    tag_51:\n      tag_52\n      jump\t// in\n    tag_50:\n      stop\n        /* \"Campaign.sol\":1706:1746  mapping(address =>bool) public approvers */\n    tag_5:\n      callvalue\n      dup1\n      iszero\n      tag_53\n      jumpi\n      0x00\n      dup1\n      revert\n    tag_53:\n      pop\n      tag_54\n      0x04\n      dup1\n      calldatasize\n      sub\n      dup2\n      add\n      swap1\n      tag_55\n      swap2\n      swap1\n      tag_56\n      jump\t// in\n    tag_55:\n      tag_57\n      jump\t// in\n    tag_54:\n      mload(0x40)\n      tag_58\n      swap2\n      swap1\n      tag_59\n      jump\t// in\n    tag_58:\n      mload(0x40)\n      dup1\n      swap2\n      sub\n      swap1\n      return\n        /* \"Campaign.sol\":277:308  CampaignInfo[] public campaigns */\n    tag_6:\n      callvalue\n      dup1\n      iszero\n      tag_60\n      jumpi\n      0x00\n      dup1\n      revert\n    tag_60:\n      pop\n      tag_61\n      0x04\n      dup1\n      calldatasize\n      sub\n      dup2\n      add\n      swap1\n      tag_62\n      swap2\n      swap1\n      tag_47\n      jump\t// in\n    tag_62:\n      tag_63\n      jump\t// in\n    tag_61:\n      mload(0x40)\n      tag_64\n      swap6\n      swap5\n      swap4\n      swap3\n      swap2\n      swap1\n      tag_65\n      jump\t// in\n    tag_64:\n      mload(0x40)\n      dup1\n      swap2\n      sub\n      swap1\n      return\n        /* \"Campaign.sol\":773:803  uint256 public nombreAppareils */\n    tag_7:\n      callvalue\n      dup1\n      iszero\n      tag_66\n      jumpi\n      0x00\n      dup1\n      revert\n    tag_66:\n      pop\n      tag_67\n      tag_68\n      jump\t// in\n    tag_67:\n      mload(0x40)\n      tag_69\n      swap2\n      swap1\n      tag_43\n      jump\t// in\n    tag_69:\n      mload(0x40)\n      dup1\n      swap2\n      sub\n      swap1\n      return\n        /* \"Campaign.sol\":6165:6603  function getMarquePanneauForPartenaire( string memory _nomMarque) public view returns (uint256 prix, uint256 production) {... */\n    tag_8:\n      callvalue\n      dup1\n      iszero\n      tag_70\n      jumpi\n      0x00\n      dup1\n      revert\n    tag_70:\n      pop\n      tag_71\n      0x04\n      dup1\n      calldatasize\n      sub\n      dup2\n      add\n      swap1\n      tag_72\n      swap2\n      swap1\n      tag_73\n      jump\t// in\n    tag_72:\n      tag_74\n      jump\t// in\n    tag_71:\n      mload(0x40)\n      tag_75\n      swap3\n      swap2\n      swap1\n      tag_76\n      jump\t// in\n    tag_75:\n      mload(0x40)\n      dup1\n      swap2\n      sub\n      swap1\n      return\n        /* \"Campaign.sol\":1899:2502  function createCampaign(address projectOwner, uint consomationYear, string memory description, uint limiteconsomation, uint joursOffre) public {... */\n    tag_9:\n      callvalue\n      dup1\n      iszero\n      tag_77\n      jumpi\n      0x00\n      dup1\n      revert\n    tag_77:\n      pop\n      tag_78\n      0x04\n      dup1\n      calldatasize\n      sub\n      dup2\n      add\n      swap1\n      tag_79\n      swap2\n      swap1\n      tag_80\n      jump\t// in\n    tag_79:\n      tag_81\n      jump\t// in\n    tag_78:\n      stop\n        /* \"Campaign.sol\":685:714  uint256 public nombreChambres */\n    tag_10:\n      callvalue\n      dup1\n      iszero\n      tag_82\n      jumpi\n      0x00\n      dup1\n      revert\n    tag_82:\n      pop\n      tag_83\n      tag_84\n      jump\t// in\n    tag_83:\n      mload(0x40)\n      tag_85\n      swap2\n      swap1\n      tag_43\n      jump\t// in\n    tag_85:\n      mload(0x40)\n      dup1\n      swap2\n      sub\n      swap1\n      return\n        /* \"Campaign.sol\":5550:5880  function ajouterPartenaire(string memory _nomPartenaire) public {... */\n    tag_11:\n      callvalue\n      dup1\n      iszero\n      tag_86\n      jumpi\n      0x00\n      dup1\n      revert\n    tag_86:\n      pop\n      tag_87\n      0x04\n      dup1\n      calldatasize\n      sub\n      dup2\n      add\n      swap1\n      tag_88\n      swap2\n      swap1\n      tag_73\n      jump\t// in\n    tag_88:\n      tag_89\n      jump\t// in\n    tag_87:\n      stop\n        /* \"Campaign.sol\":1676:1698  address public manager */\n    tag_12:\n      callvalue\n      dup1\n      iszero\n      tag_90\n      jumpi\n      0x00\n      dup1\n      revert\n    tag_90:\n      pop\n      tag_91\n      tag_92\n      jump\t// in\n    tag_91:\n      mload(0x40)\n      tag_93\n      swap2\n      swap1\n      tag_94\n      jump\t// in\n    tag_93:\n      mload(0x40)\n      dup1\n      swap2\n      sub\n      swap1\n      return\n        /* \"Campaign.sol\":1215:1263  mapping(address => uint) public listePartenaires */\n    tag_13:\n      callvalue\n      dup1\n      iszero\n      tag_95\n      jumpi\n      0x00\n      dup1\n      revert\n    tag_95:\n      pop\n      tag_96\n      0x04\n      dup1\n      calldatasize\n      sub\n      dup2\n      add\n      swap1\n      tag_97\n      swap2\n      swap1\n      tag_56\n      jump\t// in\n    tag_97:\n      tag_98\n      jump\t// in\n    tag_96:\n      mload(0x40)\n      tag_99\n      swap2\n      swap1\n      tag_43\n      jump\t// in\n    tag_99:\n      mload(0x40)\n      dup1\n      swap2\n      sub\n      swap1\n      return\n        /* \"Campaign.sol\":5264:5542  function getConsommationParAppareil(uint256 index) public view returns (string memory, uint256) {... */\n    tag_14:\n      callvalue\n      dup1\n      iszero\n      tag_100\n      jumpi\n      0x00\n      dup1\n      revert\n    tag_100:\n      pop\n      tag_101\n      0x04\n      dup1\n      calldatasize\n      sub\n      dup2\n      add\n      swap1\n      tag_102\n      swap2\n      swap1\n      tag_47\n      jump\t// in\n    tag_102:\n      tag_103\n      jump\t// in\n    tag_101:\n      mload(0x40)\n      tag_104\n      swap3\n      swap2\n      swap1\n      tag_105\n      jump\t// in\n    tag_104:\n      mload(0x40)\n      dup1\n      swap2\n      sub\n      swap1\n      return\n        /* \"Campaign.sol\":2510:2607  function getCampaignCount() public view returns (uint) {... */\n    tag_15:\n      callvalue\n      dup1\n      iszero\n      tag_106\n      jumpi\n      0x00\n      dup1\n      revert\n    tag_106:\n      pop\n      tag_107\n      tag_108\n      jump\t// in\n    tag_107:\n      mload(0x40)\n      tag_109\n      swap2\n      swap1\n      tag_43\n      jump\t// in\n    tag_109:\n      mload(0x40)\n      dup1\n      swap2\n      sub\n      swap1\n      return\n        /* \"Campaign.sol\":650:678  uint256 public surfaceMaison */\n    tag_16:\n      callvalue\n      dup1\n      iszero\n      tag_110\n      jumpi\n      0x00\n      dup1\n      revert\n    tag_110:\n      pop\n      tag_111\n      tag_112\n      jump\t// in\n    tag_111:\n      mload(0x40)\n      tag_113\n      swap2\n      swap1\n      tag_43\n      jump\t// in\n    tag_113:\n      mload(0x40)\n      dup1\n      swap2\n      sub\n      swap1\n      return\n        /* \"Campaign.sol\":1644:1669  Request[] public requests */\n    tag_17:\n      callvalue\n      dup1\n      iszero\n      tag_114\n      jumpi\n      0x00\n      dup1\n      revert\n    tag_114:\n      pop\n      tag_115\n      0x04\n      dup1\n      calldatasize\n      sub\n      dup2\n      add\n      swap1\n      tag_116\n      swap2\n      swap1\n      tag_47\n      jump\t// in\n    tag_116:\n      tag_117\n      jump\t// in\n    tag_115:\n      mload(0x40)\n      tag_118\n      swap6\n      swap5\n      swap4\n      swap3\n      swap2\n      swap1\n      tag_119\n      jump\t// in\n    tag_118:\n      mload(0x40)\n      dup1\n      swap2\n      sub\n      swap1\n      return\n        /* \"Campaign.sol\":2615:2826  function createOfferPAr(string memory description) public {... */\n    tag_18:\n      callvalue\n      dup1\n      iszero\n      tag_120\n      jumpi\n      0x00\n      dup1\n      revert\n    tag_120:\n      pop\n      tag_121\n      0x04\n      dup1\n      calldatasize\n      sub\n      dup2\n      add\n      swap1\n      tag_122\n      swap2\n      swap1\n      tag_73\n      jump\t// in\n    tag_122:\n      tag_123\n      jump\t// in\n    tag_121:\n      stop\n        /* \"Campaign.sol\":2834:3201  function createRequest(string memory description, uint256 value, address recipient) public restricted {... */\n    tag_19:\n      callvalue\n      dup1\n      iszero\n      tag_124\n      jumpi\n      0x00\n      dup1\n      revert\n    tag_124:\n      pop\n      tag_125\n      0x04\n      dup1\n      calldatasize\n      sub\n      dup2\n      add\n      swap1\n      tag_126\n      swap2\n      swap1\n      tag_127\n      jump\t// in\n    tag_126:\n      tag_128\n      jump\t// in\n    tag_125:\n      stop\n        /* \"Campaign.sol\":4777:5256  function ajouterAppareil(string memory _nomAppareil, uint256 _puissance, uint256 _heuresUtilisation) public {... */\n    tag_20:\n      callvalue\n      dup1\n      iszero\n      tag_129\n      jumpi\n      0x00\n      dup1\n      revert\n    tag_129:\n      pop\n      tag_130\n      0x04\n      dup1\n      calldatasize\n      sub\n      dup2\n      add\n      swap1\n      tag_131\n      swap2\n      swap1\n      tag_132\n      jump\t// in\n    tag_131:\n      tag_133\n      jump\t// in\n    tag_130:\n      stop\n        /* \"Campaign.sol\":721:766  mapping(uint256 => Appareil) public appareils */\n    tag_21:\n      callvalue\n      dup1\n      iszero\n      tag_134\n      jumpi\n      0x00\n      dup1\n      revert\n    tag_134:\n      pop\n      tag_135\n      0x04\n      dup1\n      calldatasize\n      sub\n      dup2\n      add\n      swap1\n      tag_136\n      swap2\n      swap1\n      tag_47\n      jump\t// in\n    tag_136:\n      tag_137\n      jump\t// in\n    tag_135:\n      mload(0x40)\n      tag_138\n      swap4\n      swap3\n      swap2\n      swap1\n      tag_139\n      jump\t// in\n    tag_138:\n      mload(0x40)\n      dup1\n      swap2\n      sub\n      swap1\n      return\n        /* \"Campaign.sol\":1175:1206  Partenaire[] public partenaires */\n    tag_22:\n      callvalue\n      dup1\n      iszero\n      tag_140\n      jumpi\n      0x00\n      dup1\n      revert\n    tag_140:\n      pop\n      tag_141\n      0x04\n      dup1\n      calldatasize\n      sub\n      dup2\n      add\n      swap1\n      tag_142\n      swap2\n      swap1\n      tag_47\n      jump\t// in\n    tag_142:\n      tag_143\n      jump\t// in\n    tag_141:\n      mload(0x40)\n      tag_144\n      swap3\n      swap2\n      swap1\n      tag_145\n      jump\t// in\n    tag_144:\n      mload(0x40)\n      dup1\n      swap2\n      sub\n      swap1\n      return\n        /* \"Campaign.sol\":5888:6157  function ajouterMarquePanneau( string memory _nomMarque, uint256 _prix, uint256 _production) public {... */\n    tag_23:\n      callvalue\n      dup1\n      iszero\n      tag_146\n      jumpi\n      0x00\n      dup1\n      revert\n    tag_146:\n      pop\n      tag_147\n      0x04\n      dup1\n      calldatasize\n      sub\n      dup2\n      add\n      swap1\n      tag_148\n      swap2\n      swap1\n      tag_132\n      jump\t// in\n    tag_148:\n      tag_149\n      jump\t// in\n    tag_147:\n      stop\n        /* \"Campaign.sol\":1602:1637  PartnerOffer[] public PartnerOffers */\n    tag_24:\n      callvalue\n      dup1\n      iszero\n      tag_150\n      jumpi\n      0x00\n      dup1\n      revert\n    tag_150:\n      pop\n      tag_151\n      0x04\n      dup1\n      calldatasize\n      sub\n      dup2\n      add\n      swap1\n      tag_152\n      swap2\n      swap1\n      tag_47\n      jump\t// in\n    tag_152:\n      tag_153\n      jump\t// in\n    tag_151:\n      mload(0x40)\n      tag_154\n      swap3\n      swap2\n      swap1\n      tag_155\n      jump\t// in\n    tag_154:\n      mload(0x40)\n      dup1\n      swap2\n      sub\n      swap1\n      return\n        /* \"Campaign.sol\":573:606  uint256 public consommationTotale */\n    tag_25:\n      callvalue\n      dup1\n      iszero\n      tag_156\n      jumpi\n      0x00\n      dup1\n      revert\n    tag_156:\n      pop\n      tag_157\n      tag_158\n      jump\t// in\n    tag_157:\n      mload(0x40)\n      tag_159\n      swap2\n      swap1\n      tag_43\n      jump\t// in\n    tag_159:\n      mload(0x40)\n      dup1\n      swap2\n      sub\n      swap1\n      return\n        /* \"Campaign.sol\":3209:3389  function contribute() public payable returns(uint){... */\n    tag_26:\n      tag_160\n      tag_161\n      jump\t// in\n    tag_160:\n      mload(0x40)\n      tag_162\n      swap2\n      swap1\n      tag_43\n      jump\t// in\n    tag_162:\n      mload(0x40)\n      dup1\n      swap2\n      sub\n      swap1\n      return\n        /* \"Campaign.sol\":3395:3672  function approveRequest(uint index)public {... */\n    tag_27:\n      callvalue\n      dup1\n      iszero\n      tag_163\n      jumpi\n      0x00\n      dup1\n      revert\n    tag_163:\n      pop\n      tag_164\n      0x04\n      dup1\n      calldatasize\n      sub\n      dup2\n      add\n      swap1\n      tag_165\n      swap2\n      swap1\n      tag_47\n      jump\t// in\n    tag_165:\n      tag_166\n      jump\t// in\n    tag_164:\n      stop\n        /* \"Campaign.sol\":1753:1777  uint public approvsCount */\n    tag_28:\n      callvalue\n      dup1\n      iszero\n      tag_167\n      jumpi\n      0x00\n      dup1\n      revert\n    tag_167:\n      pop\n      tag_168\n      tag_169\n      jump\t// in\n    tag_168:\n      mload(0x40)\n      tag_170\n      swap2\n      swap1\n      tag_43\n      jump\t// in\n    tag_170:\n      mload(0x40)\n      dup1\n      swap2\n      sub\n      swap1\n      return\n        /* \"Campaign.sol\":613:643  uint256 public nombrePersonnes */\n    tag_29:\n      callvalue\n      dup1\n      iszero\n      tag_171\n      jumpi\n      0x00\n      dup1\n      revert\n    tag_171:\n      pop\n      tag_172\n      tag_173\n      jump\t// in\n    tag_172:\n      mload(0x40)\n      tag_174\n      swap2\n      swap1\n      tag_43\n      jump\t// in\n    tag_174:\n      mload(0x40)\n      dup1\n      swap2\n      sub\n      swap1\n      return\n        /* \"Campaign.sol\":4088:4369  function calculerPrixInstallation(uint256 _kWClient, uint256 _prixPanneau, uint256 _productionPanneau) public pure returns (uint256) {... */\n    tag_41:\n        /* \"Campaign.sol\":4212:4219  uint256 */\n      0x00\n        /* \"Campaign.sol\":4232:4254  uint256 nombrePanneaux */\n      dup1\n        /* \"Campaign.sol\":4295:4313  _productionPanneau */\n      dup3\n        /* \"Campaign.sol\":4290:4291  1 */\n      0x01\n        /* \"Campaign.sol\":4270:4288  _productionPanneau */\n      dup5\n        /* \"Campaign.sol\":4258:4267  _kWClient */\n      dup8\n        /* \"Campaign.sol\":4258:4288  _kWClient + _productionPanneau */\n      tag_176\n      swap2\n      swap1\n      tag_177\n      jump\t// in\n    tag_176:\n        /* \"Campaign.sol\":4258:4291  _kWClient + _productionPanneau -1 */\n      tag_178\n      swap2\n      swap1\n      tag_179\n      jump\t// in\n    tag_178:\n        /* \"Campaign.sol\":4257:4313  (_kWClient + _productionPanneau -1) / _productionPanneau */\n      tag_180\n      swap2\n      swap1\n      tag_181\n      jump\t// in\n    tag_180:\n        /* \"Campaign.sol\":4232:4313  uint256 nombrePanneaux = (_kWClient + _productionPanneau -1) / _productionPanneau */\n      swap1\n      pop\n        /* \"Campaign.sol\":4347:4361  nombrePanneaux */\n      dup1\n        /* \"Campaign.sol\":4332:4344  _prixPanneau */\n      dup5\n        /* \"Campaign.sol\":4332:4361  _prixPanneau * nombrePanneaux */\n      tag_182\n      swap2\n      swap1\n      tag_183\n      jump\t// in\n    tag_182:\n        /* \"Campaign.sol\":4324:4361  return  _prixPanneau * nombrePanneaux */\n      swap2\n      pop\n      pop\n        /* \"Campaign.sol\":4088:4369  function calculerPrixInstallation(uint256 _kWClient, uint256 _prixPanneau, uint256 _productionPanneau) public pure returns (uint256) {... */\n      swap4\n      swap3\n      pop\n      pop\n      pop\n      jump\t// out\n        /* \"Campaign.sol\":3680:4074  function finalizeRequest(uint256 index) public restricted {... */\n    tag_48:\n        /* \"Campaign.sol\":1863:1870  manager */\n      0x0b\n      0x00\n      swap1\n      sload\n      swap1\n      0x0100\n      exp\n      swap1\n      div\n      0xffffffffffffffffffffffffffffffffffffffff\n      and\n        /* \"Campaign.sol\":1851:1870  msg.sender==manager */\n      0xffffffffffffffffffffffffffffffffffffffff\n      and\n        /* \"Campaign.sol\":1851:1861  msg.sender */\n      caller\n        /* \"Campaign.sol\":1851:1870  msg.sender==manager */\n      0xffffffffffffffffffffffffffffffffffffffff\n      and\n      eq\n        /* \"Campaign.sol\":1843:1871  require(msg.sender==manager) */\n      tag_185\n      jumpi\n      0x00\n      dup1\n      revert\n    tag_185:\n        /* \"Campaign.sol\":3749:3772  Request storage request */\n      0x00\n        /* \"Campaign.sol\":3775:3783  requests */\n      0x0a\n        /* \"Campaign.sol\":3784:3789  index */\n      dup3\n        /* \"Campaign.sol\":3775:3790  requests[index] */\n      dup2\n      sload\n      dup2\n      lt\n      tag_187\n      jumpi\n      tag_188\n      tag_189\n      jump\t// in\n    tag_188:\n    tag_187:\n      swap1\n      0x00\n      mstore\n      keccak256(0x00, 0x20)\n      swap1\n      0x05\n      mul\n      add\n        /* \"Campaign.sol\":3749:3790  Request storage request = requests[index] */\n      swap1\n      pop\n        /* \"Campaign.sol\":3810:3817  request */\n      dup1\n        /* \"Campaign.sol\":3810:3826  request.complete */\n      0x02\n      add\n      0x14\n      swap1\n      sload\n      swap1\n      0x0100\n      exp\n      swap1\n      div\n      0xff\n      and\n        /* \"Campaign.sol\":3809:3826  !request.complete */\n      iszero\n        /* \"Campaign.sol\":3801:3827  require(!request.complete) */\n      tag_191\n      jumpi\n      0x00\n      dup1\n      revert\n    tag_191:\n        /* \"Campaign.sol\":3886:3887  2 */\n      0x02\n        /* \"Campaign.sol\":3871:3883  approvsCount */\n      sload(0x0d)\n        /* \"Campaign.sol\":3871:3887  approvsCount / 2 */\n      tag_192\n      swap2\n      swap1\n      tag_181\n      jump\t// in\n    tag_192:\n        /* \"Campaign.sol\":3846:3853  request */\n      dup2\n        /* \"Campaign.sol\":3846:3867  request.approvalCount */\n      0x04\n      add\n      sload\n        /* \"Campaign.sol\":3846:3888  request.approvalCount > (approvsCount / 2) */\n      gt\n        /* \"Campaign.sol\":3838:3889  require(request.approvalCount > (approvsCount / 2)) */\n      tag_193\n      jumpi\n      0x00\n      dup1\n      revert\n    tag_193:\n        /* \"Campaign.sol\":3902:3927  address payable recipient */\n      0x00\n        /* \"Campaign.sol\":3938:3945  request */\n      dup2\n        /* \"Campaign.sol\":3938:3955  request.recipient */\n      0x02\n      add\n      0x00\n      swap1\n      sload\n      swap1\n      0x0100\n      exp\n      swap1\n      div\n      0xffffffffffffffffffffffffffffffffffffffff\n      and\n        /* \"Campaign.sol\":3902:3956  address payable recipient = payable(request.recipient) */\n      swap1\n      pop\n        /* \"Campaign.sol\":3997:4006  recipient */\n      dup1\n        /* \"Campaign.sol\":3997:4015  recipient.transfer */\n      0xffffffffffffffffffffffffffffffffffffffff\n      and\n        /* \"Campaign.sol\":3997:4030  recipient.transfer(request.value) */\n      0x08fc\n        /* \"Campaign.sol\":4016:4023  request */\n      dup4\n        /* \"Campaign.sol\":4016:4029  request.value */\n      0x01\n      add\n      sload\n        /* \"Campaign.sol\":3997:4030  recipient.transfer(request.value) */\n      swap1\n      dup2\n      iszero\n      mul\n      swap1\n      mload(0x40)\n      0x00\n      mload(0x40)\n      dup1\n      dup4\n      sub\n      dup2\n      dup6\n      dup9\n      dup9\n      call\n      swap4\n      pop\n      pop\n      pop\n      pop\n      iszero\n      dup1\n      iszero\n      tag_195\n      jumpi\n      returndatasize\n      0x00\n      dup1\n      returndatacopy\n      revert(0x00, returndatasize)\n    tag_195:\n      pop\n        /* \"Campaign.sol\":4062:4066  true */\n      0x01\n        /* \"Campaign.sol\":4043:4050  request */\n      dup3\n        /* \"Campaign.sol\":4043:4059  request.complete */\n      0x02\n      add\n      0x14\n        /* \"Campaign.sol\":4043:4066  request.complete = true */\n      0x0100\n      exp\n      dup2\n      sload\n      dup2\n      0xff\n      mul\n      not\n      and\n      swap1\n      dup4\n      iszero\n      iszero\n      mul\n      or\n      swap1\n      sstore\n      pop\n        /* \"Campaign.sol\":3738:4074  {... */\n      pop\n      pop\n        /* \"Campaign.sol\":3680:4074  function finalizeRequest(uint256 index) public restricted {... */\n      pop\n      jump\t// out\n        /* \"Campaign.sol\":4381:4769  function calculerConsommation(uint256 _nombrePersonnes, uint256 _surfaceMaison, uint256 _nombreChambres) public {... */\n    tag_52:\n        /* \"Campaign.sol\":4522:4538  _nombrePersonnes */\n      dup3\n        /* \"Campaign.sol\":4504:4519  nombrePersonnes */\n      0x02\n        /* \"Campaign.sol\":4504:4538  nombrePersonnes = _nombrePersonnes */\n      dup2\n      swap1\n      sstore\n      pop\n        /* \"Campaign.sol\":4565:4579  _surfaceMaison */\n      dup2\n        /* \"Campaign.sol\":4549:4562  surfaceMaison */\n      0x03\n        /* \"Campaign.sol\":4549:4579  surfaceMaison = _surfaceMaison */\n      dup2\n      swap1\n      sstore\n      pop\n        /* \"Campaign.sol\":4607:4622  _nombreChambres */\n      dup1\n        /* \"Campaign.sol\":4590:4604  nombreChambres */\n      0x04\n        /* \"Campaign.sol\":4590:4622  nombreChambres = _nombreChambres */\n      dup2\n      swap1\n      sstore\n      pop\n        /* \"Campaign.sol\":4635:4659  uint256 consommationBase */\n      0x00\n        /* \"Campaign.sol\":4706:4709  100 */\n      0x64\n        /* \"Campaign.sol\":4690:4703  surfaceMaison */\n      sload(0x03)\n        /* \"Campaign.sol\":4690:4709  surfaceMaison * 100 */\n      tag_197\n      swap2\n      swap1\n      tag_183\n      jump\t// in\n    tag_197:\n        /* \"Campaign.sol\":4681:4685  1000 */\n      0x03e8\n        /* \"Campaign.sol\":4663:4678  nombrePersonnes */\n      sload(0x02)\n        /* \"Campaign.sol\":4663:4685  nombrePersonnes * 1000 */\n      tag_198\n      swap2\n      swap1\n      tag_183\n      jump\t// in\n    tag_198:\n        /* \"Campaign.sol\":4662:4710  (nombrePersonnes * 1000) + (surfaceMaison * 100) */\n      tag_199\n      swap2\n      swap1\n      tag_177\n      jump\t// in\n    tag_199:\n        /* \"Campaign.sol\":4635:4710  uint256 consommationBase = (nombrePersonnes * 1000) + (surfaceMaison * 100) */\n      swap1\n      pop\n        /* \"Campaign.sol\":4745:4761  consommationBase */\n      dup1\n        /* \"Campaign.sol\":4723:4741  consommationTotale */\n      0x01\n      0x00\n        /* \"Campaign.sol\":4723:4761  consommationTotale += consommationBase */\n      dup3\n      dup3\n      sload\n      tag_200\n      swap2\n      swap1\n      tag_177\n      jump\t// in\n    tag_200:\n      swap3\n      pop\n      pop\n      dup2\n      swap1\n      sstore\n      pop\n        /* \"Campaign.sol\":4493:4769  {... */\n      pop\n        /* \"Campaign.sol\":4381:4769  function calculerConsommation(uint256 _nombrePersonnes, uint256 _surfaceMaison, uint256 _nombreChambres) public {... */\n      pop\n      pop\n      pop\n      jump\t// out\n        /* \"Campaign.sol\":1706:1746  mapping(address =>bool) public approvers */\n    tag_57:\n      mstore(0x20, 0x0c)\n      dup1\n      0x00\n      mstore\n      keccak256(0x00, 0x40)\n      0x00\n      swap2\n      pop\n      sload\n      swap1\n      0x0100\n      exp\n      swap1\n      div\n      0xff\n      and\n      dup2\n      jump\t// out\n        /* \"Campaign.sol\":277:308  CampaignInfo[] public campaigns */\n    tag_63:\n      0x00\n      dup2\n      dup2\n      sload\n      dup2\n      lt\n      tag_201\n      jumpi\n      0x00\n      dup1\n      revert\n    tag_201:\n      swap1\n      0x00\n      mstore\n      keccak256(0x00, 0x20)\n      swap1\n      0x05\n      mul\n      add\n      0x00\n      swap2\n      pop\n      swap1\n      pop\n      dup1\n      0x00\n      add\n      0x00\n      swap1\n      sload\n      swap1\n      0x0100\n      exp\n      swap1\n      div\n      0xffffffffffffffffffffffffffffffffffffffff\n      and\n      swap1\n      dup1\n      0x01\n      add\n      sload\n      swap1\n      dup1\n      0x02\n      add\n      dup1\n      sload\n      tag_203\n      swap1\n      tag_204\n      jump\t// in\n    tag_203:\n      dup1\n      0x1f\n      add\n      0x20\n      dup1\n      swap2\n      div\n      mul\n      0x20\n      add\n      mload(0x40)\n      swap1\n      dup2\n      add\n      0x40\n      mstore\n      dup1\n      swap3\n      swap2\n      swap1\n      dup2\n      dup2\n      mstore\n      0x20\n      add\n      dup3\n      dup1\n      sload\n      tag_205\n      swap1\n      tag_204\n      jump\t// in\n    tag_205:\n      dup1\n      iszero\n      tag_206\n      jumpi\n      dup1\n      0x1f\n      lt\n      tag_207\n      jumpi\n      0x0100\n      dup1\n      dup4\n      sload\n      div\n      mul\n      dup4\n      mstore\n      swap2\n      0x20\n      add\n      swap2\n      jump(tag_206)\n    tag_207:\n      dup3\n      add\n      swap2\n      swap1\n      0x00\n      mstore\n      keccak256(0x00, 0x20)\n      swap1\n    tag_208:\n      dup2\n      sload\n      dup2\n      mstore\n      swap1\n      0x01\n      add\n      swap1\n      0x20\n      add\n      dup1\n      dup4\n      gt\n      tag_208\n      jumpi\n      dup3\n      swap1\n      sub\n      0x1f\n      and\n      dup3\n      add\n      swap2\n    tag_206:\n      pop\n      pop\n      pop\n      pop\n      pop\n      swap1\n      dup1\n      0x03\n      add\n      sload\n      swap1\n      dup1\n      0x04\n      add\n      sload\n      swap1\n      pop\n      dup6\n      jump\t// out\n        /* \"Campaign.sol\":773:803  uint256 public nombreAppareils */\n    tag_68:\n      sload(0x06)\n      dup2\n      jump\t// out\n        /* \"Campaign.sol\":6165:6603  function getMarquePanneauForPartenaire( string memory _nomMarque) public view returns (uint256 prix, uint256 production) {... */\n    tag_74:\n        /* \"Campaign.sol\":6252:6264  uint256 prix */\n      0x00\n        /* \"Campaign.sol\":6266:6284  uint256 production */\n      dup1\n        /* \"Campaign.sol\":6297:6307  uint index */\n      0x00\n        /* \"Campaign.sol\":6310:6326  listePartenaires */\n      0x08\n        /* \"Campaign.sol\":6310:6338  listePartenaires[msg.sender] */\n      0x00\n        /* \"Campaign.sol\":6327:6337  msg.sender */\n      caller\n        /* \"Campaign.sol\":6310:6338  listePartenaires[msg.sender] */\n      0xffffffffffffffffffffffffffffffffffffffff\n      and\n      0xffffffffffffffffffffffffffffffffffffffff\n      and\n      dup2\n      mstore\n      0x20\n      add\n      swap1\n      dup2\n      mstore\n      0x20\n      add\n      0x00\n      keccak256\n      sload\n        /* \"Campaign.sol\":6297:6338  uint index = listePartenaires[msg.sender] */\n      swap1\n      pop\n        /* \"Campaign.sol\":6365:6376  partenaires */\n      0x07\n        /* \"Campaign.sol\":6365:6383  partenaires.length */\n      dup1\n      sload\n      swap1\n      pop\n        /* \"Campaign.sol\":6357:6362  index */\n      dup2\n        /* \"Campaign.sol\":6357:6383  index < partenaires.length */\n      lt\n        /* \"Campaign.sol\":6349:6412  require(index < partenaires.length, \"Invalid partner address.\") */\n      tag_210\n      jumpi\n      mload(0x40)\n      0x08c379a000000000000000000000000000000000000000000000000000000000\n      dup2\n      mstore\n      0x04\n      add\n      tag_211\n      swap1\n      tag_212\n      jump\t// in\n    tag_211:\n      mload(0x40)\n      dup1\n      swap2\n      sub\n      swap1\n      revert\n    tag_210:\n        /* \"Campaign.sol\":6423:6452  Partenaire storage partenaire */\n      0x00\n        /* \"Campaign.sol\":6455:6466  partenaires */\n      0x07\n        /* \"Campaign.sol\":6467:6472  index */\n      dup3\n        /* \"Campaign.sol\":6455:6473  partenaires[index] */\n      dup2\n      sload\n      dup2\n      lt\n      tag_213\n      jumpi\n      tag_214\n      tag_189\n      jump\t// in\n    tag_214:\n    tag_213:\n      swap1\n      0x00\n      mstore\n      keccak256(0x00, 0x20)\n      swap1\n      0x03\n      mul\n      add\n        /* \"Campaign.sol\":6423:6473  Partenaire storage partenaire = partenaires[index] */\n      swap1\n      pop\n        /* \"Campaign.sol\":6484:6512  MarquePanneau storage marque */\n      0x00\n        /* \"Campaign.sol\":6515:6525  partenaire */\n      dup2\n        /* \"Campaign.sol\":6515:6533  partenaire.marques */\n      0x02\n      add\n        /* \"Campaign.sol\":6534:6544  _nomMarque */\n      dup7\n        /* \"Campaign.sol\":6515:6545  partenaire.marques[_nomMarque] */\n      mload(0x40)\n      tag_216\n      swap2\n      swap1\n      tag_217\n      jump\t// in\n    tag_216:\n      swap1\n      dup2\n      mstore\n      0x20\n      add\n      mload(0x40)\n      dup1\n      swap2\n      sub\n      swap1\n      keccak256\n        /* \"Campaign.sol\":6484:6545  MarquePanneau storage marque = partenaire.marques[_nomMarque] */\n      swap1\n      pop\n        /* \"Campaign.sol\":6564:6570  marque */\n      dup1\n        /* \"Campaign.sol\":6564:6575  marque.prix */\n      0x00\n      add\n      sload\n        /* \"Campaign.sol\":6577:6583  marque */\n      dup2\n        /* \"Campaign.sol\":6577:6594  marque.production */\n      0x01\n      add\n      sload\n        /* \"Campaign.sol\":6556:6595  return (marque.prix, marque.production) */\n      swap5\n      pop\n      swap5\n      pop\n      pop\n      pop\n      pop\n        /* \"Campaign.sol\":6165:6603  function getMarquePanneauForPartenaire( string memory _nomMarque) public view returns (uint256 prix, uint256 production) {... */\n      swap2\n      pop\n      swap2\n      jump\t// out\n        /* \"Campaign.sol\":1899:2502  function createCampaign(address projectOwner, uint consomationYear, string memory description, uint limiteconsomation, uint joursOffre) public {... */\n    tag_81:\n        /* \"Campaign.sol\":2081:2098  limiteconsomation */\n      dup2\n        /* \"Campaign.sol\":2063:2078  consomationYear */\n      dup5\n        /* \"Campaign.sol\":2063:2098  consomationYear < limiteconsomation */\n      lt\n        /* \"Campaign.sol\":2055:2168  require(consomationYear < limiteconsomation, \"Your Limit consomation must be higher than your usual Consomation\") */\n      tag_219\n      jumpi\n      mload(0x40)\n      0x08c379a000000000000000000000000000000000000000000000000000000000\n      dup2\n      mstore\n      0x04\n      add\n      tag_220\n      swap1\n      tag_221\n      jump\t// in\n    tag_220:\n      mload(0x40)\n      dup1\n      swap2\n      sub\n      swap1\n      revert\n    tag_219:\n        /* \"Campaign.sol\":2181:2212  CampaignInfo memory newCampaign */\n      0x00\n        /* \"Campaign.sol\":2215:2456  CampaignInfo({... */\n      mload(0x40)\n      dup1\n      0xa0\n      add\n      0x40\n      mstore\n      dup1\n        /* \"Campaign.sol\":2257:2269  projectOwner */\n      dup8\n        /* \"Campaign.sol\":2215:2456  CampaignInfo({... */\n      0xffffffffffffffffffffffffffffffffffffffff\n      and\n      dup2\n      mstore\n      0x20\n      add\n        /* \"Campaign.sol\":2301:2316  consomationYear */\n      dup7\n        /* \"Campaign.sol\":2215:2456  CampaignInfo({... */\n      dup2\n      mstore\n      0x20\n      add\n        /* \"Campaign.sol\":2344:2355  description */\n      dup6\n        /* \"Campaign.sol\":2215:2456  CampaignInfo({... */\n      dup2\n      mstore\n      0x20\n      add\n        /* \"Campaign.sol\":2389:2406  limiteconsomation */\n      dup5\n        /* \"Campaign.sol\":2215:2456  CampaignInfo({... */\n      dup2\n      mstore\n      0x20\n      add\n        /* \"Campaign.sol\":2434:2444  joursOffre */\n      dup4\n        /* \"Campaign.sol\":2215:2456  CampaignInfo({... */\n      dup2\n      mstore\n      pop\n        /* \"Campaign.sol\":2181:2456  CampaignInfo memory newCampaign = CampaignInfo({... */\n      swap1\n      pop\n        /* \"Campaign.sol\":2467:2476  campaigns */\n      0x00\n        /* \"Campaign.sol\":2482:2493  newCampaign */\n      dup2\n        /* \"Campaign.sol\":2467:2494  campaigns.push(newCampaign) */\n      swap1\n      dup1\n      0x01\n      dup2\n      sload\n      add\n      dup1\n      dup3\n      sstore\n      dup1\n      swap2\n      pop\n      pop\n      0x01\n      swap1\n      sub\n      swap1\n      0x00\n      mstore\n      keccak256(0x00, 0x20)\n      swap1\n      0x05\n      mul\n      add\n      0x00\n      swap1\n      swap2\n      swap1\n      swap2\n      swap1\n      swap2\n      pop\n      0x00\n      dup3\n      add\n      mload\n      dup2\n      0x00\n      add\n      exp(0x0100, 0x00)\n      dup2\n      sload\n      dup2\n      0xffffffffffffffffffffffffffffffffffffffff\n      mul\n      not\n      and\n      swap1\n      dup4\n      0xffffffffffffffffffffffffffffffffffffffff\n      and\n      mul\n      or\n      swap1\n      sstore\n      pop\n      0x20\n      dup3\n      add\n      mload\n      dup2\n      0x01\n      add\n      sstore\n      0x40\n      dup3\n      add\n      mload\n      dup2\n      0x02\n      add\n      swap1\n      dup2\n      tag_223\n      swap2\n      swap1\n      tag_224\n      jump\t// in\n    tag_223:\n      pop\n      0x60\n      dup3\n      add\n      mload\n      dup2\n      0x03\n      add\n      sstore\n      0x80\n      dup3\n      add\n      mload\n      dup2\n      0x04\n      add\n      sstore\n      pop\n      pop\n        /* \"Campaign.sol\":2042:2502  {... */\n      pop\n        /* \"Campaign.sol\":1899:2502  function createCampaign(address projectOwner, uint consomationYear, string memory description, uint limiteconsomation, uint joursOffre) public {... */\n      pop\n      pop\n      pop\n      pop\n      pop\n      jump\t// out\n        /* \"Campaign.sol\":685:714  uint256 public nombreChambres */\n    tag_84:\n      sload(0x04)\n      dup2\n      jump\t// out\n        /* \"Campaign.sol\":5550:5880  function ajouterPartenaire(string memory _nomPartenaire) public {... */\n    tag_89:\n        /* \"Campaign.sol\":5625:5654  Partenaire storage partenaire */\n      0x00\n        /* \"Campaign.sol\":5657:5668  partenaires */\n      0x07\n        /* \"Campaign.sol\":5657:5675  partenaires.push() */\n      0x01\n      dup2\n      0x01\n      dup2\n      sload\n      add\n      dup1\n      dup3\n      sstore\n      dup1\n      swap2\n      pop\n      pop\n      sub\n      swap1\n      0x00\n      mstore\n      keccak256(0x00, 0x20)\n      swap1\n      0x03\n      mul\n      add\n        /* \"Campaign.sol\":5625:5675  Partenaire storage partenaire = partenaires.push() */\n      swap1\n      pop\n        /* \"Campaign.sol\":5713:5727  _nomPartenaire */\n      dup2\n        /* \"Campaign.sol\":5686:5696  partenaire */\n      dup2\n        /* \"Campaign.sol\":5686:5710  partenaire.nomPartenaire */\n      0x00\n      add\n        /* \"Campaign.sol\":5686:5727  partenaire.nomPartenaire = _nomPartenaire */\n      swap1\n      dup2\n      tag_227\n      swap2\n      swap1\n      tag_224\n      jump\t// in\n    tag_227:\n      pop\n        /* \"Campaign.sol\":5769:5779  msg.sender */\n      caller\n        /* \"Campaign.sol\":5738:5748  partenaire */\n      dup2\n        /* \"Campaign.sol\":5738:5766  partenaire.PartenaireAddress */\n      0x01\n      add\n      0x00\n        /* \"Campaign.sol\":5738:5779  partenaire.PartenaireAddress = msg.sender */\n      0x0100\n      exp\n      dup2\n      sload\n      dup2\n      0xffffffffffffffffffffffffffffffffffffffff\n      mul\n      not\n      and\n      swap1\n      dup4\n      0xffffffffffffffffffffffffffffffffffffffff\n      and\n      mul\n      or\n      swap1\n      sstore\n      pop\n        /* \"Campaign.sol\":5790:5800  uint index */\n      0x00\n        /* \"Campaign.sol\":5824:5825  1 */\n      0x01\n        /* \"Campaign.sol\":5803:5814  partenaires */\n      0x07\n        /* \"Campaign.sol\":5803:5821  partenaires.length */\n      dup1\n      sload\n      swap1\n      pop\n        /* \"Campaign.sol\":5803:5825  partenaires.length - 1 */\n      tag_228\n      swap2\n      swap1\n      tag_179\n      jump\t// in\n    tag_228:\n        /* \"Campaign.sol\":5790:5825  uint index = partenaires.length - 1 */\n      swap1\n      pop\n        /* \"Campaign.sol\":5867:5872  index */\n      dup1\n        /* \"Campaign.sol\":5836:5852  listePartenaires */\n      0x08\n        /* \"Campaign.sol\":5836:5864  listePartenaires[msg.sender] */\n      0x00\n        /* \"Campaign.sol\":5853:5863  msg.sender */\n      caller\n        /* \"Campaign.sol\":5836:5864  listePartenaires[msg.sender] */\n      0xffffffffffffffffffffffffffffffffffffffff\n      and\n      0xffffffffffffffffffffffffffffffffffffffff\n      and\n      dup2\n      mstore\n      0x20\n      add\n      swap1\n      dup2\n      mstore\n      0x20\n      add\n      0x00\n      keccak256\n        /* \"Campaign.sol\":5836:5872  listePartenaires[msg.sender] = index */\n      dup2\n      swap1\n      sstore\n      pop\n        /* \"Campaign.sol\":5614:5880  {... */\n      pop\n      pop\n        /* \"Campaign.sol\":5550:5880  function ajouterPartenaire(string memory _nomPartenaire) public {... */\n      pop\n      jump\t// out\n        /* \"Campaign.sol\":1676:1698  address public manager */\n    tag_92:\n      0x0b\n      0x00\n      swap1\n      sload\n      swap1\n      0x0100\n      exp\n      swap1\n      div\n      0xffffffffffffffffffffffffffffffffffffffff\n      and\n      dup2\n      jump\t// out\n        /* \"Campaign.sol\":1215:1263  mapping(address => uint) public listePartenaires */\n    tag_98:\n      mstore(0x20, 0x08)\n      dup1\n      0x00\n      mstore\n      keccak256(0x00, 0x40)\n      0x00\n      swap2\n      pop\n      swap1\n      pop\n      sload\n      dup2\n      jump\t// out\n        /* \"Campaign.sol\":5264:5542  function getConsommationParAppareil(uint256 index) public view returns (string memory, uint256) {... */\n    tag_103:\n        /* \"Campaign.sol\":5336:5349  string memory */\n      0x60\n        /* \"Campaign.sol\":5351:5358  uint256 */\n      0x00\n        /* \"Campaign.sol\":5387:5402  nombreAppareils */\n      sload(0x06)\n        /* \"Campaign.sol\":5379:5384  index */\n      dup4\n        /* \"Campaign.sol\":5379:5402  index < nombreAppareils */\n      lt\n        /* \"Campaign.sol\":5371:5421  require(index < nombreAppareils, \"Index invalide\") */\n      tag_230\n      jumpi\n      mload(0x40)\n      0x08c379a000000000000000000000000000000000000000000000000000000000\n      dup2\n      mstore\n      0x04\n      add\n      tag_231\n      swap1\n      tag_232\n      jump\t// in\n    tag_231:\n      mload(0x40)\n      dup1\n      swap2\n      sub\n      swap1\n      revert\n    tag_230:\n        /* \"Campaign.sol\":5440:5449  appareils */\n      0x05\n        /* \"Campaign.sol\":5440:5456  appareils[index] */\n      0x00\n        /* \"Campaign.sol\":5450:5455  index */\n      dup5\n        /* \"Campaign.sol\":5440:5456  appareils[index] */\n      dup2\n      mstore\n      0x20\n      add\n      swap1\n      dup2\n      mstore\n      0x20\n      add\n      0x00\n      keccak256\n        /* \"Campaign.sol\":5440:5468  appareils[index].nomAppareil */\n      0x00\n      add\n        /* \"Campaign.sol\":5499:5508  appareils */\n      0x05\n        /* \"Campaign.sol\":5499:5515  appareils[index] */\n      0x00\n        /* \"Campaign.sol\":5509:5514  index */\n      dup6\n        /* \"Campaign.sol\":5499:5515  appareils[index] */\n      dup2\n      mstore\n      0x20\n      add\n      swap1\n      dup2\n      mstore\n      0x20\n      add\n      0x00\n      keccak256\n        /* \"Campaign.sol\":5499:5533  appareils[index].heuresUtilisation */\n      0x02\n      add\n      sload\n        /* \"Campaign.sol\":5470:5479  appareils */\n      0x05\n        /* \"Campaign.sol\":5470:5486  appareils[index] */\n      0x00\n        /* \"Campaign.sol\":5480:5485  index */\n      dup7\n        /* \"Campaign.sol\":5470:5486  appareils[index] */\n      dup2\n      mstore\n      0x20\n      add\n      swap1\n      dup2\n      mstore\n      0x20\n      add\n      0x00\n      keccak256\n        /* \"Campaign.sol\":5470:5496  appareils[index].puissance */\n      0x01\n      add\n      sload\n        /* \"Campaign.sol\":5470:5533  appareils[index].puissance * appareils[index].heuresUtilisation */\n      tag_233\n      swap2\n      swap1\n      tag_183\n      jump\t// in\n    tag_233:\n        /* \"Campaign.sol\":5432:5534  return (appareils[index].nomAppareil, appareils[index].puissance * appareils[index].heuresUtilisation) */\n      dup2\n      dup1\n      sload\n      tag_234\n      swap1\n      tag_204\n      jump\t// in\n    tag_234:\n      dup1\n      0x1f\n      add\n      0x20\n      dup1\n      swap2\n      div\n      mul\n      0x20\n      add\n      mload(0x40)\n      swap1\n      dup2\n      add\n      0x40\n      mstore\n      dup1\n      swap3\n      swap2\n      swap1\n      dup2\n      dup2\n      mstore\n      0x20\n      add\n      dup3\n      dup1\n      sload\n      tag_235\n      swap1\n      tag_204\n      jump\t// in\n    tag_235:\n      dup1\n      iszero\n      tag_236\n      jumpi\n      dup1\n      0x1f\n      lt\n      tag_237\n      jumpi\n      0x0100\n      dup1\n      dup4\n      sload\n      div\n      mul\n      dup4\n      mstore\n      swap2\n      0x20\n      add\n      swap2\n      jump(tag_236)\n    tag_237:\n      dup3\n      add\n      swap2\n      swap1\n      0x00\n      mstore\n      keccak256(0x00, 0x20)\n      swap1\n    tag_238:\n      dup2\n      sload\n      dup2\n      mstore\n      swap1\n      0x01\n      add\n      swap1\n      0x20\n      add\n      dup1\n      dup4\n      gt\n      tag_238\n      jumpi\n      dup3\n      swap1\n      sub\n      0x1f\n      and\n      dup3\n      add\n      swap2\n    tag_236:\n      pop\n      pop\n      pop\n      pop\n      pop\n      swap2\n      pop\n      swap2\n      pop\n      swap2\n      pop\n        /* \"Campaign.sol\":5264:5542  function getConsommationParAppareil(uint256 index) public view returns (string memory, uint256) {... */\n      swap2\n      pop\n      swap2\n      jump\t// out\n        /* \"Campaign.sol\":2510:2607  function getCampaignCount() public view returns (uint) {... */\n    tag_108:\n        /* \"Campaign.sol\":2559:2563  uint */\n      0x00\n        /* \"Campaign.sol\":2583:2592  campaigns */\n      dup1\n        /* \"Campaign.sol\":2583:2599  campaigns.length */\n      dup1\n      sload\n      swap1\n      pop\n        /* \"Campaign.sol\":2576:2599  return campaigns.length */\n      swap1\n      pop\n        /* \"Campaign.sol\":2510:2607  function getCampaignCount() public view returns (uint) {... */\n      swap1\n      jump\t// out\n        /* \"Campaign.sol\":650:678  uint256 public surfaceMaison */\n    tag_112:\n      sload(0x03)\n      dup2\n      jump\t// out\n        /* \"Campaign.sol\":1644:1669  Request[] public requests */\n    tag_117:\n      0x0a\n      dup2\n      dup2\n      sload\n      dup2\n      lt\n      tag_240\n      jumpi\n      0x00\n      dup1\n      revert\n    tag_240:\n      swap1\n      0x00\n      mstore\n      keccak256(0x00, 0x20)\n      swap1\n      0x05\n      mul\n      add\n      0x00\n      swap2\n      pop\n      swap1\n      pop\n      dup1\n      0x00\n      add\n      dup1\n      sload\n      tag_242\n      swap1\n      tag_204\n      jump\t// in\n    tag_242:\n      dup1\n      0x1f\n      add\n      0x20\n      dup1\n      swap2\n      div\n      mul\n      0x20\n      add\n      mload(0x40)\n      swap1\n      dup2\n      add\n      0x40\n      mstore\n      dup1\n      swap3\n      swap2\n      swap1\n      dup2\n      dup2\n      mstore\n      0x20\n      add\n      dup3\n      dup1\n      sload\n      tag_243\n      swap1\n      tag_204\n      jump\t// in\n    tag_243:\n      dup1\n      iszero\n      tag_244\n      jumpi\n      dup1\n      0x1f\n      lt\n      tag_245\n      jumpi\n      0x0100\n      dup1\n      dup4\n      sload\n      div\n      mul\n      dup4\n      mstore\n      swap2\n      0x20\n      add\n      swap2\n      jump(tag_244)\n    tag_245:\n      dup3\n      add\n      swap2\n      swap1\n      0x00\n      mstore\n      keccak256(0x00, 0x20)\n      swap1\n    tag_246:\n      dup2\n      sload\n      dup2\n      mstore\n      swap1\n      0x01\n      add\n      swap1\n      0x20\n      add\n      dup1\n      dup4\n      gt\n      tag_246\n      jumpi\n      dup3\n      swap1\n      sub\n      0x1f\n      and\n      dup3\n      add\n      swap2\n    tag_244:\n      pop\n      pop\n      pop\n      pop\n      pop\n      swap1\n      dup1\n      0x01\n      add\n      sload\n      swap1\n      dup1\n      0x02\n      add\n      0x00\n      swap1\n      sload\n      swap1\n      0x0100\n      exp\n      swap1\n      div\n      0xffffffffffffffffffffffffffffffffffffffff\n      and\n      swap1\n      dup1\n      0x02\n      add\n      0x14\n      swap1\n      sload\n      swap1\n      0x0100\n      exp\n      swap1\n      div\n      0xff\n      and\n      swap1\n      dup1\n      0x04\n      add\n      sload\n      swap1\n      pop\n      dup6\n      jump\t// out\n        /* \"Campaign.sol\":2615:2826  function createOfferPAr(string memory description) public {... */\n    tag_123:\n        /* \"Campaign.sol\":2684:2713  PartnerOffer storage newOffre */\n      0x00\n        /* \"Campaign.sol\":2716:2729  PartnerOffers */\n      0x09\n        /* \"Campaign.sol\":2716:2736  PartnerOffers.push() */\n      0x01\n      dup2\n      0x01\n      dup2\n      sload\n      add\n      dup1\n      dup3\n      sstore\n      dup1\n      swap2\n      pop\n      pop\n      sub\n      swap1\n      0x00\n      mstore\n      keccak256(0x00, 0x20)\n      swap1\n      0x03\n      mul\n      add\n        /* \"Campaign.sol\":2684:2736  PartnerOffer storage newOffre = PartnerOffers.push() */\n      swap1\n      pop\n        /* \"Campaign.sol\":2770:2781  description */\n      dup2\n        /* \"Campaign.sol\":2747:2755  newOffre */\n      dup2\n        /* \"Campaign.sol\":2747:2767  newOffre.description */\n      0x00\n      add\n        /* \"Campaign.sol\":2747:2781  newOffre.description = description */\n      swap1\n      dup2\n      tag_249\n      swap2\n      swap1\n      tag_224\n      jump\t// in\n    tag_249:\n      pop\n        /* \"Campaign.sol\":2813:2818  false */\n      0x00\n        /* \"Campaign.sol\":2792:2800  newOffre */\n      dup2\n        /* \"Campaign.sol\":2792:2810  newOffre.choixPart */\n      0x01\n      add\n      0x00\n        /* \"Campaign.sol\":2792:2818  newOffre.choixPart = false */\n      0x0100\n      exp\n      dup2\n      sload\n      dup2\n      0xff\n      mul\n      not\n      and\n      swap1\n      dup4\n      iszero\n      iszero\n      mul\n      or\n      swap1\n      sstore\n      pop\n        /* \"Campaign.sol\":2673:2826  {... */\n      pop\n        /* \"Campaign.sol\":2615:2826  function createOfferPAr(string memory description) public {... */\n      pop\n      jump\t// out\n        /* \"Campaign.sol\":2834:3201  function createRequest(string memory description, uint256 value, address recipient) public restricted {... */\n    tag_128:\n        /* \"Campaign.sol\":1863:1870  manager */\n      0x0b\n      0x00\n      swap1\n      sload\n      swap1\n      0x0100\n      exp\n      swap1\n      div\n      0xffffffffffffffffffffffffffffffffffffffff\n      and\n        /* \"Campaign.sol\":1851:1870  msg.sender==manager */\n      0xffffffffffffffffffffffffffffffffffffffff\n      and\n        /* \"Campaign.sol\":1851:1861  msg.sender */\n      caller\n        /* \"Campaign.sol\":1851:1870  msg.sender==manager */\n      0xffffffffffffffffffffffffffffffffffffffff\n      and\n      eq\n        /* \"Campaign.sol\":1843:1871  require(msg.sender==manager) */\n      tag_251\n      jumpi\n      0x00\n      dup1\n      revert\n    tag_251:\n        /* \"Campaign.sol\":2947:2973  Request storage newRequest */\n      0x00\n        /* \"Campaign.sol\":2976:2984  requests */\n      0x0a\n        /* \"Campaign.sol\":2976:2991  requests.push() */\n      0x01\n      dup2\n      0x01\n      dup2\n      sload\n      add\n      dup1\n      dup3\n      sstore\n      dup1\n      swap2\n      pop\n      pop\n      sub\n      swap1\n      0x00\n      mstore\n      keccak256(0x00, 0x20)\n      swap1\n      0x05\n      mul\n      add\n        /* \"Campaign.sol\":2947:2991  Request storage newRequest = requests.push() */\n      swap1\n      pop\n        /* \"Campaign.sol\":3027:3038  description */\n      dup4\n        /* \"Campaign.sol\":3002:3012  newRequest */\n      dup2\n        /* \"Campaign.sol\":3002:3024  newRequest.description */\n      0x00\n      add\n        /* \"Campaign.sol\":3002:3038  newRequest.description = description */\n      swap1\n      dup2\n      tag_254\n      swap2\n      swap1\n      tag_224\n      jump\t// in\n    tag_254:\n      pop\n        /* \"Campaign.sol\":3068:3073  value */\n      dup3\n        /* \"Campaign.sol\":3049:3059  newRequest */\n      dup2\n        /* \"Campaign.sol\":3049:3065  newRequest.value */\n      0x01\n      add\n        /* \"Campaign.sol\":3049:3073  newRequest.value = value */\n      dup2\n      swap1\n      sstore\n      pop\n        /* \"Campaign.sol\":3107:3116  recipient */\n      dup2\n        /* \"Campaign.sol\":3084:3094  newRequest */\n      dup2\n        /* \"Campaign.sol\":3084:3104  newRequest.recipient */\n      0x02\n      add\n      0x00\n        /* \"Campaign.sol\":3084:3116  newRequest.recipient = recipient */\n      0x0100\n      exp\n      dup2\n      sload\n      dup2\n      0xffffffffffffffffffffffffffffffffffffffff\n      mul\n      not\n      and\n      swap1\n      dup4\n      0xffffffffffffffffffffffffffffffffffffffff\n      and\n      mul\n      or\n      swap1\n      sstore\n      pop\n        /* \"Campaign.sol\":3149:3154  false */\n      0x00\n        /* \"Campaign.sol\":3127:3137  newRequest */\n      dup2\n        /* \"Campaign.sol\":3127:3146  newRequest.complete */\n      0x02\n      add\n      0x14\n        /* \"Campaign.sol\":3127:3154  newRequest.complete = false */\n      0x0100\n      exp\n      dup2\n      sload\n      dup2\n      0xff\n      mul\n      not\n      and\n      swap1\n      dup4\n      iszero\n      iszero\n      mul\n      or\n      swap1\n      sstore\n      pop\n        /* \"Campaign.sol\":3192:3193  0 */\n      0x00\n        /* \"Campaign.sol\":3165:3175  newRequest */\n      dup2\n        /* \"Campaign.sol\":3165:3189  newRequest.approvalCount */\n      0x04\n      add\n        /* \"Campaign.sol\":3165:3193  newRequest.approvalCount = 0 */\n      dup2\n      swap1\n      sstore\n      pop\n        /* \"Campaign.sol\":2936:3201  {... */\n      pop\n        /* \"Campaign.sol\":2834:3201  function createRequest(string memory description, uint256 value, address recipient) public restricted {... */\n      pop\n      pop\n      pop\n      jump\t// out\n        /* \"Campaign.sol\":4777:5256  function ajouterAppareil(string memory _nomAppareil, uint256 _puissance, uint256 _heuresUtilisation) public {... */\n    tag_133:\n        /* \"Campaign.sol\":4953:4981  uint256 consommationAppareil */\n      0x00\n        /* \"Campaign.sol\":4997:5015  _heuresUtilisation */\n      dup2\n        /* \"Campaign.sol\":4984:4994  _puissance */\n      dup4\n        /* \"Campaign.sol\":4984:5015  _puissance * _heuresUtilisation */\n      tag_256\n      swap2\n      swap1\n      tag_183\n      jump\t// in\n    tag_256:\n        /* \"Campaign.sol\":4953:5015  uint256 consommationAppareil = _puissance * _heuresUtilisation */\n      swap1\n      pop\n        /* \"Campaign.sol\":5048:5068  consommationAppareil */\n      dup1\n        /* \"Campaign.sol\":5026:5044  consommationTotale */\n      0x01\n      0x00\n        /* \"Campaign.sol\":5026:5068  consommationTotale += consommationAppareil */\n      dup3\n      dup3\n      sload\n      tag_257\n      swap2\n      swap1\n      tag_177\n      jump\t// in\n    tag_257:\n      swap3\n      pop\n      pop\n      dup2\n      swap1\n      sstore\n      pop\n        /* \"Campaign.sol\":5166:5220  Appareil(_nomAppareil, _puissance, _heuresUtilisation) */\n      mload(0x40)\n      dup1\n      0x60\n      add\n      0x40\n      mstore\n      dup1\n        /* \"Campaign.sol\":5175:5187  _nomAppareil */\n      dup6\n        /* \"Campaign.sol\":5166:5220  Appareil(_nomAppareil, _puissance, _heuresUtilisation) */\n      dup2\n      mstore\n      0x20\n      add\n        /* \"Campaign.sol\":5189:5199  _puissance */\n      dup5\n        /* \"Campaign.sol\":5166:5220  Appareil(_nomAppareil, _puissance, _heuresUtilisation) */\n      dup2\n      mstore\n      0x20\n      add\n        /* \"Campaign.sol\":5201:5219  _heuresUtilisation */\n      dup4\n        /* \"Campaign.sol\":5166:5220  Appareil(_nomAppareil, _puissance, _heuresUtilisation) */\n      dup2\n      mstore\n      pop\n        /* \"Campaign.sol\":5137:5146  appareils */\n      0x05\n        /* \"Campaign.sol\":5137:5163  appareils[nombreAppareils] */\n      0x00\n        /* \"Campaign.sol\":5147:5162  nombreAppareils */\n      sload(0x06)\n        /* \"Campaign.sol\":5137:5163  appareils[nombreAppareils] */\n      dup2\n      mstore\n      0x20\n      add\n      swap1\n      dup2\n      mstore\n      0x20\n      add\n      0x00\n      keccak256\n        /* \"Campaign.sol\":5137:5220  appareils[nombreAppareils] = Appareil(_nomAppareil, _puissance, _heuresUtilisation) */\n      0x00\n      dup3\n      add\n      mload\n      dup2\n      0x00\n      add\n      swap1\n      dup2\n      tag_258\n      swap2\n      swap1\n      tag_224\n      jump\t// in\n    tag_258:\n      pop\n      0x20\n      dup3\n      add\n      mload\n      dup2\n      0x01\n      add\n      sstore\n      0x40\n      dup3\n      add\n      mload\n      dup2\n      0x02\n      add\n      sstore\n      swap1\n      pop\n      pop\n        /* \"Campaign.sol\":5231:5246  nombreAppareils */\n      0x06\n      0x00\n        /* \"Campaign.sol\":5231:5248  nombreAppareils++ */\n      dup2\n      sload\n      dup1\n      swap3\n      swap2\n      swap1\n      tag_259\n      swap1\n      tag_260\n      jump\t// in\n    tag_259:\n      swap2\n      swap1\n      pop\n      sstore\n      pop\n        /* \"Campaign.sol\":4885:5256  {... */\n      pop\n        /* \"Campaign.sol\":4777:5256  function ajouterAppareil(string memory _nomAppareil, uint256 _puissance, uint256 _heuresUtilisation) public {... */\n      pop\n      pop\n      pop\n      jump\t// out\n        /* \"Campaign.sol\":721:766  mapping(uint256 => Appareil) public appareils */\n    tag_137:\n      mstore(0x20, 0x05)\n      dup1\n      0x00\n      mstore\n      keccak256(0x00, 0x40)\n      0x00\n      swap2\n      pop\n      swap1\n      pop\n      dup1\n      0x00\n      add\n      dup1\n      sload\n      tag_261\n      swap1\n      tag_204\n      jump\t// in\n    tag_261:\n      dup1\n      0x1f\n      add\n      0x20\n      dup1\n      swap2\n      div\n      mul\n      0x20\n      add\n      mload(0x40)\n      swap1\n      dup2\n      add\n      0x40\n      mstore\n      dup1\n      swap3\n      swap2\n      swap1\n      dup2\n      dup2\n      mstore\n      0x20\n      add\n      dup3\n      dup1\n      sload\n      tag_262\n      swap1\n      tag_204\n      jump\t// in\n    tag_262:\n      dup1\n      iszero\n      tag_263\n      jumpi\n      dup1\n      0x1f\n      lt\n      tag_264\n      jumpi\n      0x0100\n      dup1\n      dup4\n      sload\n      div\n      mul\n      dup4\n      mstore\n      swap2\n      0x20\n      add\n      swap2\n      jump(tag_263)\n    tag_264:\n      dup3\n      add\n      swap2\n      swap1\n      0x00\n      mstore\n      keccak256(0x00, 0x20)\n      swap1\n    tag_265:\n      dup2\n      sload\n      dup2\n      mstore\n      swap1\n      0x01\n      add\n      swap1\n      0x20\n      add\n      dup1\n      dup4\n      gt\n      tag_265\n      jumpi\n      dup3\n      swap1\n      sub\n      0x1f\n      and\n      dup3\n      add\n      swap2\n    tag_263:\n      pop\n      pop\n      pop\n      pop\n      pop\n      swap1\n      dup1\n      0x01\n      add\n      sload\n      swap1\n      dup1\n      0x02\n      add\n      sload\n      swap1\n      pop\n      dup4\n      jump\t// out\n        /* \"Campaign.sol\":1175:1206  Partenaire[] public partenaires */\n    tag_143:\n      0x07\n      dup2\n      dup2\n      sload\n      dup2\n      lt\n      tag_266\n      jumpi\n      0x00\n      dup1\n      revert\n    tag_266:\n      swap1\n      0x00\n      mstore\n      keccak256(0x00, 0x20)\n      swap1\n      0x03\n      mul\n      add\n      0x00\n      swap2\n      pop\n      swap1\n      pop\n      dup1\n      0x00\n      add\n      dup1\n      sload\n      tag_268\n      swap1\n      tag_204\n      jump\t// in\n    tag_268:\n      dup1\n      0x1f\n      add\n      0x20\n      dup1\n      swap2\n      div\n      mul\n      0x20\n      add\n      mload(0x40)\n      swap1\n      dup2\n      add\n      0x40\n      mstore\n      dup1\n      swap3\n      swap2\n      swap1\n      dup2\n      dup2\n      mstore\n      0x20\n      add\n      dup3\n      dup1\n      sload\n      tag_269\n      swap1\n      tag_204\n      jump\t// in\n    tag_269:\n      dup1\n      iszero\n      tag_270\n      jumpi\n      dup1\n      0x1f\n      lt\n      tag_271\n      jumpi\n      0x0100\n      dup1\n      dup4\n      sload\n      div\n      mul\n      dup4\n      mstore\n      swap2\n      0x20\n      add\n      swap2\n      jump(tag_270)\n    tag_271:\n      dup3\n      add\n      swap2\n      swap1\n      0x00\n      mstore\n      keccak256(0x00, 0x20)\n      swap1\n    tag_272:\n      dup2\n      sload\n      dup2\n      mstore\n      swap1\n      0x01\n      add\n      swap1\n      0x20\n      add\n      dup1\n      dup4\n      gt\n      tag_272\n      jumpi\n      dup3\n      swap1\n      sub\n      0x1f\n      and\n      dup3\n      add\n      swap2\n    tag_270:\n      pop\n      pop\n      pop\n      pop\n      pop\n      swap1\n      dup1\n      0x01\n      add\n      0x00\n      swap1\n      sload\n      swap1\n      0x0100\n      exp\n      swap1\n      div\n      0xffffffffffffffffffffffffffffffffffffffff\n      and\n      swap1\n      pop\n      dup3\n      jump\t// out\n        /* \"Campaign.sol\":5888:6157  function ajouterMarquePanneau( string memory _nomMarque, uint256 _prix, uint256 _production) public {... */\n    tag_149:\n        /* \"Campaign.sol\":5999:6028  Partenaire storage partenaire */\n      0x00\n        /* \"Campaign.sol\":6031:6042  partenaires */\n      0x07\n        /* \"Campaign.sol\":6043:6059  listePartenaires */\n      0x08\n        /* \"Campaign.sol\":6043:6071  listePartenaires[msg.sender] */\n      0x00\n        /* \"Campaign.sol\":6060:6070  msg.sender */\n      caller\n        /* \"Campaign.sol\":6043:6071  listePartenaires[msg.sender] */\n      0xffffffffffffffffffffffffffffffffffffffff\n      and\n      0xffffffffffffffffffffffffffffffffffffffff\n      and\n      dup2\n      mstore\n      0x20\n      add\n      swap1\n      dup2\n      mstore\n      0x20\n      add\n      0x00\n      keccak256\n      sload\n        /* \"Campaign.sol\":6031:6072  partenaires[listePartenaires[msg.sender]] */\n      dup2\n      sload\n      dup2\n      lt\n      tag_274\n      jumpi\n      tag_275\n      tag_189\n      jump\t// in\n    tag_275:\n    tag_274:\n      swap1\n      0x00\n      mstore\n      keccak256(0x00, 0x20)\n      swap1\n      0x03\n      mul\n      add\n        /* \"Campaign.sol\":5999:6072  Partenaire storage partenaire = partenaires[listePartenaires[msg.sender]] */\n      swap1\n      pop\n        /* \"Campaign.sol\":6116:6149  MarquePanneau(_prix, _production) */\n      mload(0x40)\n      dup1\n      0x40\n      add\n      0x40\n      mstore\n      dup1\n        /* \"Campaign.sol\":6130:6135  _prix */\n      dup5\n        /* \"Campaign.sol\":6116:6149  MarquePanneau(_prix, _production) */\n      dup2\n      mstore\n      0x20\n      add\n        /* \"Campaign.sol\":6137:6148  _production */\n      dup4\n        /* \"Campaign.sol\":6116:6149  MarquePanneau(_prix, _production) */\n      dup2\n      mstore\n      pop\n        /* \"Campaign.sol\":6083:6093  partenaire */\n      dup2\n        /* \"Campaign.sol\":6083:6101  partenaire.marques */\n      0x02\n      add\n        /* \"Campaign.sol\":6102:6112  _nomMarque */\n      dup6\n        /* \"Campaign.sol\":6083:6113  partenaire.marques[_nomMarque] */\n      mload(0x40)\n      tag_277\n      swap2\n      swap1\n      tag_217\n      jump\t// in\n    tag_277:\n      swap1\n      dup2\n      mstore\n      0x20\n      add\n      mload(0x40)\n      dup1\n      swap2\n      sub\n      swap1\n      keccak256\n        /* \"Campaign.sol\":6083:6149  partenaire.marques[_nomMarque] = MarquePanneau(_prix, _production) */\n      0x00\n      dup3\n      add\n      mload\n      dup2\n      0x00\n      add\n      sstore\n      0x20\n      dup3\n      add\n      mload\n      dup2\n      0x01\n      add\n      sstore\n      swap1\n      pop\n      pop\n        /* \"Campaign.sol\":5988:6157  {... */\n      pop\n        /* \"Campaign.sol\":5888:6157  function ajouterMarquePanneau( string memory _nomMarque, uint256 _prix, uint256 _production) public {... */\n      pop\n      pop\n      pop\n      jump\t// out\n        /* \"Campaign.sol\":1602:1637  PartnerOffer[] public PartnerOffers */\n    tag_153:\n      0x09\n      dup2\n      dup2\n      sload\n      dup2\n      lt\n      tag_278\n      jumpi\n      0x00\n      dup1\n      revert\n    tag_278:\n      swap1\n      0x00\n      mstore\n      keccak256(0x00, 0x20)\n      swap1\n      0x03\n      mul\n      add\n      0x00\n      swap2\n      pop\n      swap1\n      pop\n      dup1\n      0x00\n      add\n      dup1\n      sload\n      tag_280\n      swap1\n      tag_204\n      jump\t// in\n    tag_280:\n      dup1\n      0x1f\n      add\n      0x20\n      dup1\n      swap2\n      div\n      mul\n      0x20\n      add\n      mload(0x40)\n      swap1\n      dup2\n      add\n      0x40\n      mstore\n      dup1\n      swap3\n      swap2\n      swap1\n      dup2\n      dup2\n      mstore\n      0x20\n      add\n      dup3\n      dup1\n      sload\n      tag_281\n      swap1\n      tag_204\n      jump\t// in\n    tag_281:\n      dup1\n      iszero\n      tag_282\n      jumpi\n      dup1\n      0x1f\n      lt\n      tag_283\n      jumpi\n      0x0100\n      dup1\n      dup4\n      sload\n      div\n      mul\n      dup4\n      mstore\n      swap2\n      0x20\n      add\n      swap2\n      jump(tag_282)\n    tag_283:\n      dup3\n      add\n      swap2\n      swap1\n      0x00\n      mstore\n      keccak256(0x00, 0x20)\n      swap1\n    tag_284:\n      dup2\n      sload\n      dup2\n      mstore\n      swap1\n      0x01\n      add\n      swap1\n      0x20\n      add\n      dup1\n      dup4\n      gt\n      tag_284\n      jumpi\n      dup3\n      swap1\n      sub\n      0x1f\n      and\n      dup3\n      add\n      swap2\n    tag_282:\n      pop\n      pop\n      pop\n      pop\n      pop\n      swap1\n      dup1\n      0x01\n      add\n      0x00\n      swap1\n      sload\n      swap1\n      0x0100\n      exp\n      swap1\n      div\n      0xff\n      and\n      swap1\n      pop\n      dup3\n      jump\t// out\n        /* \"Campaign.sol\":573:606  uint256 public consommationTotale */\n    tag_158:\n      sload(0x01)\n      dup2\n      jump\t// out\n        /* \"Campaign.sol\":3209:3389  function contribute() public payable returns(uint){... */\n    tag_161:\n        /* \"Campaign.sol\":3254:3258  uint */\n      0x00\n        /* \"Campaign.sol\":3288:3289  0 */\n      dup1\n        /* \"Campaign.sol\":3278:3287  msg.value */\n      callvalue\n        /* \"Campaign.sol\":3278:3289  msg.value>0 */\n      gt\n        /* \"Campaign.sol\":3270:3290  require(msg.value>0) */\n      tag_286\n      jumpi\n      0x00\n      dup1\n      revert\n    tag_286:\n        /* \"Campaign.sol\":3323:3327  true */\n      0x01\n        /* \"Campaign.sol\":3301:3310  approvers */\n      0x0c\n        /* \"Campaign.sol\":3301:3322  approvers[msg.sender] */\n      0x00\n        /* \"Campaign.sol\":3311:3321  msg.sender */\n      caller\n        /* \"Campaign.sol\":3301:3322  approvers[msg.sender] */\n      0xffffffffffffffffffffffffffffffffffffffff\n      and\n      0xffffffffffffffffffffffffffffffffffffffff\n      and\n      dup2\n      mstore\n      0x20\n      add\n      swap1\n      dup2\n      mstore\n      0x20\n      add\n      0x00\n      keccak256\n      0x00\n        /* \"Campaign.sol\":3301:3327  approvers[msg.sender]=true */\n      0x0100\n      exp\n      dup2\n      sload\n      dup2\n      0xff\n      mul\n      not\n      and\n      swap1\n      dup4\n      iszero\n      iszero\n      mul\n      or\n      swap1\n      sstore\n      pop\n        /* \"Campaign.sol\":3338:3350  approvsCount */\n      0x0d\n      0x00\n        /* \"Campaign.sol\":3338:3352  approvsCount++ */\n      dup2\n      sload\n      dup1\n      swap3\n      swap2\n      swap1\n      tag_287\n      swap1\n      tag_260\n      jump\t// in\n    tag_287:\n      swap2\n      swap1\n      pop\n      sstore\n      pop\n        /* \"Campaign.sol\":3370:3379  msg.value */\n      callvalue\n        /* \"Campaign.sol\":3363:3379  return msg.value */\n      swap1\n      pop\n        /* \"Campaign.sol\":3209:3389  function contribute() public payable returns(uint){... */\n      swap1\n      jump\t// out\n        /* \"Campaign.sol\":3395:3672  function approveRequest(uint index)public {... */\n    tag_166:\n        /* \"Campaign.sol\":3448:3471  Request storage request */\n      0x00\n        /* \"Campaign.sol\":3473:3481  requests */\n      0x0a\n        /* \"Campaign.sol\":3482:3487  index */\n      dup3\n        /* \"Campaign.sol\":3473:3488  requests[index] */\n      dup2\n      sload\n      dup2\n      lt\n      tag_289\n      jumpi\n      tag_290\n      tag_189\n      jump\t// in\n    tag_290:\n    tag_289:\n      swap1\n      0x00\n      mstore\n      keccak256(0x00, 0x20)\n      swap1\n      0x05\n      mul\n      add\n        /* \"Campaign.sol\":3448:3488  Request storage request =requests[index] */\n      swap1\n      pop\n        /* \"Campaign.sol\":3509:3518  approvers */\n      0x0c\n        /* \"Campaign.sol\":3509:3530  approvers[msg.sender] */\n      0x00\n        /* \"Campaign.sol\":3519:3529  msg.sender */\n      caller\n        /* \"Campaign.sol\":3509:3530  approvers[msg.sender] */\n      0xffffffffffffffffffffffffffffffffffffffff\n      and\n      0xffffffffffffffffffffffffffffffffffffffff\n      and\n      dup2\n      mstore\n      0x20\n      add\n      swap1\n      dup2\n      mstore\n      0x20\n      add\n      0x00\n      keccak256\n      0x00\n      swap1\n      sload\n      swap1\n      0x0100\n      exp\n      swap1\n      div\n      0xff\n      and\n        /* \"Campaign.sol\":3501:3531  require(approvers[msg.sender]) */\n      tag_292\n      jumpi\n      0x00\n      dup1\n      revert\n    tag_292:\n        /* \"Campaign.sol\":3551:3558  request */\n      dup1\n        /* \"Campaign.sol\":3551:3568  request.approvals */\n      0x03\n      add\n        /* \"Campaign.sol\":3551:3580  request.approvals[msg.sender] */\n      0x00\n        /* \"Campaign.sol\":3569:3579  msg.sender */\n      caller\n        /* \"Campaign.sol\":3551:3580  request.approvals[msg.sender] */\n      0xffffffffffffffffffffffffffffffffffffffff\n      and\n      0xffffffffffffffffffffffffffffffffffffffff\n      and\n      dup2\n      mstore\n      0x20\n      add\n      swap1\n      dup2\n      mstore\n      0x20\n      add\n      0x00\n      keccak256\n      0x00\n      swap1\n      sload\n      swap1\n      0x0100\n      exp\n      swap1\n      div\n      0xff\n      and\n        /* \"Campaign.sol\":3550:3580  !request.approvals[msg.sender] */\n      iszero\n        /* \"Campaign.sol\":3542:3581  require(!request.approvals[msg.sender]) */\n      tag_293\n      jumpi\n      0x00\n      dup1\n      revert\n    tag_293:\n        /* \"Campaign.sol\":3622:3626  true */\n      0x01\n        /* \"Campaign.sol\":3592:3599  request */\n      dup2\n        /* \"Campaign.sol\":3592:3609  request.approvals */\n      0x03\n      add\n        /* \"Campaign.sol\":3592:3621  request.approvals[msg.sender] */\n      0x00\n        /* \"Campaign.sol\":3610:3620  msg.sender */\n      caller\n        /* \"Campaign.sol\":3592:3621  request.approvals[msg.sender] */\n      0xffffffffffffffffffffffffffffffffffffffff\n      and\n      0xffffffffffffffffffffffffffffffffffffffff\n      and\n      dup2\n      mstore\n      0x20\n      add\n      swap1\n      dup2\n      mstore\n      0x20\n      add\n      0x00\n      keccak256\n      0x00\n        /* \"Campaign.sol\":3592:3626  request.approvals[msg.sender]=true */\n      0x0100\n      exp\n      dup2\n      sload\n      dup2\n      0xff\n      mul\n      not\n      and\n      swap1\n      dup4\n      iszero\n      iszero\n      mul\n      or\n      swap1\n      sstore\n      pop\n        /* \"Campaign.sol\":3637:3644  request */\n      dup1\n        /* \"Campaign.sol\":3637:3658  request.approvalCount */\n      0x04\n      add\n      0x00\n        /* \"Campaign.sol\":3637:3661  request.approvalCount ++ */\n      dup2\n      sload\n      dup1\n      swap3\n      swap2\n      swap1\n      tag_294\n      swap1\n      tag_260\n      jump\t// in\n    tag_294:\n      swap2\n      swap1\n      pop\n      sstore\n      pop\n        /* \"Campaign.sol\":3437:3672  {... */\n      pop\n        /* \"Campaign.sol\":3395:3672  function approveRequest(uint index)public {... */\n      pop\n      jump\t// out\n        /* \"Campaign.sol\":1753:1777  uint public approvsCount */\n    tag_169:\n      sload(0x0d)\n      dup2\n      jump\t// out\n        /* \"Campaign.sol\":613:643  uint256 public nombrePersonnes */\n    tag_173:\n      sload(0x02)\n      dup2\n      jump\t// out\n        /* \"#utility.yul\":7:82   */\n    tag_295:\n        /* \"#utility.yul\":40:46   */\n      0x00\n        /* \"#utility.yul\":73:75   */\n      0x40\n        /* \"#utility.yul\":67:76   */\n      mload\n        /* \"#utility.yul\":57:76   */\n      swap1\n      pop\n        /* \"#utility.yul\":7:82   */\n      swap1\n      jump\t// out\n        /* \"#utility.yul\":88:205   */\n    tag_296:\n        /* \"#utility.yul\":197:198   */\n      0x00\n        /* \"#utility.yul\":194:195   */\n      dup1\n        /* \"#utility.yul\":187:199   */\n      revert\n        /* \"#utility.yul\":211:328   */\n    tag_297:\n        /* \"#utility.yul\":320:321   */\n      0x00\n        /* \"#utility.yul\":317:318   */\n      dup1\n        /* \"#utility.yul\":310:322   */\n      revert\n        /* \"#utility.yul\":334:411   */\n    tag_298:\n        /* \"#utility.yul\":371:378   */\n      0x00\n        /* \"#utility.yul\":400:405   */\n      dup2\n        /* \"#utility.yul\":389:405   */\n      swap1\n      pop\n        /* \"#utility.yul\":334:411   */\n      swap2\n      swap1\n      pop\n      jump\t// out\n        /* \"#utility.yul\":417:539   */\n    tag_299:\n        /* \"#utility.yul\":490:514   */\n      tag_355\n        /* \"#utility.yul\":508:513   */\n      dup2\n        /* \"#utility.yul\":490:514   */\n      tag_298\n      jump\t// in\n    tag_355:\n        /* \"#utility.yul\":483:488   */\n      dup2\n        /* \"#utility.yul\":480:515   */\n      eq\n        /* \"#utility.yul\":470:533   */\n      tag_356\n      jumpi\n        /* \"#utility.yul\":529:530   */\n      0x00\n        /* \"#utility.yul\":526:527   */\n      dup1\n        /* \"#utility.yul\":519:531   */\n      revert\n        /* \"#utility.yul\":470:533   */\n    tag_356:\n        /* \"#utility.yul\":417:539   */\n      pop\n      jump\t// out\n        /* \"#utility.yul\":545:684   */\n    tag_300:\n        /* \"#utility.yul\":591:596   */\n      0x00\n        /* \"#utility.yul\":629:635   */\n      dup2\n        /* \"#utility.yul\":616:636   */\n      calldataload\n        /* \"#utility.yul\":607:636   */\n      swap1\n      pop\n        /* \"#utility.yul\":645:678   */\n      tag_358\n        /* \"#utility.yul\":672:677   */\n      dup2\n        /* \"#utility.yul\":645:678   */\n      tag_299\n      jump\t// in\n    tag_358:\n        /* \"#utility.yul\":545:684   */\n      swap3\n      swap2\n      pop\n      pop\n      jump\t// out\n        /* \"#utility.yul\":690:1309   */\n    tag_40:\n        /* \"#utility.yul\":767:773   */\n      0x00\n        /* \"#utility.yul\":775:781   */\n      dup1\n        /* \"#utility.yul\":783:789   */\n      0x00\n        /* \"#utility.yul\":832:834   */\n      0x60\n        /* \"#utility.yul\":820:829   */\n      dup5\n        /* \"#utility.yul\":811:818   */\n      dup7\n        /* \"#utility.yul\":807:830   */\n      sub\n        /* \"#utility.yul\":803:835   */\n      slt\n        /* \"#utility.yul\":800:919   */\n      iszero\n      tag_360\n      jumpi\n        /* \"#utility.yul\":838:917   */\n      tag_361\n      tag_296\n      jump\t// in\n    tag_361:\n        /* \"#utility.yul\":800:919   */\n    tag_360:\n        /* \"#utility.yul\":958:959   */\n      0x00\n        /* \"#utility.yul\":983:1036   */\n      tag_362\n        /* \"#utility.yul\":1028:1035   */\n      dup7\n        /* \"#utility.yul\":1019:1025   */\n      dup3\n        /* \"#utility.yul\":1008:1017   */\n      dup8\n        /* \"#utility.yul\":1004:1026   */\n      add\n        /* \"#utility.yul\":983:1036   */\n      tag_300\n      jump\t// in\n    tag_362:\n        /* \"#utility.yul\":973:1036   */\n      swap4\n      pop\n        /* \"#utility.yul\":929:1046   */\n      pop\n        /* \"#utility.yul\":1085:1087   */\n      0x20\n        /* \"#utility.yul\":1111:1164   */\n      tag_363\n        /* \"#utility.yul\":1156:1163   */\n      dup7\n        /* \"#utility.yul\":1147:1153   */\n      dup3\n        /* \"#utility.yul\":1136:1145   */\n      dup8\n        /* \"#utility.yul\":1132:1154   */\n      add\n        /* \"#utility.yul\":1111:1164   */\n      tag_300\n      jump\t// in\n    tag_363:\n        /* \"#utility.yul\":1101:1164   */\n      swap3\n      pop\n        /* \"#utility.yul\":1056:1174   */\n      pop\n        /* \"#utility.yul\":1213:1215   */\n      0x40\n        /* \"#utility.yul\":1239:1292   */\n      tag_364\n        /* \"#utility.yul\":1284:1291   */\n      dup7\n        /* \"#utility.yul\":1275:1281   */\n      dup3\n        /* \"#utility.yul\":1264:1273   */\n      dup8\n        /* \"#utility.yul\":1260:1282   */\n      add\n        /* \"#utility.yul\":1239:1292   */\n      tag_300\n      jump\t// in\n    tag_364:\n        /* \"#utility.yul\":1229:1292   */\n      swap2\n      pop\n        /* \"#utility.yul\":1184:1302   */\n      pop\n        /* \"#utility.yul\":690:1309   */\n      swap3\n      pop\n      swap3\n      pop\n      swap3\n      jump\t// out\n        /* \"#utility.yul\":1315:1433   */\n    tag_301:\n        /* \"#utility.yul\":1402:1426   */\n      tag_366\n        /* \"#utility.yul\":1420:1425   */\n      dup2\n        /* \"#utility.yul\":1402:1426   */\n      tag_298\n      jump\t// in\n    tag_366:\n        /* \"#utility.yul\":1397:1400   */\n      dup3\n        /* \"#utility.yul\":1390:1427   */\n      mstore\n        /* \"#utility.yul\":1315:1433   */\n      pop\n      pop\n      jump\t// out\n        /* \"#utility.yul\":1439:1661   */\n    tag_43:\n        /* \"#utility.yul\":1532:1536   */\n      0x00\n        /* \"#utility.yul\":1570:1572   */\n      0x20\n        /* \"#utility.yul\":1559:1568   */\n      dup3\n        /* \"#utility.yul\":1555:1573   */\n      add\n        /* \"#utility.yul\":1547:1573   */\n      swap1\n      pop\n        /* \"#utility.yul\":1583:1654   */\n      tag_368\n        /* \"#utility.yul\":1651:1652   */\n      0x00\n        /* \"#utility.yul\":1640:1649   */\n      dup4\n        /* \"#utility.yul\":1636:1653   */\n      add\n        /* \"#utility.yul\":1627:1633   */\n      dup5\n        /* \"#utility.yul\":1583:1654   */\n      tag_301\n      jump\t// in\n    tag_368:\n        /* \"#utility.yul\":1439:1661   */\n      swap3\n      swap2\n      pop\n      pop\n      jump\t// out\n        /* \"#utility.yul\":1667:1996   */\n    tag_47:\n        /* \"#utility.yul\":1726:1732   */\n      0x00\n        /* \"#utility.yul\":1775:1777   */\n      0x20\n        /* \"#utility.yul\":1763:1772   */\n      dup3\n        /* \"#utility.yul\":1754:1761   */\n      dup5\n        /* \"#utility.yul\":1750:1773   */\n      sub\n        /* \"#utility.yul\":1746:1778   */\n      slt\n        /* \"#utility.yul\":1743:1862   */\n      iszero\n      tag_370\n      jumpi\n        /* \"#utility.yul\":1781:1860   */\n      tag_371\n      tag_296\n      jump\t// in\n    tag_371:\n        /* \"#utility.yul\":1743:1862   */\n    tag_370:\n        /* \"#utility.yul\":1901:1902   */\n      0x00\n        /* \"#utility.yul\":1926:1979   */\n      tag_372\n        /* \"#utility.yul\":1971:1978   */\n      dup5\n        /* \"#utility.yul\":1962:1968   */\n      dup3\n        /* \"#utility.yul\":1951:1960   */\n      dup6\n        /* \"#utility.yul\":1947:1969   */\n      add\n        /* \"#utility.yul\":1926:1979   */\n      tag_300\n      jump\t// in\n    tag_372:\n        /* \"#utility.yul\":1916:1979   */\n      swap2\n      pop\n        /* \"#utility.yul\":1872:1989   */\n      pop\n        /* \"#utility.yul\":1667:1996   */\n      swap3\n      swap2\n      pop\n      pop\n      jump\t// out\n        /* \"#utility.yul\":2002:2128   */\n    tag_302:\n        /* \"#utility.yul\":2039:2046   */\n      0x00\n        /* \"#utility.yul\":2079:2121   */\n      0xffffffffffffffffffffffffffffffffffffffff\n        /* \"#utility.yul\":2072:2077   */\n      dup3\n        /* \"#utility.yul\":2068:2122   */\n      and\n        /* \"#utility.yul\":2057:2122   */\n      swap1\n      pop\n        /* \"#utility.yul\":2002:2128   */\n      swap2\n      swap1\n      pop\n      jump\t// out\n        /* \"#utility.yul\":2134:2230   */\n    tag_303:\n        /* \"#utility.yul\":2171:2178   */\n      0x00\n        /* \"#utility.yul\":2200:2224   */\n      tag_375\n        /* \"#utility.yul\":2218:2223   */\n      dup3\n        /* \"#utility.yul\":2200:2224   */\n      tag_302\n      jump\t// in\n    tag_375:\n        /* \"#utility.yul\":2189:2224   */\n      swap1\n      pop\n        /* \"#utility.yul\":2134:2230   */\n      swap2\n      swap1\n      pop\n      jump\t// out\n        /* \"#utility.yul\":2236:2358   */\n    tag_304:\n        /* \"#utility.yul\":2309:2333   */\n      tag_377\n        /* \"#utility.yul\":2327:2332   */\n      dup2\n        /* \"#utility.yul\":2309:2333   */\n      tag_303\n      jump\t// in\n    tag_377:\n        /* \"#utility.yul\":2302:2307   */\n      dup2\n        /* \"#utility.yul\":2299:2334   */\n      eq\n        /* \"#utility.yul\":2289:2352   */\n      tag_378\n      jumpi\n        /* \"#utility.yul\":2348:2349   */\n      0x00\n        /* \"#utility.yul\":2345:2346   */\n      dup1\n        /* \"#utility.yul\":2338:2350   */\n      revert\n        /* \"#utility.yul\":2289:2352   */\n    tag_378:\n        /* \"#utility.yul\":2236:2358   */\n      pop\n      jump\t// out\n        /* \"#utility.yul\":2364:2503   */\n    tag_305:\n        /* \"#utility.yul\":2410:2415   */\n      0x00\n        /* \"#utility.yul\":2448:2454   */\n      dup2\n        /* \"#utility.yul\":2435:2455   */\n      calldataload\n        /* \"#utility.yul\":2426:2455   */\n      swap1\n      pop\n        /* \"#utility.yul\":2464:2497   */\n      tag_380\n        /* \"#utility.yul\":2491:2496   */\n      dup2\n        /* \"#utility.yul\":2464:2497   */\n      tag_304\n      jump\t// in\n    tag_380:\n        /* \"#utility.yul\":2364:2503   */\n      swap3\n      swap2\n      pop\n      pop\n      jump\t// out\n        /* \"#utility.yul\":2509:2838   */\n    tag_56:\n        /* \"#utility.yul\":2568:2574   */\n      0x00\n        /* \"#utility.yul\":2617:2619   */\n      0x20\n        /* \"#utility.yul\":2605:2614   */\n      dup3\n        /* \"#utility.yul\":2596:2603   */\n      dup5\n        /* \"#utility.yul\":2592:2615   */\n      sub\n        /* \"#utility.yul\":2588:2620   */\n      slt\n        /* \"#utility.yul\":2585:2704   */\n      iszero\n      tag_382\n      jumpi\n        /* \"#utility.yul\":2623:2702   */\n      tag_383\n      tag_296\n      jump\t// in\n    tag_383:\n        /* \"#utility.yul\":2585:2704   */\n    tag_382:\n        /* \"#utility.yul\":2743:2744   */\n      0x00\n        /* \"#utility.yul\":2768:2821   */\n      tag_384\n        /* \"#utility.yul\":2813:2820   */\n      dup5\n        /* \"#utility.yul\":2804:2810   */\n      dup3\n        /* \"#utility.yul\":2793:2802   */\n      dup6\n        /* \"#utility.yul\":2789:2811   */\n      add\n        /* \"#utility.yul\":2768:2821   */\n      tag_305\n      jump\t// in\n    tag_384:\n        /* \"#utility.yul\":2758:2821   */\n      swap2\n      pop\n        /* \"#utility.yul\":2714:2831   */\n      pop\n        /* \"#utility.yul\":2509:2838   */\n      swap3\n      swap2\n      pop\n      pop\n      jump\t// out\n        /* \"#utility.yul\":2844:2934   */\n    tag_306:\n        /* \"#utility.yul\":2878:2885   */\n      0x00\n        /* \"#utility.yul\":2921:2926   */\n      dup2\n        /* \"#utility.yul\":2914:2927   */\n      iszero\n        /* \"#utility.yul\":2907:2928   */\n      iszero\n        /* \"#utility.yul\":2896:2928   */\n      swap1\n      pop\n        /* \"#utility.yul\":2844:2934   */\n      swap2\n      swap1\n      pop\n      jump\t// out\n        /* \"#utility.yul\":2940:3049   */\n    tag_307:\n        /* \"#utility.yul\":3021:3042   */\n      tag_387\n        /* \"#utility.yul\":3036:3041   */\n      dup2\n        /* \"#utility.yul\":3021:3042   */\n      tag_306\n      jump\t// in\n    tag_387:\n        /* \"#utility.yul\":3016:3019   */\n      dup3\n        /* \"#utility.yul\":3009:3043   */\n      mstore\n        /* \"#utility.yul\":2940:3049   */\n      pop\n      pop\n      jump\t// out\n        /* \"#utility.yul\":3055:3265   */\n    tag_59:\n        /* \"#utility.yul\":3142:3146   */\n      0x00\n        /* \"#utility.yul\":3180:3182   */\n      0x20\n        /* \"#utility.yul\":3169:3178   */\n      dup3\n        /* \"#utility.yul\":3165:3183   */\n      add\n        /* \"#utility.yul\":3157:3183   */\n      swap1\n      pop\n        /* \"#utility.yul\":3193:3258   */\n      tag_389\n        /* \"#utility.yul\":3255:3256   */\n      0x00\n        /* \"#utility.yul\":3244:3253   */\n      dup4\n        /* \"#utility.yul\":3240:3257   */\n      add\n        /* \"#utility.yul\":3231:3237   */\n      dup5\n        /* \"#utility.yul\":3193:3258   */\n      tag_307\n      jump\t// in\n    tag_389:\n        /* \"#utility.yul\":3055:3265   */\n      swap3\n      swap2\n      pop\n      pop\n      jump\t// out\n        /* \"#utility.yul\":3271:3389   */\n    tag_308:\n        /* \"#utility.yul\":3358:3382   */\n      tag_391\n        /* \"#utility.yul\":3376:3381   */\n      dup2\n        /* \"#utility.yul\":3358:3382   */\n      tag_303\n      jump\t// in\n    tag_391:\n        /* \"#utility.yul\":3353:3356   */\n      dup3\n        /* \"#utility.yul\":3346:3383   */\n      mstore\n        /* \"#utility.yul\":3271:3389   */\n      pop\n      pop\n      jump\t// out\n        /* \"#utility.yul\":3395:3494   */\n    tag_309:\n        /* \"#utility.yul\":3447:3453   */\n      0x00\n        /* \"#utility.yul\":3481:3486   */\n      dup2\n        /* \"#utility.yul\":3475:3487   */\n      mload\n        /* \"#utility.yul\":3465:3487   */\n      swap1\n      pop\n        /* \"#utility.yul\":3395:3494   */\n      swap2\n      swap1\n      pop\n      jump\t// out\n        /* \"#utility.yul\":3500:3669   */\n    tag_310:\n        /* \"#utility.yul\":3584:3595   */\n      0x00\n        /* \"#utility.yul\":3618:3624   */\n      dup3\n        /* \"#utility.yul\":3613:3616   */\n      dup3\n        /* \"#utility.yul\":3606:3625   */\n      mstore\n        /* \"#utility.yul\":3658:3662   */\n      0x20\n        /* \"#utility.yul\":3653:3656   */\n      dup3\n        /* \"#utility.yul\":3649:3663   */\n      add\n        /* \"#utility.yul\":3634:3663   */\n      swap1\n      pop\n        /* \"#utility.yul\":3500:3669   */\n      swap3\n      swap2\n      pop\n      pop\n      jump\t// out\n        /* \"#utility.yul\":3675:3921   */\n    tag_311:\n        /* \"#utility.yul\":3756:3757   */\n      0x00\n        /* \"#utility.yul\":3766:3879   */\n    tag_395:\n        /* \"#utility.yul\":3780:3786   */\n      dup4\n        /* \"#utility.yul\":3777:3778   */\n      dup2\n        /* \"#utility.yul\":3774:3787   */\n      lt\n        /* \"#utility.yul\":3766:3879   */\n      iszero\n      tag_397\n      jumpi\n        /* \"#utility.yul\":3865:3866   */\n      dup1\n        /* \"#utility.yul\":3860:3863   */\n      dup3\n        /* \"#utility.yul\":3856:3867   */\n      add\n        /* \"#utility.yul\":3850:3868   */\n      mload\n        /* \"#utility.yul\":3846:3847   */\n      dup2\n        /* \"#utility.yul\":3841:3844   */\n      dup5\n        /* \"#utility.yul\":3837:3848   */\n      add\n        /* \"#utility.yul\":3830:3869   */\n      mstore\n        /* \"#utility.yul\":3802:3804   */\n      0x20\n        /* \"#utility.yul\":3799:3800   */\n      dup2\n        /* \"#utility.yul\":3795:3805   */\n      add\n        /* \"#utility.yul\":3790:3805   */\n      swap1\n      pop\n        /* \"#utility.yul\":3766:3879   */\n      jump(tag_395)\n    tag_397:\n        /* \"#utility.yul\":3913:3914   */\n      0x00\n        /* \"#utility.yul\":3904:3910   */\n      dup5\n        /* \"#utility.yul\":3899:3902   */\n      dup5\n        /* \"#utility.yul\":3895:3911   */\n      add\n        /* \"#utility.yul\":3888:3915   */\n      mstore\n        /* \"#utility.yul\":3737:3921   */\n      pop\n        /* \"#utility.yul\":3675:3921   */\n      pop\n      pop\n      pop\n      jump\t// out\n        /* \"#utility.yul\":3927:4029   */\n    tag_312:\n        /* \"#utility.yul\":3968:3974   */\n      0x00\n        /* \"#utility.yul\":4019:4021   */\n      0x1f\n        /* \"#utility.yul\":4015:4022   */\n      not\n        /* \"#utility.yul\":4010:4012   */\n      0x1f\n        /* \"#utility.yul\":4003:4008   */\n      dup4\n        /* \"#utility.yul\":3999:4013   */\n      add\n        /* \"#utility.yul\":3995:4023   */\n      and\n        /* \"#utility.yul\":3985:4023   */\n      swap1\n      pop\n        /* \"#utility.yul\":3927:4029   */\n      swap2\n      swap1\n      pop\n      jump\t// out\n        /* \"#utility.yul\":4035:4412   */\n    tag_313:\n        /* \"#utility.yul\":4123:4126   */\n      0x00\n        /* \"#utility.yul\":4151:4190   */\n      tag_400\n        /* \"#utility.yul\":4184:4189   */\n      dup3\n        /* \"#utility.yul\":4151:4190   */\n      tag_309\n      jump\t// in\n    tag_400:\n        /* \"#utility.yul\":4206:4277   */\n      tag_401\n        /* \"#utility.yul\":4270:4276   */\n      dup2\n        /* \"#utility.yul\":4265:4268   */\n      dup6\n        /* \"#utility.yul\":4206:4277   */\n      tag_310\n      jump\t// in\n    tag_401:\n        /* \"#utility.yul\":4199:4277   */\n      swap4\n      pop\n        /* \"#utility.yul\":4286:4351   */\n      tag_402\n        /* \"#utility.yul\":4344:4350   */\n      dup2\n        /* \"#utility.yul\":4339:4342   */\n      dup6\n        /* \"#utility.yul\":4332:4336   */\n      0x20\n        /* \"#utility.yul\":4325:4330   */\n      dup7\n        /* \"#utility.yul\":4321:4337   */\n      add\n        /* \"#utility.yul\":4286:4351   */\n      tag_311\n      jump\t// in\n    tag_402:\n        /* \"#utility.yul\":4376:4405   */\n      tag_403\n        /* \"#utility.yul\":4398:4404   */\n      dup2\n        /* \"#utility.yul\":4376:4405   */\n      tag_312\n      jump\t// in\n    tag_403:\n        /* \"#utility.yul\":4371:4374   */\n      dup5\n        /* \"#utility.yul\":4367:4406   */\n      add\n        /* \"#utility.yul\":4360:4406   */\n      swap2\n      pop\n        /* \"#utility.yul\":4127:4412   */\n      pop\n        /* \"#utility.yul\":4035:4412   */\n      swap3\n      swap2\n      pop\n      pop\n      jump\t// out\n        /* \"#utility.yul\":4418:5173   */\n    tag_65:\n        /* \"#utility.yul\":4643:4647   */\n      0x00\n        /* \"#utility.yul\":4681:4684   */\n      0xa0\n        /* \"#utility.yul\":4670:4679   */\n      dup3\n        /* \"#utility.yul\":4666:4685   */\n      add\n        /* \"#utility.yul\":4658:4685   */\n      swap1\n      pop\n        /* \"#utility.yul\":4695:4766   */\n      tag_405\n        /* \"#utility.yul\":4763:4764   */\n      0x00\n        /* \"#utility.yul\":4752:4761   */\n      dup4\n        /* \"#utility.yul\":4748:4765   */\n      add\n        /* \"#utility.yul\":4739:4745   */\n      dup9\n        /* \"#utility.yul\":4695:4766   */\n      tag_308\n      jump\t// in\n    tag_405:\n        /* \"#utility.yul\":4776:4848   */\n      tag_406\n        /* \"#utility.yul\":4844:4846   */\n      0x20\n        /* \"#utility.yul\":4833:4842   */\n      dup4\n        /* \"#utility.yul\":4829:4847   */\n      add\n        /* \"#utility.yul\":4820:4826   */\n      dup8\n        /* \"#utility.yul\":4776:4848   */\n      tag_301\n      jump\t// in\n    tag_406:\n        /* \"#utility.yul\":4895:4904   */\n      dup2\n        /* \"#utility.yul\":4889:4893   */\n      dup2\n        /* \"#utility.yul\":4885:4905   */\n      sub\n        /* \"#utility.yul\":4880:4882   */\n      0x40\n        /* \"#utility.yul\":4869:4878   */\n      dup4\n        /* \"#utility.yul\":4865:4883   */\n      add\n        /* \"#utility.yul\":4858:4906   */\n      mstore\n        /* \"#utility.yul\":4923:5001   */\n      tag_407\n        /* \"#utility.yul\":4996:5000   */\n      dup2\n        /* \"#utility.yul\":4987:4993   */\n      dup7\n        /* \"#utility.yul\":4923:5001   */\n      tag_313\n      jump\t// in\n    tag_407:\n        /* \"#utility.yul\":4915:5001   */\n      swap1\n      pop\n        /* \"#utility.yul\":5011:5083   */\n      tag_408\n        /* \"#utility.yul\":5079:5081   */\n      0x60\n        /* \"#utility.yul\":5068:5077   */\n      dup4\n        /* \"#utility.yul\":5064:5082   */\n      add\n        /* \"#utility.yul\":5055:5061   */\n      dup6\n        /* \"#utility.yul\":5011:5083   */\n      tag_301\n      jump\t// in\n    tag_408:\n        /* \"#utility.yul\":5093:5166   */\n      tag_409\n        /* \"#utility.yul\":5161:5164   */\n      0x80\n        /* \"#utility.yul\":5150:5159   */\n      dup4\n        /* \"#utility.yul\":5146:5165   */\n      add\n        /* \"#utility.yul\":5137:5143   */\n      dup5\n        /* \"#utility.yul\":5093:5166   */\n      tag_301\n      jump\t// in\n    tag_409:\n        /* \"#utility.yul\":4418:5173   */\n      swap7\n      swap6\n      pop\n      pop\n      pop\n      pop\n      pop\n      pop\n      jump\t// out\n        /* \"#utility.yul\":5179:5296   */\n    tag_314:\n        /* \"#utility.yul\":5288:5289   */\n      0x00\n        /* \"#utility.yul\":5285:5286   */\n      dup1\n        /* \"#utility.yul\":5278:5290   */\n      revert\n        /* \"#utility.yul\":5302:5419   */\n    tag_315:\n        /* \"#utility.yul\":5411:5412   */\n      0x00\n        /* \"#utility.yul\":5408:5409   */\n      dup1\n        /* \"#utility.yul\":5401:5413   */\n      revert\n        /* \"#utility.yul\":5425:5605   */\n    tag_316:\n        /* \"#utility.yul\":5473:5550   */\n      0x4e487b7100000000000000000000000000000000000000000000000000000000\n        /* \"#utility.yul\":5470:5471   */\n      0x00\n        /* \"#utility.yul\":5463:5551   */\n      mstore\n        /* \"#utility.yul\":5570:5574   */\n      0x41\n        /* \"#utility.yul\":5567:5568   */\n      0x04\n        /* \"#utility.yul\":5560:5575   */\n      mstore\n        /* \"#utility.yul\":5594:5598   */\n      0x24\n        /* \"#utility.yul\":5591:5592   */\n      0x00\n        /* \"#utility.yul\":5584:5599   */\n      revert\n        /* \"#utility.yul\":5611:5892   */\n    tag_317:\n        /* \"#utility.yul\":5694:5721   */\n      tag_414\n        /* \"#utility.yul\":5716:5720   */\n      dup3\n        /* \"#utility.yul\":5694:5721   */\n      tag_312\n      jump\t// in\n    tag_414:\n        /* \"#utility.yul\":5686:5692   */\n      dup2\n        /* \"#utility.yul\":5682:5722   */\n      add\n        /* \"#utility.yul\":5824:5830   */\n      dup2\n        /* \"#utility.yul\":5812:5822   */\n      dup2\n        /* \"#utility.yul\":5809:5831   */\n      lt\n        /* \"#utility.yul\":5788:5806   */\n      0xffffffffffffffff\n        /* \"#utility.yul\":5776:5786   */\n      dup3\n        /* \"#utility.yul\":5773:5807   */\n      gt\n        /* \"#utility.yul\":5770:5832   */\n      or\n        /* \"#utility.yul\":5767:5855   */\n      iszero\n      tag_415\n      jumpi\n        /* \"#utility.yul\":5835:5853   */\n      tag_416\n      tag_316\n      jump\t// in\n    tag_416:\n        /* \"#utility.yul\":5767:5855   */\n    tag_415:\n        /* \"#utility.yul\":5875:5885   */\n      dup1\n        /* \"#utility.yul\":5871:5873   */\n      0x40\n        /* \"#utility.yul\":5864:5886   */\n      mstore\n        /* \"#utility.yul\":5654:5892   */\n      pop\n        /* \"#utility.yul\":5611:5892   */\n      pop\n      pop\n      jump\t// out\n        /* \"#utility.yul\":5898:6027   */\n    tag_318:\n        /* \"#utility.yul\":5932:5938   */\n      0x00\n        /* \"#utility.yul\":5959:5979   */\n      tag_418\n      tag_295\n      jump\t// in\n    tag_418:\n        /* \"#utility.yul\":5949:5979   */\n      swap1\n      pop\n        /* \"#utility.yul\":5988:6021   */\n      tag_419\n        /* \"#utility.yul\":6016:6020   */\n      dup3\n        /* \"#utility.yul\":6008:6014   */\n      dup3\n        /* \"#utility.yul\":5988:6021   */\n      tag_317\n      jump\t// in\n    tag_419:\n        /* \"#utility.yul\":5898:6027   */\n      swap2\n      swap1\n      pop\n      jump\t// out\n        /* \"#utility.yul\":6033:6341   */\n    tag_319:\n        /* \"#utility.yul\":6095:6099   */\n      0x00\n        /* \"#utility.yul\":6185:6203   */\n      0xffffffffffffffff\n        /* \"#utility.yul\":6177:6183   */\n      dup3\n        /* \"#utility.yul\":6174:6204   */\n      gt\n        /* \"#utility.yul\":6171:6227   */\n      iszero\n      tag_421\n      jumpi\n        /* \"#utility.yul\":6207:6225   */\n      tag_422\n      tag_316\n      jump\t// in\n    tag_422:\n        /* \"#utility.yul\":6171:6227   */\n    tag_421:\n        /* \"#utility.yul\":6245:6274   */\n      tag_423\n        /* \"#utility.yul\":6267:6273   */\n      dup3\n        /* \"#utility.yul\":6245:6274   */\n      tag_312\n      jump\t// in\n    tag_423:\n        /* \"#utility.yul\":6237:6274   */\n      swap1\n      pop\n        /* \"#utility.yul\":6329:6333   */\n      0x20\n        /* \"#utility.yul\":6323:6327   */\n      dup2\n        /* \"#utility.yul\":6319:6334   */\n      add\n        /* \"#utility.yul\":6311:6334   */\n      swap1\n      pop\n        /* \"#utility.yul\":6033:6341   */\n      swap2\n      swap1\n      pop\n      jump\t// out\n        /* \"#utility.yul\":6347:6493   */\n    tag_320:\n        /* \"#utility.yul\":6444:6450   */\n      dup3\n        /* \"#utility.yul\":6439:6442   */\n      dup2\n        /* \"#utility.yul\":6434:6437   */\n      dup4\n        /* \"#utility.yul\":6421:6451   */\n      calldatacopy\n        /* \"#utility.yul\":6485:6486   */\n      0x00\n        /* \"#utility.yul\":6476:6482   */\n      dup4\n        /* \"#utility.yul\":6471:6474   */\n      dup4\n        /* \"#utility.yul\":6467:6483   */\n      add\n        /* \"#utility.yul\":6460:6487   */\n      mstore\n        /* \"#utility.yul\":6347:6493   */\n      pop\n      pop\n      pop\n      jump\t// out\n        /* \"#utility.yul\":6499:6924   */\n    tag_321:\n        /* \"#utility.yul\":6577:6582   */\n      0x00\n        /* \"#utility.yul\":6602:6668   */\n      tag_426\n        /* \"#utility.yul\":6618:6667   */\n      tag_427\n        /* \"#utility.yul\":6660:6666   */\n      dup5\n        /* \"#utility.yul\":6618:6667   */\n      tag_319\n      jump\t// in\n    tag_427:\n        /* \"#utility.yul\":6602:6668   */\n      tag_318\n      jump\t// in\n    tag_426:\n        /* \"#utility.yul\":6593:6668   */\n      swap1\n      pop\n        /* \"#utility.yul\":6691:6697   */\n      dup3\n        /* \"#utility.yul\":6684:6689   */\n      dup2\n        /* \"#utility.yul\":6677:6698   */\n      mstore\n        /* \"#utility.yul\":6729:6733   */\n      0x20\n        /* \"#utility.yul\":6722:6727   */\n      dup2\n        /* \"#utility.yul\":6718:6734   */\n      add\n        /* \"#utility.yul\":6767:6770   */\n      dup5\n        /* \"#utility.yul\":6758:6764   */\n      dup5\n        /* \"#utility.yul\":6753:6756   */\n      dup5\n        /* \"#utility.yul\":6749:6765   */\n      add\n        /* \"#utility.yul\":6746:6771   */\n      gt\n        /* \"#utility.yul\":6743:6855   */\n      iszero\n      tag_428\n      jumpi\n        /* \"#utility.yul\":6774:6853   */\n      tag_429\n      tag_315\n      jump\t// in\n    tag_429:\n        /* \"#utility.yul\":6743:6855   */\n    tag_428:\n        /* \"#utility.yul\":6864:6918   */\n      tag_430\n        /* \"#utility.yul\":6911:6917   */\n      dup5\n        /* \"#utility.yul\":6906:6909   */\n      dup3\n        /* \"#utility.yul\":6901:6904   */\n      dup6\n        /* \"#utility.yul\":6864:6918   */\n      tag_320\n      jump\t// in\n    tag_430:\n        /* \"#utility.yul\":6583:6924   */\n      pop\n        /* \"#utility.yul\":6499:6924   */\n      swap4\n      swap3\n      pop\n      pop\n      pop\n      jump\t// out\n        /* \"#utility.yul\":6944:7284   */\n    tag_322:\n        /* \"#utility.yul\":7000:7005   */\n      0x00\n        /* \"#utility.yul\":7049:7052   */\n      dup3\n        /* \"#utility.yul\":7042:7046   */\n      0x1f\n        /* \"#utility.yul\":7034:7040   */\n      dup4\n        /* \"#utility.yul\":7030:7047   */\n      add\n        /* \"#utility.yul\":7026:7053   */\n      slt\n        /* \"#utility.yul\":7016:7138   */\n      tag_432\n      jumpi\n        /* \"#utility.yul\":7057:7136   */\n      tag_433\n      tag_314\n      jump\t// in\n    tag_433:\n        /* \"#utility.yul\":7016:7138   */\n    tag_432:\n        /* \"#utility.yul\":7174:7180   */\n      dup2\n        /* \"#utility.yul\":7161:7181   */\n      calldataload\n        /* \"#utility.yul\":7199:7278   */\n      tag_434\n        /* \"#utility.yul\":7274:7277   */\n      dup5\n        /* \"#utility.yul\":7266:7272   */\n      dup3\n        /* \"#utility.yul\":7259:7263   */\n      0x20\n        /* \"#utility.yul\":7251:7257   */\n      dup7\n        /* \"#utility.yul\":7247:7264   */\n      add\n        /* \"#utility.yul\":7199:7278   */\n      tag_321\n      jump\t// in\n    tag_434:\n        /* \"#utility.yul\":7190:7278   */\n      swap2\n      pop\n        /* \"#utility.yul\":7006:7284   */\n      pop\n        /* \"#utility.yul\":6944:7284   */\n      swap3\n      swap2\n      pop\n      pop\n      jump\t// out\n        /* \"#utility.yul\":7290:7799   */\n    tag_73:\n        /* \"#utility.yul\":7359:7365   */\n      0x00\n        /* \"#utility.yul\":7408:7410   */\n      0x20\n        /* \"#utility.yul\":7396:7405   */\n      dup3\n        /* \"#utility.yul\":7387:7394   */\n      dup5\n        /* \"#utility.yul\":7383:7406   */\n      sub\n        /* \"#utility.yul\":7379:7411   */\n      slt\n        /* \"#utility.yul\":7376:7495   */\n      iszero\n      tag_436\n      jumpi\n        /* \"#utility.yul\":7414:7493   */\n      tag_437\n      tag_296\n      jump\t// in\n    tag_437:\n        /* \"#utility.yul\":7376:7495   */\n    tag_436:\n        /* \"#utility.yul\":7562:7563   */\n      0x00\n        /* \"#utility.yul\":7551:7560   */\n      dup3\n        /* \"#utility.yul\":7547:7564   */\n      add\n        /* \"#utility.yul\":7534:7565   */\n      calldataload\n        /* \"#utility.yul\":7592:7610   */\n      0xffffffffffffffff\n        /* \"#utility.yul\":7584:7590   */\n      dup2\n        /* \"#utility.yul\":7581:7611   */\n      gt\n        /* \"#utility.yul\":7578:7695   */\n      iszero\n      tag_438\n      jumpi\n        /* \"#utility.yul\":7614:7693   */\n      tag_439\n      tag_297\n      jump\t// in\n    tag_439:\n        /* \"#utility.yul\":7578:7695   */\n    tag_438:\n        /* \"#utility.yul\":7719:7782   */\n      tag_440\n        /* \"#utility.yul\":7774:7781   */\n      dup5\n        /* \"#utility.yul\":7765:7771   */\n      dup3\n        /* \"#utility.yul\":7754:7763   */\n      dup6\n        /* \"#utility.yul\":7750:7772   */\n      add\n        /* \"#utility.yul\":7719:7782   */\n      tag_322\n      jump\t// in\n    tag_440:\n        /* \"#utility.yul\":7709:7782   */\n      swap2\n      pop\n        /* \"#utility.yul\":7505:7792   */\n      pop\n        /* \"#utility.yul\":7290:7799   */\n      swap3\n      swap2\n      pop\n      pop\n      jump\t// out\n        /* \"#utility.yul\":7805:8137   */\n    tag_76:\n        /* \"#utility.yul\":7926:7930   */\n      0x00\n        /* \"#utility.yul\":7964:7966   */\n      0x40\n        /* \"#utility.yul\":7953:7962   */\n      dup3\n        /* \"#utility.yul\":7949:7967   */\n      add\n        /* \"#utility.yul\":7941:7967   */\n      swap1\n      pop\n        /* \"#utility.yul\":7977:8048   */\n      tag_442\n        /* \"#utility.yul\":8045:8046   */\n      0x00\n        /* \"#utility.yul\":8034:8043   */\n      dup4\n        /* \"#utility.yul\":8030:8047   */\n      add\n        /* \"#utility.yul\":8021:8027   */\n      dup6\n        /* \"#utility.yul\":7977:8048   */\n      tag_301\n      jump\t// in\n    tag_442:\n        /* \"#utility.yul\":8058:8130   */\n      tag_443\n        /* \"#utility.yul\":8126:8128   */\n      0x20\n        /* \"#utility.yul\":8115:8124   */\n      dup4\n        /* \"#utility.yul\":8111:8129   */\n      add\n        /* \"#utility.yul\":8102:8108   */\n      dup5\n        /* \"#utility.yul\":8058:8130   */\n      tag_301\n      jump\t// in\n    tag_443:\n        /* \"#utility.yul\":7805:8137   */\n      swap4\n      swap3\n      pop\n      pop\n      pop\n      jump\t// out\n        /* \"#utility.yul\":8143:9234   */\n    tag_80:\n        /* \"#utility.yul\":8248:8254   */\n      0x00\n        /* \"#utility.yul\":8256:8262   */\n      dup1\n        /* \"#utility.yul\":8264:8270   */\n      0x00\n        /* \"#utility.yul\":8272:8278   */\n      dup1\n        /* \"#utility.yul\":8280:8286   */\n      0x00\n        /* \"#utility.yul\":8329:8332   */\n      0xa0\n        /* \"#utility.yul\":8317:8326   */\n      dup7\n        /* \"#utility.yul\":8308:8315   */\n      dup9\n        /* \"#utility.yul\":8304:8327   */\n      sub\n        /* \"#utility.yul\":8300:8333   */\n      slt\n        /* \"#utility.yul\":8297:8417   */\n      iszero\n      tag_445\n      jumpi\n        /* \"#utility.yul\":8336:8415   */\n      tag_446\n      tag_296\n      jump\t// in\n    tag_446:\n        /* \"#utility.yul\":8297:8417   */\n    tag_445:\n        /* \"#utility.yul\":8456:8457   */\n      0x00\n        /* \"#utility.yul\":8481:8534   */\n      tag_447\n        /* \"#utility.yul\":8526:8533   */\n      dup9\n        /* \"#utility.yul\":8517:8523   */\n      dup3\n        /* \"#utility.yul\":8506:8515   */\n      dup10\n        /* \"#utility.yul\":8502:8524   */\n      add\n        /* \"#utility.yul\":8481:8534   */\n      tag_305\n      jump\t// in\n    tag_447:\n        /* \"#utility.yul\":8471:8534   */\n      swap6\n      pop\n        /* \"#utility.yul\":8427:8544   */\n      pop\n        /* \"#utility.yul\":8583:8585   */\n      0x20\n        /* \"#utility.yul\":8609:8662   */\n      tag_448\n        /* \"#utility.yul\":8654:8661   */\n      dup9\n        /* \"#utility.yul\":8645:8651   */\n      dup3\n        /* \"#utility.yul\":8634:8643   */\n      dup10\n        /* \"#utility.yul\":8630:8652   */\n      add\n        /* \"#utility.yul\":8609:8662   */\n      tag_300\n      jump\t// in\n    tag_448:\n        /* \"#utility.yul\":8599:8662   */\n      swap5\n      pop\n        /* \"#utility.yul\":8554:8672   */\n      pop\n        /* \"#utility.yul\":8739:8741   */\n      0x40\n        /* \"#utility.yul\":8728:8737   */\n      dup7\n        /* \"#utility.yul\":8724:8742   */\n      add\n        /* \"#utility.yul\":8711:8743   */\n      calldataload\n        /* \"#utility.yul\":8770:8788   */\n      0xffffffffffffffff\n        /* \"#utility.yul\":8762:8768   */\n      dup2\n        /* \"#utility.yul\":8759:8789   */\n      gt\n        /* \"#utility.yul\":8756:8873   */\n      iszero\n      tag_449\n      jumpi\n        /* \"#utility.yul\":8792:8871   */\n      tag_450\n      tag_297\n      jump\t// in\n    tag_450:\n        /* \"#utility.yul\":8756:8873   */\n    tag_449:\n        /* \"#utility.yul\":8897:8960   */\n      tag_451\n        /* \"#utility.yul\":8952:8959   */\n      dup9\n        /* \"#utility.yul\":8943:8949   */\n      dup3\n        /* \"#utility.yul\":8932:8941   */\n      dup10\n        /* \"#utility.yul\":8928:8950   */\n      add\n        /* \"#utility.yul\":8897:8960   */\n      tag_322\n      jump\t// in\n    tag_451:\n        /* \"#utility.yul\":8887:8960   */\n      swap4\n      pop\n        /* \"#utility.yul\":8682:8970   */\n      pop\n        /* \"#utility.yul\":9009:9011   */\n      0x60\n        /* \"#utility.yul\":9035:9088   */\n      tag_452\n        /* \"#utility.yul\":9080:9087   */\n      dup9\n        /* \"#utility.yul\":9071:9077   */\n      dup3\n        /* \"#utility.yul\":9060:9069   */\n      dup10\n        /* \"#utility.yul\":9056:9078   */\n      add\n        /* \"#utility.yul\":9035:9088   */\n      tag_300\n      jump\t// in\n    tag_452:\n        /* \"#utility.yul\":9025:9088   */\n      swap3\n      pop\n        /* \"#utility.yul\":8980:9098   */\n      pop\n        /* \"#utility.yul\":9137:9140   */\n      0x80\n        /* \"#utility.yul\":9164:9217   */\n      tag_453\n        /* \"#utility.yul\":9209:9216   */\n      dup9\n        /* \"#utility.yul\":9200:9206   */\n      dup3\n        /* \"#utility.yul\":9189:9198   */\n      dup10\n        /* \"#utility.yul\":9185:9207   */\n      add\n        /* \"#utility.yul\":9164:9217   */\n      tag_300\n      jump\t// in\n    tag_453:\n        /* \"#utility.yul\":9154:9217   */\n      swap2\n      pop\n        /* \"#utility.yul\":9108:9227   */\n      pop\n        /* \"#utility.yul\":8143:9234   */\n      swap3\n      swap6\n      pop\n      swap3\n      swap6\n      swap1\n      swap4\n      pop\n      jump\t// out\n        /* \"#utility.yul\":9240:9462   */\n    tag_94:\n        /* \"#utility.yul\":9333:9337   */\n      0x00\n        /* \"#utility.yul\":9371:9373   */\n      0x20\n        /* \"#utility.yul\":9360:9369   */\n      dup3\n        /* \"#utility.yul\":9356:9374   */\n      add\n        /* \"#utility.yul\":9348:9374   */\n      swap1\n      pop\n        /* \"#utility.yul\":9384:9455   */\n      tag_455\n        /* \"#utility.yul\":9452:9453   */\n      0x00\n        /* \"#utility.yul\":9441:9450   */\n      dup4\n        /* \"#utility.yul\":9437:9454   */\n      add\n        /* \"#utility.yul\":9428:9434   */\n      dup5\n        /* \"#utility.yul\":9384:9455   */\n      tag_308\n      jump\t// in\n    tag_455:\n        /* \"#utility.yul\":9240:9462   */\n      swap3\n      swap2\n      pop\n      pop\n      jump\t// out\n        /* \"#utility.yul\":9468:9891   */\n    tag_105:\n        /* \"#utility.yul\":9609:9613   */\n      0x00\n        /* \"#utility.yul\":9647:9649   */\n      0x40\n        /* \"#utility.yul\":9636:9645   */\n      dup3\n        /* \"#utility.yul\":9632:9650   */\n      add\n        /* \"#utility.yul\":9624:9650   */\n      swap1\n      pop\n        /* \"#utility.yul\":9696:9705   */\n      dup2\n        /* \"#utility.yul\":9690:9694   */\n      dup2\n        /* \"#utility.yul\":9686:9706   */\n      sub\n        /* \"#utility.yul\":9682:9683   */\n      0x00\n        /* \"#utility.yul\":9671:9680   */\n      dup4\n        /* \"#utility.yul\":9667:9684   */\n      add\n        /* \"#utility.yul\":9660:9707   */\n      mstore\n        /* \"#utility.yul\":9724:9802   */\n      tag_457\n        /* \"#utility.yul\":9797:9801   */\n      dup2\n        /* \"#utility.yul\":9788:9794   */\n      dup6\n        /* \"#utility.yul\":9724:9802   */\n      tag_313\n      jump\t// in\n    tag_457:\n        /* \"#utility.yul\":9716:9802   */\n      swap1\n      pop\n        /* \"#utility.yul\":9812:9884   */\n      tag_458\n        /* \"#utility.yul\":9880:9882   */\n      0x20\n        /* \"#utility.yul\":9869:9878   */\n      dup4\n        /* \"#utility.yul\":9865:9883   */\n      add\n        /* \"#utility.yul\":9856:9862   */\n      dup5\n        /* \"#utility.yul\":9812:9884   */\n      tag_301\n      jump\t// in\n    tag_458:\n        /* \"#utility.yul\":9468:9891   */\n      swap4\n      swap3\n      pop\n      pop\n      pop\n      jump\t// out\n        /* \"#utility.yul\":9897:10640   */\n    tag_119:\n        /* \"#utility.yul\":10116:10120   */\n      0x00\n        /* \"#utility.yul\":10154:10157   */\n      0xa0\n        /* \"#utility.yul\":10143:10152   */\n      dup3\n        /* \"#utility.yul\":10139:10158   */\n      add\n        /* \"#utility.yul\":10131:10158   */\n      swap1\n      pop\n        /* \"#utility.yul\":10204:10213   */\n      dup2\n        /* \"#utility.yul\":10198:10202   */\n      dup2\n        /* \"#utility.yul\":10194:10214   */\n      sub\n        /* \"#utility.yul\":10190:10191   */\n      0x00\n        /* \"#utility.yul\":10179:10188   */\n      dup4\n        /* \"#utility.yul\":10175:10192   */\n      add\n        /* \"#utility.yul\":10168:10215   */\n      mstore\n        /* \"#utility.yul\":10232:10310   */\n      tag_460\n        /* \"#utility.yul\":10305:10309   */\n      dup2\n        /* \"#utility.yul\":10296:10302   */\n      dup9\n        /* \"#utility.yul\":10232:10310   */\n      tag_313\n      jump\t// in\n    tag_460:\n        /* \"#utility.yul\":10224:10310   */\n      swap1\n      pop\n        /* \"#utility.yul\":10320:10392   */\n      tag_461\n        /* \"#utility.yul\":10388:10390   */\n      0x20\n        /* \"#utility.yul\":10377:10386   */\n      dup4\n        /* \"#utility.yul\":10373:10391   */\n      add\n        /* \"#utility.yul\":10364:10370   */\n      dup8\n        /* \"#utility.yul\":10320:10392   */\n      tag_301\n      jump\t// in\n    tag_461:\n        /* \"#utility.yul\":10402:10474   */\n      tag_462\n        /* \"#utility.yul\":10470:10472   */\n      0x40\n        /* \"#utility.yul\":10459:10468   */\n      dup4\n        /* \"#utility.yul\":10455:10473   */\n      add\n        /* \"#utility.yul\":10446:10452   */\n      dup7\n        /* \"#utility.yul\":10402:10474   */\n      tag_308\n      jump\t// in\n    tag_462:\n        /* \"#utility.yul\":10484:10550   */\n      tag_463\n        /* \"#utility.yul\":10546:10548   */\n      0x60\n        /* \"#utility.yul\":10535:10544   */\n      dup4\n        /* \"#utility.yul\":10531:10549   */\n      add\n        /* \"#utility.yul\":10522:10528   */\n      dup6\n        /* \"#utility.yul\":10484:10550   */\n      tag_307\n      jump\t// in\n    tag_463:\n        /* \"#utility.yul\":10560:10633   */\n      tag_464\n        /* \"#utility.yul\":10628:10631   */\n      0x80\n        /* \"#utility.yul\":10617:10626   */\n      dup4\n        /* \"#utility.yul\":10613:10632   */\n      add\n        /* \"#utility.yul\":10604:10610   */\n      dup5\n        /* \"#utility.yul\":10560:10633   */\n      tag_301\n      jump\t// in\n    tag_464:\n        /* \"#utility.yul\":9897:10640   */\n      swap7\n      swap6\n      pop\n      pop\n      pop\n      pop\n      pop\n      pop\n      jump\t// out\n        /* \"#utility.yul\":10646:11445   */\n    tag_127:\n        /* \"#utility.yul\":10733:10739   */\n      0x00\n        /* \"#utility.yul\":10741:10747   */\n      dup1\n        /* \"#utility.yul\":10749:10755   */\n      0x00\n        /* \"#utility.yul\":10798:10800   */\n      0x60\n        /* \"#utility.yul\":10786:10795   */\n      dup5\n        /* \"#utility.yul\":10777:10784   */\n      dup7\n        /* \"#utility.yul\":10773:10796   */\n      sub\n        /* \"#utility.yul\":10769:10801   */\n      slt\n        /* \"#utility.yul\":10766:10885   */\n      iszero\n      tag_466\n      jumpi\n        /* \"#utility.yul\":10804:10883   */\n      tag_467\n      tag_296\n      jump\t// in\n    tag_467:\n        /* \"#utility.yul\":10766:10885   */\n    tag_466:\n        /* \"#utility.yul\":10952:10953   */\n      0x00\n        /* \"#utility.yul\":10941:10950   */\n      dup5\n        /* \"#utility.yul\":10937:10954   */\n      add\n        /* \"#utility.yul\":10924:10955   */\n      calldataload\n        /* \"#utility.yul\":10982:11000   */\n      0xffffffffffffffff\n        /* \"#utility.yul\":10974:10980   */\n      dup2\n        /* \"#utility.yul\":10971:11001   */\n      gt\n        /* \"#utility.yul\":10968:11085   */\n      iszero\n      tag_468\n      jumpi\n        /* \"#utility.yul\":11004:11083   */\n      tag_469\n      tag_297\n      jump\t// in\n    tag_469:\n        /* \"#utility.yul\":10968:11085   */\n    tag_468:\n        /* \"#utility.yul\":11109:11172   */\n      tag_470\n        /* \"#utility.yul\":11164:11171   */\n      dup7\n        /* \"#utility.yul\":11155:11161   */\n      dup3\n        /* \"#utility.yul\":11144:11153   */\n      dup8\n        /* \"#utility.yul\":11140:11162   */\n      add\n        /* \"#utility.yul\":11109:11172   */\n      tag_322\n      jump\t// in\n    tag_470:\n        /* \"#utility.yul\":11099:11172   */\n      swap4\n      pop\n        /* \"#utility.yul\":10895:11182   */\n      pop\n        /* \"#utility.yul\":11221:11223   */\n      0x20\n        /* \"#utility.yul\":11247:11300   */\n      tag_471\n        /* \"#utility.yul\":11292:11299   */\n      dup7\n        /* \"#utility.yul\":11283:11289   */\n      dup3\n        /* \"#utility.yul\":11272:11281   */\n      dup8\n        /* \"#utility.yul\":11268:11290   */\n      add\n        /* \"#utility.yul\":11247:11300   */\n      tag_300\n      jump\t// in\n    tag_471:\n        /* \"#utility.yul\":11237:11300   */\n      swap3\n      pop\n        /* \"#utility.yul\":11192:11310   */\n      pop\n        /* \"#utility.yul\":11349:11351   */\n      0x40\n        /* \"#utility.yul\":11375:11428   */\n      tag_472\n        /* \"#utility.yul\":11420:11427   */\n      dup7\n        /* \"#utility.yul\":11411:11417   */\n      dup3\n        /* \"#utility.yul\":11400:11409   */\n      dup8\n        /* \"#utility.yul\":11396:11418   */\n      add\n        /* \"#utility.yul\":11375:11428   */\n      tag_305\n      jump\t// in\n    tag_472:\n        /* \"#utility.yul\":11365:11428   */\n      swap2\n      pop\n        /* \"#utility.yul\":11320:11438   */\n      pop\n        /* \"#utility.yul\":10646:11445   */\n      swap3\n      pop\n      swap3\n      pop\n      swap3\n      jump\t// out\n        /* \"#utility.yul\":11451:12250   */\n    tag_132:\n        /* \"#utility.yul\":11538:11544   */\n      0x00\n        /* \"#utility.yul\":11546:11552   */\n      dup1\n        /* \"#utility.yul\":11554:11560   */\n      0x00\n        /* \"#utility.yul\":11603:11605   */\n      0x60\n        /* \"#utility.yul\":11591:11600   */\n      dup5\n        /* \"#utility.yul\":11582:11589   */\n      dup7\n        /* \"#utility.yul\":11578:11601   */\n      sub\n        /* \"#utility.yul\":11574:11606   */\n      slt\n        /* \"#utility.yul\":11571:11690   */\n      iszero\n      tag_474\n      jumpi\n        /* \"#utility.yul\":11609:11688   */\n      tag_475\n      tag_296\n      jump\t// in\n    tag_475:\n        /* \"#utility.yul\":11571:11690   */\n    tag_474:\n        /* \"#utility.yul\":11757:11758   */\n      0x00\n        /* \"#utility.yul\":11746:11755   */\n      dup5\n        /* \"#utility.yul\":11742:11759   */\n      add\n        /* \"#utility.yul\":11729:11760   */\n      calldataload\n        /* \"#utility.yul\":11787:11805   */\n      0xffffffffffffffff\n        /* \"#utility.yul\":11779:11785   */\n      dup2\n        /* \"#utility.yul\":11776:11806   */\n      gt\n        /* \"#utility.yul\":11773:11890   */\n      iszero\n      tag_476\n      jumpi\n        /* \"#utility.yul\":11809:11888   */\n      tag_477\n      tag_297\n      jump\t// in\n    tag_477:\n        /* \"#utility.yul\":11773:11890   */\n    tag_476:\n        /* \"#utility.yul\":11914:11977   */\n      tag_478\n        /* \"#utility.yul\":11969:11976   */\n      dup7\n        /* \"#utility.yul\":11960:11966   */\n      dup3\n        /* \"#utility.yul\":11949:11958   */\n      dup8\n        /* \"#utility.yul\":11945:11967   */\n      add\n        /* \"#utility.yul\":11914:11977   */\n      tag_322\n      jump\t// in\n    tag_478:\n        /* \"#utility.yul\":11904:11977   */\n      swap4\n      pop\n        /* \"#utility.yul\":11700:11987   */\n      pop\n        /* \"#utility.yul\":12026:12028   */\n      0x20\n        /* \"#utility.yul\":12052:12105   */\n      tag_479\n        /* \"#utility.yul\":12097:12104   */\n      dup7\n        /* \"#utility.yul\":12088:12094   */\n      dup3\n        /* \"#utility.yul\":12077:12086   */\n      dup8\n        /* \"#utility.yul\":12073:12095   */\n      add\n        /* \"#utility.yul\":12052:12105   */\n      tag_300\n      jump\t// in\n    tag_479:\n        /* \"#utility.yul\":12042:12105   */\n      swap3\n      pop\n        /* \"#utility.yul\":11997:12115   */\n      pop\n        /* \"#utility.yul\":12154:12156   */\n      0x40\n        /* \"#utility.yul\":12180:12233   */\n      tag_480\n        /* \"#utility.yul\":12225:12232   */\n      dup7\n        /* \"#utility.yul\":12216:12222   */\n      dup3\n        /* \"#utility.yul\":12205:12214   */\n      dup8\n        /* \"#utility.yul\":12201:12223   */\n      add\n        /* \"#utility.yul\":12180:12233   */\n      tag_300\n      jump\t// in\n    tag_480:\n        /* \"#utility.yul\":12170:12233   */\n      swap2\n      pop\n        /* \"#utility.yul\":12125:12243   */\n      pop\n        /* \"#utility.yul\":11451:12250   */\n      swap3\n      pop\n      swap3\n      pop\n      swap3\n      jump\t// out\n        /* \"#utility.yul\":12256:12789   */\n    tag_139:\n        /* \"#utility.yul\":12425:12429   */\n      0x00\n        /* \"#utility.yul\":12463:12465   */\n      0x60\n        /* \"#utility.yul\":12452:12461   */\n      dup3\n        /* \"#utility.yul\":12448:12466   */\n      add\n        /* \"#utility.yul\":12440:12466   */\n      swap1\n      pop\n        /* \"#utility.yul\":12512:12521   */\n      dup2\n        /* \"#utility.yul\":12506:12510   */\n      dup2\n        /* \"#utility.yul\":12502:12522   */\n      sub\n        /* \"#utility.yul\":12498:12499   */\n      0x00\n        /* \"#utility.yul\":12487:12496   */\n      dup4\n        /* \"#utility.yul\":12483:12500   */\n      add\n        /* \"#utility.yul\":12476:12523   */\n      mstore\n        /* \"#utility.yul\":12540:12618   */\n      tag_482\n        /* \"#utility.yul\":12613:12617   */\n      dup2\n        /* \"#utility.yul\":12604:12610   */\n      dup7\n        /* \"#utility.yul\":12540:12618   */\n      tag_313\n      jump\t// in\n    tag_482:\n        /* \"#utility.yul\":12532:12618   */\n      swap1\n      pop\n        /* \"#utility.yul\":12628:12700   */\n      tag_483\n        /* \"#utility.yul\":12696:12698   */\n      0x20\n        /* \"#utility.yul\":12685:12694   */\n      dup4\n        /* \"#utility.yul\":12681:12699   */\n      add\n        /* \"#utility.yul\":12672:12678   */\n      dup6\n        /* \"#utility.yul\":12628:12700   */\n      tag_301\n      jump\t// in\n    tag_483:\n        /* \"#utility.yul\":12710:12782   */\n      tag_484\n        /* \"#utility.yul\":12778:12780   */\n      0x40\n        /* \"#utility.yul\":12767:12776   */\n      dup4\n        /* \"#utility.yul\":12763:12781   */\n      add\n        /* \"#utility.yul\":12754:12760   */\n      dup5\n        /* \"#utility.yul\":12710:12782   */\n      tag_301\n      jump\t// in\n    tag_484:\n        /* \"#utility.yul\":12256:12789   */\n      swap5\n      swap4\n      pop\n      pop\n      pop\n      pop\n      jump\t// out\n        /* \"#utility.yul\":12795:13218   */\n    tag_145:\n        /* \"#utility.yul\":12936:12940   */\n      0x00\n        /* \"#utility.yul\":12974:12976   */\n      0x40\n        /* \"#utility.yul\":12963:12972   */\n      dup3\n        /* \"#utility.yul\":12959:12977   */\n      add\n        /* \"#utility.yul\":12951:12977   */\n      swap1\n      pop\n        /* \"#utility.yul\":13023:13032   */\n      dup2\n        /* \"#utility.yul\":13017:13021   */\n      dup2\n        /* \"#utility.yul\":13013:13033   */\n      sub\n        /* \"#utility.yul\":13009:13010   */\n      0x00\n        /* \"#utility.yul\":12998:13007   */\n      dup4\n        /* \"#utility.yul\":12994:13011   */\n      add\n        /* \"#utility.yul\":12987:13034   */\n      mstore\n        /* \"#utility.yul\":13051:13129   */\n      tag_486\n        /* \"#utility.yul\":13124:13128   */\n      dup2\n        /* \"#utility.yul\":13115:13121   */\n      dup6\n        /* \"#utility.yul\":13051:13129   */\n      tag_313\n      jump\t// in\n    tag_486:\n        /* \"#utility.yul\":13043:13129   */\n      swap1\n      pop\n        /* \"#utility.yul\":13139:13211   */\n      tag_487\n        /* \"#utility.yul\":13207:13209   */\n      0x20\n        /* \"#utility.yul\":13196:13205   */\n      dup4\n        /* \"#utility.yul\":13192:13210   */\n      add\n        /* \"#utility.yul\":13183:13189   */\n      dup5\n        /* \"#utility.yul\":13139:13211   */\n      tag_308\n      jump\t// in\n    tag_487:\n        /* \"#utility.yul\":12795:13218   */\n      swap4\n      swap3\n      pop\n      pop\n      pop\n      jump\t// out\n        /* \"#utility.yul\":13224:13635   */\n    tag_155:\n        /* \"#utility.yul\":13359:13363   */\n      0x00\n        /* \"#utility.yul\":13397:13399   */\n      0x40\n        /* \"#utility.yul\":13386:13395   */\n      dup3\n        /* \"#utility.yul\":13382:13400   */\n      add\n        /* \"#utility.yul\":13374:13400   */\n      swap1\n      pop\n        /* \"#utility.yul\":13446:13455   */\n      dup2\n        /* \"#utility.yul\":13440:13444   */\n      dup2\n        /* \"#utility.yul\":13436:13456   */\n      sub\n        /* \"#utility.yul\":13432:13433   */\n      0x00\n        /* \"#utility.yul\":13421:13430   */\n      dup4\n        /* \"#utility.yul\":13417:13434   */\n      add\n        /* \"#utility.yul\":13410:13457   */\n      mstore\n        /* \"#utility.yul\":13474:13552   */\n      tag_489\n        /* \"#utility.yul\":13547:13551   */\n      dup2\n        /* \"#utility.yul\":13538:13544   */\n      dup6\n        /* \"#utility.yul\":13474:13552   */\n      tag_313\n      jump\t// in\n    tag_489:\n        /* \"#utility.yul\":13466:13552   */\n      swap1\n      pop\n        /* \"#utility.yul\":13562:13628   */\n      tag_490\n        /* \"#utility.yul\":13624:13626   */\n      0x20\n        /* \"#utility.yul\":13613:13622   */\n      dup4\n        /* \"#utility.yul\":13609:13627   */\n      add\n        /* \"#utility.yul\":13600:13606   */\n      dup5\n        /* \"#utility.yul\":13562:13628   */\n      tag_307\n      jump\t// in\n    tag_490:\n        /* \"#utility.yul\":13224:13635   */\n      swap4\n      swap3\n      pop\n      pop\n      pop\n      jump\t// out\n        /* \"#utility.yul\":13641:13821   */\n    tag_323:\n        /* \"#utility.yul\":13689:13766   */\n      0x4e487b7100000000000000000000000000000000000000000000000000000000\n        /* \"#utility.yul\":13686:13687   */\n      0x00\n        /* \"#utility.yul\":13679:13767   */\n      mstore\n        /* \"#utility.yul\":13786:13790   */\n      0x11\n        /* \"#utility.yul\":13783:13784   */\n      0x04\n        /* \"#utility.yul\":13776:13791   */\n      mstore\n        /* \"#utility.yul\":13810:13814   */\n      0x24\n        /* \"#utility.yul\":13807:13808   */\n      0x00\n        /* \"#utility.yul\":13800:13815   */\n      revert\n        /* \"#utility.yul\":13827:14018   */\n    tag_177:\n        /* \"#utility.yul\":13867:13870   */\n      0x00\n        /* \"#utility.yul\":13886:13906   */\n      tag_493\n        /* \"#utility.yul\":13904:13905   */\n      dup3\n        /* \"#utility.yul\":13886:13906   */\n      tag_298\n      jump\t// in\n    tag_493:\n        /* \"#utility.yul\":13881:13906   */\n      swap2\n      pop\n        /* \"#utility.yul\":13920:13940   */\n      tag_494\n        /* \"#utility.yul\":13938:13939   */\n      dup4\n        /* \"#utility.yul\":13920:13940   */\n      tag_298\n      jump\t// in\n    tag_494:\n        /* \"#utility.yul\":13915:13940   */\n      swap3\n      pop\n        /* \"#utility.yul\":13963:13964   */\n      dup3\n        /* \"#utility.yul\":13960:13961   */\n      dup3\n        /* \"#utility.yul\":13956:13965   */\n      add\n        /* \"#utility.yul\":13949:13965   */\n      swap1\n      pop\n        /* \"#utility.yul\":13984:13987   */\n      dup1\n        /* \"#utility.yul\":13981:13982   */\n      dup3\n        /* \"#utility.yul\":13978:13988   */\n      gt\n        /* \"#utility.yul\":13975:14011   */\n      iszero\n      tag_495\n      jumpi\n        /* \"#utility.yul\":13991:14009   */\n      tag_496\n      tag_323\n      jump\t// in\n    tag_496:\n        /* \"#utility.yul\":13975:14011   */\n    tag_495:\n        /* \"#utility.yul\":13827:14018   */\n      swap3\n      swap2\n      pop\n      pop\n      jump\t// out\n        /* \"#utility.yul\":14024:14218   */\n    tag_179:\n        /* \"#utility.yul\":14064:14068   */\n      0x00\n        /* \"#utility.yul\":14084:14104   */\n      tag_498\n        /* \"#utility.yul\":14102:14103   */\n      dup3\n        /* \"#utility.yul\":14084:14104   */\n      tag_298\n      jump\t// in\n    tag_498:\n        /* \"#utility.yul\":14079:14104   */\n      swap2\n      pop\n        /* \"#utility.yul\":14118:14138   */\n      tag_499\n        /* \"#utility.yul\":14136:14137   */\n      dup4\n        /* \"#utility.yul\":14118:14138   */\n      tag_298\n      jump\t// in\n    tag_499:\n        /* \"#utility.yul\":14113:14138   */\n      swap3\n      pop\n        /* \"#utility.yul\":14162:14163   */\n      dup3\n        /* \"#utility.yul\":14159:14160   */\n      dup3\n        /* \"#utility.yul\":14155:14164   */\n      sub\n        /* \"#utility.yul\":14147:14164   */\n      swap1\n      pop\n        /* \"#utility.yul\":14186:14187   */\n      dup2\n        /* \"#utility.yul\":14180:14184   */\n      dup2\n        /* \"#utility.yul\":14177:14188   */\n      gt\n        /* \"#utility.yul\":14174:14211   */\n      iszero\n      tag_500\n      jumpi\n        /* \"#utility.yul\":14191:14209   */\n      tag_501\n      tag_323\n      jump\t// in\n    tag_501:\n        /* \"#utility.yul\":14174:14211   */\n    tag_500:\n        /* \"#utility.yul\":14024:14218   */\n      swap3\n      swap2\n      pop\n      pop\n      jump\t// out\n        /* \"#utility.yul\":14224:14404   */\n    tag_324:\n        /* \"#utility.yul\":14272:14349   */\n      0x4e487b7100000000000000000000000000000000000000000000000000000000\n        /* \"#utility.yul\":14269:14270   */\n      0x00\n        /* \"#utility.yul\":14262:14350   */\n      mstore\n        /* \"#utility.yul\":14369:14373   */\n      0x12\n        /* \"#utility.yul\":14366:14367   */\n      0x04\n        /* \"#utility.yul\":14359:14374   */\n      mstore\n        /* \"#utility.yul\":14393:14397   */\n      0x24\n        /* \"#utility.yul\":14390:14391   */\n      0x00\n        /* \"#utility.yul\":14383:14398   */\n      revert\n        /* \"#utility.yul\":14410:14595   */\n    tag_181:\n        /* \"#utility.yul\":14450:14451   */\n      0x00\n        /* \"#utility.yul\":14467:14487   */\n      tag_504\n        /* \"#utility.yul\":14485:14486   */\n      dup3\n        /* \"#utility.yul\":14467:14487   */\n      tag_298\n      jump\t// in\n    tag_504:\n        /* \"#utility.yul\":14462:14487   */\n      swap2\n      pop\n        /* \"#utility.yul\":14501:14521   */\n      tag_505\n        /* \"#utility.yul\":14519:14520   */\n      dup4\n        /* \"#utility.yul\":14501:14521   */\n      tag_298\n      jump\t// in\n    tag_505:\n        /* \"#utility.yul\":14496:14521   */\n      swap3\n      pop\n        /* \"#utility.yul\":14540:14541   */\n      dup3\n        /* \"#utility.yul\":14530:14565   */\n      tag_506\n      jumpi\n        /* \"#utility.yul\":14545:14563   */\n      tag_507\n      tag_324\n      jump\t// in\n    tag_507:\n        /* \"#utility.yul\":14530:14565   */\n    tag_506:\n        /* \"#utility.yul\":14587:14588   */\n      dup3\n        /* \"#utility.yul\":14584:14585   */\n      dup3\n        /* \"#utility.yul\":14580:14589   */\n      div\n        /* \"#utility.yul\":14575:14589   */\n      swap1\n      pop\n        /* \"#utility.yul\":14410:14595   */\n      swap3\n      swap2\n      pop\n      pop\n      jump\t// out\n        /* \"#utility.yul\":14601:15011   */\n    tag_183:\n        /* \"#utility.yul\":14641:14648   */\n      0x00\n        /* \"#utility.yul\":14664:14684   */\n      tag_509\n        /* \"#utility.yul\":14682:14683   */\n      dup3\n        /* \"#utility.yul\":14664:14684   */\n      tag_298\n      jump\t// in\n    tag_509:\n        /* \"#utility.yul\":14659:14684   */\n      swap2\n      pop\n        /* \"#utility.yul\":14698:14718   */\n      tag_510\n        /* \"#utility.yul\":14716:14717   */\n      dup4\n        /* \"#utility.yul\":14698:14718   */\n      tag_298\n      jump\t// in\n    tag_510:\n        /* \"#utility.yul\":14693:14718   */\n      swap3\n      pop\n        /* \"#utility.yul\":14753:14754   */\n      dup3\n        /* \"#utility.yul\":14750:14751   */\n      dup3\n        /* \"#utility.yul\":14746:14755   */\n      mul\n        /* \"#utility.yul\":14775:14805   */\n      tag_511\n        /* \"#utility.yul\":14793:14804   */\n      dup2\n        /* \"#utility.yul\":14775:14805   */\n      tag_298\n      jump\t// in\n    tag_511:\n        /* \"#utility.yul\":14764:14805   */\n      swap2\n      pop\n        /* \"#utility.yul\":14954:14955   */\n      dup3\n        /* \"#utility.yul\":14945:14952   */\n      dup3\n        /* \"#utility.yul\":14941:14956   */\n      div\n        /* \"#utility.yul\":14938:14939   */\n      dup5\n        /* \"#utility.yul\":14935:14957   */\n      eq\n        /* \"#utility.yul\":14915:14916   */\n      dup4\n        /* \"#utility.yul\":14908:14917   */\n      iszero\n        /* \"#utility.yul\":14888:14971   */\n      or\n        /* \"#utility.yul\":14865:15004   */\n      tag_512\n      jumpi\n        /* \"#utility.yul\":14984:15002   */\n      tag_513\n      tag_323\n      jump\t// in\n    tag_513:\n        /* \"#utility.yul\":14865:15004   */\n    tag_512:\n        /* \"#utility.yul\":14649:15011   */\n      pop\n        /* \"#utility.yul\":14601:15011   */\n      swap3\n      swap2\n      pop\n      pop\n      jump\t// out\n        /* \"#utility.yul\":15017:15197   */\n    tag_189:\n        /* \"#utility.yul\":15065:15142   */\n      0x4e487b7100000000000000000000000000000000000000000000000000000000\n        /* \"#utility.yul\":15062:15063   */\n      0x00\n        /* \"#utility.yul\":15055:15143   */\n      mstore\n        /* \"#utility.yul\":15162:15166   */\n      0x32\n        /* \"#utility.yul\":15159:15160   */\n      0x04\n        /* \"#utility.yul\":15152:15167   */\n      mstore\n        /* \"#utility.yul\":15186:15190   */\n      0x24\n        /* \"#utility.yul\":15183:15184   */\n      0x00\n        /* \"#utility.yul\":15176:15191   */\n      revert\n        /* \"#utility.yul\":15203:15383   */\n    tag_325:\n        /* \"#utility.yul\":15251:15328   */\n      0x4e487b7100000000000000000000000000000000000000000000000000000000\n        /* \"#utility.yul\":15248:15249   */\n      0x00\n        /* \"#utility.yul\":15241:15329   */\n      mstore\n        /* \"#utility.yul\":15348:15352   */\n      0x22\n        /* \"#utility.yul\":15345:15346   */\n      0x04\n        /* \"#utility.yul\":15338:15353   */\n      mstore\n        /* \"#utility.yul\":15372:15376   */\n      0x24\n        /* \"#utility.yul\":15369:15370   */\n      0x00\n        /* \"#utility.yul\":15362:15377   */\n      revert\n        /* \"#utility.yul\":15389:15709   */\n    tag_204:\n        /* \"#utility.yul\":15433:15439   */\n      0x00\n        /* \"#utility.yul\":15470:15471   */\n      0x02\n        /* \"#utility.yul\":15464:15468   */\n      dup3\n        /* \"#utility.yul\":15460:15472   */\n      div\n        /* \"#utility.yul\":15450:15472   */\n      swap1\n      pop\n        /* \"#utility.yul\":15517:15518   */\n      0x01\n        /* \"#utility.yul\":15511:15515   */\n      dup3\n        /* \"#utility.yul\":15507:15519   */\n      and\n        /* \"#utility.yul\":15538:15556   */\n      dup1\n        /* \"#utility.yul\":15528:15609   */\n      tag_517\n      jumpi\n        /* \"#utility.yul\":15594:15598   */\n      0x7f\n        /* \"#utility.yul\":15586:15592   */\n      dup3\n        /* \"#utility.yul\":15582:15599   */\n      and\n        /* \"#utility.yul\":15572:15599   */\n      swap2\n      pop\n        /* \"#utility.yul\":15528:15609   */\n    tag_517:\n        /* \"#utility.yul\":15656:15658   */\n      0x20\n        /* \"#utility.yul\":15648:15654   */\n      dup3\n        /* \"#utility.yul\":15645:15659   */\n      lt\n        /* \"#utility.yul\":15625:15643   */\n      dup2\n        /* \"#utility.yul\":15622:15660   */\n      sub\n        /* \"#utility.yul\":15619:15703   */\n      tag_518\n      jumpi\n        /* \"#utility.yul\":15675:15693   */\n      tag_519\n      tag_325\n      jump\t// in\n    tag_519:\n        /* \"#utility.yul\":15619:15703   */\n    tag_518:\n        /* \"#utility.yul\":15440:15709   */\n      pop\n        /* \"#utility.yul\":15389:15709   */\n      swap2\n      swap1\n      pop\n      jump\t// out\n        /* \"#utility.yul\":15715:15889   */\n    tag_326:\n        /* \"#utility.yul\":15855:15881   */\n      0x496e76616c696420706172746e657220616464726573732e0000000000000000\n        /* \"#utility.yul\":15851:15852   */\n      0x00\n        /* \"#utility.yul\":15843:15849   */\n      dup3\n        /* \"#utility.yul\":15839:15853   */\n      add\n        /* \"#utility.yul\":15832:15882   */\n      mstore\n        /* \"#utility.yul\":15715:15889   */\n      pop\n      jump\t// out\n        /* \"#utility.yul\":15895:16261   */\n    tag_327:\n        /* \"#utility.yul\":16037:16040   */\n      0x00\n        /* \"#utility.yul\":16058:16125   */\n      tag_522\n        /* \"#utility.yul\":16122:16124   */\n      0x18\n        /* \"#utility.yul\":16117:16120   */\n      dup4\n        /* \"#utility.yul\":16058:16125   */\n      tag_310\n      jump\t// in\n    tag_522:\n        /* \"#utility.yul\":16051:16125   */\n      swap2\n      pop\n        /* \"#utility.yul\":16134:16227   */\n      tag_523\n        /* \"#utility.yul\":16223:16226   */\n      dup3\n        /* \"#utility.yul\":16134:16227   */\n      tag_326\n      jump\t// in\n    tag_523:\n        /* \"#utility.yul\":16252:16254   */\n      0x20\n        /* \"#utility.yul\":16247:16250   */\n      dup3\n        /* \"#utility.yul\":16243:16255   */\n      add\n        /* \"#utility.yul\":16236:16255   */\n      swap1\n      pop\n        /* \"#utility.yul\":15895:16261   */\n      swap2\n      swap1\n      pop\n      jump\t// out\n        /* \"#utility.yul\":16267:16686   */\n    tag_212:\n        /* \"#utility.yul\":16433:16437   */\n      0x00\n        /* \"#utility.yul\":16471:16473   */\n      0x20\n        /* \"#utility.yul\":16460:16469   */\n      dup3\n        /* \"#utility.yul\":16456:16474   */\n      add\n        /* \"#utility.yul\":16448:16474   */\n      swap1\n      pop\n        /* \"#utility.yul\":16520:16529   */\n      dup2\n        /* \"#utility.yul\":16514:16518   */\n      dup2\n        /* \"#utility.yul\":16510:16530   */\n      sub\n        /* \"#utility.yul\":16506:16507   */\n      0x00\n        /* \"#utility.yul\":16495:16504   */\n      dup4\n        /* \"#utility.yul\":16491:16508   */\n      add\n        /* \"#utility.yul\":16484:16531   */\n      mstore\n        /* \"#utility.yul\":16548:16679   */\n      tag_525\n        /* \"#utility.yul\":16674:16678   */\n      dup2\n        /* \"#utility.yul\":16548:16679   */\n      tag_327\n      jump\t// in\n    tag_525:\n        /* \"#utility.yul\":16540:16679   */\n      swap1\n      pop\n        /* \"#utility.yul\":16267:16686   */\n      swap2\n      swap1\n      pop\n      jump\t// out\n        /* \"#utility.yul\":16692:16840   */\n    tag_328:\n        /* \"#utility.yul\":16794:16805   */\n      0x00\n        /* \"#utility.yul\":16831:16834   */\n      dup2\n        /* \"#utility.yul\":16816:16834   */\n      swap1\n      pop\n        /* \"#utility.yul\":16692:16840   */\n      swap3\n      swap2\n      pop\n      pop\n      jump\t// out\n        /* \"#utility.yul\":16846:17236   */\n    tag_329:\n        /* \"#utility.yul\":16952:16955   */\n      0x00\n        /* \"#utility.yul\":16980:17019   */\n      tag_528\n        /* \"#utility.yul\":17013:17018   */\n      dup3\n        /* \"#utility.yul\":16980:17019   */\n      tag_309\n      jump\t// in\n    tag_528:\n        /* \"#utility.yul\":17035:17124   */\n      tag_529\n        /* \"#utility.yul\":17117:17123   */\n      dup2\n        /* \"#utility.yul\":17112:17115   */\n      dup6\n        /* \"#utility.yul\":17035:17124   */\n      tag_328\n      jump\t// in\n    tag_529:\n        /* \"#utility.yul\":17028:17124   */\n      swap4\n      pop\n        /* \"#utility.yul\":17133:17198   */\n      tag_530\n        /* \"#utility.yul\":17191:17197   */\n      dup2\n        /* \"#utility.yul\":17186:17189   */\n      dup6\n        /* \"#utility.yul\":17179:17183   */\n      0x20\n        /* \"#utility.yul\":17172:17177   */\n      dup7\n        /* \"#utility.yul\":17168:17184   */\n      add\n        /* \"#utility.yul\":17133:17198   */\n      tag_311\n      jump\t// in\n    tag_530:\n        /* \"#utility.yul\":17223:17229   */\n      dup1\n        /* \"#utility.yul\":17218:17221   */\n      dup5\n        /* \"#utility.yul\":17214:17230   */\n      add\n        /* \"#utility.yul\":17207:17230   */\n      swap2\n      pop\n        /* \"#utility.yul\":16956:17236   */\n      pop\n        /* \"#utility.yul\":16846:17236   */\n      swap3\n      swap2\n      pop\n      pop\n      jump\t// out\n        /* \"#utility.yul\":17242:17517   */\n    tag_217:\n        /* \"#utility.yul\":17374:17377   */\n      0x00\n        /* \"#utility.yul\":17396:17491   */\n      tag_532\n        /* \"#utility.yul\":17487:17490   */\n      dup3\n        /* \"#utility.yul\":17478:17484   */\n      dup5\n        /* \"#utility.yul\":17396:17491   */\n      tag_329\n      jump\t// in\n    tag_532:\n        /* \"#utility.yul\":17389:17491   */\n      swap2\n      pop\n        /* \"#utility.yul\":17508:17511   */\n      dup2\n        /* \"#utility.yul\":17501:17511   */\n      swap1\n      pop\n        /* \"#utility.yul\":17242:17517   */\n      swap3\n      swap2\n      pop\n      pop\n      jump\t// out\n        /* \"#utility.yul\":17523:17812   */\n    tag_330:\n        /* \"#utility.yul\":17663:17697   */\n      0x596f7572204c696d697420636f6e736f6d6174696f6e206d7573742062652068\n        /* \"#utility.yul\":17659:17660   */\n      0x00\n        /* \"#utility.yul\":17651:17657   */\n      dup3\n        /* \"#utility.yul\":17647:17661   */\n      add\n        /* \"#utility.yul\":17640:17698   */\n      mstore\n        /* \"#utility.yul\":17732:17766   */\n      0x6967686572207468616e20796f757220757375616c20436f6e736f6d6174696f\n        /* \"#utility.yul\":17727:17729   */\n      0x20\n        /* \"#utility.yul\":17719:17725   */\n      dup3\n        /* \"#utility.yul\":17715:17730   */\n      add\n        /* \"#utility.yul\":17708:17767   */\n      mstore\n        /* \"#utility.yul\":17801:17804   */\n      0x6e00000000000000000000000000000000000000000000000000000000000000\n        /* \"#utility.yul\":17796:17798   */\n      0x40\n        /* \"#utility.yul\":17788:17794   */\n      dup3\n        /* \"#utility.yul\":17784:17799   */\n      add\n        /* \"#utility.yul\":17777:17805   */\n      mstore\n        /* \"#utility.yul\":17523:17812   */\n      pop\n      jump\t// out\n        /* \"#utility.yul\":17818:18184   */\n    tag_331:\n        /* \"#utility.yul\":17960:17963   */\n      0x00\n        /* \"#utility.yul\":17981:18048   */\n      tag_535\n        /* \"#utility.yul\":18045:18047   */\n      0x41\n        /* \"#utility.yul\":18040:18043   */\n      dup4\n        /* \"#utility.yul\":17981:18048   */\n      tag_310\n      jump\t// in\n    tag_535:\n        /* \"#utility.yul\":17974:18048   */\n      swap2\n      pop\n        /* \"#utility.yul\":18057:18150   */\n      tag_536\n        /* \"#utility.yul\":18146:18149   */\n      dup3\n        /* \"#utility.yul\":18057:18150   */\n      tag_330\n      jump\t// in\n    tag_536:\n        /* \"#utility.yul\":18175:18177   */\n      0x60\n        /* \"#utility.yul\":18170:18173   */\n      dup3\n        /* \"#utility.yul\":18166:18178   */\n      add\n        /* \"#utility.yul\":18159:18178   */\n      swap1\n      pop\n        /* \"#utility.yul\":17818:18184   */\n      swap2\n      swap1\n      pop\n      jump\t// out\n        /* \"#utility.yul\":18190:18609   */\n    tag_221:\n        /* \"#utility.yul\":18356:18360   */\n      0x00\n        /* \"#utility.yul\":18394:18396   */\n      0x20\n        /* \"#utility.yul\":18383:18392   */\n      dup3\n        /* \"#utility.yul\":18379:18397   */\n      add\n        /* \"#utility.yul\":18371:18397   */\n      swap1\n      pop\n        /* \"#utility.yul\":18443:18452   */\n      dup2\n        /* \"#utility.yul\":18437:18441   */\n      dup2\n        /* \"#utility.yul\":18433:18453   */\n      sub\n        /* \"#utility.yul\":18429:18430   */\n      0x00\n        /* \"#utility.yul\":18418:18427   */\n      dup4\n        /* \"#utility.yul\":18414:18431   */\n      add\n        /* \"#utility.yul\":18407:18454   */\n      mstore\n        /* \"#utility.yul\":18471:18602   */\n      tag_538\n        /* \"#utility.yul\":18597:18601   */\n      dup2\n        /* \"#utility.yul\":18471:18602   */\n      tag_331\n      jump\t// in\n    tag_538:\n        /* \"#utility.yul\":18463:18602   */\n      swap1\n      pop\n        /* \"#utility.yul\":18190:18609   */\n      swap2\n      swap1\n      pop\n      jump\t// out\n        /* \"#utility.yul\":18615:18756   */\n    tag_332:\n        /* \"#utility.yul\":18664:18668   */\n      0x00\n        /* \"#utility.yul\":18687:18690   */\n      dup2\n        /* \"#utility.yul\":18679:18690   */\n      swap1\n      pop\n        /* \"#utility.yul\":18710:18713   */\n      dup2\n        /* \"#utility.yul\":18707:18708   */\n      0x00\n        /* \"#utility.yul\":18700:18714   */\n      mstore\n        /* \"#utility.yul\":18744:18748   */\n      0x20\n        /* \"#utility.yul\":18741:18742   */\n      0x00\n        /* \"#utility.yul\":18731:18749   */\n      keccak256\n        /* \"#utility.yul\":18723:18749   */\n      swap1\n      pop\n        /* \"#utility.yul\":18615:18756   */\n      swap2\n      swap1\n      pop\n      jump\t// out\n        /* \"#utility.yul\":18762:18855   */\n    tag_333:\n        /* \"#utility.yul\":18799:18805   */\n      0x00\n        /* \"#utility.yul\":18846:18848   */\n      0x20\n        /* \"#utility.yul\":18841:18843   */\n      0x1f\n        /* \"#utility.yul\":18834:18839   */\n      dup4\n        /* \"#utility.yul\":18830:18844   */\n      add\n        /* \"#utility.yul\":18826:18849   */\n      div\n        /* \"#utility.yul\":18816:18849   */\n      swap1\n      pop\n        /* \"#utility.yul\":18762:18855   */\n      swap2\n      swap1\n      pop\n      jump\t// out\n        /* \"#utility.yul\":18861:18968   */\n    tag_334:\n        /* \"#utility.yul\":18905:18913   */\n      0x00\n        /* \"#utility.yul\":18955:18960   */\n      dup3\n        /* \"#utility.yul\":18949:18953   */\n      dup3\n        /* \"#utility.yul\":18945:18961   */\n      shl\n        /* \"#utility.yul\":18924:18961   */\n      swap1\n      pop\n        /* \"#utility.yul\":18861:18968   */\n      swap3\n      swap2\n      pop\n      pop\n      jump\t// out\n        /* \"#utility.yul\":18974:19367   */\n    tag_335:\n        /* \"#utility.yul\":19043:19049   */\n      0x00\n        /* \"#utility.yul\":19093:19094   */\n      0x08\n        /* \"#utility.yul\":19081:19091   */\n      dup4\n        /* \"#utility.yul\":19077:19095   */\n      mul\n        /* \"#utility.yul\":19116:19213   */\n      tag_543\n        /* \"#utility.yul\":19146:19212   */\n      0xffffffffffffffffffffffffffffffffffffffffffffffffffffffffffffffff\n        /* \"#utility.yul\":19135:19144   */\n      dup3\n        /* \"#utility.yul\":19116:19213   */\n      tag_334\n      jump\t// in\n    tag_543:\n        /* \"#utility.yul\":19234:19273   */\n      tag_544\n        /* \"#utility.yul\":19264:19272   */\n      dup7\n        /* \"#utility.yul\":19253:19262   */\n      dup4\n        /* \"#utility.yul\":19234:19273   */\n      tag_334\n      jump\t// in\n    tag_544:\n        /* \"#utility.yul\":19222:19273   */\n      swap6\n      pop\n        /* \"#utility.yul\":19306:19310   */\n      dup1\n        /* \"#utility.yul\":19302:19311   */\n      not\n        /* \"#utility.yul\":19295:19300   */\n      dup5\n        /* \"#utility.yul\":19291:19312   */\n      and\n        /* \"#utility.yul\":19282:19312   */\n      swap4\n      pop\n        /* \"#utility.yul\":19355:19359   */\n      dup1\n        /* \"#utility.yul\":19345:19353   */\n      dup7\n        /* \"#utility.yul\":19341:19360   */\n      and\n        /* \"#utility.yul\":19334:19339   */\n      dup5\n        /* \"#utility.yul\":19331:19361   */\n      or\n        /* \"#utility.yul\":19321:19361   */\n      swap3\n      pop\n        /* \"#utility.yul\":19050:19367   */\n      pop\n      pop\n        /* \"#utility.yul\":18974:19367   */\n      swap4\n      swap3\n      pop\n      pop\n      pop\n      jump\t// out\n        /* \"#utility.yul\":19373:19433   */\n    tag_336:\n        /* \"#utility.yul\":19401:19404   */\n      0x00\n        /* \"#utility.yul\":19422:19427   */\n      dup2\n        /* \"#utility.yul\":19415:19427   */\n      swap1\n      pop\n        /* \"#utility.yul\":19373:19433   */\n      swap2\n      swap1\n      pop\n      jump\t// out\n        /* \"#utility.yul\":19439:19581   */\n    tag_337:\n        /* \"#utility.yul\":19489:19498   */\n      0x00\n        /* \"#utility.yul\":19522:19575   */\n      tag_547\n        /* \"#utility.yul\":19540:19574   */\n      tag_548\n        /* \"#utility.yul\":19549:19573   */\n      tag_549\n        /* \"#utility.yul\":19567:19572   */\n      dup5\n        /* \"#utility.yul\":19549:19573   */\n      tag_298\n      jump\t// in\n    tag_549:\n        /* \"#utility.yul\":19540:19574   */\n      tag_336\n      jump\t// in\n    tag_548:\n        /* \"#utility.yul\":19522:19575   */\n      tag_298\n      jump\t// in\n    tag_547:\n        /* \"#utility.yul\":19509:19575   */\n      swap1\n      pop\n        /* \"#utility.yul\":19439:19581   */\n      swap2\n      swap1\n      pop\n      jump\t// out\n        /* \"#utility.yul\":19587:19662   */\n    tag_338:\n        /* \"#utility.yul\":19630:19633   */\n      0x00\n        /* \"#utility.yul\":19651:19656   */\n      dup2\n        /* \"#utility.yul\":19644:19656   */\n      swap1\n      pop\n        /* \"#utility.yul\":19587:19662   */\n      swap2\n      swap1\n      pop\n      jump\t// out\n        /* \"#utility.yul\":19668:19937   */\n    tag_339:\n        /* \"#utility.yul\":19778:19817   */\n      tag_552\n        /* \"#utility.yul\":19809:19816   */\n      dup4\n        /* \"#utility.yul\":19778:19817   */\n      tag_337\n      jump\t// in\n    tag_552:\n        /* \"#utility.yul\":19839:19930   */\n      tag_553\n        /* \"#utility.yul\":19888:19929   */\n      tag_554\n        /* \"#utility.yul\":19912:19928   */\n      dup3\n        /* \"#utility.yul\":19888:19929   */\n      tag_338\n      jump\t// in\n    tag_554:\n        /* \"#utility.yul\":19880:19886   */\n      dup5\n        /* \"#utility.yul\":19873:19877   */\n      dup5\n        /* \"#utility.yul\":19867:19878   */\n      sload\n        /* \"#utility.yul\":19839:19930   */\n      tag_335\n      jump\t// in\n    tag_553:\n        /* \"#utility.yul\":19833:19837   */\n      dup3\n        /* \"#utility.yul\":19826:19931   */\n      sstore\n        /* \"#utility.yul\":19744:19937   */\n      pop\n        /* \"#utility.yul\":19668:19937   */\n      pop\n      pop\n      pop\n      jump\t// out\n        /* \"#utility.yul\":19943:20016   */\n    tag_340:\n        /* \"#utility.yul\":19988:19991   */\n      0x00\n        /* \"#utility.yul\":19943:20016   */\n      swap1\n      jump\t// out\n        /* \"#utility.yul\":20022:20211   */\n    tag_341:\n        /* \"#utility.yul\":20099:20131   */\n      tag_557\n      tag_340\n      jump\t// in\n    tag_557:\n        /* \"#utility.yul\":20140:20205   */\n      tag_558\n        /* \"#utility.yul\":20198:20204   */\n      dup2\n        /* \"#utility.yul\":20190:20196   */\n      dup5\n        /* \"#utility.yul\":20184:20188   */\n      dup5\n        /* \"#utility.yul\":20140:20205   */\n      tag_339\n      jump\t// in\n    tag_558:\n        /* \"#utility.yul\":20075:20211   */\n      pop\n        /* \"#utility.yul\":20022:20211   */\n      pop\n      pop\n      jump\t// out\n        /* \"#utility.yul\":20217:20403   */\n    tag_342:\n        /* \"#utility.yul\":20277:20397   */\n    tag_560:\n        /* \"#utility.yul\":20294:20297   */\n      dup2\n        /* \"#utility.yul\":20287:20292   */\n      dup2\n        /* \"#utility.yul\":20284:20298   */\n      lt\n        /* \"#utility.yul\":20277:20397   */\n      iszero\n      tag_562\n      jumpi\n        /* \"#utility.yul\":20348:20387   */\n      tag_563\n        /* \"#utility.yul\":20385:20386   */\n      0x00\n        /* \"#utility.yul\":20378:20383   */\n      dup3\n        /* \"#utility.yul\":20348:20387   */\n      tag_341\n      jump\t// in\n    tag_563:\n        /* \"#utility.yul\":20321:20322   */\n      0x01\n        /* \"#utility.yul\":20314:20319   */\n      dup2\n        /* \"#utility.yul\":20310:20323   */\n      add\n        /* \"#utility.yul\":20301:20323   */\n      swap1\n      pop\n        /* \"#utility.yul\":20277:20397   */\n      jump(tag_560)\n    tag_562:\n        /* \"#utility.yul\":20217:20403   */\n      pop\n      pop\n      jump\t// out\n        /* \"#utility.yul\":20409:20952   */\n    tag_343:\n        /* \"#utility.yul\":20510:20512   */\n      0x1f\n        /* \"#utility.yul\":20505:20508   */\n      dup3\n        /* \"#utility.yul\":20502:20513   */\n      gt\n        /* \"#utility.yul\":20499:20945   */\n      iszero\n      tag_565\n      jumpi\n        /* \"#utility.yul\":20544:20582   */\n      tag_566\n        /* \"#utility.yul\":20576:20581   */\n      dup2\n        /* \"#utility.yul\":20544:20582   */\n      tag_332\n      jump\t// in\n    tag_566:\n        /* \"#utility.yul\":20628:20657   */\n      tag_567\n        /* \"#utility.yul\":20646:20656   */\n      dup5\n        /* \"#utility.yul\":20628:20657   */\n      tag_333\n      jump\t// in\n    tag_567:\n        /* \"#utility.yul\":20618:20626   */\n      dup2\n        /* \"#utility.yul\":20614:20658   */\n      add\n        /* \"#utility.yul\":20811:20813   */\n      0x20\n        /* \"#utility.yul\":20799:20809   */\n      dup6\n        /* \"#utility.yul\":20796:20814   */\n      lt\n        /* \"#utility.yul\":20793:20842   */\n      iszero\n      tag_568\n      jumpi\n        /* \"#utility.yul\":20832:20840   */\n      dup2\n        /* \"#utility.yul\":20817:20840   */\n      swap1\n      pop\n        /* \"#utility.yul\":20793:20842   */\n    tag_568:\n        /* \"#utility.yul\":20855:20935   */\n      tag_569\n        /* \"#utility.yul\":20911:20933   */\n      tag_570\n        /* \"#utility.yul\":20929:20932   */\n      dup6\n        /* \"#utility.yul\":20911:20933   */\n      tag_333\n      jump\t// in\n    tag_570:\n        /* \"#utility.yul\":20901:20909   */\n      dup4\n        /* \"#utility.yul\":20897:20934   */\n      add\n        /* \"#utility.yul\":20884:20895   */\n      dup3\n        /* \"#utility.yul\":20855:20935   */\n      tag_342\n      jump\t// in\n    tag_569:\n        /* \"#utility.yul\":20514:20945   */\n      pop\n      pop\n        /* \"#utility.yul\":20499:20945   */\n    tag_565:\n        /* \"#utility.yul\":20409:20952   */\n      pop\n      pop\n      pop\n      jump\t// out\n        /* \"#utility.yul\":20958:21075   */\n    tag_344:\n        /* \"#utility.yul\":21012:21020   */\n      0x00\n        /* \"#utility.yul\":21062:21067   */\n      dup3\n        /* \"#utility.yul\":21056:21060   */\n      dup3\n        /* \"#utility.yul\":21052:21068   */\n      shr\n        /* \"#utility.yul\":21031:21068   */\n      swap1\n      pop\n        /* \"#utility.yul\":20958:21075   */\n      swap3\n      swap2\n      pop\n      pop\n      jump\t// out\n        /* \"#utility.yul\":21081:21250   */\n    tag_345:\n        /* \"#utility.yul\":21125:21131   */\n      0x00\n        /* \"#utility.yul\":21158:21209   */\n      tag_573\n        /* \"#utility.yul\":21206:21207   */\n      0x00\n        /* \"#utility.yul\":21202:21208   */\n      not\n        /* \"#utility.yul\":21194:21199   */\n      dup5\n        /* \"#utility.yul\":21191:21192   */\n      0x08\n        /* \"#utility.yul\":21187:21200   */\n      mul\n        /* \"#utility.yul\":21158:21209   */\n      tag_344\n      jump\t// in\n    tag_573:\n        /* \"#utility.yul\":21154:21210   */\n      not\n        /* \"#utility.yul\":21239:21243   */\n      dup1\n        /* \"#utility.yul\":21233:21237   */\n      dup4\n        /* \"#utility.yul\":21229:21244   */\n      and\n        /* \"#utility.yul\":21219:21244   */\n      swap2\n      pop\n        /* \"#utility.yul\":21132:21250   */\n      pop\n        /* \"#utility.yul\":21081:21250   */\n      swap3\n      swap2\n      pop\n      pop\n      jump\t// out\n        /* \"#utility.yul\":21255:21550   */\n    tag_346:\n        /* \"#utility.yul\":21331:21335   */\n      0x00\n        /* \"#utility.yul\":21477:21506   */\n      tag_575\n        /* \"#utility.yul\":21502:21505   */\n      dup4\n        /* \"#utility.yul\":21496:21500   */\n      dup4\n        /* \"#utility.yul\":21477:21506   */\n      tag_345\n      jump\t// in\n    tag_575:\n        /* \"#utility.yul\":21469:21506   */\n      swap2\n      pop\n        /* \"#utility.yul\":21539:21542   */\n      dup3\n        /* \"#utility.yul\":21536:21537   */\n      0x02\n        /* \"#utility.yul\":21532:21543   */\n      mul\n        /* \"#utility.yul\":21526:21530   */\n      dup3\n        /* \"#utility.yul\":21523:21544   */\n      or\n        /* \"#utility.yul\":21515:21544   */\n      swap1\n      pop\n        /* \"#utility.yul\":21255:21550   */\n      swap3\n      swap2\n      pop\n      pop\n      jump\t// out\n        /* \"#utility.yul\":21555:22950   */\n    tag_224:\n        /* \"#utility.yul\":21672:21709   */\n      tag_577\n        /* \"#utility.yul\":21705:21708   */\n      dup3\n        /* \"#utility.yul\":21672:21709   */\n      tag_309\n      jump\t// in\n    tag_577:\n        /* \"#utility.yul\":21774:21792   */\n      0xffffffffffffffff\n        /* \"#utility.yul\":21766:21772   */\n      dup2\n        /* \"#utility.yul\":21763:21793   */\n      gt\n        /* \"#utility.yul\":21760:21816   */\n      iszero\n      tag_578\n      jumpi\n        /* \"#utility.yul\":21796:21814   */\n      tag_579\n      tag_316\n      jump\t// in\n    tag_579:\n        /* \"#utility.yul\":21760:21816   */\n    tag_578:\n        /* \"#utility.yul\":21840:21878   */\n      tag_580\n        /* \"#utility.yul\":21872:21876   */\n      dup3\n        /* \"#utility.yul\":21866:21877   */\n      sload\n        /* \"#utility.yul\":21840:21878   */\n      tag_204\n      jump\t// in\n    tag_580:\n        /* \"#utility.yul\":21925:21992   */\n      tag_581\n        /* \"#utility.yul\":21985:21991   */\n      dup3\n        /* \"#utility.yul\":21977:21983   */\n      dup3\n        /* \"#utility.yul\":21971:21975   */\n      dup6\n        /* \"#utility.yul\":21925:21992   */\n      tag_343\n      jump\t// in\n    tag_581:\n        /* \"#utility.yul\":22019:22020   */\n      0x00\n        /* \"#utility.yul\":22043:22047   */\n      0x20\n        /* \"#utility.yul\":22030:22047   */\n      swap1\n      pop\n        /* \"#utility.yul\":22075:22077   */\n      0x1f\n        /* \"#utility.yul\":22067:22073   */\n      dup4\n        /* \"#utility.yul\":22064:22078   */\n      gt\n        /* \"#utility.yul\":22092:22093   */\n      0x01\n        /* \"#utility.yul\":22087:22705   */\n      dup2\n      eq\n      tag_583\n      jumpi\n        /* \"#utility.yul\":22749:22750   */\n      0x00\n        /* \"#utility.yul\":22766:22772   */\n      dup5\n        /* \"#utility.yul\":22763:22840   */\n      iszero\n      tag_584\n      jumpi\n        /* \"#utility.yul\":22815:22824   */\n      dup3\n        /* \"#utility.yul\":22810:22813   */\n      dup8\n        /* \"#utility.yul\":22806:22825   */\n      add\n        /* \"#utility.yul\":22800:22826   */\n      mload\n        /* \"#utility.yul\":22791:22826   */\n      swap1\n      pop\n        /* \"#utility.yul\":22763:22840   */\n    tag_584:\n        /* \"#utility.yul\":22866:22933   */\n      tag_585\n        /* \"#utility.yul\":22926:22932   */\n      dup6\n        /* \"#utility.yul\":22919:22924   */\n      dup3\n        /* \"#utility.yul\":22866:22933   */\n      tag_346\n      jump\t// in\n    tag_585:\n        /* \"#utility.yul\":22860:22864   */\n      dup7\n        /* \"#utility.yul\":22853:22934   */\n      sstore\n        /* \"#utility.yul\":22722:22944   */\n      pop\n        /* \"#utility.yul\":22057:22944   */\n      jump(tag_582)\n        /* \"#utility.yul\":22087:22705   */\n    tag_583:\n        /* \"#utility.yul\":22139:22143   */\n      0x1f\n        /* \"#utility.yul\":22135:22144   */\n      not\n        /* \"#utility.yul\":22127:22133   */\n      dup5\n        /* \"#utility.yul\":22123:22145   */\n      and\n        /* \"#utility.yul\":22173:22210   */\n      tag_586\n        /* \"#utility.yul\":22205:22209   */\n      dup7\n        /* \"#utility.yul\":22173:22210   */\n      tag_332\n      jump\t// in\n    tag_586:\n        /* \"#utility.yul\":22232:22233   */\n      0x00\n        /* \"#utility.yul\":22246:22454   */\n    tag_587:\n        /* \"#utility.yul\":22260:22267   */\n      dup3\n        /* \"#utility.yul\":22257:22258   */\n      dup2\n        /* \"#utility.yul\":22254:22268   */\n      lt\n        /* \"#utility.yul\":22246:22454   */\n      iszero\n      tag_589\n      jumpi\n        /* \"#utility.yul\":22339:22348   */\n      dup5\n        /* \"#utility.yul\":22334:22337   */\n      dup10\n        /* \"#utility.yul\":22330:22349   */\n      add\n        /* \"#utility.yul\":22324:22350   */\n      mload\n        /* \"#utility.yul\":22316:22322   */\n      dup3\n        /* \"#utility.yul\":22309:22351   */\n      sstore\n        /* \"#utility.yul\":22390:22391   */\n      0x01\n        /* \"#utility.yul\":22382:22388   */\n      dup3\n        /* \"#utility.yul\":22378:22392   */\n      add\n        /* \"#utility.yul\":22368:22392   */\n      swap2\n      pop\n        /* \"#utility.yul\":22437:22439   */\n      0x20\n        /* \"#utility.yul\":22426:22435   */\n      dup6\n        /* \"#utility.yul\":22422:22440   */\n      add\n        /* \"#utility.yul\":22409:22440   */\n      swap5\n      pop\n        /* \"#utility.yul\":22283:22287   */\n      0x20\n        /* \"#utility.yul\":22280:22281   */\n      dup2\n        /* \"#utility.yul\":22276:22288   */\n      add\n        /* \"#utility.yul\":22271:22288   */\n      swap1\n      pop\n        /* \"#utility.yul\":22246:22454   */\n      jump(tag_587)\n    tag_589:\n        /* \"#utility.yul\":22482:22488   */\n      dup7\n        /* \"#utility.yul\":22473:22480   */\n      dup4\n        /* \"#utility.yul\":22470:22489   */\n      lt\n        /* \"#utility.yul\":22467:22646   */\n      iszero\n      tag_590\n      jumpi\n        /* \"#utility.yul\":22540:22549   */\n      dup5\n        /* \"#utility.yul\":22535:22538   */\n      dup10\n        /* \"#utility.yul\":22531:22550   */\n      add\n        /* \"#utility.yul\":22525:22551   */\n      mload\n        /* \"#utility.yul\":22583:22631   */\n      tag_591\n        /* \"#utility.yul\":22625:22629   */\n      0x1f\n        /* \"#utility.yul\":22617:22623   */\n      dup10\n        /* \"#utility.yul\":22613:22630   */\n      and\n        /* \"#utility.yul\":22602:22611   */\n      dup3\n        /* \"#utility.yul\":22583:22631   */\n      tag_345\n      jump\t// in\n    tag_591:\n        /* \"#utility.yul\":22575:22581   */\n      dup4\n        /* \"#utility.yul\":22568:22632   */\n      sstore\n        /* \"#utility.yul\":22490:22646   */\n      pop\n        /* \"#utility.yul\":22467:22646   */\n    tag_590:\n        /* \"#utility.yul\":22692:22693   */\n      0x01\n        /* \"#utility.yul\":22688:22689   */\n      0x02\n        /* \"#utility.yul\":22680:22686   */\n      dup9\n        /* \"#utility.yul\":22676:22690   */\n      mul\n        /* \"#utility.yul\":22672:22694   */\n      add\n        /* \"#utility.yul\":22666:22670   */\n      dup9\n        /* \"#utility.yul\":22659:22695   */\n      sstore\n        /* \"#utility.yul\":22094:22705   */\n      pop\n      pop\n      pop\n        /* \"#utility.yul\":22057:22944   */\n    tag_582:\n      pop\n        /* \"#utility.yul\":21647:22950   */\n      pop\n      pop\n      pop\n        /* \"#utility.yul\":21555:22950   */\n      pop\n      pop\n      jump\t// out\n        /* \"#utility.yul\":22956:23120   */\n    tag_347:\n        /* \"#utility.yul\":23096:23112   */\n      0x496e64657820696e76616c696465000000000000000000000000000000000000\n        /* \"#utility.yul\":23092:23093   */\n      0x00\n        /* \"#utility.yul\":23084:23090   */\n      dup3\n        /* \"#utility.yul\":23080:23094   */\n      add\n        /* \"#utility.yul\":23073:23113   */\n      mstore\n        /* \"#utility.yul\":22956:23120   */\n      pop\n      jump\t// out\n        /* \"#utility.yul\":23126:23492   */\n    tag_348:\n        /* \"#utility.yul\":23268:23271   */\n      0x00\n        /* \"#utility.yul\":23289:23356   */\n      tag_594\n        /* \"#utility.yul\":23353:23355   */\n      0x0e\n        /* \"#utility.yul\":23348:23351   */\n      dup4\n        /* \"#utility.yul\":23289:23356   */\n      tag_310\n      jump\t// in\n    tag_594:\n        /* \"#utility.yul\":23282:23356   */\n      swap2\n      pop\n        /* \"#utility.yul\":23365:23458   */\n      tag_595\n        /* \"#utility.yul\":23454:23457   */\n      dup3\n        /* \"#utility.yul\":23365:23458   */\n      tag_347\n      jump\t// in\n    tag_595:\n        /* \"#utility.yul\":23483:23485   */\n      0x20\n        /* \"#utility.yul\":23478:23481   */\n      dup3\n        /* \"#utility.yul\":23474:23486   */\n      add\n        /* \"#utility.yul\":23467:23486   */\n      swap1\n      pop\n        /* \"#utility.yul\":23126:23492   */\n      swap2\n      swap1\n      pop\n      jump\t// out\n        /* \"#utility.yul\":23498:23917   */\n    tag_232:\n        /* \"#utility.yul\":23664:23668   */\n      0x00\n        /* \"#utility.yul\":23702:23704   */\n      0x20\n        /* \"#utility.yul\":23691:23700   */\n      dup3\n        /* \"#utility.yul\":23687:23705   */\n      add\n        /* \"#utility.yul\":23679:23705   */\n      swap1\n      pop\n        /* \"#utility.yul\":23751:23760   */\n      dup2\n        /* \"#utility.yul\":23745:23749   */\n      dup2\n        /* \"#utility.yul\":23741:23761   */\n      sub\n        /* \"#utility.yul\":23737:23738   */\n      0x00\n        /* \"#utility.yul\":23726:23735   */\n      dup4\n        /* \"#utility.yul\":23722:23739   */\n      add\n        /* \"#utility.yul\":23715:23762   */\n      mstore\n        /* \"#utility.yul\":23779:23910   */\n      tag_597\n        /* \"#utility.yul\":23905:23909   */\n      dup2\n        /* \"#utility.yul\":23779:23910   */\n      tag_348\n      jump\t// in\n    tag_597:\n        /* \"#utility.yul\":23771:23910   */\n      swap1\n      pop\n        /* \"#utility.yul\":23498:23917   */\n      swap2\n      swap1\n      pop\n      jump\t// out\n        /* \"#utility.yul\":23923:24156   */\n    tag_260:\n        /* \"#utility.yul\":23962:23965   */\n      0x00\n        /* \"#utility.yul\":23985:24009   */\n      tag_599\n        /* \"#utility.yul\":24003:24008   */\n      dup3\n        /* \"#utility.yul\":23985:24009   */\n      tag_298\n      jump\t// in\n    tag_599:\n        /* \"#utility.yul\":23976:24009   */\n      swap2\n      pop\n        /* \"#utility.yul\":24031:24097   */\n      0xffffffffffffffffffffffffffffffffffffffffffffffffffffffffffffffff\n        /* \"#utility.yul\":24024:24029   */\n      dup3\n        /* \"#utility.yul\":24021:24098   */\n      sub\n        /* \"#utility.yul\":24018:24121   */\n      tag_600\n      jumpi\n        /* \"#utility.yul\":24101:24119   */\n      tag_601\n      tag_323\n      jump\t// in\n    tag_601:\n        /* \"#utility.yul\":24018:24121   */\n    tag_600:\n        /* \"#utility.yul\":24148:24149   */\n      0x01\n        /* \"#utility.yul\":24141:24146   */\n      dup3\n        /* \"#utility.yul\":24137:24150   */\n      add\n        /* \"#utility.yul\":24130:24150   */\n      swap1\n      pop\n        /* \"#utility.yul\":23923:24156   */\n      swap2\n      swap1\n      pop\n      jump\t// out\n\n    auxdata: 0xa264697066735822122040a904df26f7e148de5c12712f0a2645c3e048107b7f9f57a86ec54e0a97128a64736f6c63430008150033\n}\n","bytecode":{"linkReferences":{},"object":"608060405234801561000f575f80fd5b506123148061001d5f395ff3fe6080604052600436106101b5575f3560e01c8063792cac3b116100eb578063a37189cb11610089578063d7bb99ba11610063578063d7bb99ba1461065b578063d7d1bbdb14610679578063fc81f5ad146106a1578063fd958403146106cb576101b5565b8063a37189cb146105cc578063a4a66431146105f4578063aaa1723514610631576101b5565b80638a9cfd55116100c55780638a9cfd551461050157806391cf26f614610529578063962e7f62146105515780639d7cdd6f1461058f576101b5565b8063792cac3b1461046f57806381d12c581461049957806387859ad0146104d9576101b5565b806321e51b5111610158578063481c6a7511610132578063481c6a75146103a25780634cda853b146103cc5780636c9ff6b9146104085780636caa921814610445576101b5565b806321e51b511461032857806322fa19bc1461035057806346b8df2e1461037a576101b5565b80630a144391116101945780630a14439114610245578063141961bc1461028157806315a252e3146102c1578063208b7e9a146102eb576101b5565b8062b0d0d5146101b957806303441006146101f55780630600d8fc1461021d575b5f80fd5b3480156101c4575f80fd5b506101df60048036038101906101da9190611614565b6106f5565b6040516101ec9190611673565b60405180910390f35b348015610200575f80fd5b5061021b6004803603810190610216919061168c565b610732565b005b348015610228575f80fd5b50610243600480360381019061023e9190611614565b610876565b005b348015610250575f80fd5b5061026b60048036038101906102669190611711565b6108d5565b6040516102789190611756565b60405180910390f35b34801561028c575f80fd5b506102a760048036038101906102a2919061168c565b6108f2565b6040516102b8959493929190611808565b60405180910390f35b3480156102cc575f80fd5b506102d56109d7565b6040516102e29190611673565b60405180910390f35b3480156102f6575f80fd5b50610311600480360381019061030c919061198c565b6109dd565b60405161031f9291906119d3565b60405180910390f35b348015610333575f80fd5b5061034e600480360381019061034991906119fa565b610ac2565b005b34801561035b575f80fd5b50610364610bee565b6040516103719190611673565b60405180910390f35b348015610385575f80fd5b506103a0600480360381019061039b919061198c565b610bf4565b005b3480156103ad575f80fd5b506103b6610cc4565b6040516103c39190611a8d565b60405180910390f35b3480156103d7575f80fd5b506103f260048036038101906103ed9190611711565b610ce9565b6040516103ff9190611673565b60405180910390f35b348015610413575f80fd5b5061042e6004803603810190610429919061168c565b610cfe565b60405161043c929190611aa6565b60405180910390f35b348015610450575f80fd5b50610459610e1f565b6040516104669190611673565b60405180910390f35b34801561047a575f80fd5b50610483610e2a565b6040516104909190611673565b60405180910390f35b3480156104a4575f80fd5b506104bf60048036038101906104ba919061168c565b610e30565b6040516104d0959493929190611ad4565b60405180910390f35b3480156104e4575f80fd5b506104ff60048036038101906104fa919061198c565b610f23565b005b34801561050c575f80fd5b5061052760048036038101906105229190611b2c565b610f74565b005b348015610534575f80fd5b5061054f600480360381019061054a9190611b98565b611074565b005b34801561055c575f80fd5b506105776004803603810190610572919061168c565b611111565b60405161058693929190611c04565b60405180910390f35b34801561059a575f80fd5b506105b560048036038101906105b0919061168c565b6111bd565b6040516105c3929190611c40565b60405180910390f35b3480156105d7575f80fd5b506105f260048036038101906105ed9190611b98565b611291565b005b3480156105ff575f80fd5b5061061a6004803603810190610615919061168c565b611341565b604051610628929190611c6e565b60405180910390f35b34801561063c575f80fd5b50610645611402565b6040516106529190611673565b60405180910390f35b610663611408565b6040516106709190611673565b60405180910390f35b348015610684575f80fd5b5061069f600480360381019061069a919061168c565b611486565b005b3480156106ac575f80fd5b506106b56115c4565b6040516106c29190611673565b60405180910390f35b3480156106d6575f80fd5b506106df6115ca565b6040516106ec9190611673565b60405180910390f35b5f8082600184876107069190611cc9565b6107109190611cfc565b61071a9190611d5c565b905080846107289190611d8c565b9150509392505050565b600b5f9054906101000a900473ffffffffffffffffffffffffffffffffffffffff1673ffffffffffffffffffffffffffffffffffffffff163373ffffffffffffffffffffffffffffffffffffffff161461078a575f80fd5b5f600a828154811061079f5761079e611dcd565b5b905f5260205f20906005020190508060020160149054906101000a900460ff16156107c8575f80fd5b6002600d546107d79190611d5c565b8160040154116107e5575f80fd5b5f816002015f9054906101000a900473ffffffffffffffffffffffffffffffffffffffff1690508073ffffffffffffffffffffffffffffffffffffffff166108fc836001015490811502906040515f60405180830381858888f19350505050158015610853573d5f803e3d5ffd5b5060018260020160146101000a81548160ff021916908315150217905550505050565b8260028190555081600381905550806004819055505f606460035461089b9190611d8c565b6103e86002546108ab9190611d8c565b6108b59190611cc9565b90508060015f8282546108c89190611cc9565b9250508190555050505050565b600c602052805f5260405f205f915054906101000a900460ff1681565b5f8181548110610900575f80fd5b905f5260205f2090600502015f91509050805f015f9054906101000a900473ffffffffffffffffffffffffffffffffffffffff169080600101549080600201805461094a90611e27565b80601f016020809104026020016040519081016040528092919081815260200182805461097690611e27565b80156109c15780601f10610998576101008083540402835291602001916109c1565b820191905f5260205f20905b8154815290600101906020018083116109a457829003601f168201915b5050505050908060030154908060040154905085565b60065481565b5f805f60085f3373ffffffffffffffffffffffffffffffffffffffff1673ffffffffffffffffffffffffffffffffffffffff1681526020019081526020015f205490506007805490508110610a67576040517f08c379a0000000000000000000000000000000000000000000000000000000008152600401610a5e90611ea1565b60405180910390fd5b5f60078281548110610a7c57610a7b611dcd565b5b905f5260205f20906003020190505f8160020186604051610a9d9190611ef9565b90815260200160405180910390209050805f0154816001015494509450505050915091565b818410610b04576040517f08c379a0000000000000000000000000000000000000000000000000000000008152600401610afb90611fa5565b60405180910390fd5b5f6040518060a001604052808773ffffffffffffffffffffffffffffffffffffffff1681526020018681526020018581526020018481526020018381525090505f81908060018154018082558091505060019003905f5260205f2090600502015f909190919091505f820151815f015f6101000a81548173ffffffffffffffffffffffffffffffffffffffff021916908373ffffffffffffffffffffffffffffffffffffffff160217905550602082015181600101556040820151816002019081610bcf9190612160565b5060608201518160030155608082015181600401555050505050505050565b60045481565b5f600760018160018154018082558091505003905f5260205f209060030201905081815f019081610c259190612160565b5033816001015f6101000a81548173ffffffffffffffffffffffffffffffffffffffff021916908373ffffffffffffffffffffffffffffffffffffffff1602179055505f6001600780549050610c7b9190611cfc565b90508060085f3373ffffffffffffffffffffffffffffffffffffffff1673ffffffffffffffffffffffffffffffffffffffff1681526020019081526020015f2081905550505050565b600b5f9054906101000a900473ffffffffffffffffffffffffffffffffffffffff1681565b6008602052805f5260405f205f915090505481565b60605f6006548310610d45576040517f08c379a0000000000000000000000000000000000000000000000000000000008152600401610d3c90612279565b60405180910390fd5b60055f8481526020019081526020015f205f0160055f8581526020019081526020015f206002015460055f8681526020019081526020015f2060010154610d8c9190611d8c565b818054610d9890611e27565b80601f0160208091040260200160405190810160405280929190818152602001828054610dc490611e27565b8015610e0f5780601f10610de657610100808354040283529160200191610e0f565b820191905f5260205f20905b815481529060010190602001808311610df257829003601f168201915b5050505050915091509150915091565b5f8080549050905090565b60035481565b600a8181548110610e3f575f80fd5b905f5260205f2090600502015f91509050805f018054610e5e90611e27565b80601f0160208091040260200160405190810160405280929190818152602001828054610e8a90611e27565b8015610ed55780601f10610eac57610100808354040283529160200191610ed5565b820191905f5260205f20905b815481529060010190602001808311610eb857829003601f168201915b505050505090806001015490806002015f9054906101000a900473ffffffffffffffffffffffffffffffffffffffff16908060020160149054906101000a900460ff16908060040154905085565b5f600960018160018154018082558091505003905f5260205f209060030201905081815f019081610f549190612160565b505f816001015f6101000a81548160ff0219169083151502179055505050565b600b5f9054906101000a900473ffffffffffffffffffffffffffffffffffffffff1673ffffffffffffffffffffffffffffffffffffffff163373ffffffffffffffffffffffffffffffffffffffff1614610fcc575f80fd5b5f600a60018160018154018082558091505003905f5260205f209060050201905083815f019081610ffd9190612160565b5082816001018190555081816002015f6101000a81548173ffffffffffffffffffffffffffffffffffffffff021916908373ffffffffffffffffffffffffffffffffffffffff1602179055505f8160020160146101000a81548160ff0219169083151502179055505f816004018190555050505050565b5f81836110819190611d8c565b90508060015f8282546110949190611cc9565b9250508190555060405180606001604052808581526020018481526020018381525060055f60065481526020019081526020015f205f820151815f0190816110dc9190612160565b50602082015181600101556040820151816002015590505060065f81548092919061110690612297565b919050555050505050565b6005602052805f5260405f205f91509050805f01805461113090611e27565b80601f016020809104026020016040519081016040528092919081815260200182805461115c90611e27565b80156111a75780601f1061117e576101008083540402835291602001916111a7565b820191905f5260205f20905b81548152906001019060200180831161118a57829003601f168201915b5050505050908060010154908060020154905083565b600781815481106111cc575f80fd5b905f5260205f2090600302015f91509050805f0180546111eb90611e27565b80601f016020809104026020016040519081016040528092919081815260200182805461121790611e27565b80156112625780601f1061123957610100808354040283529160200191611262565b820191905f5260205f20905b81548152906001019060200180831161124557829003601f168201915b505050505090806001015f9054906101000a900473ffffffffffffffffffffffffffffffffffffffff16905082565b5f600760085f3373ffffffffffffffffffffffffffffffffffffffff1673ffffffffffffffffffffffffffffffffffffffff1681526020019081526020015f2054815481106112e3576112e2611dcd565b5b905f5260205f209060030201905060405180604001604052808481526020018381525081600201856040516113189190611ef9565b90815260200160405180910390205f820151815f01556020820151816001015590505050505050565b60098181548110611350575f80fd5b905f5260205f2090600302015f91509050805f01805461136f90611e27565b80601f016020809104026020016040519081016040528092919081815260200182805461139b90611e27565b80156113e65780601f106113bd576101008083540402835291602001916113e6565b820191905f5260205f20905b8154815290600101906020018083116113c957829003601f168201915b505050505090806001015f9054906101000a900460ff16905082565b60015481565b5f803411611414575f80fd5b6001600c5f3373ffffffffffffffffffffffffffffffffffffffff1673ffffffffffffffffffffffffffffffffffffffff1681526020019081526020015f205f6101000a81548160ff021916908315150217905550600d5f81548092919061147b90612297565b919050555034905090565b5f600a828154811061149b5761149a611dcd565b5b905f5260205f2090600502019050600c5f3373ffffffffffffffffffffffffffffffffffffffff1673ffffffffffffffffffffffffffffffffffffffff1681526020019081526020015f205f9054906101000a900460ff166114fb575f80fd5b806003015f3373ffffffffffffffffffffffffffffffffffffffff1673ffffffffffffffffffffffffffffffffffffffff1681526020019081526020015f205f9054906101000a900460ff1615611550575f80fd5b6001816003015f3373ffffffffffffffffffffffffffffffffffffffff1673ffffffffffffffffffffffffffffffffffffffff1681526020019081526020015f205f6101000a81548160ff021916908315150217905550806004015f8154809291906115bb90612297565b91905055505050565b600d5481565b60025481565b5f604051905090565b5f80fd5b5f80fd5b5f819050919050565b6115f3816115e1565b81146115fd575f80fd5b50565b5f8135905061160e816115ea565b92915050565b5f805f6060848603121561162b5761162a6115d9565b5b5f61163886828701611600565b935050602061164986828701611600565b925050604061165a86828701611600565b9150509250925092565b61166d816115e1565b82525050565b5f6020820190506116865f830184611664565b92915050565b5f602082840312156116a1576116a06115d9565b5b5f6116ae84828501611600565b91505092915050565b5f73ffffffffffffffffffffffffffffffffffffffff82169050919050565b5f6116e0826116b7565b9050919050565b6116f0816116d6565b81146116fa575f80fd5b50565b5f8135905061170b816116e7565b92915050565b5f60208284031215611726576117256115d9565b5b5f611733848285016116fd565b91505092915050565b5f8115159050919050565b6117508161173c565b82525050565b5f6020820190506117695f830184611747565b92915050565b611778816116d6565b82525050565b5f81519050919050565b5f82825260208201905092915050565b5f5b838110156117b557808201518184015260208101905061179a565b5f8484015250505050565b5f601f19601f8301169050919050565b5f6117da8261177e565b6117e48185611788565b93506117f4818560208601611798565b6117fd816117c0565b840191505092915050565b5f60a08201905061181b5f83018861176f565b6118286020830187611664565b818103604083015261183a81866117d0565b90506118496060830185611664565b6118566080830184611664565b9695505050505050565b5f80fd5b5f80fd5b7f4e487b71000000000000000000000000000000000000000000000000000000005f52604160045260245ffd5b61189e826117c0565b810181811067ffffffffffffffff821117156118bd576118bc611868565b5b80604052505050565b5f6118cf6115d0565b90506118db8282611895565b919050565b5f67ffffffffffffffff8211156118fa576118f9611868565b5b611903826117c0565b9050602081019050919050565b828183375f83830152505050565b5f61193061192b846118e0565b6118c6565b90508281526020810184848401111561194c5761194b611864565b5b611957848285611910565b509392505050565b5f82601f83011261197357611972611860565b5b813561198384826020860161191e565b91505092915050565b5f602082840312156119a1576119a06115d9565b5b5f82013567ffffffffffffffff8111156119be576119bd6115dd565b5b6119ca8482850161195f565b91505092915050565b5f6040820190506119e65f830185611664565b6119f36020830184611664565b9392505050565b5f805f805f60a08688031215611a1357611a126115d9565b5b5f611a20888289016116fd565b9550506020611a3188828901611600565b945050604086013567ffffffffffffffff811115611a5257611a516115dd565b5b611a5e8882890161195f565b9350506060611a6f88828901611600565b9250506080611a8088828901611600565b9150509295509295909350565b5f602082019050611aa05f83018461176f565b92915050565b5f6040820190508181035f830152611abe81856117d0565b9050611acd6020830184611664565b9392505050565b5f60a0820190508181035f830152611aec81886117d0565b9050611afb6020830187611664565b611b08604083018661176f565b611b156060830185611747565b611b226080830184611664565b9695505050505050565b5f805f60608486031215611b4357611b426115d9565b5b5f84013567ffffffffffffffff811115611b6057611b5f6115dd565b5b611b6c8682870161195f565b9350506020611b7d86828701611600565b9250506040611b8e868287016116fd565b9150509250925092565b5f805f60608486031215611baf57611bae6115d9565b5b5f84013567ffffffffffffffff811115611bcc57611bcb6115dd565b5b611bd88682870161195f565b9350506020611be986828701611600565b9250506040611bfa86828701611600565b9150509250925092565b5f6060820190508181035f830152611c1c81866117d0565b9050611c2b6020830185611664565b611c386040830184611664565b949350505050565b5f6040820190508181035f830152611c5881856117d0565b9050611c67602083018461176f565b9392505050565b5f6040820190508181035f830152611c8681856117d0565b9050611c956020830184611747565b9392505050565b7f4e487b71000000000000000000000000000000000000000000000000000000005f52601160045260245ffd5b5f611cd3826115e1565b9150611cde836115e1565b9250828201905080821115611cf657611cf5611c9c565b5b92915050565b5f611d06826115e1565b9150611d11836115e1565b9250828203905081811115611d2957611d28611c9c565b5b92915050565b7f4e487b71000000000000000000000000000000000000000000000000000000005f52601260045260245ffd5b5f611d66826115e1565b9150611d71836115e1565b925082611d8157611d80611d2f565b5b828204905092915050565b5f611d96826115e1565b9150611da1836115e1565b9250828202611daf816115e1565b91508282048414831517611dc657611dc5611c9c565b5b5092915050565b7f4e487b71000000000000000000000000000000000000000000000000000000005f52603260045260245ffd5b7f4e487b71000000000000000000000000000000000000000000000000000000005f52602260045260245ffd5b5f6002820490506001821680611e3e57607f821691505b602082108103611e5157611e50611dfa565b5b50919050565b7f496e76616c696420706172746e657220616464726573732e00000000000000005f82015250565b5f611e8b601883611788565b9150611e9682611e57565b602082019050919050565b5f6020820190508181035f830152611eb881611e7f565b9050919050565b5f81905092915050565b5f611ed38261177e565b611edd8185611ebf565b9350611eed818560208601611798565b80840191505092915050565b5f611f048284611ec9565b915081905092915050565b7f596f7572204c696d697420636f6e736f6d6174696f6e206d75737420626520685f8201527f6967686572207468616e20796f757220757375616c20436f6e736f6d6174696f60208201527f6e00000000000000000000000000000000000000000000000000000000000000604082015250565b5f611f8f604183611788565b9150611f9a82611f0f565b606082019050919050565b5f6020820190508181035f830152611fbc81611f83565b9050919050565b5f819050815f5260205f209050919050565b5f6020601f8301049050919050565b5f82821b905092915050565b5f6008830261201f7fffffffffffffffffffffffffffffffffffffffffffffffffffffffffffffffff82611fe4565b6120298683611fe4565b95508019841693508086168417925050509392505050565b5f819050919050565b5f61206461205f61205a846115e1565b612041565b6115e1565b9050919050565b5f819050919050565b61207d8361204a565b6120916120898261206b565b848454611ff0565b825550505050565b5f90565b6120a5612099565b6120b0818484612074565b505050565b5b818110156120d3576120c85f8261209d565b6001810190506120b6565b5050565b601f821115612118576120e981611fc3565b6120f284611fd5565b81016020851015612101578190505b61211561210d85611fd5565b8301826120b5565b50505b505050565b5f82821c905092915050565b5f6121385f198460080261211d565b1980831691505092915050565b5f6121508383612129565b9150826002028217905092915050565b6121698261177e565b67ffffffffffffffff81111561218257612181611868565b5b61218c8254611e27565b6121978282856120d7565b5f60209050601f8311600181146121c8575f84156121b6578287015190505b6121c08582612145565b865550612227565b601f1984166121d686611fc3565b5f5b828110156121fd578489015182556001820191506020850194506020810190506121d8565b8683101561221a5784890151612216601f891682612129565b8355505b6001600288020188555050505b505050505050565b7f496e64657820696e76616c6964650000000000000000000000000000000000005f82015250565b5f612263600e83611788565b915061226e8261222f565b602082019050919050565b5f6020820190508181035f83015261229081612257565b9050919050565b5f6122a1826115e1565b91507fffffffffffffffffffffffffffffffffffffffffffffffffffffffffffffffff82036122d3576122d2611c9c565b5b60018201905091905056fea264697066735822122040a904df26f7e148de5c12712f0a2645c3e048107b7f9f57a86ec54e0a97128a64736f6c63430008150033","opcodes":"PUSH1 0x80 PUSH1 0x40 MSTORE CALLVALUE DUP1 ISZERO PUSH2 0xF JUMPI PUSH0 DUP1 REVERT JUMPDEST POP PUSH2 0x2314 DUP1 PUSH2 0x1D PUSH0 CODECOPY PUSH0 RETURN INVALID PUSH1 0x80 PUSH1 0x40 MSTORE PUSH1 0x4 CALLDATASIZE LT PUSH2 0x1B5 JUMPI PUSH0 CALLDATALOAD PUSH1 0xE0 SHR DUP1 PUSH4 0x792CAC3B GT PUSH2 0xEB JUMPI DUP1 PUSH4 0xA37189CB GT PUSH2 0x89 JUMPI DUP1 PUSH4 0xD7BB99BA GT PUSH2 0x63 JUMPI DUP1 PUSH4 0xD7BB99BA EQ PUSH2 0x65B JUMPI DUP1 PUSH4 0xD7D1BBDB EQ PUSH2 0x679 JUMPI DUP1 PUSH4 0xFC81F5AD EQ PUSH2 0x6A1 JUMPI DUP1 PUSH4 0xFD958403 EQ PUSH2 0x6CB JUMPI PUSH2 0x1B5 JUMP JUMPDEST DUP1 PUSH4 0xA37189CB EQ PUSH2 0x5CC JUMPI DUP1 PUSH4 0xA4A66431 EQ PUSH2 0x5F4 JUMPI DUP1 PUSH4 0xAAA17235 EQ PUSH2 0x631 JUMPI PUSH2 0x1B5 JUMP JUMPDEST DUP1 PUSH4 0x8A9CFD55 GT PUSH2 0xC5 JUMPI DUP1 PUSH4 0x8A9CFD55 EQ PUSH2 0x501 JUMPI DUP1 PUSH4 0x91CF26F6 EQ PUSH2 0x529 JUMPI DUP1 PUSH4 0x962E7F62 EQ PUSH2 0x551 JUMPI DUP1 PUSH4 0x9D7CDD6F EQ PUSH2 0x58F JUMPI PUSH2 0x1B5 JUMP JUMPDEST DUP1 PUSH4 0x792CAC3B EQ PUSH2 0x46F JUMPI DUP1 PUSH4 0x81D12C58 EQ PUSH2 0x499 JUMPI DUP1 PUSH4 0x87859AD0 EQ PUSH2 0x4D9 JUMPI PUSH2 0x1B5 JUMP JUMPDEST DUP1 PUSH4 0x21E51B51 GT PUSH2 0x158 JUMPI DUP1 PUSH4 0x481C6A75 GT PUSH2 0x132 JUMPI DUP1 PUSH4 0x481C6A75 EQ PUSH2 0x3A2 JUMPI DUP1 PUSH4 0x4CDA853B EQ PUSH2 0x3CC JUMPI DUP1 PUSH4 0x6C9FF6B9 EQ PUSH2 0x408 JUMPI DUP1 PUSH4 0x6CAA9218 EQ PUSH2 0x445 JUMPI PUSH2 0x1B5 JUMP JUMPDEST DUP1 PUSH4 0x21E51B51 EQ PUSH2 0x328 JUMPI DUP1 PUSH4 0x22FA19BC EQ PUSH2 0x350 JUMPI DUP1 PUSH4 0x46B8DF2E EQ PUSH2 0x37A JUMPI PUSH2 0x1B5 JUMP JUMPDEST DUP1 PUSH4 0xA144391 GT PUSH2 0x194 JUMPI DUP1 PUSH4 0xA144391 EQ PUSH2 0x245 JUMPI DUP1 PUSH4 0x141961BC EQ PUSH2 0x281 JUMPI DUP1 PUSH4 0x15A252E3 EQ PUSH2 0x2C1 JUMPI DUP1 PUSH4 0x208B7E9A EQ PUSH2 0x2EB JUMPI PUSH2 0x1B5 JUMP JUMPDEST DUP1 PUSH3 0xB0D0D5 EQ PUSH2 0x1B9 JUMPI DUP1 PUSH4 0x3441006 EQ PUSH2 0x1F5 JUMPI DUP1 PUSH4 0x600D8FC EQ PUSH2 0x21D JUMPI JUMPDEST PUSH0 DUP1 REVERT JUMPDEST CALLVALUE DUP1 ISZERO PUSH2 0x1C4 JUMPI PUSH0 DUP1 REVERT JUMPDEST POP PUSH2 0x1DF PUSH1 0x4 DUP1 CALLDATASIZE SUB DUP2 ADD SWAP1 PUSH2 0x1DA SWAP2 SWAP1 PUSH2 0x1614 JUMP JUMPDEST PUSH2 0x6F5 JUMP JUMPDEST PUSH1 0x40 MLOAD PUSH2 0x1EC SWAP2 SWAP1 PUSH2 0x1673 JUMP JUMPDEST PUSH1 0x40 MLOAD DUP1 SWAP2 SUB SWAP1 RETURN JUMPDEST CALLVALUE DUP1 ISZERO PUSH2 0x200 JUMPI PUSH0 DUP1 REVERT JUMPDEST POP PUSH2 0x21B PUSH1 0x4 DUP1 CALLDATASIZE SUB DUP2 ADD SWAP1 PUSH2 0x216 SWAP2 SWAP1 PUSH2 0x168C JUMP JUMPDEST PUSH2 0x732 JUMP JUMPDEST STOP JUMPDEST CALLVALUE DUP1 ISZERO PUSH2 0x228 JUMPI PUSH0 DUP1 REVERT JUMPDEST POP PUSH2 0x243 PUSH1 0x4 DUP1 CALLDATASIZE SUB DUP2 ADD SWAP1 PUSH2 0x23E SWAP2 SWAP1 PUSH2 0x1614 JUMP JUMPDEST PUSH2 0x876 JUMP JUMPDEST STOP JUMPDEST CALLVALUE DUP1 ISZERO PUSH2 0x250 JUMPI PUSH0 DUP1 REVERT JUMPDEST POP PUSH2 0x26B PUSH1 0x4 DUP1 CALLDATASIZE SUB DUP2 ADD SWAP1 PUSH2 0x266 SWAP2 SWAP1 PUSH2 0x1711 JUMP JUMPDEST PUSH2 0x8D5 JUMP JUMPDEST PUSH1 0x40 MLOAD PUSH2 0x278 SWAP2 SWAP1 PUSH2 0x1756 JUMP JUMPDEST PUSH1 0x40 MLOAD DUP1 SWAP2 SUB SWAP1 RETURN JUMPDEST CALLVALUE DUP1 ISZERO PUSH2 0x28C JUMPI PUSH0 DUP1 REVERT JUMPDEST POP PUSH2 0x2A7 PUSH1 0x4 DUP1 CALLDATASIZE SUB DUP2 ADD SWAP1 PUSH2 0x2A2 SWAP2 SWAP1 PUSH2 0x168C JUMP JUMPDEST PUSH2 0x8F2 JUMP JUMPDEST PUSH1 0x40 MLOAD PUSH2 0x2B8 SWAP6 SWAP5 SWAP4 SWAP3 SWAP2 SWAP1 PUSH2 0x1808 JUMP JUMPDEST PUSH1 0x40 MLOAD DUP1 SWAP2 SUB SWAP1 RETURN JUMPDEST CALLVALUE DUP1 ISZERO PUSH2 0x2CC JUMPI PUSH0 DUP1 REVERT JUMPDEST POP PUSH2 0x2D5 PUSH2 0x9D7 JUMP JUMPDEST PUSH1 0x40 MLOAD PUSH2 0x2E2 SWAP2 SWAP1 PUSH2 0x1673 JUMP JUMPDEST PUSH1 0x40 MLOAD DUP1 SWAP2 SUB SWAP1 RETURN JUMPDEST CALLVALUE DUP1 ISZERO PUSH2 0x2F6 JUMPI PUSH0 DUP1 REVERT JUMPDEST POP PUSH2 0x311 PUSH1 0x4 DUP1 CALLDATASIZE SUB DUP2 ADD SWAP1 PUSH2 0x30C SWAP2 SWAP1 PUSH2 0x198C JUMP JUMPDEST PUSH2 0x9DD JUMP JUMPDEST PUSH1 0x40 MLOAD PUSH2 0x31F SWAP3 SWAP2 SWAP1 PUSH2 0x19D3 JUMP JUMPDEST PUSH1 0x40 MLOAD DUP1 SWAP2 SUB SWAP1 RETURN JUMPDEST CALLVALUE DUP1 ISZERO PUSH2 0x333 JUMPI PUSH0 DUP1 REVERT JUMPDEST POP PUSH2 0x34E PUSH1 0x4 DUP1 CALLDATASIZE SUB DUP2 ADD SWAP1 PUSH2 0x349 SWAP2 SWAP1 PUSH2 0x19FA JUMP JUMPDEST PUSH2 0xAC2 JUMP JUMPDEST STOP JUMPDEST CALLVALUE DUP1 ISZERO PUSH2 0x35B JUMPI PUSH0 DUP1 REVERT JUMPDEST POP PUSH2 0x364 PUSH2 0xBEE JUMP JUMPDEST PUSH1 0x40 MLOAD PUSH2 0x371 SWAP2 SWAP1 PUSH2 0x1673 JUMP JUMPDEST PUSH1 0x40 MLOAD DUP1 SWAP2 SUB SWAP1 RETURN JUMPDEST CALLVALUE DUP1 ISZERO PUSH2 0x385 JUMPI PUSH0 DUP1 REVERT JUMPDEST POP PUSH2 0x3A0 PUSH1 0x4 DUP1 CALLDATASIZE SUB DUP2 ADD SWAP1 PUSH2 0x39B SWAP2 SWAP1 PUSH2 0x198C JUMP JUMPDEST PUSH2 0xBF4 JUMP JUMPDEST STOP JUMPDEST CALLVALUE DUP1 ISZERO PUSH2 0x3AD JUMPI PUSH0 DUP1 REVERT JUMPDEST POP PUSH2 0x3B6 PUSH2 0xCC4 JUMP JUMPDEST PUSH1 0x40 MLOAD PUSH2 0x3C3 SWAP2 SWAP1 PUSH2 0x1A8D JUMP JUMPDEST PUSH1 0x40 MLOAD DUP1 SWAP2 SUB SWAP1 RETURN JUMPDEST CALLVALUE DUP1 ISZERO PUSH2 0x3D7 JUMPI PUSH0 DUP1 REVERT JUMPDEST POP PUSH2 0x3F2 PUSH1 0x4 DUP1 CALLDATASIZE SUB DUP2 ADD SWAP1 PUSH2 0x3ED SWAP2 SWAP1 PUSH2 0x1711 JUMP JUMPDEST PUSH2 0xCE9 JUMP JUMPDEST PUSH1 0x40 MLOAD PUSH2 0x3FF SWAP2 SWAP1 PUSH2 0x1673 JUMP JUMPDEST PUSH1 0x40 MLOAD DUP1 SWAP2 SUB SWAP1 RETURN JUMPDEST CALLVALUE DUP1 ISZERO PUSH2 0x413 JUMPI PUSH0 DUP1 REVERT JUMPDEST POP PUSH2 0x42E PUSH1 0x4 DUP1 CALLDATASIZE SUB DUP2 ADD SWAP1 PUSH2 0x429 SWAP2 SWAP1 PUSH2 0x168C JUMP JUMPDEST PUSH2 0xCFE JUMP JUMPDEST PUSH1 0x40 MLOAD PUSH2 0x43C SWAP3 SWAP2 SWAP1 PUSH2 0x1AA6 JUMP JUMPDEST PUSH1 0x40 MLOAD DUP1 SWAP2 SUB SWAP1 RETURN JUMPDEST CALLVALUE DUP1 ISZERO PUSH2 0x450 JUMPI PUSH0 DUP1 REVERT JUMPDEST POP PUSH2 0x459 PUSH2 0xE1F JUMP JUMPDEST PUSH1 0x40 MLOAD PUSH2 0x466 SWAP2 SWAP1 PUSH2 0x1673 JUMP JUMPDEST PUSH1 0x40 MLOAD DUP1 SWAP2 SUB SWAP1 RETURN JUMPDEST CALLVALUE DUP1 ISZERO PUSH2 0x47A JUMPI PUSH0 DUP1 REVERT JUMPDEST POP PUSH2 0x483 PUSH2 0xE2A JUMP JUMPDEST PUSH1 0x40 MLOAD PUSH2 0x490 SWAP2 SWAP1 PUSH2 0x1673 JUMP JUMPDEST PUSH1 0x40 MLOAD DUP1 SWAP2 SUB SWAP1 RETURN JUMPDEST CALLVALUE DUP1 ISZERO PUSH2 0x4A4 JUMPI PUSH0 DUP1 REVERT JUMPDEST POP PUSH2 0x4BF PUSH1 0x4 DUP1 CALLDATASIZE SUB DUP2 ADD SWAP1 PUSH2 0x4BA SWAP2 SWAP1 PUSH2 0x168C JUMP JUMPDEST PUSH2 0xE30 JUMP JUMPDEST PUSH1 0x40 MLOAD PUSH2 0x4D0 SWAP6 SWAP5 SWAP4 SWAP3 SWAP2 SWAP1 PUSH2 0x1AD4 JUMP JUMPDEST PUSH1 0x40 MLOAD DUP1 SWAP2 SUB SWAP1 RETURN JUMPDEST CALLVALUE DUP1 ISZERO PUSH2 0x4E4 JUMPI PUSH0 DUP1 REVERT JUMPDEST POP PUSH2 0x4FF PUSH1 0x4 DUP1 CALLDATASIZE SUB DUP2 ADD SWAP1 PUSH2 0x4FA SWAP2 SWAP1 PUSH2 0x198C JUMP JUMPDEST PUSH2 0xF23 JUMP JUMPDEST STOP JUMPDEST CALLVALUE DUP1 ISZERO PUSH2 0x50C JUMPI PUSH0 DUP1 REVERT JUMPDEST POP PUSH2 0x527 PUSH1 0x4 DUP1 CALLDATASIZE SUB DUP2 ADD SWAP1 PUSH2 0x522 SWAP2 SWAP1 PUSH2 0x1B2C JUMP JUMPDEST PUSH2 0xF74 JUMP JUMPDEST STOP JUMPDEST CALLVALUE DUP1 ISZERO PUSH2 0x534 JUMPI PUSH0 DUP1 REVERT JUMPDEST POP PUSH2 0x54F PUSH1 0x4 DUP1 CALLDATASIZE SUB DUP2 ADD SWAP1 PUSH2 0x54A SWAP2 SWAP1 PUSH2 0x1B98 JUMP JUMPDEST PUSH2 0x1074 JUMP JUMPDEST STOP JUMPDEST CALLVALUE DUP1 ISZERO PUSH2 0x55C JUMPI PUSH0 DUP1 REVERT JUMPDEST POP PUSH2 0x577 PUSH1 0x4 DUP1 CALLDATASIZE SUB DUP2 ADD SWAP1 PUSH2 0x572 SWAP2 SWAP1 PUSH2 0x168C JUMP JUMPDEST PUSH2 0x1111 JUMP JUMPDEST PUSH1 0x40 MLOAD PUSH2 0x586 SWAP4 SWAP3 SWAP2 SWAP1 PUSH2 0x1C04 JUMP JUMPDEST PUSH1 0x40 MLOAD DUP1 SWAP2 SUB SWAP1 RETURN JUMPDEST CALLVALUE DUP1 ISZERO PUSH2 0x59A JUMPI PUSH0 DUP1 REVERT JUMPDEST POP PUSH2 0x5B5 PUSH1 0x4 DUP1 CALLDATASIZE SUB DUP2 ADD SWAP1 PUSH2 0x5B0 SWAP2 SWAP1 PUSH2 0x168C JUMP JUMPDEST PUSH2 0x11BD JUMP JUMPDEST PUSH1 0x40 MLOAD PUSH2 0x5C3 SWAP3 SWAP2 SWAP1 PUSH2 0x1C40 JUMP JUMPDEST PUSH1 0x40 MLOAD DUP1 SWAP2 SUB SWAP1 RETURN JUMPDEST CALLVALUE DUP1 ISZERO PUSH2 0x5D7 JUMPI PUSH0 DUP1 REVERT JUMPDEST POP PUSH2 0x5F2 PUSH1 0x4 DUP1 CALLDATASIZE SUB DUP2 ADD SWAP1 PUSH2 0x5ED SWAP2 SWAP1 PUSH2 0x1B98 JUMP JUMPDEST PUSH2 0x1291 JUMP JUMPDEST STOP JUMPDEST CALLVALUE DUP1 ISZERO PUSH2 0x5FF JUMPI PUSH0 DUP1 REVERT JUMPDEST POP PUSH2 0x61A PUSH1 0x4 DUP1 CALLDATASIZE SUB DUP2 ADD SWAP1 PUSH2 0x615 SWAP2 SWAP1 PUSH2 0x168C JUMP JUMPDEST PUSH2 0x1341 JUMP JUMPDEST PUSH1 0x40 MLOAD PUSH2 0x628 SWAP3 SWAP2 SWAP1 PUSH2 0x1C6E JUMP JUMPDEST PUSH1 0x40 MLOAD DUP1 SWAP2 SUB SWAP1 RETURN JUMPDEST CALLVALUE DUP1 ISZERO PUSH2 0x63C JUMPI PUSH0 DUP1 REVERT JUMPDEST POP PUSH2 0x645 PUSH2 0x1402 JUMP JUMPDEST PUSH1 0x40 MLOAD PUSH2 0x652 SWAP2 SWAP1 PUSH2 0x1673 JUMP JUMPDEST PUSH1 0x40 MLOAD DUP1 SWAP2 SUB SWAP1 RETURN JUMPDEST PUSH2 0x663 PUSH2 0x1408 JUMP JUMPDEST PUSH1 0x40 MLOAD PUSH2 0x670 SWAP2 SWAP1 PUSH2 0x1673 JUMP JUMPDEST PUSH1 0x40 MLOAD DUP1 SWAP2 SUB SWAP1 RETURN JUMPDEST CALLVALUE DUP1 ISZERO PUSH2 0x684 JUMPI PUSH0 DUP1 REVERT JUMPDEST POP PUSH2 0x69F PUSH1 0x4 DUP1 CALLDATASIZE SUB DUP2 ADD SWAP1 PUSH2 0x69A SWAP2 SWAP1 PUSH2 0x168C JUMP JUMPDEST PUSH2 0x1486 JUMP JUMPDEST STOP JUMPDEST CALLVALUE DUP1 ISZERO PUSH2 0x6AC JUMPI PUSH0 DUP1 REVERT JUMPDEST POP PUSH2 0x6B5 PUSH2 0x15C4 JUMP JUMPDEST PUSH1 0x40 MLOAD PUSH2 0x6C2 SWAP2 SWAP1 PUSH2 0x1673 JUMP JUMPDEST PUSH1 0x40 MLOAD DUP1 SWAP2 SUB SWAP1 RETURN JUMPDEST CALLVALUE DUP1 ISZERO PUSH2 0x6D6 JUMPI PUSH0 DUP1 REVERT JUMPDEST POP PUSH2 0x6DF PUSH2 0x15CA JUMP JUMPDEST PUSH1 0x40 MLOAD PUSH2 0x6EC SWAP2 SWAP1 PUSH2 0x1673 JUMP JUMPDEST PUSH1 0x40 MLOAD DUP1 SWAP2 SUB SWAP1 RETURN JUMPDEST PUSH0 DUP1 DUP3 PUSH1 0x1 DUP5 DUP8 PUSH2 0x706 SWAP2 SWAP1 PUSH2 0x1CC9 JUMP JUMPDEST PUSH2 0x710 SWAP2 SWAP1 PUSH2 0x1CFC JUMP JUMPDEST PUSH2 0x71A SWAP2 SWAP1 PUSH2 0x1D5C JUMP JUMPDEST SWAP1 POP DUP1 DUP5 PUSH2 0x728 SWAP2 SWAP1 PUSH2 0x1D8C JUMP JUMPDEST SWAP2 POP POP SWAP4 SWAP3 POP POP POP JUMP JUMPDEST PUSH1 0xB PUSH0 SWAP1 SLOAD SWAP1 PUSH2 0x100 EXP SWAP1 DIV PUSH20 0xFFFFFFFFFFFFFFFFFFFFFFFFFFFFFFFFFFFFFFFF AND PUSH20 0xFFFFFFFFFFFFFFFFFFFFFFFFFFFFFFFFFFFFFFFF AND CALLER PUSH20 0xFFFFFFFFFFFFFFFFFFFFFFFFFFFFFFFFFFFFFFFF AND EQ PUSH2 0x78A JUMPI PUSH0 DUP1 REVERT JUMPDEST PUSH0 PUSH1 0xA DUP3 DUP2 SLOAD DUP2 LT PUSH2 0x79F JUMPI PUSH2 0x79E PUSH2 0x1DCD JUMP JUMPDEST JUMPDEST SWAP1 PUSH0 MSTORE PUSH1 0x20 PUSH0 KECCAK256 SWAP1 PUSH1 0x5 MUL ADD SWAP1 POP DUP1 PUSH1 0x2 ADD PUSH1 0x14 SWAP1 SLOAD SWAP1 PUSH2 0x100 EXP SWAP1 DIV PUSH1 0xFF AND ISZERO PUSH2 0x7C8 JUMPI PUSH0 DUP1 REVERT JUMPDEST PUSH1 0x2 PUSH1 0xD SLOAD PUSH2 0x7D7 SWAP2 SWAP1 PUSH2 0x1D5C JUMP JUMPDEST DUP2 PUSH1 0x4 ADD SLOAD GT PUSH2 0x7E5 JUMPI PUSH0 DUP1 REVERT JUMPDEST PUSH0 DUP2 PUSH1 0x2 ADD PUSH0 SWAP1 SLOAD SWAP1 PUSH2 0x100 EXP SWAP1 DIV PUSH20 0xFFFFFFFFFFFFFFFFFFFFFFFFFFFFFFFFFFFFFFFF AND SWAP1 POP DUP1 PUSH20 0xFFFFFFFFFFFFFFFFFFFFFFFFFFFFFFFFFFFFFFFF AND PUSH2 0x8FC DUP4 PUSH1 0x1 ADD SLOAD SWAP1 DUP2 ISZERO MUL SWAP1 PUSH1 0x40 MLOAD PUSH0 PUSH1 0x40 MLOAD DUP1 DUP4 SUB DUP2 DUP6 DUP9 DUP9 CALL SWAP4 POP POP POP POP ISZERO DUP1 ISZERO PUSH2 0x853 JUMPI RETURNDATASIZE PUSH0 DUP1 RETURNDATACOPY RETURNDATASIZE PUSH0 REVERT JUMPDEST POP PUSH1 0x1 DUP3 PUSH1 0x2 ADD PUSH1 0x14 PUSH2 0x100 EXP DUP2 SLOAD DUP2 PUSH1 0xFF MUL NOT AND SWAP1 DUP4 ISZERO ISZERO MUL OR SWAP1 SSTORE POP POP POP POP JUMP JUMPDEST DUP3 PUSH1 0x2 DUP2 SWAP1 SSTORE POP DUP2 PUSH1 0x3 DUP2 SWAP1 SSTORE POP DUP1 PUSH1 0x4 DUP2 SWAP1 SSTORE POP PUSH0 PUSH1 0x64 PUSH1 0x3 SLOAD PUSH2 0x89B SWAP2 SWAP1 PUSH2 0x1D8C JUMP JUMPDEST PUSH2 0x3E8 PUSH1 0x2 SLOAD PUSH2 0x8AB SWAP2 SWAP1 PUSH2 0x1D8C JUMP JUMPDEST PUSH2 0x8B5 SWAP2 SWAP1 PUSH2 0x1CC9 JUMP JUMPDEST SWAP1 POP DUP1 PUSH1 0x1 PUSH0 DUP3 DUP3 SLOAD PUSH2 0x8C8 SWAP2 SWAP1 PUSH2 0x1CC9 JUMP JUMPDEST SWAP3 POP POP DUP2 SWAP1 SSTORE POP POP POP POP POP JUMP JUMPDEST PUSH1 0xC PUSH1 0x20 MSTORE DUP1 PUSH0 MSTORE PUSH1 0x40 PUSH0 KECCAK256 PUSH0 SWAP2 POP SLOAD SWAP1 PUSH2 0x100 EXP SWAP1 DIV PUSH1 0xFF AND DUP2 JUMP JUMPDEST PUSH0 DUP2 DUP2 SLOAD DUP2 LT PUSH2 0x900 JUMPI PUSH0 DUP1 REVERT JUMPDEST SWAP1 PUSH0 MSTORE PUSH1 0x20 PUSH0 KECCAK256 SWAP1 PUSH1 0x5 MUL ADD PUSH0 SWAP2 POP SWAP1 POP DUP1 PUSH0 ADD PUSH0 SWAP1 SLOAD SWAP1 PUSH2 0x100 EXP SWAP1 DIV PUSH20 0xFFFFFFFFFFFFFFFFFFFFFFFFFFFFFFFFFFFFFFFF AND SWAP1 DUP1 PUSH1 0x1 ADD SLOAD SWAP1 DUP1 PUSH1 0x2 ADD DUP1 SLOAD PUSH2 0x94A SWAP1 PUSH2 0x1E27 JUMP JUMPDEST DUP1 PUSH1 0x1F ADD PUSH1 0x20 DUP1 SWAP2 DIV MUL PUSH1 0x20 ADD PUSH1 0x40 MLOAD SWAP1 DUP2 ADD PUSH1 0x40 MSTORE DUP1 SWAP3 SWAP2 SWAP1 DUP2 DUP2 MSTORE PUSH1 0x20 ADD DUP3 DUP1 SLOAD PUSH2 0x976 SWAP1 PUSH2 0x1E27 JUMP JUMPDEST DUP1 ISZERO PUSH2 0x9C1 JUMPI DUP1 PUSH1 0x1F LT PUSH2 0x998 JUMPI PUSH2 0x100 DUP1 DUP4 SLOAD DIV MUL DUP4 MSTORE SWAP2 PUSH1 0x20 ADD SWAP2 PUSH2 0x9C1 JUMP JUMPDEST DUP3 ADD SWAP2 SWAP1 PUSH0 MSTORE PUSH1 0x20 PUSH0 KECCAK256 SWAP1 JUMPDEST DUP2 SLOAD DUP2 MSTORE SWAP1 PUSH1 0x1 ADD SWAP1 PUSH1 0x20 ADD DUP1 DUP4 GT PUSH2 0x9A4 JUMPI DUP3 SWAP1 SUB PUSH1 0x1F AND DUP3 ADD SWAP2 JUMPDEST POP POP POP POP POP SWAP1 DUP1 PUSH1 0x3 ADD SLOAD SWAP1 DUP1 PUSH1 0x4 ADD SLOAD SWAP1 POP DUP6 JUMP JUMPDEST PUSH1 0x6 SLOAD DUP2 JUMP JUMPDEST PUSH0 DUP1 PUSH0 PUSH1 0x8 PUSH0 CALLER PUSH20 0xFFFFFFFFFFFFFFFFFFFFFFFFFFFFFFFFFFFFFFFF AND PUSH20 0xFFFFFFFFFFFFFFFFFFFFFFFFFFFFFFFFFFFFFFFF AND DUP2 MSTORE PUSH1 0x20 ADD SWAP1 DUP2 MSTORE PUSH1 0x20 ADD PUSH0 KECCAK256 SLOAD SWAP1 POP PUSH1 0x7 DUP1 SLOAD SWAP1 POP DUP2 LT PUSH2 0xA67 JUMPI PUSH1 0x40 MLOAD PUSH32 0x8C379A000000000000000000000000000000000000000000000000000000000 DUP2 MSTORE PUSH1 0x4 ADD PUSH2 0xA5E SWAP1 PUSH2 0x1EA1 JUMP JUMPDEST PUSH1 0x40 MLOAD DUP1 SWAP2 SUB SWAP1 REVERT JUMPDEST PUSH0 PUSH1 0x7 DUP3 DUP2 SLOAD DUP2 LT PUSH2 0xA7C JUMPI PUSH2 0xA7B PUSH2 0x1DCD JUMP JUMPDEST JUMPDEST SWAP1 PUSH0 MSTORE PUSH1 0x20 PUSH0 KECCAK256 SWAP1 PUSH1 0x3 MUL ADD SWAP1 POP PUSH0 DUP2 PUSH1 0x2 ADD DUP7 PUSH1 0x40 MLOAD PUSH2 0xA9D SWAP2 SWAP1 PUSH2 0x1EF9 JUMP JUMPDEST SWAP1 DUP2 MSTORE PUSH1 0x20 ADD PUSH1 0x40 MLOAD DUP1 SWAP2 SUB SWAP1 KECCAK256 SWAP1 POP DUP1 PUSH0 ADD SLOAD DUP2 PUSH1 0x1 ADD SLOAD SWAP5 POP SWAP5 POP POP POP POP SWAP2 POP SWAP2 JUMP JUMPDEST DUP2 DUP5 LT PUSH2 0xB04 JUMPI PUSH1 0x40 MLOAD PUSH32 0x8C379A000000000000000000000000000000000000000000000000000000000 DUP2 MSTORE PUSH1 0x4 ADD PUSH2 0xAFB SWAP1 PUSH2 0x1FA5 JUMP JUMPDEST PUSH1 0x40 MLOAD DUP1 SWAP2 SUB SWAP1 REVERT JUMPDEST PUSH0 PUSH1 0x40 MLOAD DUP1 PUSH1 0xA0 ADD PUSH1 0x40 MSTORE DUP1 DUP8 PUSH20 0xFFFFFFFFFFFFFFFFFFFFFFFFFFFFFFFFFFFFFFFF AND DUP2 MSTORE PUSH1 0x20 ADD DUP7 DUP2 MSTORE PUSH1 0x20 ADD DUP6 DUP2 MSTORE PUSH1 0x20 ADD DUP5 DUP2 MSTORE PUSH1 0x20 ADD DUP4 DUP2 MSTORE POP SWAP1 POP PUSH0 DUP2 SWAP1 DUP1 PUSH1 0x1 DUP2 SLOAD ADD DUP1 DUP3 SSTORE DUP1 SWAP2 POP POP PUSH1 0x1 SWAP1 SUB SWAP1 PUSH0 MSTORE PUSH1 0x20 PUSH0 KECCAK256 SWAP1 PUSH1 0x5 MUL ADD PUSH0 SWAP1 SWAP2 SWAP1 SWAP2 SWAP1 SWAP2 POP PUSH0 DUP3 ADD MLOAD DUP2 PUSH0 ADD PUSH0 PUSH2 0x100 EXP DUP2 SLOAD DUP2 PUSH20 0xFFFFFFFFFFFFFFFFFFFFFFFFFFFFFFFFFFFFFFFF MUL NOT AND SWAP1 DUP4 PUSH20 0xFFFFFFFFFFFFFFFFFFFFFFFFFFFFFFFFFFFFFFFF AND MUL OR SWAP1 SSTORE POP PUSH1 0x20 DUP3 ADD MLOAD DUP2 PUSH1 0x1 ADD SSTORE PUSH1 0x40 DUP3 ADD MLOAD DUP2 PUSH1 0x2 ADD SWAP1 DUP2 PUSH2 0xBCF SWAP2 SWAP1 PUSH2 0x2160 JUMP JUMPDEST POP PUSH1 0x60 DUP3 ADD MLOAD DUP2 PUSH1 0x3 ADD SSTORE PUSH1 0x80 DUP3 ADD MLOAD DUP2 PUSH1 0x4 ADD SSTORE POP POP POP POP POP POP POP POP JUMP JUMPDEST PUSH1 0x4 SLOAD DUP2 JUMP JUMPDEST PUSH0 PUSH1 0x7 PUSH1 0x1 DUP2 PUSH1 0x1 DUP2 SLOAD ADD DUP1 DUP3 SSTORE DUP1 SWAP2 POP POP SUB SWAP1 PUSH0 MSTORE PUSH1 0x20 PUSH0 KECCAK256 SWAP1 PUSH1 0x3 MUL ADD SWAP1 POP DUP2 DUP2 PUSH0 ADD SWAP1 DUP2 PUSH2 0xC25 SWAP2 SWAP1 PUSH2 0x2160 JUMP JUMPDEST POP CALLER DUP2 PUSH1 0x1 ADD PUSH0 PUSH2 0x100 EXP DUP2 SLOAD DUP2 PUSH20 0xFFFFFFFFFFFFFFFFFFFFFFFFFFFFFFFFFFFFFFFF MUL NOT AND SWAP1 DUP4 PUSH20 0xFFFFFFFFFFFFFFFFFFFFFFFFFFFFFFFFFFFFFFFF AND MUL OR SWAP1 SSTORE POP PUSH0 PUSH1 0x1 PUSH1 0x7 DUP1 SLOAD SWAP1 POP PUSH2 0xC7B SWAP2 SWAP1 PUSH2 0x1CFC JUMP JUMPDEST SWAP1 POP DUP1 PUSH1 0x8 PUSH0 CALLER PUSH20 0xFFFFFFFFFFFFFFFFFFFFFFFFFFFFFFFFFFFFFFFF AND PUSH20 0xFFFFFFFFFFFFFFFFFFFFFFFFFFFFFFFFFFFFFFFF AND DUP2 MSTORE PUSH1 0x20 ADD SWAP1 DUP2 MSTORE PUSH1 0x20 ADD PUSH0 KECCAK256 DUP2 SWAP1 SSTORE POP POP POP POP JUMP JUMPDEST PUSH1 0xB PUSH0 SWAP1 SLOAD SWAP1 PUSH2 0x100 EXP SWAP1 DIV PUSH20 0xFFFFFFFFFFFFFFFFFFFFFFFFFFFFFFFFFFFFFFFF AND DUP2 JUMP JUMPDEST PUSH1 0x8 PUSH1 0x20 MSTORE DUP1 PUSH0 MSTORE PUSH1 0x40 PUSH0 KECCAK256 PUSH0 SWAP2 POP SWAP1 POP SLOAD DUP2 JUMP JUMPDEST PUSH1 0x60 PUSH0 PUSH1 0x6 SLOAD DUP4 LT PUSH2 0xD45 JUMPI PUSH1 0x40 MLOAD PUSH32 0x8C379A000000000000000000000000000000000000000000000000000000000 DUP2 MSTORE PUSH1 0x4 ADD PUSH2 0xD3C SWAP1 PUSH2 0x2279 JUMP JUMPDEST PUSH1 0x40 MLOAD DUP1 SWAP2 SUB SWAP1 REVERT JUMPDEST PUSH1 0x5 PUSH0 DUP5 DUP2 MSTORE PUSH1 0x20 ADD SWAP1 DUP2 MSTORE PUSH1 0x20 ADD PUSH0 KECCAK256 PUSH0 ADD PUSH1 0x5 PUSH0 DUP6 DUP2 MSTORE PUSH1 0x20 ADD SWAP1 DUP2 MSTORE PUSH1 0x20 ADD PUSH0 KECCAK256 PUSH1 0x2 ADD SLOAD PUSH1 0x5 PUSH0 DUP7 DUP2 MSTORE PUSH1 0x20 ADD SWAP1 DUP2 MSTORE PUSH1 0x20 ADD PUSH0 KECCAK256 PUSH1 0x1 ADD SLOAD PUSH2 0xD8C SWAP2 SWAP1 PUSH2 0x1D8C JUMP JUMPDEST DUP2 DUP1 SLOAD PUSH2 0xD98 SWAP1 PUSH2 0x1E27 JUMP JUMPDEST DUP1 PUSH1 0x1F ADD PUSH1 0x20 DUP1 SWAP2 DIV MUL PUSH1 0x20 ADD PUSH1 0x40 MLOAD SWAP1 DUP2 ADD PUSH1 0x40 MSTORE DUP1 SWAP3 SWAP2 SWAP1 DUP2 DUP2 MSTORE PUSH1 0x20 ADD DUP3 DUP1 SLOAD PUSH2 0xDC4 SWAP1 PUSH2 0x1E27 JUMP JUMPDEST DUP1 ISZERO PUSH2 0xE0F JUMPI DUP1 PUSH1 0x1F LT PUSH2 0xDE6 JUMPI PUSH2 0x100 DUP1 DUP4 SLOAD DIV MUL DUP4 MSTORE SWAP2 PUSH1 0x20 ADD SWAP2 PUSH2 0xE0F JUMP JUMPDEST DUP3 ADD SWAP2 SWAP1 PUSH0 MSTORE PUSH1 0x20 PUSH0 KECCAK256 SWAP1 JUMPDEST DUP2 SLOAD DUP2 MSTORE SWAP1 PUSH1 0x1 ADD SWAP1 PUSH1 0x20 ADD DUP1 DUP4 GT PUSH2 0xDF2 JUMPI DUP3 SWAP1 SUB PUSH1 0x1F AND DUP3 ADD SWAP2 JUMPDEST POP POP POP POP POP SWAP2 POP SWAP2 POP SWAP2 POP SWAP2 POP SWAP2 JUMP JUMPDEST PUSH0 DUP1 DUP1 SLOAD SWAP1 POP SWAP1 POP SWAP1 JUMP JUMPDEST PUSH1 0x3 SLOAD DUP2 JUMP JUMPDEST PUSH1 0xA DUP2 DUP2 SLOAD DUP2 LT PUSH2 0xE3F JUMPI PUSH0 DUP1 REVERT JUMPDEST SWAP1 PUSH0 MSTORE PUSH1 0x20 PUSH0 KECCAK256 SWAP1 PUSH1 0x5 MUL ADD PUSH0 SWAP2 POP SWAP1 POP DUP1 PUSH0 ADD DUP1 SLOAD PUSH2 0xE5E SWAP1 PUSH2 0x1E27 JUMP JUMPDEST DUP1 PUSH1 0x1F ADD PUSH1 0x20 DUP1 SWAP2 DIV MUL PUSH1 0x20 ADD PUSH1 0x40 MLOAD SWAP1 DUP2 ADD PUSH1 0x40 MSTORE DUP1 SWAP3 SWAP2 SWAP1 DUP2 DUP2 MSTORE PUSH1 0x20 ADD DUP3 DUP1 SLOAD PUSH2 0xE8A SWAP1 PUSH2 0x1E27 JUMP JUMPDEST DUP1 ISZERO PUSH2 0xED5 JUMPI DUP1 PUSH1 0x1F LT PUSH2 0xEAC JUMPI PUSH2 0x100 DUP1 DUP4 SLOAD DIV MUL DUP4 MSTORE SWAP2 PUSH1 0x20 ADD SWAP2 PUSH2 0xED5 JUMP JUMPDEST DUP3 ADD SWAP2 SWAP1 PUSH0 MSTORE PUSH1 0x20 PUSH0 KECCAK256 SWAP1 JUMPDEST DUP2 SLOAD DUP2 MSTORE SWAP1 PUSH1 0x1 ADD SWAP1 PUSH1 0x20 ADD DUP1 DUP4 GT PUSH2 0xEB8 JUMPI DUP3 SWAP1 SUB PUSH1 0x1F AND DUP3 ADD SWAP2 JUMPDEST POP POP POP POP POP SWAP1 DUP1 PUSH1 0x1 ADD SLOAD SWAP1 DUP1 PUSH1 0x2 ADD PUSH0 SWAP1 SLOAD SWAP1 PUSH2 0x100 EXP SWAP1 DIV PUSH20 0xFFFFFFFFFFFFFFFFFFFFFFFFFFFFFFFFFFFFFFFF AND SWAP1 DUP1 PUSH1 0x2 ADD PUSH1 0x14 SWAP1 SLOAD SWAP1 PUSH2 0x100 EXP SWAP1 DIV PUSH1 0xFF AND SWAP1 DUP1 PUSH1 0x4 ADD SLOAD SWAP1 POP DUP6 JUMP JUMPDEST PUSH0 PUSH1 0x9 PUSH1 0x1 DUP2 PUSH1 0x1 DUP2 SLOAD ADD DUP1 DUP3 SSTORE DUP1 SWAP2 POP POP SUB SWAP1 PUSH0 MSTORE PUSH1 0x20 PUSH0 KECCAK256 SWAP1 PUSH1 0x3 MUL ADD SWAP1 POP DUP2 DUP2 PUSH0 ADD SWAP1 DUP2 PUSH2 0xF54 SWAP2 SWAP1 PUSH2 0x2160 JUMP JUMPDEST POP PUSH0 DUP2 PUSH1 0x1 ADD PUSH0 PUSH2 0x100 EXP DUP2 SLOAD DUP2 PUSH1 0xFF MUL NOT AND SWAP1 DUP4 ISZERO ISZERO MUL OR SWAP1 SSTORE POP POP POP JUMP JUMPDEST PUSH1 0xB PUSH0 SWAP1 SLOAD SWAP1 PUSH2 0x100 EXP SWAP1 DIV PUSH20 0xFFFFFFFFFFFFFFFFFFFFFFFFFFFFFFFFFFFFFFFF AND PUSH20 0xFFFFFFFFFFFFFFFFFFFFFFFFFFFFFFFFFFFFFFFF AND CALLER PUSH20 0xFFFFFFFFFFFFFFFFFFFFFFFFFFFFFFFFFFFFFFFF AND EQ PUSH2 0xFCC JUMPI PUSH0 DUP1 REVERT JUMPDEST PUSH0 PUSH1 0xA PUSH1 0x1 DUP2 PUSH1 0x1 DUP2 SLOAD ADD DUP1 DUP3 SSTORE DUP1 SWAP2 POP POP SUB SWAP1 PUSH0 MSTORE PUSH1 0x20 PUSH0 KECCAK256 SWAP1 PUSH1 0x5 MUL ADD SWAP1 POP DUP4 DUP2 PUSH0 ADD SWAP1 DUP2 PUSH2 0xFFD SWAP2 SWAP1 PUSH2 0x2160 JUMP JUMPDEST POP DUP3 DUP2 PUSH1 0x1 ADD DUP2 SWAP1 SSTORE POP DUP2 DUP2 PUSH1 0x2 ADD PUSH0 PUSH2 0x100 EXP DUP2 SLOAD DUP2 PUSH20 0xFFFFFFFFFFFFFFFFFFFFFFFFFFFFFFFFFFFFFFFF MUL NOT AND SWAP1 DUP4 PUSH20 0xFFFFFFFFFFFFFFFFFFFFFFFFFFFFFFFFFFFFFFFF AND MUL OR SWAP1 SSTORE POP PUSH0 DUP2 PUSH1 0x2 ADD PUSH1 0x14 PUSH2 0x100 EXP DUP2 SLOAD DUP2 PUSH1 0xFF MUL NOT AND SWAP1 DUP4 ISZERO ISZERO MUL OR SWAP1 SSTORE POP PUSH0 DUP2 PUSH1 0x4 ADD DUP2 SWAP1 SSTORE POP POP POP POP POP JUMP JUMPDEST PUSH0 DUP2 DUP4 PUSH2 0x1081 SWAP2 SWAP1 PUSH2 0x1D8C JUMP JUMPDEST SWAP1 POP DUP1 PUSH1 0x1 PUSH0 DUP3 DUP3 SLOAD PUSH2 0x1094 SWAP2 SWAP1 PUSH2 0x1CC9 JUMP JUMPDEST SWAP3 POP POP DUP2 SWAP1 SSTORE POP PUSH1 0x40 MLOAD DUP1 PUSH1 0x60 ADD PUSH1 0x40 MSTORE DUP1 DUP6 DUP2 MSTORE PUSH1 0x20 ADD DUP5 DUP2 MSTORE PUSH1 0x20 ADD DUP4 DUP2 MSTORE POP PUSH1 0x5 PUSH0 PUSH1 0x6 SLOAD DUP2 MSTORE PUSH1 0x20 ADD SWAP1 DUP2 MSTORE PUSH1 0x20 ADD PUSH0 KECCAK256 PUSH0 DUP3 ADD MLOAD DUP2 PUSH0 ADD SWAP1 DUP2 PUSH2 0x10DC SWAP2 SWAP1 PUSH2 0x2160 JUMP JUMPDEST POP PUSH1 0x20 DUP3 ADD MLOAD DUP2 PUSH1 0x1 ADD SSTORE PUSH1 0x40 DUP3 ADD MLOAD DUP2 PUSH1 0x2 ADD SSTORE SWAP1 POP POP PUSH1 0x6 PUSH0 DUP2 SLOAD DUP1 SWAP3 SWAP2 SWAP1 PUSH2 0x1106 SWAP1 PUSH2 0x2297 JUMP JUMPDEST SWAP2 SWAP1 POP SSTORE POP POP POP POP POP JUMP JUMPDEST PUSH1 0x5 PUSH1 0x20 MSTORE DUP1 PUSH0 MSTORE PUSH1 0x40 PUSH0 KECCAK256 PUSH0 SWAP2 POP SWAP1 POP DUP1 PUSH0 ADD DUP1 SLOAD PUSH2 0x1130 SWAP1 PUSH2 0x1E27 JUMP JUMPDEST DUP1 PUSH1 0x1F ADD PUSH1 0x20 DUP1 SWAP2 DIV MUL PUSH1 0x20 ADD PUSH1 0x40 MLOAD SWAP1 DUP2 ADD PUSH1 0x40 MSTORE DUP1 SWAP3 SWAP2 SWAP1 DUP2 DUP2 MSTORE PUSH1 0x20 ADD DUP3 DUP1 SLOAD PUSH2 0x115C SWAP1 PUSH2 0x1E27 JUMP JUMPDEST DUP1 ISZERO PUSH2 0x11A7 JUMPI DUP1 PUSH1 0x1F LT PUSH2 0x117E JUMPI PUSH2 0x100 DUP1 DUP4 SLOAD DIV MUL DUP4 MSTORE SWAP2 PUSH1 0x20 ADD SWAP2 PUSH2 0x11A7 JUMP JUMPDEST DUP3 ADD SWAP2 SWAP1 PUSH0 MSTORE PUSH1 0x20 PUSH0 KECCAK256 SWAP1 JUMPDEST DUP2 SLOAD DUP2 MSTORE SWAP1 PUSH1 0x1 ADD SWAP1 PUSH1 0x20 ADD DUP1 DUP4 GT PUSH2 0x118A JUMPI DUP3 SWAP1 SUB PUSH1 0x1F AND DUP3 ADD SWAP2 JUMPDEST POP POP POP POP POP SWAP1 DUP1 PUSH1 0x1 ADD SLOAD SWAP1 DUP1 PUSH1 0x2 ADD SLOAD SWAP1 POP DUP4 JUMP JUMPDEST PUSH1 0x7 DUP2 DUP2 SLOAD DUP2 LT PUSH2 0x11CC JUMPI PUSH0 DUP1 REVERT JUMPDEST SWAP1 PUSH0 MSTORE PUSH1 0x20 PUSH0 KECCAK256 SWAP1 PUSH1 0x3 MUL ADD PUSH0 SWAP2 POP SWAP1 POP DUP1 PUSH0 ADD DUP1 SLOAD PUSH2 0x11EB SWAP1 PUSH2 0x1E27 JUMP JUMPDEST DUP1 PUSH1 0x1F ADD PUSH1 0x20 DUP1 SWAP2 DIV MUL PUSH1 0x20 ADD PUSH1 0x40 MLOAD SWAP1 DUP2 ADD PUSH1 0x40 MSTORE DUP1 SWAP3 SWAP2 SWAP1 DUP2 DUP2 MSTORE PUSH1 0x20 ADD DUP3 DUP1 SLOAD PUSH2 0x1217 SWAP1 PUSH2 0x1E27 JUMP JUMPDEST DUP1 ISZERO PUSH2 0x1262 JUMPI DUP1 PUSH1 0x1F LT PUSH2 0x1239 JUMPI PUSH2 0x100 DUP1 DUP4 SLOAD DIV MUL DUP4 MSTORE SWAP2 PUSH1 0x20 ADD SWAP2 PUSH2 0x1262 JUMP JUMPDEST DUP3 ADD SWAP2 SWAP1 PUSH0 MSTORE PUSH1 0x20 PUSH0 KECCAK256 SWAP1 JUMPDEST DUP2 SLOAD DUP2 MSTORE SWAP1 PUSH1 0x1 ADD SWAP1 PUSH1 0x20 ADD DUP1 DUP4 GT PUSH2 0x1245 JUMPI DUP3 SWAP1 SUB PUSH1 0x1F AND DUP3 ADD SWAP2 JUMPDEST POP POP POP POP POP SWAP1 DUP1 PUSH1 0x1 ADD PUSH0 SWAP1 SLOAD SWAP1 PUSH2 0x100 EXP SWAP1 DIV PUSH20 0xFFFFFFFFFFFFFFFFFFFFFFFFFFFFFFFFFFFFFFFF AND SWAP1 POP DUP3 JUMP JUMPDEST PUSH0 PUSH1 0x7 PUSH1 0x8 PUSH0 CALLER PUSH20 0xFFFFFFFFFFFFFFFFFFFFFFFFFFFFFFFFFFFFFFFF AND PUSH20 0xFFFFFFFFFFFFFFFFFFFFFFFFFFFFFFFFFFFFFFFF AND DUP2 MSTORE PUSH1 0x20 ADD SWAP1 DUP2 MSTORE PUSH1 0x20 ADD PUSH0 KECCAK256 SLOAD DUP2 SLOAD DUP2 LT PUSH2 0x12E3 JUMPI PUSH2 0x12E2 PUSH2 0x1DCD JUMP JUMPDEST JUMPDEST SWAP1 PUSH0 MSTORE PUSH1 0x20 PUSH0 KECCAK256 SWAP1 PUSH1 0x3 MUL ADD SWAP1 POP PUSH1 0x40 MLOAD DUP1 PUSH1 0x40 ADD PUSH1 0x40 MSTORE DUP1 DUP5 DUP2 MSTORE PUSH1 0x20 ADD DUP4 DUP2 MSTORE POP DUP2 PUSH1 0x2 ADD DUP6 PUSH1 0x40 MLOAD PUSH2 0x1318 SWAP2 SWAP1 PUSH2 0x1EF9 JUMP JUMPDEST SWAP1 DUP2 MSTORE PUSH1 0x20 ADD PUSH1 0x40 MLOAD DUP1 SWAP2 SUB SWAP1 KECCAK256 PUSH0 DUP3 ADD MLOAD DUP2 PUSH0 ADD SSTORE PUSH1 0x20 DUP3 ADD MLOAD DUP2 PUSH1 0x1 ADD SSTORE SWAP1 POP POP POP POP POP POP JUMP JUMPDEST PUSH1 0x9 DUP2 DUP2 SLOAD DUP2 LT PUSH2 0x1350 JUMPI PUSH0 DUP1 REVERT JUMPDEST SWAP1 PUSH0 MSTORE PUSH1 0x20 PUSH0 KECCAK256 SWAP1 PUSH1 0x3 MUL ADD PUSH0 SWAP2 POP SWAP1 POP DUP1 PUSH0 ADD DUP1 SLOAD PUSH2 0x136F SWAP1 PUSH2 0x1E27 JUMP JUMPDEST DUP1 PUSH1 0x1F ADD PUSH1 0x20 DUP1 SWAP2 DIV MUL PUSH1 0x20 ADD PUSH1 0x40 MLOAD SWAP1 DUP2 ADD PUSH1 0x40 MSTORE DUP1 SWAP3 SWAP2 SWAP1 DUP2 DUP2 MSTORE PUSH1 0x20 ADD DUP3 DUP1 SLOAD PUSH2 0x139B SWAP1 PUSH2 0x1E27 JUMP JUMPDEST DUP1 ISZERO PUSH2 0x13E6 JUMPI DUP1 PUSH1 0x1F LT PUSH2 0x13BD JUMPI PUSH2 0x100 DUP1 DUP4 SLOAD DIV MUL DUP4 MSTORE SWAP2 PUSH1 0x20 ADD SWAP2 PUSH2 0x13E6 JUMP JUMPDEST DUP3 ADD SWAP2 SWAP1 PUSH0 MSTORE PUSH1 0x20 PUSH0 KECCAK256 SWAP1 JUMPDEST DUP2 SLOAD DUP2 MSTORE SWAP1 PUSH1 0x1 ADD SWAP1 PUSH1 0x20 ADD DUP1 DUP4 GT PUSH2 0x13C9 JUMPI DUP3 SWAP1 SUB PUSH1 0x1F AND DUP3 ADD SWAP2 JUMPDEST POP POP POP POP POP SWAP1 DUP1 PUSH1 0x1 ADD PUSH0 SWAP1 SLOAD SWAP1 PUSH2 0x100 EXP SWAP1 DIV PUSH1 0xFF AND SWAP1 POP DUP3 JUMP JUMPDEST PUSH1 0x1 SLOAD DUP2 JUMP JUMPDEST PUSH0 DUP1 CALLVALUE GT PUSH2 0x1414 JUMPI PUSH0 DUP1 REVERT JUMPDEST PUSH1 0x1 PUSH1 0xC PUSH0 CALLER PUSH20 0xFFFFFFFFFFFFFFFFFFFFFFFFFFFFFFFFFFFFFFFF AND PUSH20 0xFFFFFFFFFFFFFFFFFFFFFFFFFFFFFFFFFFFFFFFF AND DUP2 MSTORE PUSH1 0x20 ADD SWAP1 DUP2 MSTORE PUSH1 0x20 ADD PUSH0 KECCAK256 PUSH0 PUSH2 0x100 EXP DUP2 SLOAD DUP2 PUSH1 0xFF MUL NOT AND SWAP1 DUP4 ISZERO ISZERO MUL OR SWAP1 SSTORE POP PUSH1 0xD PUSH0 DUP2 SLOAD DUP1 SWAP3 SWAP2 SWAP1 PUSH2 0x147B SWAP1 PUSH2 0x2297 JUMP JUMPDEST SWAP2 SWAP1 POP SSTORE POP CALLVALUE SWAP1 POP SWAP1 JUMP JUMPDEST PUSH0 PUSH1 0xA DUP3 DUP2 SLOAD DUP2 LT PUSH2 0x149B JUMPI PUSH2 0x149A PUSH2 0x1DCD JUMP JUMPDEST JUMPDEST SWAP1 PUSH0 MSTORE PUSH1 0x20 PUSH0 KECCAK256 SWAP1 PUSH1 0x5 MUL ADD SWAP1 POP PUSH1 0xC PUSH0 CALLER PUSH20 0xFFFFFFFFFFFFFFFFFFFFFFFFFFFFFFFFFFFFFFFF AND PUSH20 0xFFFFFFFFFFFFFFFFFFFFFFFFFFFFFFFFFFFFFFFF AND DUP2 MSTORE PUSH1 0x20 ADD SWAP1 DUP2 MSTORE PUSH1 0x20 ADD PUSH0 KECCAK256 PUSH0 SWAP1 SLOAD SWAP1 PUSH2 0x100 EXP SWAP1 DIV PUSH1 0xFF AND PUSH2 0x14FB JUMPI PUSH0 DUP1 REVERT JUMPDEST DUP1 PUSH1 0x3 ADD PUSH0 CALLER PUSH20 0xFFFFFFFFFFFFFFFFFFFFFFFFFFFFFFFFFFFFFFFF AND PUSH20 0xFFFFFFFFFFFFFFFFFFFFFFFFFFFFFFFFFFFFFFFF AND DUP2 MSTORE PUSH1 0x20 ADD SWAP1 DUP2 MSTORE PUSH1 0x20 ADD PUSH0 KECCAK256 PUSH0 SWAP1 SLOAD SWAP1 PUSH2 0x100 EXP SWAP1 DIV PUSH1 0xFF AND ISZERO PUSH2 0x1550 JUMPI PUSH0 DUP1 REVERT JUMPDEST PUSH1 0x1 DUP2 PUSH1 0x3 ADD PUSH0 CALLER PUSH20 0xFFFFFFFFFFFFFFFFFFFFFFFFFFFFFFFFFFFFFFFF AND PUSH20 0xFFFFFFFFFFFFFFFFFFFFFFFFFFFFFFFFFFFFFFFF AND DUP2 MSTORE PUSH1 0x20 ADD SWAP1 DUP2 MSTORE PUSH1 0x20 ADD PUSH0 KECCAK256 PUSH0 PUSH2 0x100 EXP DUP2 SLOAD DUP2 PUSH1 0xFF MUL NOT AND SWAP1 DUP4 ISZERO ISZERO MUL OR SWAP1 SSTORE POP DUP1 PUSH1 0x4 ADD PUSH0 DUP2 SLOAD DUP1 SWAP3 SWAP2 SWAP1 PUSH2 0x15BB SWAP1 PUSH2 0x2297 JUMP JUMPDEST SWAP2 SWAP1 POP SSTORE POP POP POP JUMP JUMPDEST PUSH1 0xD SLOAD DUP2 JUMP JUMPDEST PUSH1 0x2 SLOAD DUP2 JUMP JUMPDEST PUSH0 PUSH1 0x40 MLOAD SWAP1 POP SWAP1 JUMP JUMPDEST PUSH0 DUP1 REVERT JUMPDEST PUSH0 DUP1 REVERT JUMPDEST PUSH0 DUP2 SWAP1 POP SWAP2 SWAP1 POP JUMP JUMPDEST PUSH2 0x15F3 DUP2 PUSH2 0x15E1 JUMP JUMPDEST DUP2 EQ PUSH2 0x15FD JUMPI PUSH0 DUP1 REVERT JUMPDEST POP JUMP JUMPDEST PUSH0 DUP2 CALLDATALOAD SWAP1 POP PUSH2 0x160E DUP2 PUSH2 0x15EA JUMP JUMPDEST SWAP3 SWAP2 POP POP JUMP JUMPDEST PUSH0 DUP1 PUSH0 PUSH1 0x60 DUP5 DUP7 SUB SLT ISZERO PUSH2 0x162B JUMPI PUSH2 0x162A PUSH2 0x15D9 JUMP JUMPDEST JUMPDEST PUSH0 PUSH2 0x1638 DUP7 DUP3 DUP8 ADD PUSH2 0x1600 JUMP JUMPDEST SWAP4 POP POP PUSH1 0x20 PUSH2 0x1649 DUP7 DUP3 DUP8 ADD PUSH2 0x1600 JUMP JUMPDEST SWAP3 POP POP PUSH1 0x40 PUSH2 0x165A DUP7 DUP3 DUP8 ADD PUSH2 0x1600 JUMP JUMPDEST SWAP2 POP POP SWAP3 POP SWAP3 POP SWAP3 JUMP JUMPDEST PUSH2 0x166D DUP2 PUSH2 0x15E1 JUMP JUMPDEST DUP3 MSTORE POP POP JUMP JUMPDEST PUSH0 PUSH1 0x20 DUP3 ADD SWAP1 POP PUSH2 0x1686 PUSH0 DUP4 ADD DUP5 PUSH2 0x1664 JUMP JUMPDEST SWAP3 SWAP2 POP POP JUMP JUMPDEST PUSH0 PUSH1 0x20 DUP3 DUP5 SUB SLT ISZERO PUSH2 0x16A1 JUMPI PUSH2 0x16A0 PUSH2 0x15D9 JUMP JUMPDEST JUMPDEST PUSH0 PUSH2 0x16AE DUP5 DUP3 DUP6 ADD PUSH2 0x1600 JUMP JUMPDEST SWAP2 POP POP SWAP3 SWAP2 POP POP JUMP JUMPDEST PUSH0 PUSH20 0xFFFFFFFFFFFFFFFFFFFFFFFFFFFFFFFFFFFFFFFF DUP3 AND SWAP1 POP SWAP2 SWAP1 POP JUMP JUMPDEST PUSH0 PUSH2 0x16E0 DUP3 PUSH2 0x16B7 JUMP JUMPDEST SWAP1 POP SWAP2 SWAP1 POP JUMP JUMPDEST PUSH2 0x16F0 DUP2 PUSH2 0x16D6 JUMP JUMPDEST DUP2 EQ PUSH2 0x16FA JUMPI PUSH0 DUP1 REVERT JUMPDEST POP JUMP JUMPDEST PUSH0 DUP2 CALLDATALOAD SWAP1 POP PUSH2 0x170B DUP2 PUSH2 0x16E7 JUMP JUMPDEST SWAP3 SWAP2 POP POP JUMP JUMPDEST PUSH0 PUSH1 0x20 DUP3 DUP5 SUB SLT ISZERO PUSH2 0x1726 JUMPI PUSH2 0x1725 PUSH2 0x15D9 JUMP JUMPDEST JUMPDEST PUSH0 PUSH2 0x1733 DUP5 DUP3 DUP6 ADD PUSH2 0x16FD JUMP JUMPDEST SWAP2 POP POP SWAP3 SWAP2 POP POP JUMP JUMPDEST PUSH0 DUP2 ISZERO ISZERO SWAP1 POP SWAP2 SWAP1 POP JUMP JUMPDEST PUSH2 0x1750 DUP2 PUSH2 0x173C JUMP JUMPDEST DUP3 MSTORE POP POP JUMP JUMPDEST PUSH0 PUSH1 0x20 DUP3 ADD SWAP1 POP PUSH2 0x1769 PUSH0 DUP4 ADD DUP5 PUSH2 0x1747 JUMP JUMPDEST SWAP3 SWAP2 POP POP JUMP JUMPDEST PUSH2 0x1778 DUP2 PUSH2 0x16D6 JUMP JUMPDEST DUP3 MSTORE POP POP JUMP JUMPDEST PUSH0 DUP2 MLOAD SWAP1 POP SWAP2 SWAP1 POP JUMP JUMPDEST PUSH0 DUP3 DUP3 MSTORE PUSH1 0x20 DUP3 ADD SWAP1 POP SWAP3 SWAP2 POP POP JUMP JUMPDEST PUSH0 JUMPDEST DUP4 DUP2 LT ISZERO PUSH2 0x17B5 JUMPI DUP1 DUP3 ADD MLOAD DUP2 DUP5 ADD MSTORE PUSH1 0x20 DUP2 ADD SWAP1 POP PUSH2 0x179A JUMP JUMPDEST PUSH0 DUP5 DUP5 ADD MSTORE POP POP POP POP JUMP JUMPDEST PUSH0 PUSH1 0x1F NOT PUSH1 0x1F DUP4 ADD AND SWAP1 POP SWAP2 SWAP1 POP JUMP JUMPDEST PUSH0 PUSH2 0x17DA DUP3 PUSH2 0x177E JUMP JUMPDEST PUSH2 0x17E4 DUP2 DUP6 PUSH2 0x1788 JUMP JUMPDEST SWAP4 POP PUSH2 0x17F4 DUP2 DUP6 PUSH1 0x20 DUP7 ADD PUSH2 0x1798 JUMP JUMPDEST PUSH2 0x17FD DUP2 PUSH2 0x17C0 JUMP JUMPDEST DUP5 ADD SWAP2 POP POP SWAP3 SWAP2 POP POP JUMP JUMPDEST PUSH0 PUSH1 0xA0 DUP3 ADD SWAP1 POP PUSH2 0x181B PUSH0 DUP4 ADD DUP9 PUSH2 0x176F JUMP JUMPDEST PUSH2 0x1828 PUSH1 0x20 DUP4 ADD DUP8 PUSH2 0x1664 JUMP JUMPDEST DUP2 DUP2 SUB PUSH1 0x40 DUP4 ADD MSTORE PUSH2 0x183A DUP2 DUP7 PUSH2 0x17D0 JUMP JUMPDEST SWAP1 POP PUSH2 0x1849 PUSH1 0x60 DUP4 ADD DUP6 PUSH2 0x1664 JUMP JUMPDEST PUSH2 0x1856 PUSH1 0x80 DUP4 ADD DUP5 PUSH2 0x1664 JUMP JUMPDEST SWAP7 SWAP6 POP POP POP POP POP POP JUMP JUMPDEST PUSH0 DUP1 REVERT JUMPDEST PUSH0 DUP1 REVERT JUMPDEST PUSH32 0x4E487B7100000000000000000000000000000000000000000000000000000000 PUSH0 MSTORE PUSH1 0x41 PUSH1 0x4 MSTORE PUSH1 0x24 PUSH0 REVERT JUMPDEST PUSH2 0x189E DUP3 PUSH2 0x17C0 JUMP JUMPDEST DUP2 ADD DUP2 DUP2 LT PUSH8 0xFFFFFFFFFFFFFFFF DUP3 GT OR ISZERO PUSH2 0x18BD JUMPI PUSH2 0x18BC PUSH2 0x1868 JUMP JUMPDEST JUMPDEST DUP1 PUSH1 0x40 MSTORE POP POP POP JUMP JUMPDEST PUSH0 PUSH2 0x18CF PUSH2 0x15D0 JUMP JUMPDEST SWAP1 POP PUSH2 0x18DB DUP3 DUP3 PUSH2 0x1895 JUMP JUMPDEST SWAP2 SWAP1 POP JUMP JUMPDEST PUSH0 PUSH8 0xFFFFFFFFFFFFFFFF DUP3 GT ISZERO PUSH2 0x18FA JUMPI PUSH2 0x18F9 PUSH2 0x1868 JUMP JUMPDEST JUMPDEST PUSH2 0x1903 DUP3 PUSH2 0x17C0 JUMP JUMPDEST SWAP1 POP PUSH1 0x20 DUP2 ADD SWAP1 POP SWAP2 SWAP1 POP JUMP JUMPDEST DUP3 DUP2 DUP4 CALLDATACOPY PUSH0 DUP4 DUP4 ADD MSTORE POP POP POP JUMP JUMPDEST PUSH0 PUSH2 0x1930 PUSH2 0x192B DUP5 PUSH2 0x18E0 JUMP JUMPDEST PUSH2 0x18C6 JUMP JUMPDEST SWAP1 POP DUP3 DUP2 MSTORE PUSH1 0x20 DUP2 ADD DUP5 DUP5 DUP5 ADD GT ISZERO PUSH2 0x194C JUMPI PUSH2 0x194B PUSH2 0x1864 JUMP JUMPDEST JUMPDEST PUSH2 0x1957 DUP5 DUP3 DUP6 PUSH2 0x1910 JUMP JUMPDEST POP SWAP4 SWAP3 POP POP POP JUMP JUMPDEST PUSH0 DUP3 PUSH1 0x1F DUP4 ADD SLT PUSH2 0x1973 JUMPI PUSH2 0x1972 PUSH2 0x1860 JUMP JUMPDEST JUMPDEST DUP2 CALLDATALOAD PUSH2 0x1983 DUP5 DUP3 PUSH1 0x20 DUP7 ADD PUSH2 0x191E JUMP JUMPDEST SWAP2 POP POP SWAP3 SWAP2 POP POP JUMP JUMPDEST PUSH0 PUSH1 0x20 DUP3 DUP5 SUB SLT ISZERO PUSH2 0x19A1 JUMPI PUSH2 0x19A0 PUSH2 0x15D9 JUMP JUMPDEST JUMPDEST PUSH0 DUP3 ADD CALLDATALOAD PUSH8 0xFFFFFFFFFFFFFFFF DUP2 GT ISZERO PUSH2 0x19BE JUMPI PUSH2 0x19BD PUSH2 0x15DD JUMP JUMPDEST JUMPDEST PUSH2 0x19CA DUP5 DUP3 DUP6 ADD PUSH2 0x195F JUMP JUMPDEST SWAP2 POP POP SWAP3 SWAP2 POP POP JUMP JUMPDEST PUSH0 PUSH1 0x40 DUP3 ADD SWAP1 POP PUSH2 0x19E6 PUSH0 DUP4 ADD DUP6 PUSH2 0x1664 JUMP JUMPDEST PUSH2 0x19F3 PUSH1 0x20 DUP4 ADD DUP5 PUSH2 0x1664 JUMP JUMPDEST SWAP4 SWAP3 POP POP POP JUMP JUMPDEST PUSH0 DUP1 PUSH0 DUP1 PUSH0 PUSH1 0xA0 DUP7 DUP9 SUB SLT ISZERO PUSH2 0x1A13 JUMPI PUSH2 0x1A12 PUSH2 0x15D9 JUMP JUMPDEST JUMPDEST PUSH0 PUSH2 0x1A20 DUP9 DUP3 DUP10 ADD PUSH2 0x16FD JUMP JUMPDEST SWAP6 POP POP PUSH1 0x20 PUSH2 0x1A31 DUP9 DUP3 DUP10 ADD PUSH2 0x1600 JUMP JUMPDEST SWAP5 POP POP PUSH1 0x40 DUP7 ADD CALLDATALOAD PUSH8 0xFFFFFFFFFFFFFFFF DUP2 GT ISZERO PUSH2 0x1A52 JUMPI PUSH2 0x1A51 PUSH2 0x15DD JUMP JUMPDEST JUMPDEST PUSH2 0x1A5E DUP9 DUP3 DUP10 ADD PUSH2 0x195F JUMP JUMPDEST SWAP4 POP POP PUSH1 0x60 PUSH2 0x1A6F DUP9 DUP3 DUP10 ADD PUSH2 0x1600 JUMP JUMPDEST SWAP3 POP POP PUSH1 0x80 PUSH2 0x1A80 DUP9 DUP3 DUP10 ADD PUSH2 0x1600 JUMP JUMPDEST SWAP2 POP POP SWAP3 SWAP6 POP SWAP3 SWAP6 SWAP1 SWAP4 POP JUMP JUMPDEST PUSH0 PUSH1 0x20 DUP3 ADD SWAP1 POP PUSH2 0x1AA0 PUSH0 DUP4 ADD DUP5 PUSH2 0x176F JUMP JUMPDEST SWAP3 SWAP2 POP POP JUMP JUMPDEST PUSH0 PUSH1 0x40 DUP3 ADD SWAP1 POP DUP2 DUP2 SUB PUSH0 DUP4 ADD MSTORE PUSH2 0x1ABE DUP2 DUP6 PUSH2 0x17D0 JUMP JUMPDEST SWAP1 POP PUSH2 0x1ACD PUSH1 0x20 DUP4 ADD DUP5 PUSH2 0x1664 JUMP JUMPDEST SWAP4 SWAP3 POP POP POP JUMP JUMPDEST PUSH0 PUSH1 0xA0 DUP3 ADD SWAP1 POP DUP2 DUP2 SUB PUSH0 DUP4 ADD MSTORE PUSH2 0x1AEC DUP2 DUP9 PUSH2 0x17D0 JUMP JUMPDEST SWAP1 POP PUSH2 0x1AFB PUSH1 0x20 DUP4 ADD DUP8 PUSH2 0x1664 JUMP JUMPDEST PUSH2 0x1B08 PUSH1 0x40 DUP4 ADD DUP7 PUSH2 0x176F JUMP JUMPDEST PUSH2 0x1B15 PUSH1 0x60 DUP4 ADD DUP6 PUSH2 0x1747 JUMP JUMPDEST PUSH2 0x1B22 PUSH1 0x80 DUP4 ADD DUP5 PUSH2 0x1664 JUMP JUMPDEST SWAP7 SWAP6 POP POP POP POP POP POP JUMP JUMPDEST PUSH0 DUP1 PUSH0 PUSH1 0x60 DUP5 DUP7 SUB SLT ISZERO PUSH2 0x1B43 JUMPI PUSH2 0x1B42 PUSH2 0x15D9 JUMP JUMPDEST JUMPDEST PUSH0 DUP5 ADD CALLDATALOAD PUSH8 0xFFFFFFFFFFFFFFFF DUP2 GT ISZERO PUSH2 0x1B60 JUMPI PUSH2 0x1B5F PUSH2 0x15DD JUMP JUMPDEST JUMPDEST PUSH2 0x1B6C DUP7 DUP3 DUP8 ADD PUSH2 0x195F JUMP JUMPDEST SWAP4 POP POP PUSH1 0x20 PUSH2 0x1B7D DUP7 DUP3 DUP8 ADD PUSH2 0x1600 JUMP JUMPDEST SWAP3 POP POP PUSH1 0x40 PUSH2 0x1B8E DUP7 DUP3 DUP8 ADD PUSH2 0x16FD JUMP JUMPDEST SWAP2 POP POP SWAP3 POP SWAP3 POP SWAP3 JUMP JUMPDEST PUSH0 DUP1 PUSH0 PUSH1 0x60 DUP5 DUP7 SUB SLT ISZERO PUSH2 0x1BAF JUMPI PUSH2 0x1BAE PUSH2 0x15D9 JUMP JUMPDEST JUMPDEST PUSH0 DUP5 ADD CALLDATALOAD PUSH8 0xFFFFFFFFFFFFFFFF DUP2 GT ISZERO PUSH2 0x1BCC JUMPI PUSH2 0x1BCB PUSH2 0x15DD JUMP JUMPDEST JUMPDEST PUSH2 0x1BD8 DUP7 DUP3 DUP8 ADD PUSH2 0x195F JUMP JUMPDEST SWAP4 POP POP PUSH1 0x20 PUSH2 0x1BE9 DUP7 DUP3 DUP8 ADD PUSH2 0x1600 JUMP JUMPDEST SWAP3 POP POP PUSH1 0x40 PUSH2 0x1BFA DUP7 DUP3 DUP8 ADD PUSH2 0x1600 JUMP JUMPDEST SWAP2 POP POP SWAP3 POP SWAP3 POP SWAP3 JUMP JUMPDEST PUSH0 PUSH1 0x60 DUP3 ADD SWAP1 POP DUP2 DUP2 SUB PUSH0 DUP4 ADD MSTORE PUSH2 0x1C1C DUP2 DUP7 PUSH2 0x17D0 JUMP JUMPDEST SWAP1 POP PUSH2 0x1C2B PUSH1 0x20 DUP4 ADD DUP6 PUSH2 0x1664 JUMP JUMPDEST PUSH2 0x1C38 PUSH1 0x40 DUP4 ADD DUP5 PUSH2 0x1664 JUMP JUMPDEST SWAP5 SWAP4 POP POP POP POP JUMP JUMPDEST PUSH0 PUSH1 0x40 DUP3 ADD SWAP1 POP DUP2 DUP2 SUB PUSH0 DUP4 ADD MSTORE PUSH2 0x1C58 DUP2 DUP6 PUSH2 0x17D0 JUMP JUMPDEST SWAP1 POP PUSH2 0x1C67 PUSH1 0x20 DUP4 ADD DUP5 PUSH2 0x176F JUMP JUMPDEST SWAP4 SWAP3 POP POP POP JUMP JUMPDEST PUSH0 PUSH1 0x40 DUP3 ADD SWAP1 POP DUP2 DUP2 SUB PUSH0 DUP4 ADD MSTORE PUSH2 0x1C86 DUP2 DUP6 PUSH2 0x17D0 JUMP JUMPDEST SWAP1 POP PUSH2 0x1C95 PUSH1 0x20 DUP4 ADD DUP5 PUSH2 0x1747 JUMP JUMPDEST SWAP4 SWAP3 POP POP POP JUMP JUMPDEST PUSH32 0x4E487B7100000000000000000000000000000000000000000000000000000000 PUSH0 MSTORE PUSH1 0x11 PUSH1 0x4 MSTORE PUSH1 0x24 PUSH0 REVERT JUMPDEST PUSH0 PUSH2 0x1CD3 DUP3 PUSH2 0x15E1 JUMP JUMPDEST SWAP2 POP PUSH2 0x1CDE DUP4 PUSH2 0x15E1 JUMP JUMPDEST SWAP3 POP DUP3 DUP3 ADD SWAP1 POP DUP1 DUP3 GT ISZERO PUSH2 0x1CF6 JUMPI PUSH2 0x1CF5 PUSH2 0x1C9C JUMP JUMPDEST JUMPDEST SWAP3 SWAP2 POP POP JUMP JUMPDEST PUSH0 PUSH2 0x1D06 DUP3 PUSH2 0x15E1 JUMP JUMPDEST SWAP2 POP PUSH2 0x1D11 DUP4 PUSH2 0x15E1 JUMP JUMPDEST SWAP3 POP DUP3 DUP3 SUB SWAP1 POP DUP2 DUP2 GT ISZERO PUSH2 0x1D29 JUMPI PUSH2 0x1D28 PUSH2 0x1C9C JUMP JUMPDEST JUMPDEST SWAP3 SWAP2 POP POP JUMP JUMPDEST PUSH32 0x4E487B7100000000000000000000000000000000000000000000000000000000 PUSH0 MSTORE PUSH1 0x12 PUSH1 0x4 MSTORE PUSH1 0x24 PUSH0 REVERT JUMPDEST PUSH0 PUSH2 0x1D66 DUP3 PUSH2 0x15E1 JUMP JUMPDEST SWAP2 POP PUSH2 0x1D71 DUP4 PUSH2 0x15E1 JUMP JUMPDEST SWAP3 POP DUP3 PUSH2 0x1D81 JUMPI PUSH2 0x1D80 PUSH2 0x1D2F JUMP JUMPDEST JUMPDEST DUP3 DUP3 DIV SWAP1 POP SWAP3 SWAP2 POP POP JUMP JUMPDEST PUSH0 PUSH2 0x1D96 DUP3 PUSH2 0x15E1 JUMP JUMPDEST SWAP2 POP PUSH2 0x1DA1 DUP4 PUSH2 0x15E1 JUMP JUMPDEST SWAP3 POP DUP3 DUP3 MUL PUSH2 0x1DAF DUP2 PUSH2 0x15E1 JUMP JUMPDEST SWAP2 POP DUP3 DUP3 DIV DUP5 EQ DUP4 ISZERO OR PUSH2 0x1DC6 JUMPI PUSH2 0x1DC5 PUSH2 0x1C9C JUMP JUMPDEST JUMPDEST POP SWAP3 SWAP2 POP POP JUMP JUMPDEST PUSH32 0x4E487B7100000000000000000000000000000000000000000000000000000000 PUSH0 MSTORE PUSH1 0x32 PUSH1 0x4 MSTORE PUSH1 0x24 PUSH0 REVERT JUMPDEST PUSH32 0x4E487B7100000000000000000000000000000000000000000000000000000000 PUSH0 MSTORE PUSH1 0x22 PUSH1 0x4 MSTORE PUSH1 0x24 PUSH0 REVERT JUMPDEST PUSH0 PUSH1 0x2 DUP3 DIV SWAP1 POP PUSH1 0x1 DUP3 AND DUP1 PUSH2 0x1E3E JUMPI PUSH1 0x7F DUP3 AND SWAP2 POP JUMPDEST PUSH1 0x20 DUP3 LT DUP2 SUB PUSH2 0x1E51 JUMPI PUSH2 0x1E50 PUSH2 0x1DFA JUMP JUMPDEST JUMPDEST POP SWAP2 SWAP1 POP JUMP JUMPDEST PUSH32 0x496E76616C696420706172746E657220616464726573732E0000000000000000 PUSH0 DUP3 ADD MSTORE POP JUMP JUMPDEST PUSH0 PUSH2 0x1E8B PUSH1 0x18 DUP4 PUSH2 0x1788 JUMP JUMPDEST SWAP2 POP PUSH2 0x1E96 DUP3 PUSH2 0x1E57 JUMP JUMPDEST PUSH1 0x20 DUP3 ADD SWAP1 POP SWAP2 SWAP1 POP JUMP JUMPDEST PUSH0 PUSH1 0x20 DUP3 ADD SWAP1 POP DUP2 DUP2 SUB PUSH0 DUP4 ADD MSTORE PUSH2 0x1EB8 DUP2 PUSH2 0x1E7F JUMP JUMPDEST SWAP1 POP SWAP2 SWAP1 POP JUMP JUMPDEST PUSH0 DUP2 SWAP1 POP SWAP3 SWAP2 POP POP JUMP JUMPDEST PUSH0 PUSH2 0x1ED3 DUP3 PUSH2 0x177E JUMP JUMPDEST PUSH2 0x1EDD DUP2 DUP6 PUSH2 0x1EBF JUMP JUMPDEST SWAP4 POP PUSH2 0x1EED DUP2 DUP6 PUSH1 0x20 DUP7 ADD PUSH2 0x1798 JUMP JUMPDEST DUP1 DUP5 ADD SWAP2 POP POP SWAP3 SWAP2 POP POP JUMP JUMPDEST PUSH0 PUSH2 0x1F04 DUP3 DUP5 PUSH2 0x1EC9 JUMP JUMPDEST SWAP2 POP DUP2 SWAP1 POP SWAP3 SWAP2 POP POP JUMP JUMPDEST PUSH32 0x596F7572204C696D697420636F6E736F6D6174696F6E206D7573742062652068 PUSH0 DUP3 ADD MSTORE PUSH32 0x6967686572207468616E20796F757220757375616C20436F6E736F6D6174696F PUSH1 0x20 DUP3 ADD MSTORE PUSH32 0x6E00000000000000000000000000000000000000000000000000000000000000 PUSH1 0x40 DUP3 ADD MSTORE POP JUMP JUMPDEST PUSH0 PUSH2 0x1F8F PUSH1 0x41 DUP4 PUSH2 0x1788 JUMP JUMPDEST SWAP2 POP PUSH2 0x1F9A DUP3 PUSH2 0x1F0F JUMP JUMPDEST PUSH1 0x60 DUP3 ADD SWAP1 POP SWAP2 SWAP1 POP JUMP JUMPDEST PUSH0 PUSH1 0x20 DUP3 ADD SWAP1 POP DUP2 DUP2 SUB PUSH0 DUP4 ADD MSTORE PUSH2 0x1FBC DUP2 PUSH2 0x1F83 JUMP JUMPDEST SWAP1 POP SWAP2 SWAP1 POP JUMP JUMPDEST PUSH0 DUP2 SWAP1 POP DUP2 PUSH0 MSTORE PUSH1 0x20 PUSH0 KECCAK256 SWAP1 POP SWAP2 SWAP1 POP JUMP JUMPDEST PUSH0 PUSH1 0x20 PUSH1 0x1F DUP4 ADD DIV SWAP1 POP SWAP2 SWAP1 POP JUMP JUMPDEST PUSH0 DUP3 DUP3 SHL SWAP1 POP SWAP3 SWAP2 POP POP JUMP JUMPDEST PUSH0 PUSH1 0x8 DUP4 MUL PUSH2 0x201F PUSH32 0xFFFFFFFFFFFFFFFFFFFFFFFFFFFFFFFFFFFFFFFFFFFFFFFFFFFFFFFFFFFFFFFF DUP3 PUSH2 0x1FE4 JUMP JUMPDEST PUSH2 0x2029 DUP7 DUP4 PUSH2 0x1FE4 JUMP JUMPDEST SWAP6 POP DUP1 NOT DUP5 AND SWAP4 POP DUP1 DUP7 AND DUP5 OR SWAP3 POP POP POP SWAP4 SWAP3 POP POP POP JUMP JUMPDEST PUSH0 DUP2 SWAP1 POP SWAP2 SWAP1 POP JUMP JUMPDEST PUSH0 PUSH2 0x2064 PUSH2 0x205F PUSH2 0x205A DUP5 PUSH2 0x15E1 JUMP JUMPDEST PUSH2 0x2041 JUMP JUMPDEST PUSH2 0x15E1 JUMP JUMPDEST SWAP1 POP SWAP2 SWAP1 POP JUMP JUMPDEST PUSH0 DUP2 SWAP1 POP SWAP2 SWAP1 POP JUMP JUMPDEST PUSH2 0x207D DUP4 PUSH2 0x204A JUMP JUMPDEST PUSH2 0x2091 PUSH2 0x2089 DUP3 PUSH2 0x206B JUMP JUMPDEST DUP5 DUP5 SLOAD PUSH2 0x1FF0 JUMP JUMPDEST DUP3 SSTORE POP POP POP POP JUMP JUMPDEST PUSH0 SWAP1 JUMP JUMPDEST PUSH2 0x20A5 PUSH2 0x2099 JUMP JUMPDEST PUSH2 0x20B0 DUP2 DUP5 DUP5 PUSH2 0x2074 JUMP JUMPDEST POP POP POP JUMP JUMPDEST JUMPDEST DUP2 DUP2 LT ISZERO PUSH2 0x20D3 JUMPI PUSH2 0x20C8 PUSH0 DUP3 PUSH2 0x209D JUMP JUMPDEST PUSH1 0x1 DUP2 ADD SWAP1 POP PUSH2 0x20B6 JUMP JUMPDEST POP POP JUMP JUMPDEST PUSH1 0x1F DUP3 GT ISZERO PUSH2 0x2118 JUMPI PUSH2 0x20E9 DUP2 PUSH2 0x1FC3 JUMP JUMPDEST PUSH2 0x20F2 DUP5 PUSH2 0x1FD5 JUMP JUMPDEST DUP2 ADD PUSH1 0x20 DUP6 LT ISZERO PUSH2 0x2101 JUMPI DUP2 SWAP1 POP JUMPDEST PUSH2 0x2115 PUSH2 0x210D DUP6 PUSH2 0x1FD5 JUMP JUMPDEST DUP4 ADD DUP3 PUSH2 0x20B5 JUMP JUMPDEST POP POP JUMPDEST POP POP POP JUMP JUMPDEST PUSH0 DUP3 DUP3 SHR SWAP1 POP SWAP3 SWAP2 POP POP JUMP JUMPDEST PUSH0 PUSH2 0x2138 PUSH0 NOT DUP5 PUSH1 0x8 MUL PUSH2 0x211D JUMP JUMPDEST NOT DUP1 DUP4 AND SWAP2 POP POP SWAP3 SWAP2 POP POP JUMP JUMPDEST PUSH0 PUSH2 0x2150 DUP4 DUP4 PUSH2 0x2129 JUMP JUMPDEST SWAP2 POP DUP3 PUSH1 0x2 MUL DUP3 OR SWAP1 POP SWAP3 SWAP2 POP POP JUMP JUMPDEST PUSH2 0x2169 DUP3 PUSH2 0x177E JUMP JUMPDEST PUSH8 0xFFFFFFFFFFFFFFFF DUP2 GT ISZERO PUSH2 0x2182 JUMPI PUSH2 0x2181 PUSH2 0x1868 JUMP JUMPDEST JUMPDEST PUSH2 0x218C DUP3 SLOAD PUSH2 0x1E27 JUMP JUMPDEST PUSH2 0x2197 DUP3 DUP3 DUP6 PUSH2 0x20D7 JUMP JUMPDEST PUSH0 PUSH1 0x20 SWAP1 POP PUSH1 0x1F DUP4 GT PUSH1 0x1 DUP2 EQ PUSH2 0x21C8 JUMPI PUSH0 DUP5 ISZERO PUSH2 0x21B6 JUMPI DUP3 DUP8 ADD MLOAD SWAP1 POP JUMPDEST PUSH2 0x21C0 DUP6 DUP3 PUSH2 0x2145 JUMP JUMPDEST DUP7 SSTORE POP PUSH2 0x2227 JUMP JUMPDEST PUSH1 0x1F NOT DUP5 AND PUSH2 0x21D6 DUP7 PUSH2 0x1FC3 JUMP JUMPDEST PUSH0 JUMPDEST DUP3 DUP2 LT ISZERO PUSH2 0x21FD JUMPI DUP5 DUP10 ADD MLOAD DUP3 SSTORE PUSH1 0x1 DUP3 ADD SWAP2 POP PUSH1 0x20 DUP6 ADD SWAP5 POP PUSH1 0x20 DUP2 ADD SWAP1 POP PUSH2 0x21D8 JUMP JUMPDEST DUP7 DUP4 LT ISZERO PUSH2 0x221A JUMPI DUP5 DUP10 ADD MLOAD PUSH2 0x2216 PUSH1 0x1F DUP10 AND DUP3 PUSH2 0x2129 JUMP JUMPDEST DUP4 SSTORE POP JUMPDEST PUSH1 0x1 PUSH1 0x2 DUP9 MUL ADD DUP9 SSTORE POP POP POP JUMPDEST POP POP POP POP POP POP JUMP JUMPDEST PUSH32 0x496E64657820696E76616C696465000000000000000000000000000000000000 PUSH0 DUP3 ADD MSTORE POP JUMP JUMPDEST PUSH0 PUSH2 0x2263 PUSH1 0xE DUP4 PUSH2 0x1788 JUMP JUMPDEST SWAP2 POP PUSH2 0x226E DUP3 PUSH2 0x222F JUMP JUMPDEST PUSH1 0x20 DUP3 ADD SWAP1 POP SWAP2 SWAP1 POP JUMP JUMPDEST PUSH0 PUSH1 0x20 DUP3 ADD SWAP1 POP DUP2 DUP2 SUB PUSH0 DUP4 ADD MSTORE PUSH2 0x2290 DUP2 PUSH2 0x2257 JUMP JUMPDEST SWAP1 POP SWAP2 SWAP1 POP JUMP JUMPDEST PUSH0 PUSH2 0x22A1 DUP3 PUSH2 0x15E1 JUMP JUMPDEST SWAP2 POP PUSH32 0xFFFFFFFFFFFFFFFFFFFFFFFFFFFFFFFFFFFFFFFFFFFFFFFFFFFFFFFFFFFFFFFF DUP3 SUB PUSH2 0x22D3 JUMPI PUSH2 0x22D2 PUSH2 0x1C9C JUMP JUMPDEST JUMPDEST PUSH1 0x1 DUP3 ADD SWAP1 POP SWAP2 SWAP1 POP JUMP INVALID LOG2 PUSH5 0x6970667358 0x22 SLT KECCAK256 BLOCKHASH 0xA9 DIV 0xDF 0x26 0xF7 0xE1 BASEFEE 0xDE 0x5C SLT PUSH18 0x2F0A2645C3E048107B7F9F57A86EC54E0A97 SLT DUP11 PUSH5 0x736F6C6343 STOP ADDMOD ISZERO STOP CALLER "},"gasEstimates":{"creation":{"codeDepositCost":"1796000","executionCost":"1889","totalCost":"1797889"},"external":{"PartnerOffers(uint256)":"infinite","ajouterAppareil(string,uint256,uint256)":"infinite","ajouterMarquePanneau(string,uint256,uint256)":"infinite","ajouterPartenaire(string)":"infinite","appareils(uint256)":"infinite","approveRequest(uint256)":"infinite","approvers(address)":"2879","approvsCount()":"2513","calculerConsommation(uint256,uint256,uint256)":"infinite","calculerPrixInstallation(uint256,uint256,uint256)":"infinite","campaigns(uint256)":"infinite","consommationTotale()":"2514","contribute()":"infinite","createCampaign(address,uint256,string,uint256,uint256)":"infinite","createOfferPAr(string)":"infinite","createRequest(string,uint256,address)":"infinite","finalizeRequest(uint256)":"infinite","getCampaignCount()":"2551","getConsommationParAppareil(uint256)":"infinite","getMarquePanneauForPartenaire(string)":"infinite","listePartenaires(address)":"2869","manager()":"2553","nombreAppareils()":"2515","nombreChambres()":"2493","nombrePersonnes()":"2535","partenaires(uint256)":"infinite","requests(uint256)":"infinite","surfaceMaison()":"2471"}},"methodIdentifiers":{"PartnerOffers(uint256)":"a4a66431","ajouterAppareil(string,uint256,uint256)":"91cf26f6","ajouterMarquePanneau(string,uint256,uint256)":"a37189cb","ajouterPartenaire(string)":"46b8df2e","appareils(uint256)":"962e7f62","approveRequest(uint256)":"d7d1bbdb","approvers(address)":"0a144391","approvsCount()":"fc81f5ad","calculerConsommation(uint256,uint256,uint256)":"0600d8fc","calculerPrixInstallation(uint256,uint256,uint256)":"00b0d0d5","campaigns(uint256)":"141961bc","consommationTotale()":"aaa17235","contribute()":"d7bb99ba","createCampaign(address,uint256,string,uint256,uint256)":"21e51b51","createOfferPAr(string)":"87859ad0","createRequest(string,uint256,address)":"8a9cfd55","finalizeRequest(uint256)":"03441006","getCampaignCount()":"6caa9218","getConsommationParAppareil(uint256)":"6c9ff6b9","getMarquePanneauForPartenaire(string)":"208b7e9a","listePartenaires(address)":"4cda853b","manager()":"481c6a75","nombreAppareils()":"15a252e3","nombreChambres()":"22fa19bc","nombrePersonnes()":"fd958403","partenaires(uint256)":"9d7cdd6f","requests(uint256)":"81d12c58","surfaceMaison()":"792cac3b"}},"storageLayout":{"storage":[{"astId":16,"contract":"Campaign.sol:Campaign","label":"campaigns","offset":0,"slot":"0","type":"t_array(t_struct(CampaignInfo)12_storage)dyn_storage"},{"astId":18,"contract":"Campaign.sol:Campaign","label":"consommationTotale","offset":0,"slot":"1","type":"t_uint256"},{"astId":20,"contract":"Campaign.sol:Campaign","label":"nombrePersonnes","offset":0,"slot":"2","type":"t_uint256"},{"astId":22,"contract":"Campaign.sol:Campaign","label":"surfaceMaison","offset":0,"slot":"3","type":"t_uint256"},{"astId":24,"contract":"Campaign.sol:Campaign","label":"nombreChambres","offset":0,"slot":"4","type":"t_uint256"},{"astId":29,"contract":"Campaign.sol:Campaign","label":"appareils","offset":0,"slot":"5","type":"t_mapping(t_uint256,t_struct(Appareil)38_storage)"},{"astId":31,"contract":"Campaign.sol:Campaign","label":"nombreAppareils","offset":0,"slot":"6","type":"t_uint256"},{"astId":57,"contract":"Campaign.sol:Campaign","label":"partenaires","offset":0,"slot":"7","type":"t_array(t_struct(Partenaire)48_storage)dyn_storage"},{"astId":61,"contract":"Campaign.sol:Campaign","label":"listePartenaires","offset":0,"slot":"8","type":"t_mapping(t_address,t_uint256)"},{"astId":89,"contract":"Campaign.sol:Campaign","label":"PartnerOffers","offset":0,"slot":"9","type":"t_array(t_struct(PartnerOffer)85_storage)dyn_storage"},{"astId":93,"contract":"Campaign.sol:Campaign","label":"requests","offset":0,"slot":"10","type":"t_array(t_struct(Request)76_storage)dyn_storage"},{"astId":95,"contract":"Campaign.sol:Campaign","label":"manager","offset":0,"slot":"11","type":"t_address"},{"astId":99,"contract":"Campaign.sol:Campaign","label":"approvers","offset":0,"slot":"12","type":"t_mapping(t_address,t_bool)"},{"astId":101,"contract":"Campaign.sol:Campaign","label":"approvsCount","offset":0,"slot":"13","type":"t_uint256"},{"astId":103,"contract":"Campaign.sol:Campaign","label":"ProjectAmount","offset":0,"slot":"14","type":"t_uint256"}],"types":{"t_address":{"encoding":"inplace","label":"address","numberOfBytes":"20"},"t_array(t_struct(CampaignInfo)12_storage)dyn_storage":{"base":"t_struct(CampaignInfo)12_storage","encoding":"dynamic_array","label":"struct Campaign.CampaignInfo[]","numberOfBytes":"32"},"t_array(t_struct(Partenaire)48_storage)dyn_storage":{"base":"t_struct(Partenaire)48_storage","encoding":"dynamic_array","label":"struct Campaign.Partenaire[]","numberOfBytes":"32"},"t_array(t_struct(PartnerOffer)85_storage)dyn_storage":{"base":"t_struct(PartnerOffer)85_storage","encoding":"dynamic_array","label":"struct Campaign.PartnerOffer[]","numberOfBytes":"32"},"t_array(t_struct(Request)76_storage)dyn_storage":{"base":"t_struct(Request)76_storage","encoding":"dynamic_array","label":"struct Campaign.Request[]","numberOfBytes":"32"},"t_bool":{"encoding":"inplace","label":"bool","numberOfBytes":"1"},"t_mapping(t_address,t_bool)":{"encoding":"mapping","key":"t_address","label":"mapping(address => bool)","numberOfBytes":"32","value":"t_bool"},"t_mapping(t_address,t_uint256)":{"encoding":"mapping","key":"t_address","label":"mapping(address => uint256)","numberOfBytes":"32","value":"t_uint256"},"t_mapping(t_string_memory_ptr,t_struct(MarquePanneau)53_storage)":{"encoding":"mapping","key":"t_string_memory_ptr","label":"mapping(string => struct Campaign.MarquePanneau)","numberOfBytes":"32","value":"t_struct(MarquePanneau)53_storage"},"t_mapping(t_string_memory_ptr,t_uint256)":{"encoding":"mapping","key":"t_string_memory_ptr","label":"mapping(string => uint256)","numberOfBytes":"32","value":"t_uint256"},"t_mapping(t_uint256,t_struct(Appareil)38_storage)":{"encoding":"mapping","key":"t_uint256","label":"mapping(uint256 => struct Campaign.Appareil)","numberOfBytes":"32","value":"t_struct(Appareil)38_storage"},"t_string_memory_ptr":{"encoding":"bytes","label":"string","numberOfBytes":"32"},"t_string_storage":{"encoding":"bytes","label":"string","numberOfBytes":"32"},"t_struct(Appareil)38_storage":{"encoding":"inplace","label":"struct Campaign.Appareil","members":[{"astId":33,"contract":"Campaign.sol:Campaign","label":"nomAppareil","offset":0,"slot":"0","type":"t_string_storage"},{"astId":35,"contract":"Campaign.sol:Campaign","label":"puissance","offset":0,"slot":"1","type":"t_uint256"},{"astId":37,"contract":"Campaign.sol:Campaign","label":"heuresUtilisation","offset":0,"slot":"2","type":"t_uint256"}],"numberOfBytes":"96"},"t_struct(CampaignInfo)12_storage":{"encoding":"inplace","label":"struct Campaign.CampaignInfo","members":[{"astId":3,"contract":"Campaign.sol:Campaign","label":"projectOwner","offset":0,"slot":"0","type":"t_address"},{"astId":5,"contract":"Campaign.sol:Campaign","label":"consomationYear","offset":0,"slot":"1","type":"t_uint256"},{"astId":7,"contract":"Campaign.sol:Campaign","label":"description","offset":0,"slot":"2","type":"t_string_storage"},{"astId":9,"contract":"Campaign.sol:Campaign","label":"limiteconsomation","offset":0,"slot":"3","type":"t_uint256"},{"astId":11,"contract":"Campaign.sol:Campaign","label":"joursOffre","offset":0,"slot":"4","type":"t_uint256"}],"numberOfBytes":"160"},"t_struct(MarquePanneau)53_storage":{"encoding":"inplace","label":"struct Campaign.MarquePanneau","members":[{"astId":50,"contract":"Campaign.sol:Campaign","label":"prix","offset":0,"slot":"0","type":"t_uint256"},{"astId":52,"contract":"Campaign.sol:Campaign","label":"production","offset":0,"slot":"1","type":"t_uint256"}],"numberOfBytes":"64"},"t_struct(Partenaire)48_storage":{"encoding":"inplace","label":"struct Campaign.Partenaire","members":[{"astId":40,"contract":"Campaign.sol:Campaign","label":"nomPartenaire","offset":0,"slot":"0","type":"t_string_storage"},{"astId":42,"contract":"Campaign.sol:Campaign","label":"PartenaireAddress","offset":0,"slot":"1","type":"t_address"},{"astId":47,"contract":"Campaign.sol:Campaign","label":"marques","offset":0,"slot":"2","type":"t_mapping(t_string_memory_ptr,t_struct(MarquePanneau)53_storage)"}],"numberOfBytes":"96"},"t_struct(PartnerOffer)85_storage":{"encoding":"inplace","label":"struct Campaign.PartnerOffer","members":[{"astId":78,"contract":"Campaign.sol:Campaign","label":"description","offset":0,"slot":"0","type":"t_string_storage"},{"astId":80,"contract":"Campaign.sol:Campaign","label":"choixPart","offset":0,"slot":"1","type":"t_bool"},{"astId":84,"contract":"Campaign.sol:Campaign","label":"Paneaus","offset":0,"slot":"2","type":"t_mapping(t_string_memory_ptr,t_uint256)"}],"numberOfBytes":"96"},"t_struct(Request)76_storage":{"encoding":"inplace","label":"struct Campaign.Request","members":[{"astId":63,"contract":"Campaign.sol:Campaign","label":"description","offset":0,"slot":"0","type":"t_string_storage"},{"astId":65,"contract":"Campaign.sol:Campaign","label":"value","offset":0,"slot":"1","type":"t_uint256"},{"astId":67,"contract":"Campaign.sol:Campaign","label":"recipient","offset":0,"slot":"2","type":"t_address"},{"astId":69,"contract":"Campaign.sol:Campaign","label":"complete","offset":20,"slot":"2","type":"t_bool"},{"astId":73,"contract":"Campaign.sol:Campaign","label":"approvals","offset":0,"slot":"3","type":"t_mapping(t_address,t_bool)"},{"astId":75,"contract":"Campaign.sol:Campaign","label":"approvalCount","offset":0,"slot":"4","type":"t_uint256"}],"numberOfBytes":"160"},"t_uint256":{"encoding":"inplace","label":"uint256","numberOfBytes":"32"}}},"userdoc":{"kind":"user","methods":{},"version":1}}